:04000000B0EF0CF061
:100E0000005265643A20256420477265656E3A2079
:100E1000256420426C75653A20256420436C656129
:090E2000723A202564200D000047
:100E2A001EC034F01FC035F020C036F021C037F0A4
:100E3A0022C038F023C039F024C03AF025C03BF074
:100E4A003BBE2AEF07F02DEF07F0010E2EEF07F059
:100E5A00000E3E6E3E50D8B435EF07F037EF07F07C
:100E6A0047EF07F03B1E3A1E391E381E371E361E44
:100E7A00351E346C000E35223622372238223922AA
:100E8A003A223B22000177BF55EF07F0775106E17E
:100E9A007605D8B053EF07F055EF07F05BEF07F090
:100EAA00000E316E010E306E5FEF07F076C030F043
:100EBA0077C031F074C032F075C033F03E50D8B408
:100ECA0069EF07F06BEF07F082EF07F03206D8A060
:100EDA0033063E50D8A474EF07F076EF07F07CEFA4
:100EEA0007F0000E2F6E2B0E2E6E80EF07F0000E0D
:100EFA002F6E2D0E2E6E2EC03EF0000E3D6E1F0E72
:100F0A003C6E000E9B6F06EF08F03C06D8A03D062B
:100F1A007C0E3C24D96E000E3D20DA6E34C001F0FE
:100F2A0035C002F036C003F037C004F038C005F00F
:100F3A0039C006F03AC007F03BC008F00A0E096E45
:100F4A00000E0A6E000E0B6E000E0C6E000E0D6E79
:100F5A00000E0E6E000E0F6E000E106E17EC09F0EA
:100F6A0001C026F002C027F003C028F004C029F00F
:100F7A0005C02AF006C02BF007C02CF008C02DF0DF
:100F8A0026C013F027C014F072EC0CF01350300F87
:100F9A00DF6E3006D8A031063206D8A0330634C038
:100FAA0001F035C002F036C003F037C004F038C093
:100FBA0005F039C006F03AC007F03BC008F00A0E47
:100FCA00096E000E0A6E000E0B6E000E0C6E000EFD
:100FDA000D6E000E0E6E000E0F6E000E106E53ECAC
:100FEA0008F001C034F002C035F003C036F004C086
:100FFA0037F005C038F006C039F007C03AF008C02B
:10100A003BF03DBE11EF08F03D5008E13C04D8A08A
:10101A0011EF08F013EF08F02FEF08F034503510F5
:10102A0036103710381039103A103B10D8A420EF78
:10103A0008F022EF08F08AEF07F031BE2FEF08F030
:10104A00315006E13004D8B02DEF08F02FEF08F048
:10105A008AEF07F03E50D8B435EF08F037EF08F0C2
:10106A0042EF08F03C06D8A03D067C0E3C24D96E1F
:10107A00000E3D20DA6E3EC0DFFF1CC011F01DC01D
:10108A0012F07C0E3C24136E000E3D20146E32C00A
:10109A0015F033C016F0D5EC0AF01200000E126EED
:1010AA0010BE5CEF08F05AEF08F06EEF08F0101E61
:1010BA000F1E0E1E0D1E0C1E0B1E0A1E096C000EA4
:1010CA000A220B220C220D220E220F221022010EBE
:1010DA00126E08BE75EF08F073EF08F087EF08F09C
:1010EA00081E071E061E051E041E031E021E016C94
:1010FA00000E0222032204220522062207220822C7
:10110A00010E121A20EE13F0070EDE6AE806FDE25F
:10111A0009500A100B100C100D100E100F101010A1
:10112A00D8B49AEF08F09CEF08F0EEEF08F0010E41
:10113A00116EAAEF08F0D89009360A360B360C362B
:10114A000D360E360F361036112A10AEAFEF08F0F4
:10115A00B1EF08F0A0EF08F0D89013361436153620
:10116A0016361736183619361A360950015C0A50DF
:10117A0002580B5003580C5004580D5005580E5085
:10118A0006580F50075810500858D8A0CFEF08F04B
:10119A00D1EF08F0E2EF08F00950015E0A50025A56
:1011AA000B50035A0C50045A0D50055A0E50065A49
:1011BA000F50075A1050085A1380D89010320F3225
:1011CA000E320D320C320B320A320932112EB1EFC5
:1011DA0008F01250D8B4F4EF08F0F6EF08F006EF72
:1011EA0009F01A1E191E181E171E161E151E141E89
:1011FA00136C000E14221522162217221822192205
:10120A001A2213C001F014C002F015C003F016C070
:10121A0004F017C005F018C006F019C007F01AC08C
:10122A0008F01200000E126E08BE20EF09F01EEF41
:10123A0009F032EF09F0081E071E061E051E041EDD
:10124A00031E021E016C000E022203220422052242
:10125A00062207220822010E126E10BE39EF09F08B
:10126A0037EF09F049EF09F0101E0F1E0E1E0D1E72
:10127A000C1E0B1E0A1E096C000E0A220B220C22DF
:10128A000D220E220F22102209500A100B100C10E8
:10129A000D100E100F101010D8B456EF09F058EFB9
:1012AA0009F0A0EF09F0010E116E66EF09F0D8906F
:1012BA0009360A360B360C360D360E360F36103610
:1012CA00112A10AE6BEF09F06DEF09F05CEF09F02F
:1012DA000950015C0A5002580B5003580C5004582C
:1012EA000D5005580E5006580F5007581050085800
:1012FA00D8A082EF09F084EF09F094EF09F00950C1
:10130A00015E0A50025A0B50035A0C50045A0D50EF
:10131A00055A0E50065A0F50075A1050085AD890BC
:10132A0010320F320E320D320C320B320A320932BF
:10133A00112E6DEF09F01250D8B4A6EF09F0A8EFFC
:10134A0009F0B8EF09F0081E071E061E051E041E46
:10135A00031E021E016C000E022203220422052231
:10136A0006220722082201C001F002C002F003C0CF
:10137A0003F004C004F005C005F006C006F007C07B
:10138A0007F008C008F0120041C0D9FF42C0DAFFD6
:10139A00DECFF6FFDDCFF7FF0800F550250AD8A407
:1013AA00D9EF09F0DBEF09F05BEF0AF041C0D9FF92
:1013BA0042C0DAFFDE2A000EDD22000E0001756F40
:1013CA00000E746F74C078F07669776941C0D9FFEE
:1013DA0042C0DAFFDECF4FF0DDCF50F04FC0F6FF4C
:1013EA0050C0F7FF0800F550640AD8B4FFEF09F0BF
:1013FA0001EF0AF00FEF0AF04FC0F6FF50C0F7FFF7
:10140A000800F550690AD8A40DEF0AF00FEF0AF0A8
:10141A0052EF0AF043C0D9FF44C0DAFFDFCF45F0EC
:10142A00020EDE26DFCF46F0000EDD2245C0D9FFD0
:10143A0046C0DAFFDECF47F0DDCF48F0000E48BEE7
:10144A00FF0E496E4A6E4B6E4C6E4D6E4E6E010E1D
:10145A004F24456E000E5020466E41C0D9FF42C04F
:10146A00DAFF45C0DEFF46C0DDFF3FC01CF040C0CA
:10147A001DF047C01EF048C01FF049C020F04AC006
:10148A0021F04BC022F04CC023F04DC024F04EC0D6
:10149A0025F015EC07F06FEF0AF041C0D9FF42C002
:1014AA00DAFFDE2A000EDD226FEF0AF041C0D9FF13
:1014BA0042C0DAFFDECFF6FFDDCFF7FF0800F550B6
:1014CA00016E026A3FC003F040C004F070EC0AF0FB
:1014DA0052EF0AF0120003500410D8B477EF0AF062
:1014EA0079EF0AF082EF0AF003500410D8A480EFD3
:1014FA000AF082EF0AF087EF0AF001506EEC0DF065
:10150A00D4EF0AF020EE09F00350D9260450DA226B
:10151A00DE50DE10D8B494EF0AF096EF0AF0B1EF7D
:10152A000AF020EE09F00350D9260450DA2210EE10
:10153A0003F00350E1260450E222DE50E65CE65056
:10154A00800A096EDE50800A0958D8B0AFEF0AF057
:10155A00B1EF0AF0D4EF0AF020EE03F00350D926D7
:10156A000450DA22DECF05F0DDCF06F003C0D9FF42
:10157A0004C0DAFFDECF07F0DDCF08F005500724FC
:10158A00D96E06500820DA6E01C0DFFF20EE03F0A4
:10159A000350D9260450DA22DE2A000EDD22120078
:1015AA0016BEDAEF0AF0DCEF0AF0E2EF0AF015C035
:1015BA001AF016C01BF0E6EF0AF0000E1B6E000EC2
:1015CA001A6E000E196E000E186EF8EF0AF0000E71
:1015DA00026E200E016E11C003F012C004F070EC0E
:1015EA000AF0184A192A1A50185C1950800A176EFC
:1015FA001B50800A1758D8A005EF0BF007EF0BF025
:10160A00ECEF0AF013C00AF014C00BF011C00CF092
:10161A0012C00DF02FEC0CF012002CEC0DF0E9ECDE
:10162A000CF003EC0DF0B70E596E000E5A6E68EC12
:10163A000BF005505B6E90EC0BF005505C6EE0EC25
:10164A000BF005505D6EB8EC0BF005505E6E92EC37
:10165A000CF0520E0001B66F2B0EB56F000EE82E7D
:10166A00FED7B52FFCD7B62FFAD700F018EF0BF03C
:10167A0000EF00F0A00E0001A86F000EA96F9CC039
:10168A00AAF09DC0ABF0000EAE6F000EAD6F000E5B
:10169A00B46F000EB36FAA0E516E000E526E9EC04A
:1016AA0053F09FC054F0A80E556E000E566E08EC0B
:1016BA000CF00001AD519C25D96EAE519D21DA6E18
:1016CA00000EDF6E120069EC0DF0520E59EC0DF0AF
:1016DA00B60E59EC0DF05FEC0DF0530E59EC0DF00F
:1016EA00010E51EC0CF0076E07500A6E0B6A000EE1
:1016FA0051EC0CF0076E0750096E086A0A50081080
:10170A000A6E0B5009100B6E64EC0DF00AC005F05E
:10171A000BC006F0120069EC0DF0520E59EC0DF0F8
:10172A00B80E59EC0DF05FEC0DF0530E59EC0DF0BC
:10173A00010E51EC0CF0076E07500A6E0B6A000E90
:10174A0051EC0CF0076E0750096E086A0A5008102F
:10175A000A6E0B5009100B6E64EC0DF00AC005F00E
:10176A000BC006F0120069EC0DF0520E59EC0DF0A8
:10177A00B40E59EC0DF05FEC0DF0530E59EC0DF070
:10178A00010E51EC0CF0076E07500A6E0B6A000E40
:10179A0051EC0CF0076E0750096E086A0A500810DF
:1017AA000A6E0B5009100B6E64EC0DF00AC005F0BE
:1017BA000BC006F0120069EC0DF0520E59EC0DF058
:1017CA00BA0E59EC0DF05FEC0DF0530E59EC0DF01A
:1017DA00010E51EC0CF0076E07500A6E0B6A000EF0
:1017EA0051EC0CF0076E0750096E086A0A5008108F
:1017FA000A6E0B5009100B6E64EC0DF00AC005F06E
:10180A000BC006F0120053C057F054C058F01CEF3A
:10181A000CF051C03FF052C040F0570E416E000E1E
:10182A00426E55C043F056C044F0C9EC09F057C0A7
:10183A00F6FF58C0F7FF0800F5500009D8A428EFB2
:10184A000CF02AEF0CF00EEF0CF0000E526E000EA8
:10185A00516E1200000E106E000E0F6E40EF0CF06B
:10186A000EC001F0026A0CC003F00DC004F070EC67
:10187A000AF00F4A102A0F500A24D96E10500B2072
:10188A00DA6EDF500E6E0E50D8A44EEF0CF050EF09
:10189A000CF035EF0CF01200036E18EC0DF00E018F
:1018AA00DA8718EC0DF0D5CE04F018EC0DF00350E1
:1018BA00D8B462EF0CF066EF0CF0026A022A67EF06
:1018CA000CF0026A023A02460E01DA510218DF0BE4
:1018DA000218DA6FDA890450120014BE7FEF0CF096
:1018EA00145006E11304D8B07DEF0CF07FEF0CF032
:1018FA008DEF0CF013C015F014C016F0151E161E4D
:10190A00154A162A15C013F016C014F091EF0CF000
:10191A0013C013F014C014F0120059C09CF05AC03E
:10192A009DF0010E00019E6F0E0E9F6F5BC0A0F02E
:10193A00A16B5CC0A2F0A36B5DC0A4F0A56B5EC0F6
:10194A00A6F0A76B3FEC0BF059C002F05AC003F0A7
:10195A00CDEC0CF01200DE0EF66E1A0EF76E000ECB
:10196A00F86E0900F5CFD5F001EE00F03C0EEE6AF4
:10197A00E806FDE100EE60F03C0EEE6AE806FDE1E5
:10198A005F6A000EF86E0E0EF76E000112EF0BF092
:10199A00DCEF0CF002C0D9FF03C0DAFFDF504DECD8
:1019AA000DF0024A032A6A0EE82EFED700D002C0C2
:1019BA00D9FF03C0DAFFDF50D8A4E6EF0CF0E8EF56
:1019CA000CF0CFEF0CF0120003EC0DF0010E036ED9
:1019DA00000E3DEC0DF03F0E056E550EE82EFED7BB
:1019EA00052EFCD700F0030E036E000E3DEC0DF041
:1019FA00D50E036E010E3DEC0DF012000E01D95109
:101A0A00F00B0809D96FD98B9F0ED66F848A848C04
:101A1A00A79BA79D1D0E1D6F1E0E1C6F1C0E6F6FC0
:101A2A001B0E706F12000E01D8B51EEF0DF020EFDD
:101A3A000DF018EF0DF0DACE01F01F0E0116D8A442
:101A4A0029EF0DF02BEF0DF018EF0DF0120083883F
:101A5A008382120E0E01626F110E156FE997E895D7
:101A6A00330EE56F000EE66FE789E88BE78F120009
:101A7A00046E69EC0DF0520E59EC0DF00450800919
:101A8A0059EC0DF0035059EC0DF064EC0DF0120016
:101A9A00016E0E0137A554EF0DF056EF0DF04EEF23
:101AAA000DF001C0E4FE1200026E18EC0DF002C047
:101ABA00D5FE120018EC0DF00E01DA83120018ECB4
:101ACA000DF00E01DA85120018EC0DF00E01DA8124
:051ADA001200120001E2
:020000040020DA
:10000000FF0FFF0FFF0FFF0FFF0FFF0FFF0FFF0F80
:020000040030CA
:0C000000AAFFFFFF9FFFFFFFFFFFFFFFB5
:00000001FF
