:040000005BEF1FF0A3
:100E000000436F6C6F757220697320257320200D6D
:100E1000004C6967687420426C7565004461726BB0
:100E200020426C7565004567677368656C6C004FA0
:100E300072616E67650059656C6C6F77004772650B
:100E4000656E0050696E6B006C6C730052656400D7
:010E500000A1
:100E520057C0D9FF58C0DAFFDECF01F0DECF02F073
:100E6200DECF03F0DECF04F020EE04F05750D92697
:100E72005850DA22DECF05F0DECF06F0DECF07F0E3
:100E8200DECF08F013EC1BF0D8A04AEF07F04CEFCE
:100E920007F07FEF07F057C0D9FF58C0DAFFDECF67
:100EA20001F0DECF02F0DECF03F0DECF04F020EE61
:100EB20008F05750D9265850DA22DECF05F0DECF9F
:100EC20006F0DECF07F0DECF08F013EC1BF0D8A05F
:100ED2006DEF07F06FEF07F07FEF07F020EE10F0F5
:100EE2005750D9265850DA22000EDE6E000EDE6E02
:100EF200000EDE6E000EDD6EA9EF0AF0000E00019C
:100F0200746F000E736F57C0D9FF58C0DAFFDECF7F
:100F120001F0DECF02F0DECF03F0DECF04F020EEF0
:100F220004F05750D9265850DA22DECF05F0DECF32
:100F320006F0DECF07F0DECF08F0E9EC18F0D8B00B
:100F4200A5EF07F0A7EF07F0DEEF07F057C0D9FFD4
:100F520058C0DAFFDECF01F0DECF02F0DECF03F0C1
:100F6200DECF04F020EE08F05750D9265850DA228E
:100F7200DECF05F0DECF06F0DECF07F0DECF08F0E1
:100F8200E9EC18F0D8B0C8EF07F0CAEF07F0DEEFCF
:100F920007F057C0D9FF58C0DAFFDECF01F0DECF2D
:100FA20002F0DECF03F0DECF04F066EC18F001C0F1
:100FB20073F002C074F050EF08F020EE04F05750C6
:100FC200D9265850DA22DECF01F0DECF02F0DECF92
:100FD20003F0DECF04F057C0D9FF58C0DAFFDECFEE
:100FE20005F0DECF06F0DECF07F0DECF08F0E9EC49
:100FF20018F0D8B0FFEF07F001EF08F03CEF08F06F
:1010020020EE04F05750D9265850DA22DECF01F0F4
:10101200DECF02F0DECF03F0DECF04F020EE08F0E8
:101022005750D9265850DA22DECF05F0DECF06F02F
:10103200DECF07F0DECF08F0E9EC18F0D8B024EFED
:1010420008F026EF08F03CEF08F020EE04F05750CD
:10105200D9265850DA22DECF01F0DECF02F0DECF01
:1010620003F0DECF04F066EC18F001C073F002C0AA
:1010720074F050EF08F020EE08F05750D92658507F
:10108200DA22DECF01F0DECF02F0DECF03F0DECFD8
:1010920004F066EC18F001C073F002C074F020EEA8
:1010A20004F05750D9265850DA22DECF01F0DECFB5
:1010B20002F0DECF03F0DECF04F057C0D9FF58C0F4
:1010C200DAFFDECF05F0DECF06F0DECF07F0DECFAF
:1010D20008F0E9EC18F0D8B071EF08F073EF08F0FF
:1010E2000DEF09F020EE08F05750D9265850DA22B9
:1010F200DECF01F0DECF02F0DECF03F0DECF04F070
:1011020057C0D9FF58C0DAFFDECF05F0DECF06F0B8
:10111200DECF07F0DECF08F0E9EC18F0D8B094EF9C
:1011220008F096EF08F00DEF09F057C0D9FF58C04C
:10113200DAFFDECF01F0DECF02F0DECF03F0DECF4A
:1011420004F066EC18F001C071F002C072F0000108
:101152007351715D596E745172595A6E59C00CF0C7
:101162005AC00DF0000E0DBEFF0E0E6E0F6E010E78
:1011720045EC14F00CC036F00DC037F00EC038F05C
:101182000FC039F020EE08F05750D9265850DA2215
:10119200DECF2EF0DECF2FF0DECF30F0DECF31F01B
:1011A20020EE04F05750D9265850DA22DECF2AF02A
:1011B200DECF2BF0DECF2CF0DECF2DF0C4EC20F012
:1011C2002AC032F02BC033F02CC034F02DC035F0E1
:1011D20097EC11F032C04BF033C04CF034C04DF0FC
:1011E20035C04EF0000E4F6E000E506E700E516EF6
:1011F200420E526E81EC0FF020EE10F05750D926BD
:101202005850DA224BC0DEFF4CC0DEFF4DC0DEFF7D
:101212004EC0DEFF75EF0AF057C0D9FF58C0DAFFA3
:10122200DECF01F0DECF02F0DECF03F0DECF04F03E
:1012320020EE04F05750D9265850DA22DECF05F0BE
:10124200DECF06F0DECF07F0DECF08F0E9EC18F0D3
:10125200D8B02EEF09F030EF09F0E6EF09F020EEFA
:1012620008F05750D9265850DA22DECF01F0DECFEF
:1012720002F0DECF03F0DECF04F020EE04F0575090
:10128200D9265850DA22DECF05F0DECF06F0DECFC7
:1012920007F0DECF08F0E9EC18F0D8B053EF09F010
:1012A20055EF09F0E6EF09F020EE04F05750D92689
:1012B2005850DA22DECF01F0DECF02F0DECF03F0AB
:1012C200DECF04F066EC18F001C071F002C072F0DB
:1012D20000017351715D596E745172595A6E59C041
:1012E2000CF05AC00DF0000E0DBEFF0E0E6E0F6E0A
:1012F200010E45EC14F00CC036F00DC037F00EC0F4
:1013020038F00FC039F057C0D9FF58C0DAFFDECF2E
:101312002EF0DECF2FF0DECF30F0DECF31F020EE38
:1013220008F05750D9265850DA22DECF2AF0DECF05
:101332002BF0DECF2CF0DECF2DF0C4EC20F02AC053
:1013420032F02BC033F02CC034F02DC035F097ECC6
:1013520011F032C06DF033C06EF034C06FF035C0A2
:1013620070F0000E1E6E000E1F6E000E206E400EFC
:10137200216E6DC01AF06EC01BF06FC01CF070C001
:101382001DF021EC0DF01AC04BF01BC04CF01CC03C
:101392004DF01DC04EF0000E4F6E000E506E700EDE
:1013A200516E420E526E81EC0FF020EE10F057504B
:1013B200D9265850DA224BC0DEFF4CC0DEFF4DC0AA
:1013C200DEFF4EC0DEFF75EF0AF020EE08F0575048
:1013D200D9265850DA22DECF01F0DECF02F0DECF7E
:1013E20003F0DECF04F066EC18F001C071F002C029
:1013F20072F000017351715D596E745172595A6ED7
:1014020059C00CF05AC00DF0000E0DBEFF0E0E6E4C
:101412000F6E010E45EC14F00CC036F00DC037F023
:101422000EC038F00FC039F020EE04F05750D92624
:101432005850DA22DECF2EF0DECF2FF0DECF30F0A2
:10144200DECF31F057C0D9FF58C0DAFFDECF2AF025
:10145200DECF2BF0DECF2CF0DECF2DF0C4EC20F06F
:101462002AC032F02BC033F02CC034F02DC035F03E
:1014720097EC11F032C06DF033C06EF034C06FF0F3
:1014820035C070F0000E1E6E000E1F6E800E206EB4
:10149200400E216E6DC01AF06EC01BF06FC01CF0C2
:1014A20070C01DF021EC0DF01AC04BF01BC04CF0C7
:1014B2001CC04DF01DC04EF0000E4F6E000E506E5F
:1014C200700E516E420E526E81EC0FF020EE10F053
:1014D2005750D9265850DA224BC0DEFF4CC0DEFFEF
:1014E2004DC0DEFF4EC0DEFF20EE10F05750D92671
:1014F2005850DA22030EDBBE83EF0AF081EF0AF0C6
:10150200A9EF0AF020EE10F05750D9265850DA22EF
:10151200DECF1AF0DECF1BF0DECF1CF0DECF1DF0E7
:10152200000E1E6E000E1F6EB40E206E430E216E54
:1015320021EC0DF020EE10F05750D9265850DA2247
:101542001AC0DEFF1BC0DEFF1CC0DEFF1DC0DEFFB7
:101552001200100E0F6E0E0E106E000E016E000EB7
:10156200026EB00E036E430E046E20EE10F00D50AC
:10157200D9260E50DA22DECF05F0DECF06F0DECF1E
:1015820007F0DECF08F0E9EC18F0D8B0CBEF0AF0A4
:10159200CDEF0AF0FAEF0AF020EE10F00D50D92646
:1015A2000E50DA22DECF01F0DECF02F0DECF03F002
:1015B200DECF04F0000E056E000E066EB40E076E4E
:1015C200430E086EE9EC18F0D8B0EAEF0AF0ECEF3F
:1015D2000AF0FAEF0AF04C0E0F6E0E0E106E20EEAD
:1015E20014F00D50D9260E50DA22000EDE6E000ED7
:1015F200DD6E000E016E000E026E960E036E420E3E
:10160200046E20EE10F00D50D9260E50DA22DECFF5
:1016120005F0DECF06F0DECF07F0DECF08F0E9EC12
:1016220018F0D8B017EF0BF019EF0BF048EF0BF0F2
:1016320020EE10F00D50D9260E50DA22DECF01F046
:10164200DECF02F0DECF03F0DECF04F0000E056E37
:10165200000E066E9E0E076E420E086EE9EC18F042
:10166200D8B036EF0BF038EF0BF048EF0BF03D0E31
:101672000F6E0E0E106E20EE14F00D50D9260E5085
:10168200DA22010EDE6E000EDD6E1CEF0DF0000E92
:10169200016E000E026E110E036E430E046E20EEFA
:1016A20010F00D50D9260E50DA22DECF05F0DECF33
:1016B20006F0DECF07F0DECF08F0E9EC18F0D8B084
:1016C20065EF0BF067EF0BF096EF0BF020EE10F0EA
:1016D2000D50D9260E50DA22DECF01F0DECF02F015
:1016E200DECF03F0DECF04F0000E056E000E066EB4
:1016F200240E076E430E086EE9EC18F0D8B084EFA2
:101702000BF086EF0BF096EF0BF01C0E0F6E0E0E29
:10171200106E20EE14F00D50D9260E50DA22020E71
:10172200DE6E000EDD6E1CEF0DF0000E016E000E7F
:10173200026EA80E036E410E046E20EE10F00D50E4
:10174200D9260E50DA22DECF05F0DECF06F0DECF4C
:1017520007F0DECF08F0E9EC18F0D8B0B3EF0BF0E9
:10176200B5EF0BF0E4EF0BF020EE10F00D50D926A0
:101772000E50DA22DECF01F0DECF02F0DECF03F030
:10178200DECF04F0000E056E000E066EC80E076E68
:10179200410E086EE9EC18F0D8B0D2EF0BF0D4EF9E
:1017A2000BF0E4EF0BF0360E0F6E0E0E106E20EE05
:1017B20014F00D50D9260E50DA22030EDE6E000E02
:1017C200DD6E1CEF0DF0000E016E000E026E700E4B
:1017D200036E410E046E20EE10F00D50D9260E500D
:1017E200DA22DECF05F0DECF06F0DECF07F0DECF65
:1017F20008F0E9EC18F0D8B001EF0CF003EF0CF0B0
:1018020032EF0CF020EE10F00D50D9260E50DA22F5
:10181200DECF01F0DECF02F0DECF03F0DECF04F048
:10182200000E056E000E066E980E076E410E086ED3
:10183200E9EC18F0D8B020EF0CF022EF0CF032EF08
:101842000CF0430E0F6E0E0E106E20EE14F00D50C3
:10185200D9260E50DA22040EDE6E000EDD6E1CEF6B
:101862000DF0000E016E000E026EE00E036E400ED1
:10187200046E20EE10F00D50D9260E50DA22DECF83
:1018820005F0DECF06F0DECF07F0DECF08F0E9ECA0
:1018920018F0D8B04FEF0CF051EF0CF080EF0CF0D5
:1018A20020EE10F00D50D9260E50DA22DECF01F0D4
:1018B200DECF02F0DECF03F0DECF04F0000E056EC5
:1018C200000E066E100E076E410E086EE9EC18F05F
:1018D200D8B06EEF0CF070EF0CF080EF0CF02F0E22
:1018E2000F6E0E0E106E20EE14F00D50D9260E5013
:1018F200DA22050EDE6E000EDD6E1CEF0DF0000E1C
:10190200016E000E026EAA0E036E420E046E20EEEF
:1019120010F00D50D9260E50DA22DECF05F0DECFC0
:1019220006F0DECF07F0DECF08F0E9EC18F0D8B011
:101932009DEF0CF09FEF0CF0CEEF0CF020EE10F0CC
:101942000D50D9260E50DA22DECF01F0DECF02F0A2
:10195200DECF03F0DECF04F0000E056E000E066E41
:10196200BC0E076E420E086EE9EC18F0D8B0BCEF60
:101972000CF0BEEF0CF0CEEF0CF0110E0F6E0E0E4F
:10198200106E20EE14F00D50D9260E50DA22060EFB
:10199200DE6E000EDD6E1CEF0DF0000E016E000E0D
:1019A200026ED00E036E410E046E20EE10F00D504A
:1019B200D9260E50DA22DECF05F0DECF06F0DECFDA
:1019C20007F0DECF08F0E9EC18F0D8B0EBEF0CF03E
:1019D200EDEF0CF01CEF0DF020EE10F00D50D926BB
:1019E2000E50DA22DECF01F0DECF02F0DECF03F0BE
:1019F200DECF04F0000E056E000E066EE80E076ED6
:101A0200410E086EE9EC18F0D8B00AEF0DF00CEFB9
:101A12000DF01CEF0DF0260E0F6E0E0E106E20EE66
:101A220014F00D50D9260E50DA22070EDE6E000E8B
:101A3200DD6E1CEF0DF00FC00DF010C00EF01200A5
:101A42001D50800B266E1D501D24286E1CAE2CEFDF
:101A52000DF02EEF0DF02FEF0DF028802850D8B4A6
:101A620035EF0DF037EF0DF04CEF0DF02828D8A42C
:101A72003DEF0DF03FEF0DF047EF0DF0000E1A6E47
:101A8200000E1B6E000E1C6E000E1D6E1C8E000ED4
:101A92001D6E54EF0DF0000E1A6E000E1B6E000E3E
:101AA2001C6E000E1D6E2150800B276E26502718CB
:101AB200D8B45EEF0DF060EF0DF061EF0DF0268C03
:101AC20021502124276E20AE69EF0DF06BEF0DF04F
:101AD2006CEF0DF027802750D8B472EF0DF074EF41
:101AE2000DF089EF0DF02728D8A47AEF0DF07CEFE6
:101AF2000DF084EF0DF0000E1E6E000E1F6E000E34
:101B0200206E000E216E208E000E216E91EF0DF0E0
:101B1200000E1E6E000E1F6E000E206E000E216E55
:101B22002850275CD8B098EF0DF09AEF0DF0C1EF76
:101B32000DF026AC9FEF0DF0A1EF0DF0A3EF0DF02D
:101B4200800E261A28C029F027C028F029C027F0C5
:101B52001AC029F01EC01AF029C01EF01BC029F0BD
:101B62001FC01BF029C01FF01CC029F020C01CF0B0
:101B720029C020F01DC029F021C01DF029C021F08C
:101B8200000E296E285027C022F0236A225E000E22
:101B9200235A23BED6EF0DF0235009E11A0E225C20
:101BA200D8A0D6EF0DF0D8EF0DF00FEF0EF01A50CF
:101BB2001B101C101D10D8A4E1EF0DF0E4EF0DF086
:101BC200010EE5EF0DF0000E296E000E1A6E000EEA
:101BD2001B6E000E1C6E000E1D6E27C028F018EF43
:101BE2000EF029A0F7EF0DF0F9EF0DF0FFEF0DF079
:101BF200D89029300109296E01EF0EF0D8902932D0
:101C02001AA006EF0EF008EF0EF009EF0EF0298E83
:101C12001D341D321C321B321A32282A2750285CEE
:101C2200D8A016EF0EF018EF0EF0F2EF0DF026BC72
:101C32001DEF0EF01FEF0EF05FEF0EF02850D8A44C
:101C420025EF0EF027EF0EF031EF0EF0000E1A6EB8
:101C5200000E1B6E000E1C6E000E1D6E80EF0FF04C
:101C62001E501A261F501B2220501C2221501D22BA
:101C72001DA03EEF0EF040EF0EF0ECEF0EF029A0AB
:101C820045EF0EF047EF0EF04DEF0EF0D8902930F1
:101C92000109296E4FEF0EF0D89029321AA054EFA5
:101CA2000EF056EF0EF057EF0EF0298E1D341D3256
:101CB2001C321B321A32282AECEF0EF01E501A5C2C
:101CC2001F501B5820501C581D50800A226E215054
:101CD200800A2258D8B070EF0EF072EF0EF09DEF2E
:101CE2000EF01A501E5C226E1B501F58236E1C50A1
:101CF2002058246E1D502158256EFF0E22241A6E84
:101D0200FF0E23201B6EFF0E24201C6EFF0E2520CB
:101D12001D6E800E261A296C2950D8A493EF0EF05E
:101D220095EF0EF0A5EF0EF0010E1A26000E1B2203
:101D32001C221D22A5EF0EF01E501A5E1F501B5AC8
:101D420020501C5A21501D5A1A501B101C101D10D5
:101D5200D8A4AEEF0EF0B0EF0EF0E5EF0EF0295082
:101D6200D8A4B6EF0EF0B8EF0EF0E5EF0EF0000ECD
:101D72001A6E000E1B6E000E1C6E000E1D6E80EFA2
:101D82000FF0D8901A361B361C361D3629AECCEF12
:101D92000EF0CEEF0EF0CFEF0EF01A8029A0D4EFA6
:101DA2000EF0D6EF0EF0DAEF0EF0D8802936DCEF27
:101DB2000EF0D89029362850D8B4E2EF0EF0E4EFB6
:101DC2000EF0E5EF0EF028061CAEEAEF0EF0ECEF97
:101DD2000EF0C2EF0EF0000E276E29AEF3EF0EF0FA
:101DE200F5EF0EF00DEF0FF029C022F07F0E221654
:101DF200D8B4FEEF0EF000EF0FF004EF0FF0010E7B
:101E0200276E0DEF0FF01AA009EF0FF00BEF0FF096
:101E12000DEF0FF000EF0FF02750D8B413EF0FF0D3
:101E220015EF0FF040EF0FF0010E1A26000E1B22E5
:101E32001C221D221DA020EF0FF022EF0FF040EF19
:101E42000FF01AC022F01BC023F01CC024F01DC0EA
:101E520025F02534253224322332223222C01AF0D0
:101E620023C01BF024C01CF025C01DF02828D8B4C4
:101E72003DEF0FF03FEF0FF040EF0FF0282A282838
:101E8200D8B446EF0FF048EF0FF050EF0FF02850A4
:101E9200D8A44EEF0FF050EF0FF062EF0FF0000EEC
:101EA2001A6E000E1B6E000E1C6E000E1D6E285068
:101EB200D8A45EEF0FF060EF0FF062EF0FF0000EAC
:101EC200266E28A067EF0FF069EF0FF06CEF0FF0AE
:101ED2001C8E6DEF0FF01C9ED89028301D6E26AE22
:101EE20075EF0FF077EF0FF078EF0FF01D8E1AC03D
:101EF2001AF01BC01BF01CC01CF01DC01DF012000C
:101F02004E50800B0001606F4E504E24666F4DAEF6
:101F12008DEF0FF08FEF0FF090EF0FF066816651AB
:101F2200D8B496EF0FF098EF0FF0ABEF0FF06629F1
:101F3200D8A49EEF0FF0A0EF0FF0A8EF0FF0000E65
:101F42004B6E000E4C6E000E4D6E000E4E6E4D8EA0
:101F5200B3EF0FF0000E4B6E000E4C6E000E4D6E86
:101F6200000E4E6E5250800B601B52505224656F11
:101F720051AEBEEF0FF0C0EF0FF0C1EF0FF0658171
:101F82006551D8B4C7EF0FF0C9EF0FF0DCEF0FF0D7
:101F92006529D8A4CFEF0FF0D1EF0FF0D9EF0FF0F2
:101FA200000E4F6E000E506E000E516E000E526EFD
:101FB200518EE4EF0FF0000E4F6E000E506E000EC9
:101FC200516E000E526E6551D8B4EAEF0FF0ECEF8D
:101FD2000FF0F4EF0FF06651D8A4F2EF0FF0F4EF28
:101FE2000FF0FEEF0FF0000E4B6E000E4C6E000E67
:101FF2004D6E000E4E6E96EF11F051504B02F3CF24
:102002006BF0F4CF6CF06B51616F626B636B646B5E
:102012006C51676F686B696B6A6B50504C02F3CFFF
:102022006BF0F4CF6CF06B516127000E62236323D7
:1020320064236C516727000E682369236A234F507B
:102042004D02F3CF6BF0F4CF6CF06B516127000EB1
:102052006223632364236C516727000E682369237C
:102062006A2363C064F062C063F061C062F0616BB6
:102072004F504C02F3CF6BF0F4CF6CF06B516127F1
:102082006C516223000E6323000E642350504B02F6
:10209200F3CF6BF0F4CF6CF06B5161276C5162237C
:1020A200000E6323000E642363C064F062C063F019
:1020B20061C062F0616B4F504B02F3CF6BF0F4CF13
:1020C2006CF06B5161276C516223000E6323000E8A
:1020D200642351504C02F3CF6BF0F4CF6CF06B5190
:1020E20067276C516823000E6923000E6A23505043
:1020F2004D02F3CF6BF0F4CF6CF06B5167276C514C
:102102006823000E6923000E6A2351504D02F3CF5B
:102112006BF0F4CF6CF06B51536E6C51546E556A88
:10212200566A55C056F054C055F053C054F0536A25
:1021320053506727545068235550692356506A23D9
:1021420061C053F062C054F063C055F064C056F0F1
:10215200190EB1EF10F0D890563255325432533234
:10216200E82EACEF10F053506727545068235550B7
:10217200692356506A2363C064F062C063F061C091
:1021820062F0616B655166C053F0546A5326000ECB
:102192005422820E53246B6FFF0E54206C6FE7EFB4
:1021A20010F0D8906737683769376A3764AFDCEF69
:1021B20010F0DEEF10F0DFEF10F06781D89061379A
:1021C2006237633764376B07D8A06C0769AFECEFEF
:1021D20010F0EEEF10F0D2EF10F0000E656F64AF6A
:1021E200F5EF10F0F7EF10F01BEF11F0FF0E611595
:1021F200536EFF0E6215546EFF0E6315556E7F0E01
:102202006415566E5350541055105610D8B40CEF36
:1022120011F00EEF11F012EF11F0010E656F1BEFCE
:1022220011F067A117EF11F019EF11F01BEF11F088
:102232000EEF11F06551D8B421EF11F023EF11F038
:1022420047EF11F0010E6727000E682369236A2306
:102252006AA12EEF11F030EF11F047EF11F067C0D5
:1022620053F068C054F069C055F06AC056F0563455
:10227200563255325432533253C067F054C068F06C
:1022820055C069F056C06AF06B4B6C2B6CBF52EFB5
:1022920011F06C5108E16B29D8A052EF11F054EF04
:1022A20011F05EEF11F0000E676F000E686F800E86
:1022B200696F7F0E6A6F8CEF11F06CBF6BEF11F0DC
:1022C2006C5106E16B05D8B069EF11F06BEF11F0BC
:1022D20077EF11F0000E676F000E686F000E696FE6
:1022E200000E6A6F000E606F8CEF11F06BC066F02B
:1022F200FF0E6717FF0E68177F0E6917000E6A1729
:1023020066A186EF11F088EF11F089EF11F0698F65
:10231200D89066316A6F60516A1367C04BF068C02B
:102322004CF069C04DF06AC04EF012003550800B7F
:10233200426E35503524496E34AEA2EF11F0A4EF4F
:1023420011F0A5EF11F049804950D8B4ABEF11F06C
:10235200ADEF11F0C2EF11F04928D8A4B3EF11F09C
:10236200B5EF11F0BDEF11F0000E326E000E336EBC
:10237200000E346E000E356E348E000E356ECAEFCE
:1023820011F0000E326E000E336E000E346E000E2F
:10239200356E3950800B421A395039244A6E38AEA4
:1023A200D5EF11F0D7EF11F0D8EF11F04A804A5073
:1023B200D8B4DEEF11F0E0EF11F0F5EF11F04A289A
:1023C200D8A4E6EF11F0E8EF11F0F0EF11F0000EF3
:1023D200366E000E376E000E386E000E396E388E75
:1023E200000E396EFDEF11F0000E366E000E376EE4
:1023F200000E386E000E396E365037103810391014
:10240200D8A406EF12F008EF12F020EF12F0000E3F
:10241200326E000E336E000E346E000E356E800E7C
:1024220034127F0E35124250351232C032F033C0B0
:1024320033F034C034F035C035F063EF13F0495057
:10244200D8A426EF12F028EF12F032EF12F0000EAD
:10245200326E000E336E000E346E000E356E63EF78
:1024620013F04A5049C03AF03B6A3A5E000E3B5ABA
:102472007F0E3A24436E000E3B20446E32C03EF083
:1024820033C03FF034C040F035C041F0000E326E30
:10249200000E336E000E346E000E356E000E456E69
:1024A200000E466E000E476E000E486E000E4A6E1B
:1024B20093EF12F04A50D8B461EF12F063EF12F0CA
:1024C2007AEF12F0D8903E363F3640364136D890F9
:1024D200323633363436353648AE72EF12F074EF98
:1024E20012F075EF12F03280D890453646364736F4
:1024F200483636503E5C37503F5838504058395075
:102502004158D8A087EF12F089EF12F092EF12F043
:10251200488C36503E5E37503F5A3850405A3950F8
:10252200415A4A2A190E4A6499EF12F09BEF12F0AF
:102532005BEF12F03E503F1040104110D8B4A4EFB0
:1025420012F0A6EF12F0BEEF12F04580BEEF12F0CD
:10255200D890323633363436353648AEB3EF12F0D1
:10256200B5EF12F0B6EF12F03280D890453646360B
:10257200473648364306D8A0440634AEC3EF12F0BD
:10258200C5EF12F0A9EF12F0000E4A6E48AECCEF82
:1025920012F0CEEF12F0F2EF12F0FF0E45143A6E87
:1025A200FF0E46143B6EFF0E47143C6E7F0E48141E
:1025B2003D6E3A503B103C103D10D8B4E3EF12F0A0
:1025C200E5EF12F0E9EF12F0010E4A6EF2EF12F0AF
:1025D20032A0EEEF12F0F0EF12F0F2EF12F0E5EFB0
:1025E20012F04A50D8B4F8EF12F0FAEF12F01EEFE0
:1025F20013F0010E3226000E33223422352235A08A
:1026020005EF13F007EF13F01EEF13F032C03AF0AC
:1026120033C03BF034C03CF035C03DF03D343D3278
:102622003C323B323A323AC032F03BC033F03CC02B
:1026320034F03DC035F0434A442A44BE29EF13F03A
:10264200445008E14328D8A029EF13F02BEF13F0F0
:1026520036EF13F0000E446E4368000E326E000E29
:10266200336E000E346E000E356E44BE43EF13F02F
:10267200445006E14304D8B041EF13F043EF13F0A6
:1026820051EF13F0000E446E000E436E000E326ED8
:10269200000E336E000E346E000E356E000E426E6A
:1026A20043C049F049A058EF13F05AEF13F05DEF21
:1026B20013F0348E5EEF13F0349ED8904930356EAD
:1026C20014EF12F01200B9EC21F008EC21F07DECCD
:1026D20021F0EEEC21F0000E026E630E016EA4EC0E
:1026E2001CF0000E0001E86F010EE96F010EEA6FA7
:1026F200AA0EED6F0F0EEE6FA60EEF6F0F0EF06FBC
:10270200000EEC6F630EEB6F000EDF6F010EE06FD9
:10271200010EE16F250EE46F0F0EE56F210EE66FDD
:102722000F0EE76F000EE36F630EE26F86840E01F9
:10273200B4958EB49FEF13F0A1EF13F09AEF13F05C
:10274200000E0001D96F000E63EC21F0E80E146E4A
:10275200000E156EDF0E166E000E176EB9EC1DF030
:10276200520E5E6E2B0E5D6E000EE82EFED75D2EB3
:10277200FCD75E2EFAD700D004EF14F0700E1A6E5A
:10278200010E1B6EE3EC17F0750E456E000E466EE1
:10279200700E476E010E486E28EC21F07CC101F0EC
:1027A2007DC102F07EC103F07FC104F0000E056E10
:1027B200000E066EC80E076E420E086EE9EC18F0A7
:1027C200D8B0E6EF13F0E8EF13F004EF14F0010EC7
:1027D2000001D96F010E63EC21F0E80E146E000EB9
:1027E200156EDF0E166E000E176EBBEC1BF0A30EFD
:1027F2005E6E570E5D6E020EE82EFED75D2EFCD782
:102802005E2EFAD700D00001D951D8B40BEF14F0E4
:102812000DEF14F0BFEF13F0700E1A6E010E1B6E67
:10282200E3EC17F0700E576E010E586E29EC07F0AC
:10283200700E0D6E010E0E6EAAEC0AF0700E286E6E
:10284200010E296E1FEC15F0750E456E000E466ED8
:10285200700E476E010E486E28EC21F0520E5E6E2D
:102862002B0E5D6E000EE82EFED75D2EFCD75E2E7F
:10287200FAD700D0000E0001D96F000E63EC21F0F0
:10288200A7EF13F000EF00F0146E1450D8B44CEF21
:1028920014F04EEF14F070EF14F00FBE55EF14F079
:1028A20053EF14F070EF14F00CC010F00DC011F0E3
:1028B2000EC012F00FC013F0101E111E121E131EB6
:1028C200102A000E11221222132210C016F011C07B
:1028D20017F012C018F013C019F078EF14F00CC002
:1028E20016F00DC017F00EC018F00FC019F00C5002
:1028F2000D100E100F10D8A481EF14F083EF14F016
:102902008DEF14F0000E0C6E000E0D6E000E0E6EAA
:10291200000E0F6E1EEF15F0960E156E97EF14F067
:10292200152AD8901932183217321632000E1614A0
:10293200106E000E1714116E000E1814126EFE0E99
:102942001914136E1050111012101310D8A4ACEFFA
:1029520014F0AEEF14F091EF14F0BCEF14F0152A5E
:10296200010E1626000E172218221922D8901932AB
:10297200183217321632000E1614106E000E17148B
:10298200116E000E1814126EFF0E1914136E1050F1
:10299200111012101310D8A4D1EF14F0D3EF14F0C9
:1029A200B0EF14F0DBEF14F01506D8901636173698
:1029B2001836193618BEE0EF14F0E2EF14F0EAEF21
:1029C20014F0020E1560E8EF14F0EAEF14F0D5EF00
:1029D20014F015B0EFEF14F0F1EF14F0F2EF14F081
:1029E200189ED890153215C010F0116A126A136A37
:1029F20010C013F0126A116A106A105016121150A8
:102A0200171212501812135019121450D8B40CEF96
:102A120015F00EEF15F016EF15F00FBE15EF15F0CD
:102A220013EF15F016EF15F0198E16C00CF017C043
:102A32000DF018C00EF019C00FF0120020EE14F0C5
:102A42002850D9262950DA22DE50DE10D8A42CEFE5
:102A520015F02EEF15F03AEF15F0E80E216E000E8C
:102A6200226EDF0E236E000E246E39EC1EF0E1EFB3
:102A720015F020EE14F02850D9262950DA22DE046F
:102A8200DE10D8A447EF15F049EF15F055EF15F019
:102A9200E80E216E000E226EDF0E236E000E246EF3
:102AA200B7EC1EF0E1EF15F020EE14F02850D92615
:102AB2002950DA22020EDE18DE10D8A463EF15F0D8
:102AC20065EF15F071EF15F0E80E246E000E256E1D
:102AD200DF0E266E000E276E30EC1FF0E1EF15F0D0
:102AE20020EE14F02850D9262950DA22030EDE18DF
:102AF200DE10D8A47FEF15F081EF15F08DEF15F001
:102B0200E80E216E000E226EDF0E236E000E246E82
:102B12006BEC19F0E1EF15F020EE14F02850D926F5
:102B22002950DA22040EDE18DE10D8A49BEF15F02D
:102B32009DEF15F0A9EF15F0E80E216E000E226E42
:102B4200DF0E236E000E246E78EC1EF0E1EF15F01E
:102B520020EE14F02850D9262950DA22050EDE186C
:102B6200DE10D8A4B7EF15F0B9EF15F0C5EF15F0E8
:102B7200E80E216E000E226EDF0E236E000E246E12
:102B8200B6EC1AF0E1EF15F020EE14F02850D92639
:102B92002950DA22060EDE18DE10D8A4D3EF15F083
:102BA200D5EF15F0E1EF15F0E80E216E000E226E62
:102BB200DF0E236E000E246E68EC1BF0E1EF15F0C1
:102BC200120020EE02F00E50D9260F50DA22DF500A
:102BD200D8B4EEEF15F0F0EF15F024EF16F00EC0BA
:102BE200D9FF0FC0DAFFDF50106E1050016E026A7B
:102BF20020EE03F00E50D9260F50DA22DECF03F07A
:102C0200DDCF04F0A6EC21F001C007F002C008F00D
:102C1200000E0A6E640E096EF6EC1EF020EE03F052
:102C22000E50D9260F50DA22DF50116E0750115C78
:102C3200126E20EE03F00E50D9260F50DA22DF502A
:102C4200136E47EF16F0000E126E0EC0D9FF0FC0C2
:102C5200DAFFDF50106E1050016E026A20EE03F0B0
:102C62000E50D9260F50DA22DECF03F0DDCF04F06A
:102C7200A6EC21F001C007F002C008F0000E0A6EB7
:102C8200640E096EF6EC1EF00750136E20EE01F092
:102C92000E50D9260F50DA22DF50D8B453EF16F077
:102CA20055EF16F077EF16F020EE05F00E50D9260C
:102CB2000F50DA22DECF10F0DDCF11F010C0D9FFB5
:102CC20011C0DAFF12C0DFFF20EE07F00E50D92646
:102CD2000F50DA22DECF10F0DDCF11F010C0D9FF95
:102CE20011C0DAFF13C0DFFF97EF16F020EE05F0F8
:102CF2000E50D9260F50DA22DECF10F0DDCF11F0C0
:102D020010C0D9FF11C0DAFF13C0DFFF20EE07F0B9
:102D12000E50D9260F50DA22DECF10F0DDCF11F09F
:102D220010C0D9FF11C0DAFF12C0DFFF120022C0AB
:102D3200D9FF23C0DAFFDECFF6FFDDCFF7FF0800B1
:102D4200F550250AD8A4A8EF16F0AAEF16F030EF36
:102D520017F022C0D9FF23C0DAFFDE2A000EDD22DF
:102D6200000E0001DB6F000EDA6FDAC0DEF0DC6904
:102D7200DD6922C0D9FF23C0DAFFDECFF6FFDDCF47
:102D8200F7FF0800F550730AD8B4CAEF16F0CCEF7B
:102D920016F0E7EF16F022C0D9FF23C0DAFFDECF2C
:102DA20001F0DDCF02F0480E036E0E0E046E000E2F
:102DB200066E030E056EE2EC19F001500210D8A463
:102DC200E5EF16F0E7EF16F027EF17F022C0D9FF74
:102DD20023C0DAFFDECFF6FFDDCFF7FF0800F550A4
:102DE200730AD8B4F7EF16F0F9EF16F0FFEF16F00A
:102DF200000E296E030E286E03EF17F0000E296EE7
:102E0200010E286E22C0D9FF23C0DAFF2850DE2629
:102E12002950DD2220C00AF021C00BF024C0D9FFC6
:102E220025C0DAFFDFCF26F0020EDE26DFCF27F045
:102E3200000EDD2226C0D9FF27C0DAFFDECF0CF05C
:102E4200DDCF0DF045EC17F044EF17F022C0D9FFAB
:102E520023C0DAFFDE2A000EDD2244EF17F022C083
:102E6200D9FF23C0DAFFDECFF6FFDDCFF7FF080080
:102E7200F550016E026A20C003F021C004F051EC4B
:102E82001AF027EF17F0120020EEF1F010EE0FF01B
:102E9200060EDBCFE3FFE806FCE20CC01AF00DC021
:102EA2001BF01A501B10D8A459EF17F05BEF17F064
:102EB2005FEF17F00F0E1A6E000E1B6E1AC001F0B4
:102EC2001BC002F04EEC20F001C01CF002C01DF04D
:102ED200DCC01EF0DDC01FF01FBE72EF17F074EFF2
:102EE20017F089EF17F01C501E5C1F50800A0E6EFF
:102EF2001D50800A0E58D8A081EF17F083EF17F00B
:102F020085EF17F089EF17F01EC01CF01FC01DF0EF
:102F12001CC01EF01DC01FF0DAC016F0DBC017F097
:102F22009FEF17F0000E026E200E016E0AC003F032
:102F32000BC004F051EC1AF01C4A1D2A16501C5CFE
:102F42001D50800A0E6E1750800A0E58D8A0ACEFA2
:102F520017F0AEEF17F093EF17F0000E196E000E98
:102F6200186ED3EF17F01AC0F6FF1BC0F7FF000E62
:102F7200F86E0D0EF76403D00800F55005D0F6CFB9
:102F8200E9FFF7CFEAFFEF500E6E0E50016E026AB4
:102F92000AC003F00BC004F051EC1AF01A4A1B2AC3
:102FA200184A192A1E50185C1950800A0E6E1F50BA
:102FB200800A0E58D8A0E0EF17F0E2EF17F0B4EF56
:102FC20017F01200AEEC1FF005C00CF006C00DF0B9
:102FD2000E6A0F6A000E45EC14F00CC01CF00DC016
:102FE2001DF00EC01EF00FC01FF0D6EC1FF005C082
:102FF2000CF006C00DF00E6A0F6A000E45EC14F0DC
:103002000CC020F00DC021F00EC022F00FC023F042
:1030120026EC20F005C00CF006C00DF00E6A0F6A17
:10302200000E45EC14F00CC024F00DC025F00EC0CB
:1030320026F00FC027F0FEEC1FF005C00CF006C012
:103042000DF00E6A0F6A000E45EC14F00CC028F069
:103052000DC029F00EC02AF00FC02BF01AC0D9FF04
:103062001BC0DAFF1CC0DEFF1DC0DEFF1EC0DEFF7C
:103072001FC0DEFF20EE08F01A50D9261B50DA22BC
:1030820024C0DEFF25C0DEFF26C0DEFF27C0DEFF34
:1030920020EE04F01A50D9261B50DA2220C0DEFF9F
:1030A20021C0DEFF22C0DEFF23C0DEFF20EE0CF0D7
:1030B2001A50D9261B50DA2228C0DEFF29C0DEFFB3
:1030C2002AC0DEFF2BC0DEFF1200033404340A6E76
:1030D2000A50D8A46FEF18F071EF18F07BEF18F0D8
:1030E200000E016E000E026E000E036E000E046EE4
:1030F200E8EF18F001C005F002C006F003C007F0C7
:1031020004C008F0200E8BEF18F0D8900832073276
:1031120006320532E82E86EF18F00550096E038E4E
:10312200FF0E0116FF0E0216FF0E0316000E041606
:10313200960E0A5E0ABEA2EF18F0A0EF18F0B8EFE2
:1031420018F00A50800A970FD8B0AAEF18F0ACEF27
:1031520018F0AEEF18F071EF18F0D8900432033285
:10316200023201320A3EAEEF18F0D0EF18F01F0E15
:103172000A64BEEF18F0C0EF18F0C8EF18F071EF54
:1031820018F0D89001360236033604360A060A5081
:10319200D8A4CEEF18F0D0EF18F0C2EF18F0095013
:1031A200D8B4D6EF18F0D8EF18F0E0EF18F0041EFC
:1031B200031E021E016C000E02220322042201C021
:1031C20001F002C002F003C003F004C004F01200D8
:1031D200000E0114096E000E02140A6E800E031412
:1031E2000B6E7F0E04140C6E09500A100B100C109B
:1031F200D8A4FEEF18F000EF19F008EF19F0000E56
:10320200016E000E026E000E036E000E046E000EC2
:103212000514096E000E06140A6E800E07140B6E5A
:103222007F0E08140C6E09500A100B100C10D8A453
:103232001DEF19F01FEF19F027EF19F0000E056EC0
:10324200000E066E000E076E000E086E04AE2CEF26
:1032520019F02EEF19F037EF19F0016C021ED8B0F9
:10326200022A031ED8B0032A800E045608AE3CEF91
:1032720019F03EEF19F047EF19F0056C061ED8B0B1
:10328200062A071ED8B0072A800E0856000E011A19
:10329200000E021A000E031A800E041A000E051AFE
:1032A200000E061A000E071A800E081A0550015C5D
:1032B200065002580750035808500458D8B064EF1B
:1032C20019F066EF19F069EF19F0D8906AEF19F06A
:1032D200D88012005F50D8B471EF19F073EF19F073
:1032E200B5EF19F021C01BF022C01CF023C01DF065
:1032F20024C01EF076EC1DF021C014F022C015F09F
:1033020023C016F024C017F0F9EC1DF0390E266E1A
:10331200D20E256E4C0EE82EFED7252EFCD7262E79
:10332200FAD700D021C01AF022C01BF023C01CF033
:1033320024C01DF0ECEC1CF021C01AF022C01BF0DE
:1033420023C01CF024C01DF0ECEC1CF00AEC22F0AF
:1033520021C014F022C015F023C016F024C017F0CB
:10336200BBEC1BF0E1EF19F021C01AF022C01BF0F8
:1033720023C01CF024C01DF031EC1DF021C01AF056
:1033820022C01BF023C01CF024C01DF031EC1DF044
:1033920021C014F022C015F023C016F024C017F08B
:1033A200B9EC1DF0390E266ED20E256E4C0EE82EAB
:1033B200FED7252EFCD7262EFAD700D0A9EF19F07A
:1033C200120001C008F002C009F003C00AF004C0F4
:1033D2000BF00506D8A00606052806E10628D8A4A3
:1033E200F5EF19F0F7EF19F004EF1AF0000E026E84
:1033F200000E016E50EF1AF0084A092A0A4A0B2AF7
:103402000506D8A0060608C0F6FF09C0F7FF0800A7
:10341200F5500009D8B410EF1AF012EF1AF03EEF8F
:103422001AF00AC0F6FF0BC0F7FF0800F5500009BA
:10343200D8B41EEF1AF020EF1AF03EEF1AF0055042
:103442000610D8B427EF1AF029EF1AF03EEF1AF05F
:1034520008C0F6FF09C0F7FF0800F5CF07F00AC061
:10346200F6FF0BC0F7FF0800F5500718D8B43CEF81
:103472001AF03EEF1AF0FDEF19F008C0F6FF09C08E
:10348200F7FF0800F5CF07F00AC0F6FF0BC0F7FF01
:103492000800F550075C016E026AD8A0020612000D
:1034A20003500410D8B458EF1AF05AEF1AF063EF31
:1034B2001AF003500410D8A461EF1AF063EF1AF067
:1034C20068EF1AF001500FEC22F0B5EF1AF020EE7F
:1034D20009F00350D9260450DA22DE50DE10D8B4A7
:1034E20075EF1AF077EF1AF092EF1AF020EE09F06A
:1034F2000350D9260450DA2210EE03F00350E126DD
:103502000450E222DE50E65CE650800A096EDE508C
:10351200800A0958D8B090EF1AF092EF1AF0B5EF7E
:103522001AF020EE03F00350D9260450DA22DECF3F
:1035320005F0DDCF06F003C0D9FF04C0DAFFDECF0D
:1035420007F0DDCF08F005500724D96E0650082099
:10355200DA6E01C0DFFF20EE03F00350D9260450DB
:10356200DA22DE2A000EDD2212005F50D8B4BCEF50
:103572001AF0BEEF1AF0EAEF1AF021C01BF022C0D7
:103582001CF023C01DF024C01EF076EC1DF021C0FB
:103592001AF022C01BF023C01CF024C01DF0ECEC7A
:1035A2001CF021C01AF022C01BF023C01CF024C062
:1035B2001DF0ECEC1CF021C01AF022C01BF023C05D
:1035C2001CF024C01DF0ECEC1CF00AEC22F012EF0F
:1035D2001BF021C01AF022C01BF023C01CF024C033
:1035E2001DF031EC1DF021C01AF022C01BF023C0E7
:1035F2001CF024C01DF031EC1DF021C01AF022C0D5
:103602001BF023C01CF024C01DF031EC1DF021C0C2
:1036120014F022C015F023C016F024C017F0BBEC42
:103622001BF01200000E0114096E000E02140A6E45
:10363200800E03140B6E7F0E04140C6E09500A10D8
:103642000B100C10D8A428EF1BF02AEF1BF032EF5E
:103652001BF0000E016E000E026E000E036E000ED5
:10366200046E000E0514096E000E06140A6E800E1A
:1036720007140B6E7F0E08140C6E09500A100B1003
:103682000C10D8A447EF1BF049EF1BF051EF1BF0D1
:10369200000E056E000E066E000E076E000E086E1E
:1036A200055001180FE1065002180CE107500318EB
:1036B20009E108500418D8B461EF1BF063EF1BF066
:1036C20066EF1BF0D89067EF1BF0D88012005F50B6
:1036D200D8B46EEF1BF070EF1BF09CEF1BF021C013
:1036E2001BF022C01CF023C01DF024C01EF076EC9B
:1036F2001DF021C01AF022C01BF023C01CF024C010
:103702001DF031EC1DF021C01AF022C01BF023C0C5
:103712001CF024C01DF031EC1DF021C01AF022C0B3
:103722001BF023C01CF024C01DF031EC1DF00AEC8C
:1037320022F0BAEF1BF021C01AF022C01BF023C006
:103742001CF024C01DF0ECEC1CF021C01AF022C0C9
:103752001BF023C01CF024C01DF0ECEC1CF021C0B7
:103762001AF022C01BF023C01CF024C01DF0ECECA8
:103772001CF012007C88F4EF1BF014C0D9FF15C0B6
:10378200DAFFDF50D8B4C8EF1BF0CAEF1BF0CFEF5F
:103792001BF014C0D9FF15C0DAFFDF0616C0D9FF2F
:1037A20017C0DAFFDF50D8B4D9EF1BF0DBEF1BF004
:1037B200E0EF1BF016C0D9FF17C0DAFFDF0614C016
:1037C2000EF015C00FF0E2EC15F016C00EF017C0A7
:1037D2000FF0E2EC15F0090E186E4E0EE82EFED731
:1037E200182EFCD700D014C0D9FF15C0DAFFDF5065
:1037F200D8B4FEEF1BF000EF1CF00CEF1CF016C06B
:10380200D9FF17C0DAFFDF50D8A40AEF1CF00CEF83
:103812001CF0BEEF1BF07C98120020EE01F0145059
:10382200D9261550DA22000EDF6E20EE01F0165076
:10383200D9261750DA22010EDF6E14C00EF015C021
:103842000FF0E2EC15F016C00EF017C00FF0E2EC2C
:1038520015F0000E196E000E186E14C0D9FF15C0B7
:10386200DAFFDF2A16C0D9FF17C0DAFFDF2A14C039
:103872000EF015C00FF0E2EC15F016C00EF017C0F6
:103882000FF0E2EC15F0E40E00D000D0E82EFCD7E9
:1038920000D000D0184A192A195009E1320E185CDA
:1038A200D8A056EF1CF058EF1CF02EEF1CF01200BF
:1038B20020EE01F01450D9261550DA22010EDF6EE7
:1038C20020EE01F01650D9261750DA22000EDF6ED4
:1038D20014C00EF015C00FF0E2EC15F016C00EF099
:1038E20017C00FF0E2EC15F0000E196E000E186E04
:1038F20014C0D9FF15C0DAFFDF2A16C0D9FF17C0DE
:10390200DAFFDF2A14C00EF015C00FF0E2EC15F05A
:1039120016C00EF017C00FF0E2EC15F0E40E00D066
:1039220000D0E82EFCD700D000D0184A192A19502E
:1039320009E1320E185CD8A0A1EF1CF0A3EF1CF035
:1039420079EF1CF012008594839E8598879C7D9464
:103952007B9E7D987F9C050E0E01746F060E766F1E
:10396200070E696F080E886FBD508F0B4009BD6E40
:10397200E00EBE16BF50F00B0109BF6E01C0BCFFC6
:10398200BD8E000EAA6E000EA66E000E0F01256FF0
:10399200000E216FFC0EAD16F30EAD16CF0EAD1656
:1039A2003F0EAD16AB88AB50F00B0C09AB6EAB8E75
:1039B200A788A750F00B0C09A76EA78E268926515F
:1039C200F00B0C09266F268F22892251F00B0C096D
:1039D200226F228F120080801AC014F01BC015F0D3
:1039E2001CC016F01DC017F0BBEC1BF0050E1F6EBD
:1039F2000F0E1E6EF10EE82EFED71E2EFCD71F2EC6
:103A0200FAD700F01AC014F01BC015F01CC016F053
:103A12001DC017F00EEC1CF00E0E1F6ECD0E1E6EAA
:103A22006C0EE82EFED71E2EFCD71F2EFAD700D022
:103A32001AC014F01BC015F01CC016F01DC017F000
:103A4200BBEC1BF0050E1F6E0F0E1E6EF10EE82E64
:103A5200FED71E2EFCD71F2EFAD700F08090120040
:103A62007E801AC014F01BC015F01CC016F01DC0D9
:103A720017F0BBEC1BF0050E1F6E0F0E1E6EF10E43
:103A8200E82EFED71E2EFCD71F2EFAD700F01AC042
:103A920014F01BC015F01CC016F01DC017F059EC35
:103AA2001CF00E0E1F6ECD0E1E6E6C0EE82EFED793
:103AB2001E2EFCD71F2EFAD700D01AC014F01BC03E
:103AC20015F01CC016F01DC017F0BBEC1BF0050E64
:103AD2001F6E0F0E1E6EF10EE82EFED71E2EFCD7A5
:103AE2001F2EFAD700F07E9012001BC014F01CC0EB
:103AF20015F01DC016F01EC017F0BBEC1BF0090E2E
:103B0200206E1E0E1F6EE40EE82EFED71F2EFCD76F
:103B1200202EFAD700D01BC014F01CC015F01DC017
:103B220016F01EC017F0F9EC1DF01D0E206E690E86
:103B32001F6EA50EE82EFED71F2EFCD7202EFAD719
:103B420000F01BC014F01CC015F01DC016F01EC002
:103B520017F0BBEC1BF0090E206E1E0E1F6EE40E5A
:103B6200E82EFED71F2EFCD7202EFAD700D0120047
:103B720020EE01F01450D9261550DA22010EDF6E24
:103B820020EE01F01650D9261750DA22010EDF6E10
:103B9200000E1A6E000E196E14C0D9FF15C0DAFF9E
:103BA200DF2A16C0D9FF17C0DAFFDF2A14C00EF0D1
:103BB20015C00FF0E2EC15F016C00EF017C00FF0B2
:103BC200E2EC15F0090E186E4E0EE82EFED7182EF6
:103BD200FCD700D0194A1A2A1A5009E1320E195C90
:103BE200D8A0F6EF1DF0F8EF1DF0CDEF1DF012009A
:103BF20020EE01F01450D9261550DA22000EDF6EA5
:103C020020EE01F01650D9261750DA22000EDF6E90
:103C1200000E1A6E000E196E14C0D9FF15C0DAFF1D
:103C2200DF2A16C0D9FF17C0DAFFDF2A14C00EF050
:103C320015C00FF0E2EC15F016C00EF017C00FF031
:103C4200E2EC15F0090E186E4E0EE82EFED7182E75
:103C5200FCD700D0194A1A2A1A5009E1320E195C0F
:103C6200D8A036EF1EF038EF1EF00DEF1EF0120056
:103C72005F50D8B43FEF1EF041EF1EF063EF1EF02D
:103C820021C01BF022C01CF023C01DF024C01EF076
:103C920076EC1DF021C01AF022C01BF023C01CF0EC
:103CA20024C01DF0ECEC1CF021C01AF022C01BF065
:103CB20023C01CF024C01DF0ECEC1CF00AEC22F036
:103CC20077EF1EF021C01AF022C01BF023C01CF0B7
:103CD20024C01DF031EC1DF021C01AF022C01BF0EF
:103CE20023C01CF024C01DF031EC1DF012005F5007
:103CF200D8B47EEF1EF080EF1EF0B6EF1EF021C0AA
:103D02001BF022C01CF023C01DF024C01EF076EC74
:103D12001DF021C014F022C015F023C016F024C0FB
:103D220017F0F9EC1DF0390E266ED20E256E4C0EF0
:103D3200E82EFED7252EFCD7262EFAD700D021C09A
:103D42001AF022C01BF023C01CF024C01DF031EC7D
:103D52001DF021C01AF022C01BF023C01CF024C0A9
:103D62001DF031EC1DF00AEC22F012005F50D8B4C5
:103D7200BDEF1EF0BFEF1EF0E1EF1EF021C01BF001
:103D820022C01CF023C01DF024C01EF076EC1DF0F2
:103D920021C01AF022C01BF023C01CF024C01DF069
:103DA20031EC1DF021C01AF022C01BF023C01CF020
:103DB20024C01DF031EC1DF00AEC22F0F5EF1EF0EC
:103DC20021C01AF022C01BF023C01CF024C01DF039
:103DD200ECEC1CF021C01AF022C01BF023C01CF036
:103DE20024C01DF0ECEC1CF01200000E0C6E000E54
:103DF2000B6E09500A10D8B401EF1FF003EF1FF049
:103E02002BEF1FF0010E0D6E0BEF1FF0D89009364D
:103E12000A360D2A0AAE10EF1FF012EF1FF007EF5D
:103E22001FF0D8900B360C360950075C0A50085820
:103E3200D8A01EEF1FF020EF1FF025EF1FF0095052
:103E4200075E0A50085A0B80D8900A3209320D2EAA
:103E520012EF1FF00BC007F00CC008F012005F5009
:103E6200D8B436EF1FF038EF1FF050EF1FF024C028
:103E72001BF025C01CF026C01DF027C01EF076ECFA
:103E82001DF024C020F025C021F026C022F027C05A
:103E920023F085EC1FF00AEC22F05AEF1FF024C049
:103EA20020F025C021F026C022F027C023F085ECA7
:103EB2001FF01200CC0EF66E430EF76E000EF86E77
:103EC20000EEF1F010EE0FF00900F5CFEEFFE55035
:103ED200E150FAE1200EF66E440EF76E000EF86E17
:103EE2000900F5CF5FF001EE00F0860EEE6AE806FB
:103EF200FDE100EEDAF0170EEE6AE806FDE1000ED3
:103F0200F86E000164EF13F020C01AF021C01BF01C
:103F120022C01CF023C01DF031EC1DF020C01AF0AD
:103F220021C01BF022C01CF023C01DF031EC1DF09B
:103F320020C01AF021C01BF022C01CF023C01DF0CB
:103F420031EC1DF020C01AF021C01BF022C01CF081
:103F520023C01DF031EC1DF0120005EC22F0520ED0
:103F6200F5EC21F0B60EF5EC21F0FBEC21F0530E4E
:103F7200F5EC21F0010EE7EC20F0076E07500A6E17
:103F82000B6A000EE7EC20F0076E0750096E086A14
:103F92000A5008100A6E0B5009100B6E00EC22F04A
:103FA2000AC005F00BC006F0120005EC22F0520E1A
:103FB200F5EC21F0B80EF5EC21F0FBEC21F0530EFC
:103FC200F5EC21F0010EE7EC20F0076E07500A6EC7
:103FD2000B6A000EE7EC20F0076E0750096E086AC4
:103FE2000A5008100A6E0B5009100B6E00EC22F0FA
:103FF2000AC005F00BC006F0120005EC22F0520ECA
:10400200F5EC21F0B40EF5EC21F0FBEC21F0530EAF
:10401200F5EC21F0010EE7EC20F0076E07500A6E76
:104022000B6A000EE7EC20F0076E0750096E086A73
:104032000A5008100A6E0B5009100B6E00EC22F0A9
:104042000AC005F00BC006F0120005EC22F0520E79
:10405200F5EC21F0BA0EF5EC21F0FBEC21F0530E59
:10406200F5EC21F0010EE7EC20F0076E07500A6E26
:104072000B6A000EE7EC20F0076E0750096E086A23
:104082000A5008100A6E0B5009100B6E00EC22F059
:104092000AC005F00BC006F0120001C003F002C016
:1040A20004F056EF20F0014A022A01C0F6FF02C0D6
:1040B200F7FF000EF86E0D0EF76403D00800F550FE
:1040C20005D0F6CFE9FFF7CFEAFFEF500009D8A4F9
:1040D2006DEF20F06FEF20F054EF20F00350015C01
:1040E200016E04500258026E1200360E386E000E37
:1040F200396E32C03AF033C03BF0000E3E6E000E15
:104102003D6E000E446E000E436E3A0E2A6E000E95
:104112002B6E34C02CF035C02DF0380E2E6E000EF2
:104122002F6E9DEC20F03D503224D96E3E5033204C
:10413200DA6E000EDF6E12002CC030F02DC031F0AE
:10414200B1EF20F02AC020F02BC021F0300E226EF9
:10415200000E236E2EC024F02FC025F098EC16F02E
:1041620030C0F6FF31C0F7FF0800F5500009D8A4AF
:10417200BDEF20F0BFEF20F0A3EF20F0000E2B6E7A
:10418200000E2A6E1200000E2E1A000E2F1A000EBA
:10419200301A800E311A2AC01AF02BC01BF02CC024
:1041A2001CF02DC01DF02EC01EF02FC01FF030C01D
:1041B20020F031C021F021EC0DF01AC02AF01BC012
:1041C2002BF01CC02CF01DC02DF01200036E92ECDF
:1041D20021F00E01DA8792EC21F0D5CE04F092ECB8
:1041E20021F00350D8B4F8EF20F0FCEF20F0026A7F
:1041F200022AFDEF20F0026A023A02460E01DA516B
:104202000218DF0B0218DA6FDA89045012007DEC13
:1042120021F0010E036E000ECAEC21F03F0E056E76
:10422200550EE82EFED7052EFCD700F0030E036EC6
:10423200000ECAEC21F0D60E036E010ECAEC21F07C
:104242007F928792799881987E9E869E120047C0BF
:104252000DF048C00EF0AAEC0AF00DC049F00EC0F5
:104262004AF045C032F046C033F0010E346E0E0EF5
:10427200356E49C036F04AC037F076EC20F045C0C2
:1042820002F046C003F047EC21F0120056EF21F095
:1042920002C0D9FF03C0DAFFDF50DAEC21F0024A94
:1042A200032A6A0EE82EFED700D002C0D9FF03C04F
:1042B200DAFFDF50D8A460EF21F062EF21F049EF7E
:1042C20021F01200016E0150D8B46AEF21F06CEFB8
:1042D20021F071EF21F07F8279887E8E7CEF21F0D0
:1042E2000150D8A477EF21F079EF21F07CEF21F093
:1042F2007F9279987E9E12000E01D951F00B080927
:10430200D96FD98B9F0ED66F848A848CA79BA79D69
:104312001D0E1D6F1E0E1C6F1C0E6F6F1B0E706F1D
:1043220012000E01D8B598EF21F09AEF21F092EF2A
:1043320021F0DACE01F01F0E0116D8A4A3EF21F06E
:10434200A5EF21F092EF21F0120001500302F3CF0A
:1043520005F0F4CF06F001500402F3500626025095
:104362000302F350062605C001F006C002F0120057
:1043720083888382120E0E01626F110E156FE99708
:10438200E895330EE56F000EE66FE789E88BE78F5D
:104392001200046E05EC22F0520EF5EC21F00450EE
:1043A2008009F5EC21F00350F5EC21F000EC22F04D
:1043B2001200016E0E0137A5E1EF21F0E3EF21F0CB
:1043C200DBEF21F001C0E4FE1200286E756C6C294F
:0943D200005E01BC02AA00AA0071
:1043DC008498889086907C9880907E901200026ED3
:1043EC0092EC21F002C0D5FE120092EC21F00E01ED
:1043FC00DA83120092EC21F00E01DA85120092ECB5
:10440C0021F00E01DA811200000ED36E000ED46E74
:05441C00120012000176
:020000040020DA
:10000000FF0FFF0FFF0FFF0FFF0FFF0FFF0FFF0F80
:020000040030CA
:0C000000AAFFFFFF9FFFFFFFFFFFFFFFB5
:00000001FF
