:04000000C5EF1EF03A
:100E00000052656420256620477265656E2C256654
:100E100020426C75652C2566204875652025662066
:0B0E20000D00696E66006E616E000040
:100E2C00000E00019B6F73C09EF074C09FF075C0E4
:100E3C00A0F076C0A1F0A1BF28EF07F026EF07F0D5
:100E4C003CEF07F0010E9B6F9EC001F09FC002F0BB
:100E5C00A0C003F0A1C004F043EC1EF001C09EF052
:100E6C0002C09FF003C0A0F004C0A1F0000E00016E
:100E7C009D6F000E9C6FF0C08BF0F1C08CF09B51FD
:100E8C00D8B44BEF07F04DEF07F061EF07F09B5133
:100E9C00D8A453EF07F055EF07F05BEF07F0000E07
:100EAC00816F2B0E806F5FEF07F0000E816F2D0EA0
:100EBC00806F80C09BF09EC001F09FC002F0A0C06C
:100ECC0003F0A1C004F0EDEC19F001040210D8A459
:100EDC0072EF07F074EF07F0A7EF07F000019B51DA
:100EEC00D8B47BEF07F07DEF07F086EF07F09BC0DF
:100EFC0000F18B07D8A08C07000E9D6F010E9C6F24
:100F0C00000E9C25016E010E9D21026E220E036EB9
:100F1C000E0E046EBFEC1DF00001FD0E8B27FF0EB4
:100F2C008C2371C011F072C012F0000E136E010E02
:100F3C00146E8BC015F08CC016F0DBEC1BF012EFAE
:100F4C000CF09EC001F09FC002F0A0C003F0A1C045
:100F5C0004F0EDEC19F001500210D8A4B8EF07F032
:100F6C00BAEF07F0DAEF07F000019B51D8B4C1EFEC
:100F7C0007F0C3EF07F0CCEF07F09BC000F18B0735
:100F8C00D8A08C07000E9D6F010E9C6F000E9C2547
:100F9C00016E010E9D21026E260E036E0E0E046E66
:100FAC00BFEC1DF092EF07F0000E0001A26F000ED7
:100FBC00A36F800EA46F3F0EA56F000E8A6F000EFC
:100FCC00896F9EC001F09FC002F0A0C003F0A1C0C9
:100FDC0004F0000E056E000E066E000E076E000E7D
:100FEC00086E3EEC1BF0D8B0FEEF07F000EF08F0F7
:100FFC00DFEF08F00DEF08F08DC0A2F08EC0A3F06B
:10100C008FC0A4F090C0A5F00001894B8A2BA2C020
:10101C004BF0A3C04CF0A4C04DF0A5C04EF0000E98
:10102C004F6E000E506E200E516E410E526E09EC3A
:10103C0012F04BC08DF04CC08EF04DC08FF04EC0F6
:10104C0090F000018D519E5D016E8E519F59026E84
:10105C008F51A059036E9051A159046E4DEC1CF0A8
:10106C0004BE44EF08F004500310021009E1020E14
:10107C00015CD8A044EF08F046EF08F002EF08F04E
:10108C008DC057F08EC058F08FC059F090C05AF0F8
:10109C009EC05BF09FC05CF0A0C05DF0A1C05EF094
:1010AC006AEC19F0D8A05DEF08F05FEF08F002EFE2
:1010BC0008F00001A2519E5D016EA3519F59026E72
:1010CC00A451A059036EA551A159046E4DEC1CF00E
:1010DC0004BE7EEF08F004500310021007E1020E6C
:1010EC00015CD8B07CEF08F07EEF08F0C6EF08F09A
:1010FC00A2C09EF0A3C09FF0A4C0A0F0A5C0A1F018
:10110C00DFEF08F0A2C032F0A3C033F0A4C034F07B
:10111C00A5C035F0000E366E000E376E200E386E00
:10112C00410E396E1FEC14F032C0A2F033C0A3F0A4
:10113C0034C0A4F035C0A5F000018907D8A08A07F7
:10114C00A2519E5D016EA3519F59026EA451A059EC
:10115C00036EA551A159046E4DEC1CF004BEC4EFF6
:10116C0008F004500310021007E1020E015CD8B025
:10117C00C2EF08F0C4EF08F0C6EF08F07EEF08F0FD
:10118C009EC057F09FC058F0A0C059F0A1C05AF0B3
:10119C00A2C05BF0A3C05CF0A4C05DF0A5C05EF083
:1011AC006AEC19F0D8A0DDEF08F0DFEF08F088EF5B
:1011BC0008F077C083F083C084F00001F3BFE9EF3F
:1011CC0008F0EBEF08F0F1EF08F0F2C07CF0F3C0A0
:1011DC007DF0F5EF08F0000E7D6F060E7C6F7CC085
:1011EC0087F07DC088F0874B882B660E8419D8A4B5
:1011FC0002EF09F004EF09F024EF09F08ABF0BEFBE
:10120C0009F009EF09F017EF09F0000EA26F000EBC
:10121C00A36F800EA46F3F0EA56F000E8A6F000E99
:10122C00896F670E8319D8B41EEF09F020EF09F00F
:10123C0024EF09F0895187278A518823000E926F79
:10124C00000E916F9EC093F09FC094F0A0C095F0DB
:10125C00A1C096F0A2C08DF0A3C08EF0A4C08FF0F8
:10126C00A5C090F0B5EF09F093C032F094C033F004
:10127C0095C034F096C035F0A2C036F0A3C037F05C
:10128C00A4C038F0A5C039F01FEC14F032C04BF0FC
:10129C0033C04CF034C04DF035C04EF004EC17F0B8
:1012AC004BC097F04CC098F04DC099F04EC09AF0DE
:1012BC0097C001F098C002F099C003F09AC004F0F6
:1012CC00E7EC18F001C085F002C086F093C02AF05C
:1012DC0094C02BF095C02CF096C02DF097C04FF019
:1012EC0098C050F099C051F09AC052F0A2C04BF087
:1012FC00A3C04CF0A4C04DF0A5C04EF009EC12F008
:10130C004BC02EF04CC02FF04DC030F04EC031F021
:10131C009CEC1DF02AC093F02BC094F02CC095F0DF
:10132C002DC096F0A2C032F0A3C033F0A4C034F0AC
:10133C00A5C035F0000E366E000E376E200E386EDE
:10134C00410E396E1FEC14F032C0A2F033C0A3F082
:10135C0034C0A4F035C0A5F00001914B922B8751FD
:10136C00915D9251800A786F8851800A7859D8A083
:10137C00C2EF09F0C4EF09F03AEF09F0A2C04BF04C
:10138C00A3C04CF0A4C04DF0A5C04EF0000E4F6EA3
:10139C00000E506EA00E516E400E526E09EC12F003
:1013AC004BC097F04CC098F04DC099F04EC09AF0DD
:1013BC0093C057F094C058F095C059F096C05AF0AD
:1013CC0097C05BF098C05CF099C05DF09AC05EF07D
:1013DC006AEC19F0D8B0F5EF09F0F7EF09F002EF6D
:1013EC000AF0000E0001976F000E986F000E996FB7
:1013FC00000E9A6F2BEF0AF093C001F094C002F02C
:10140C0095C003F096C004F097C005F098C006F0A4
:10141C0099C007F09AC008F03EEC1BF0D8A019EF69
:10142C000AF01BEF0AF02BEF0AF0000185B121EF57
:10143C000AF023EF0AF02BEF0AF0000E976F000E64
:10144C00986F000E996F000E9A6F9EC01AF09FC095
:10145C001BF0A0C01CF0A1C01DF097C01EF098C0DE
:10146C001FF099C020F09AC021F0A9EC0FF01AC01F
:10147C0093F01BC094F01CC095F01DC096F093C067
:10148C0057F094C058F095C059F096C05AF0000E21
:10149C004F6E000E506E200E516E410E526E8DC06E
:1014AC004BF08EC04CF08FC04DF090C04EF009EC5C
:1014BC0012F04BC05BF04CC05CF04DC05DF04EC008
:1014CC005EF06AEC19F0D8A06EEF0AF070EF0AF03B
:1014DC0099EF0AF00001894B8A2B8DC04BF08EC01E
:1014EC004CF08FC04DF090C04EF0000E4F6E000EC1
:1014FC00506E200E516E410E526E09EC12F04BC024
:10150C008DF04CC08EF04DC08FF04EC090F0660E3A
:10151C0000018419D8A495EF0AF097EF0AF099EF1F
:10152C000AF0874B882B8DC0A2F08EC0A3F08FC021
:10153C00A4F090C0A5F089C07AF08AC07BF0000EB0
:10154C000001826F000E7F6F000E7E6F000E926F97
:10155C00000E916F97EF0BF093C032F094C033F004
:10156C0095C034F096C035F0A2C036F0A3C037F069
:10157C00A4C038F0A5C039F01FEC14F032C04BF009
:10158C0033C04CF034C04DF035C04EF004EC17F0C5
:10159C004BC097F04CC098F04DC099F04EC09AF0EB
:1015AC0097C001F098C002F099C003F09AC004F003
:1015BC00E7EC18F002BEEEEF0AF0025007E10A0E5B
:1015CC00015CD8B0ECEF0AF0EEEF0AF0FEEF0AF097
:1015DC0097C001F098C002F099C003F09AC004F0D3
:1015EC00E7EC18F001C085F002C086F003EF0BF0B9
:1015FC00000E0001866F090E856F00018251D8A480
:10160C000AEF0BF00CEF0BF034EF0BF07BBF13EF8A
:10161C000BF011EF0BF034EF0BF0000E9C25D96E94
:10162C00010E9D21DA6E2E0EDF6E9C4B9D2B8B07CF
:10163C00D8A08C07010E826F34EF0BF0000E9C25A6
:10164C00D96E010E9D21DA6E300EDF6E9C4B9D2BF8
:10165C008B07D8A08C077E07D8A07F077E517F11FF
:10166C00D8A43BEF0BF03DEF0BF024EF0BF0000E8A
:10167C009C25D96E010E9D21DA6E8551300FDF6EDF
:10168C009C4B9D2B8B07D8A08C0793C02AF094C041
:10169C002BF095C02CF096C02DF097C04FF098C051
:1016AC0050F099C051F09AC052F0A2C04BF0A3C0B8
:1016BC004CF0A4C04DF0A5C04EF009EC12F04BC09C
:1016CC002EF04CC02FF04DC030F04EC031F09CECE1
:1016DC001DF02AC093F02BC094F02CC095F02DC0B7
:1016EC0096F0A2C032F0A3C033F0A4C034F0A5C071
:1016FC0035F0000E366E000E376E200E386E410E31
:10170C00396E1FEC14F032C0A2F033C0A3F034C019
:10171C00A4F035C0A5F000017A07D8A07B07914B47
:10172C00922B8751915D9251800A786F8851800A73
:10173C007859D8B0A4EF0BF0A6EF0BF0B4EF0BF088
:10174C009DBFB2EF0BF09D5109E14B0E9C5DD8A0F3
:10175C00B2EF0BF0B4EF0BF0B2EF0AF0000E926F99
:10176C004F0E916F000E9125D96E010E9221DA6EFB
:10177C00000EDF6E000E786F010E796F9C51785F52
:10178C009D51795B91517825016E92517921026EB0
:10179C00000E036E010E046E9CC005F09DC006F099
:1017AC0074EC1DF000019C51915D9C6F9D51925900
:1017BC009D6F9B51D8A4E5EF0BF0E8EF0BF0010EF9
:1017CC00E9EF0BF0000E916F926B9B51D8B4F1EFD7
:1017DC000BF0F3EF0BF0FEEF0BF09C07D8A09D077E
:1017EC00000E9C25D96E010E9D21DA6E9BC0DFFF89
:1017FC0091518B5F92518C5B71C011F072C012F0E1
:10180C00000E9C25136E010E9D21146E8BC015F0DD
:10181C008CC016F0DBEC1BF0120071C0D9FF72C04B
:10182C00DAFFDECF01F0DECF02F0DECF03F0DECF49
:10183C0004F0000120EE04F07151D9267251DA2225
:10184C00DECF05F0DECF06F0DECF07F0DECF08F0FE
:10185C003EEC1BF0D8A035EF0CF037EF0CF06CEF32
:10186C000CF071C0D9FF72C0DAFFDECF01F0DECF11
:10187C0002F0DECF03F0DECF04F0000120EE08F022
:10188C007151D9267251DA22DECF05F0DECF06F087
:10189C00DECF07F0DECF08F03EEC1BF0D8A059EFFE
:1018AC000CF05BEF0CF06CEF0CF0000120EE10F084
:1018BC007151D9267251DA22000EDE6E000EDE6EE8
:1018CC00000EDE6E000EDD6EA8EF0FF0000E0001B4
:1018DC007E6F000E7D6F71C0D9FF72C0DAFFDECF54
:1018EC0057F0DECF58F0DECF59F0DECF5AF020EEB5
:1018FC0004F07151D9267251DA22DECF5BF0DECFC3
:10190C005CF0DECF5DF0DECF5EF06AEC19F0D8B0A3
:10191C0092EF0CF094EF0CF0CCEF0CF071C0D9FFFF
:10192C0072C0DAFFDECF57F0DECF58F0DECF59F0C1
:10193C00DECF5AF0000120EE08F07151D926725119
:10194C00DA22DECF5BF0DECF5CF0DECF5DF0DECFF7
:10195C005EF06AEC19F0D8B0B6EF0CF0B8EF0CF002
:10196C00CCEF0CF071C0D9FF72C0DAFFDECF01F002
:10197C00DECF02F0DECF03F0DECF04F0E7EC18F0A0
:10198C0001C07DF002C07EF042EF0DF0000120EEB0
:10199C0004F07151D9267251DA22DECF57F0DECF26
:1019AC0058F0DECF59F0DECF5AF071C0D9FF72C0BB
:1019BC00DAFFDECF5BF0DECF5CF0DECF5DF0DECFAA
:1019CC005EF06AEC19F0D8B0EEEF0CF0F0EF0CF022
:1019DC002DEF0DF0000120EE04F07151D92672515B
:1019EC00DA22DECF57F0DECF58F0DECF59F0DECF63
:1019FC005AF020EE08F07151D9267251DA22DECF5E
:101A0C005BF0DECF5CF0DECF5DF0DECF5EF06AEC3B
:101A1C0019F0D8B014EF0DF016EF0DF02DEF0DF00E
:101A2C00000120EE04F07151D9267251DA22DECF7A
:101A3C0001F0DECF02F0DECF03F0DECF04F0E7ECF6
:101A4C0018F001C07DF002C07EF042EF0DF00001F5
:101A5C0020EE08F07151D9267251DA22DECF01F056
:101A6C00DECF02F0DECF03F0DECF04F0E7EC18F0AF
:101A7C0001C07DF002C07EF0000120EE04F0715137
:101A8C00D9267251DA22DECF57F0DECF58F0DECFF6
:101A9C0059F0DECF5AF071C0D9FF72C0DAFFDECF39
:101AAC005BF0DECF5CF0DECF5DF0DECF5EF06AEC9B
:101ABC0019F0D8B064EF0DF066EF0DF003EF0EF0F7
:101ACC00000120EE08F07151D9267251DA22DECFD6
:101ADC0057F0DECF58F0DECF59F0DECF5AF071C0A0
:101AEC00D9FF72C0DAFFDECF5BF0DECF5CF0DECF69
:101AFC005DF0DECF5EF06AEC19F0D8B088EF0DF037
:101B0C008AEF0DF003EF0EF071C0D9FF72C0DAFF4F
:101B1C00DECF01F0DECF02F0DECF03F0DECF04F03B
:101B2C00E7EC18F001C07BF002C07CF000017D51A5
:101B3C007B5D736F7E517C59746F73C00CF074C0F5
:101B4C000DF0000E0DBEFF0E0E6E0F6E010E0DECA5
:101B5C0018F00CC036F00DC037F00EC038F00FC0C6
:101B6C0039F0000120EE08F07151D9267251DA22B9
:101B7C00DECF2EF0DECF2FF0DECF30F0DECF31F027
:101B8C0020EE04F07151D9267251DA22DECF2AF000
:101B9C00DECF2BF0DECF2CF0DECF2DF09CEC1DF049
:101BAC002AC032F02BC033F02CC034F02DC035F0ED
:101BBC001FEC14F032C04BF033C04CF034C04DF07D
:101BCC0035C04EF0000E4F6E000E506E700E516E02
:101BDC00420E526E09EC12F0000120EE10F0715121
:101BEC00D9267251DA224BC0DEFF4CC0DEFF4DC04D
:101BFC00DEFF4EC0DEFF73EF0FF071C0D9FF72C075
:101C0C00DAFFDECF57F0DECF58F0DECF59F0DECF63
:101C1C005AF0000120EE04F07151D9267251DA22EB
:101C2C00DECF5BF0DECF5CF0DECF5DF0DECF5EF0C2
:101C3C006AEC19F0D8B025EF0EF027EF0EF0E1EFBB
:101C4C000EF0000120EE08F07151D9267251DA2203
:101C5C00DECF57F0DECF58F0DECF59F0DECF5AF0A2
:101C6C0020EE04F07151D9267251DA22DECF5BF0EE
:101C7C00DECF5CF0DECF5DF0DECF5EF06AEC19F00B
:101C8C00D8B04BEF0EF04DEF0EF0E1EF0EF000017F
:101C9C0020EE04F07151D9267251DA22DECF01F018
:101CAC00DECF02F0DECF03F0DECF04F0E7EC18F06D
:101CBC0001C07BF002C07CF000017D517B5D736F35
:101CCC007E517C59746F73C00CF074C00DF0000E13
:101CDC000DBEFF0E0E6E0F6E010E0DEC18F00CC04B
:101CEC0036F00DC037F00EC038F00FC039F071C0AF
:101CFC00D9FF72C0DAFFDECF2EF0DECF2FF0DECFB1
:101D0C0030F0DECF31F0000120EE08F07151D92611
:101D1C007251DA22DECF2AF0DECF2BF0DECF2CF0A0
:101D2C00DECF2DF09CEC1DF02AC032F02BC033F02E
:101D3C002CC034F02DC035F01FEC14F032C077F00D
:101D4C0033C078F034C079F035C07AF0000E1E6ED6
:101D5C00000E1F6E000E206E400E216E77C01AF022
:101D6C0078C01BF079C01CF07AC01DF0A9EC0FF004
:101D7C001AC04BF01BC04CF01CC04DF01DC04EF0F7
:101D8C00000E4F6E000E506E700E516E420E526E63
:101D9C0009EC12F0000120EE10F07151D9267251AD
:101DAC00DA224BC0DEFF4CC0DEFF4DC0DEFF4EC062
:101DBC00DEFF73EF0FF0000120EE08F07151D92611
:101DCC007251DA22DECF01F0DECF02F0DECF03F06B
:101DDC00DECF04F0E7EC18F001C07BF002C07CF021
:101DEC0000017D517B5D736F7E517C59746F73C0A4
:101DFC000CF074C00DF0000E0DBEFF0E0E6E0F6ECB
:101E0C00010E0DEC18F00CC036F00DC037F00EC002
:101E1C0038F00FC039F0000120EE04F07151D926D2
:101E2C007251DA22DECF2EF0DECF2FF0DECF30F083
:101E3C00DECF31F071C0D9FF72C0DAFFDECF2AF0ED
:101E4C00DECF2BF0DECF2CF0DECF2DF09CEC1DF096
:101E5C002AC032F02BC033F02CC034F02DC035F03A
:101E6C001FEC14F032C077F033C078F034C079F046
:101E7C0035C07AF0000E1E6E000E1F6E800E206EA6
:101E8C00400E216E77C01AF078C01BF079C01CF0A0
:101E9C007AC01DF0A9EC0FF01AC04BF01BC04CF02F
:101EAC001CC04DF01DC04EF0000E4F6E000E506E5B
:101EBC00700E516E420E526E09EC12F0000120EEC3
:101ECC0010F07151D9267251DA224BC0DEFF4CC092
:101EDC00DEFF4DC0DEFF4EC0DEFF20EE10F0715174
:101EEC00D9267251DA22030EDBBE81EF0FF07FEFA1
:101EFC000FF0A8EF0FF020EE10F07151D9267251AF
:101F0C00DA22DECF1AF0DECF1BF0DECF1CF0DECFF4
:101F1C001DF0000E1E6E000E1F6EB40E206E430ED2
:101F2C00216EA9EC0FF0000120EE10F07151D926B2
:101F3C007251DA221AC0DEFF1BC0DEFF1CC0DEFFAE
:101F4C001DC0DEFF12001D50800B266E1D501D247F
:101F5C00286E1CAEB4EF0FF0B6EF0FF0B7EF0FF02A
:101F6C0028802850D8B4BDEF0FF0BFEF0FF0D4EF9E
:101F7C000FF02828D8A4C5EF0FF0C7EF0FF0CFEF64
:101F8C000FF0000E1A6E000E1B6E000E1C6E000E73
:101F9C001D6E1C8E000E1D6EDCEF0FF0000E1A6E07
:101FAC00000E1B6E000E1C6E000E1D6E2150800B61
:101FBC00276E26502718D8B4E6EF0FF0E8EF0FF095
:101FCC00E9EF0FF0268C21502124276E20AEF1EF83
:101FDC000FF0F3EF0FF0F4EF0FF027802750D8B489
:101FEC00FAEF0FF0FCEF0FF011EF10F02728D8A448
:101FFC0002EF10F004EF10F00CEF10F0000E1E6E5C
:10200C00000E1F6E000E206E000E216E208E000E34
:10201C00216E19EF10F0000E1E6E000E1F6E000EDA
:10202C00206E000E216E2850275CD8B020EF10F0E7
:10203C0022EF10F049EF10F026AC27EF10F029EF4B
:10204C0010F02BEF10F0800E261A28C029F027C0B4
:10205C0028F029C027F01AC029F01EC01AF029C098
:10206C001EF01BC029F01FC01BF029C01FF01CC0A4
:10207C0029F020C01CF029C020F01DC029F021C07F
:10208C001DF029C021F0000E296E285027C022F027
:10209C00236A225E000E235A23BE5EEF10F02350FB
:1020AC0009E11A0E225CD8A05EEF10F060EF10F080
:1020BC0097EF10F01A501B101C101D10D8A469EFCC
:1020CC0010F06CEF10F0010E6DEF10F0000E296E99
:1020DC00000E1A6E000E1B6E000E1C6E000E1D6E96
:1020EC0027C028F0A0EF10F029A07FEF10F081EFAF
:1020FC0010F087EF10F0D89029300109296E89EF84
:10210C0010F0D89029321AA08EEF10F090EF10F04A
:10211C0091EF10F0298E1D341D321C321B321A32F5
:10212C00282A2750285CD8A09EEF10F0A0EF10F0C2
:10213C007AEF10F026BCA5EF10F0A7EF10F0E7EF48
:10214C0010F02850D8A4ADEF10F0AFEF10F0B9EFAD
:10215C0010F0000E1A6E000E1B6E000E1C6E000EA0
:10216C001D6E08EF12F01E501A261F501B22205015
:10217C001C2221501D221DA0C6EF10F0C8EF10F03C
:10218C0074EF11F029A0CDEF10F0CFEF10F0D5EFD8
:10219C0010F0D89029300109296ED7EF10F0D890A3
:1021AC0029321AA0DCEF10F0DEEF10F0DFEF10F0A8
:1021BC00298E1D341D321C321B321A32282A74EF20
:1021CC0011F01E501A5C1F501B5820501C581D50EB
:1021DC00800A226E2150800A2258D8B0F8EF10F0F5
:1021EC00FAEF10F025EF11F01A501E5C226E1B5006
:1021FC001F58236E1C502058246E1D502158256EDC
:10220C00FF0E22241A6EFF0E23201B6EFF0E2420BD
:10221C001C6EFF0E25201D6E800E261A296C29506F
:10222C00D8A41BEF11F01DEF11F02DEF11F0010EE2
:10223C001A26000E1B221C221D222DEF11F01E50FF
:10224C001A5E1F501B5A20501C5A21501D5A1A50EE
:10225C001B101C101D10D8A436EF11F038EF11F024
:10226C006DEF11F02950D8A43EEF11F040EF11F0B2
:10227C006DEF11F0000E1A6E000E1B6E000E1C6E30
:10228C00000E1D6E08EF12F0D8901A361B361C3655
:10229C001D3629AE54EF11F056EF11F057EF11F037
:1022AC001A8029A05CEF11F05EEF11F062EF11F0D3
:1022BC00D880293664EF11F0D89029362850D8B43C
:1022CC006AEF11F06CEF11F06DEF11F028061CAEF7
:1022DC0072EF11F074EF11F04AEF11F0000E276E4F
:1022EC0029AE7BEF11F07DEF11F095EF11F029C0C5
:1022FC0022F07F0E2216D8B486EF11F088EF11F081
:10230C008CEF11F0010E276E95EF11F01AA091EFE2
:10231C0011F093EF11F095EF11F088EF11F02750B9
:10232C00D8B49BEF11F09DEF11F0C8EF11F0010E36
:10233C001A26000E1B221C221D221DA0A8EF11F034
:10234C00AAEF11F0C8EF11F01AC022F01BC023F055
:10235C001CC024F01DC025F0253425322432233234
:10236C00223222C01AF023C01BF024C01CF025C05E
:10237C001DF02828D8B4C5EF11F0C7EF11F0C8EF45
:10238C0011F0282A2828D8B4CEEF11F0D0EF11F094
:10239C00D8EF11F02850D8A4D6EF11F0D8EF11F0E7
:1023AC00EAEF11F0000E1A6E000E1B6E000E1C6E82
:1023BC00000E1D6E2850D8A4E6EF11F0E8EF11F0D6
:1023CC00EAEF11F0000E266E28A0EFEF11F0F1EFFE
:1023DC0011F0F4EF11F01C8EF5EF11F01C9ED8905B
:1023EC0028301D6E26AEFDEF11F0FFEF11F000EF5F
:1023FC0012F01D8E1AC01AF01BC01BF01CC01CF072
:10240C001DC01DF012004E50800B0001606F4E502D
:10241C004E24666F4DAE15EF12F017EF12F018EF59
:10242C0012F066816651D8B41EEF12F020EF12F054
:10243C0033EF12F06629D8A426EF12F028EF12F031
:10244C0030EF12F0000E4B6E000E4C6E000E4D6E07
:10245C00000E4E6E4D8E3BEF12F0000E4B6E000ECA
:10246C004C6E000E4D6E000E4E6E5250800B601B6B
:10247C0052505224656F51AE46EF12F048EF12F0F5
:10248C0049EF12F065816551D8B44FEF12F051EF5E
:10249C0012F064EF12F06529D8A457EF12F059EF3F
:1024AC0012F061EF12F0000E4F6E000E506E000E27
:1024BC00516E000E526E518E6CEF12F0000E4F6E7C
:1024CC00000E506E000E516E000E526E6551D8B457
:1024DC0072EF12F074EF12F07CEF12F06651D8A488
:1024EC007AEF12F07CEF12F086EF12F0000E4B6ECA
:1024FC00000E4C6E000E4D6E000E4E6E1EEF14F064
:10250C0051504B02F3CF6BF0F4CF6CF06B51616F09
:10251C00626B636B646B6C51676F686B696B6A6B36
:10252C0050504C02F3CF6BF0F4CF6CF06B51612731
:10253C00000E6223632364236C516727000E68230B
:10254C0069236A234F504D02F3CF6BF0F4CF6CF03C
:10255C006B516127000E6223632364236C51672740
:10256C00000E682369236A2363C064F062C063F0C1
:10257C0061C062F0616B4F504C02F3CF6BF0F4CF43
:10258C006CF06B5161276C516223000E6323000EBB
:10259C00642350504B02F3CF6BF0F4CF6CF06B51C3
:1025AC0061276C516223000E6323000E642363C009
:1025BC0064F062C063F061C062F0616B4F504B021B
:1025CC00F3CF6BF0F4CF6CF06B5161276C5162233D
:1025DC00000E6323000E642351504C02F3CF6BF0BA
:1025EC00F4CF6CF06B5167276C516823000E692394
:1025FC00000E6A2350504D02F3CF6BF0F4CF6CF009
:10260C006B5167276C516823000E6923000E6A23F7
:10261C0051504D02F3CF6BF0F4CF6CF06B51536E05
:10262C006C51546E556A566A55C056F054C055F0EC
:10263C0053C054F0536A5350672754506823555075
:10264C00692356506A2361C053F062C054F063C0D2
:10265C0055F064C056F0190E39EF13F0D89056327D
:10266C00553254325332E82E34EF13F0535067275F
:10267C00545068235550692356506A2363C064F044
:10268C0062C063F061C062F0616B655166C053F06B
:10269C00546A5326000E5422820E53246B6FFF0E85
:1026AC0054206C6F6FEF13F0D89067376837693729
:1026BC006A3764AF64EF13F066EF13F067EF13F053
:1026CC006781D89061376237633764376B07D8A05E
:1026DC006C0769AF74EF13F076EF13F05AEF13F049
:1026EC00000E656F64AF7DEF13F07FEF13F0A3EF77
:1026FC0013F0FF0E6115536EFF0E6215546EFF0E34
:10270C006315556E7F0E6415566E5350541055104C
:10271C005610D8B494EF13F096EF13F09AEF13F021
:10272C00010E656FA3EF13F067A19FEF13F0A1EFFC
:10273C0013F0A3EF13F096EF13F06551D8B4A9EF93
:10274C0013F0ABEF13F0CFEF13F0010E6727000E71
:10275C00682369236A236AA1B6EF13F0B8EF13F06C
:10276C00CFEF13F067C053F068C054F069C055F058
:10277C006AC056F05634563255325432533253C026
:10278C0067F054C068F055C069F056C06AF06B4BE6
:10279C006C2B6CBFDAEF13F06C5108E16B29D8A0ED
:1027AC00DAEF13F0DCEF13F0E6EF13F0000E676FC7
:1027BC00000E686F800E696F7F0E6A6F14EF14F055
:1027CC006CBFF3EF13F06C5106E16B05D8B0F1EF71
:1027DC0013F0F3EF13F0FFEF13F0000E676F000E22
:1027EC00686F000E696F000E6A6F000E606F14EF59
:1027FC0014F06BC066F0FF0E6717FF0E68177F0EA4
:10280C006917000E6A1766A10EEF14F010EF14F0A2
:10281C0011EF14F0698FD89066316A6F60516A13AA
:10282C0067C04BF068C04CF069C04DF06AC04EF008
:10283C0012003550800B426E35503524496E34AE43
:10284C002AEF14F02CEF14F02DEF14F049804950BE
:10285C00D8B433EF14F035EF14F04AEF14F04928E4
:10286C00D8A43BEF14F03DEF14F045EF14F0000E3C
:10287C00326E000E336E000E346E000E356E348EDA
:10288C00000E356E52EF14F0000E326E000E336EE9
:10289C00000E346E000E356E3950800B421A3950D2
:1028AC0039244A6E38AE5DEF14F05FEF14F060EF30
:1028BC0014F04A804A50D8B466EF14F068EF14F064
:1028CC007DEF14F04A28D8A46EEF14F070EF14F0DA
:1028DC0078EF14F0000E366E000E376E000E386E68
:1028EC00000E396E388E000E396E85EF14F0000E26
:1028FC00366E000E376E000E386E000E396E365086
:10290C00371038103910D8A48EEF14F090EF14F063
:10291C00A8EF14F0000E326E000E336E000E346E03
:10292C00000E356E800E34127F0E35124250351269
:10293C0032C032F033C033F034C034F035C035F02F
:10294C00EBEF15F04950D8A4AEEF14F0B0EF14F043
:10295C00BAEF14F0000E326E000E336E000E346EB1
:10296C00000E356EEBEF15F04A5049C03AF03B6A59
:10297C003A5E000E3B5A7F0E3A24436E000E3B200B
:10298C00446E32C03EF033C03FF034C040F035C02E
:10299C0041F0000E326E000E336E000E346E000EDF
:1029AC00356E000E456E000E466E000E476E000E24
:1029BC00486E000E4A6E1BEF15F04A50D8B4E9EF82
:1029CC0014F0EBEF14F002EF15F0D8903E363F36D2
:1029DC0040364136D890323633363436353648AEFA
:1029EC00FAEF14F0FCEF14F0FDEF14F03280D890F5
:1029FC00453646364736483636503E5C37503F589B
:102A0C003850405839504158D8A00FEF15F011EFFD
:102A1C0015F01AEF15F0488C36503E5E37503F5A81
:102A2C003850405A3950415A4A2A190E4A6421EFFB
:102A3C0015F023EF15F0E3EF14F03E503F1040106B
:102A4C004110D8B42CEF15F02EEF15F046EF15F021
:102A5C00458046EF15F0D89032363336343635365D
:102A6C0048AE3BEF15F03DEF15F03EEF15F0328020
:102A7C00D89045364636473648364306D8A04406E5
:102A8C0034AE4BEF15F04DEF15F031EF15F0000EA5
:102A9C004A6E48AE54EF15F056EF15F07AEF15F07C
:102AAC00FF0E45143A6EFF0E46143B6EFF0E471494
:102ABC003C6E7F0E48143D6E3A503B103C103D105E
:102ACC00D8B46BEF15F06DEF15F071EF15F0010E3A
:102ADC004A6E7AEF15F032A076EF15F078EF15F01C
:102AEC007AEF15F06DEF15F04A50D8B480EF15F071
:102AFC0082EF15F0A6EF15F0010E3226000E3322F0
:102B0C003422352235A08DEF15F08FEF15F0A6EF9E
:102B1C0015F032C03AF033C03BF034C03CF035C055
:102B2C003DF03D343D323C323B323A323AC032F029
:102B3C003BC033F03CC034F03DC035F0434A442A2E
:102B4C0044BEB1EF15F0445008E14328D8A0B1EFD2
:102B5C0015F0B3EF15F0BEEF15F0000E446E4368A0
:102B6C00000E326E000E336E000E346E000E356E9B
:102B7C0044BECBEF15F0445006E14304D8B0C9EF86
:102B8C0015F0CBEF15F0D9EF15F0000E446E000EDA
:102B9C00436E000E326E000E336E000E346E000E5D
:102BAC00356E000E426E43C049F049A0E0EF15F0BF
:102BBC00E2EF15F0E5EF15F0348EE6EF15F0349EEC
:102BCC00D8904930356E9CEF14F01200A8C0D9FF94
:102BDC00A9C0DAFFDECFF6FFDDCFF7FF000EF86EEF
:102BEC000800F550250AD8A4FEEF15F000EF16F0FA
:102BFC00EDEF16F0A8C0D9FFA9C0DAFFDE2A000E4F
:102C0C00DD22000E0001F16F000EF06FF0C0F4F049
:102C1C00F269F369A8C0D9FFA9C0DAFFDECFB7F01B
:102C2C00DDCFB8F0B7C0F6FFB8C0F7FF000EF86EF6
:102C3C000800F5CFB6F02FEF16F0B74BB82B48EFD6
:102C4C0016F06C0EB66F48EF16F0000EB66F48EF2C
:102C5C0016F0B651AC6FAD6BAD51000AD8B439EF6C
:102C6C0016F02BEF16F0AC514C0AD8B423EF16F03B
:102C7C002A0AD8B427EF16F00A0AD8B423EF16F0B4
:102C8C002BEF16F0B7C0F6FFB8C0F7FF000EF86ECA
:102C9C000800F550660AD8A456EF16F058EF16F057
:102CAC00E4EF16F08EEF16F0AAC0D9FFABC0DAFF36
:102CBC00DFCFACF0040EDE26DFCFADF0000EDD2250
:102CCC00ACC0D9FFADC0DAFFDECFAEF0DECFAFF0D7
:102CDC00DECFB0F0DECFB1F0A3EF16F0AAC0D9FF73
:102CEC00ABC0DAFFDFCFACF0040EDE26DFCFADF0E9
:102CFC00000EDD22ACC0D9FFADC0DAFFDECFAEF0E6
:102D0C00DECFAFF0DECFB0F0DECFB1F0A3EF16F038
:102D1C00B651AC6FAD6BAD51000AD8B498EF16F04C
:102D2C00A3EF16F0AC514C0AD8B474EF16F0200A8D
:102D3C00D8B45AEF16F0A3EF16F0010EB725AC6F0E
:102D4C00000EB821AD6FA8C0D9FFA9C0DAFFACC086
:102D5C00DEFFADC0DDFFCCEF16F0A6C071F0A7C052
:102D6C0072F0AEC073F0AFC074F0B0C075F0B1C00B
:102D7C0076F0B7C0F6FFB8C0F7FF000EF86E08008B
:102D8C00F5CF77F016EC07F003EF17F0B7C0F6FFAE
:102D9C00B8C0F7FF000EF86E0800F550AC6FAD6BC5
:102DAC00AD51000AD8B4DDEF16F0E4EF16F0AC51DB
:102DBC00660AD8B4B3EF16F0E4EF16F0A8C0D9FF4A
:102DCC00A9C0DAFFDE2A000EDD2203EF17F0A8C03F
:102DDC00D9FFA9C0DAFFDECFF6FFDDCFF7FF000E7B
:102DEC00F86E0800F550016E026AA6C003F0A7C089
:102DFC0004F0D9EC1AF0E4EF16F01200E8C05BF026
:102E0C00E9C05CF0EAC05DF0EBC05EF04BC05BF07B
:102E1C004CC05CF04DC05DF04EC05EF0810E4F6E4C
:102E2C00FF0E506E5BC051F05CC052F05DC053F0B1
:102E3C005EC054F0180E28EF17F0D890543253326D
:102E4C0052325132E82E23EF17F051504F24596E65
:102E5C00000E50205A6E5ABE3DEF17F05A5009E141
:102E6C00170E595CD8A03DEF17F03FEF17F049EF64
:102E7C0017F04BC04BF04CC04CF04DC04DF04EC059
:102E8C004EF00CEF18F05ABE4EEF17F050EF17F053
:102E9C00C0EF17F059C04FF0FF0E506EFF0E516E81
:102EAC007F0E526E000E536E4F665FEF17F067EF9A
:102EBC0017F0533453325232513250324F2E5AEFA4
:102ECC0017F050C055F051C056F052C057F053C0D7
:102EDC0058F055505B144F6E56505C14506E575052
:102EEC005D14516E58505E14526E4F50501051106C
:102EFC005210D8A484EF17F086EF17F088EF17F074
:102F0C003FEF17F05BC04FF05CC050F05DC051F06C
:102F1C005EC052F0200E98EF17F0D890523251321A
:102F2C0050324F32E82E93EF17F04F505010511093
:102F3C005210D8B4A4EF17F0A6EF17F0AEEF17F0BD
:102F4C0055505B2656505C2257505D2258505E22DD
:102F5C00551C4F6E561C506E571C516E581C526EA1
:102F6C004F505B1650505C1651505D1652505E1609
:102F7C0004EF18F05BC04FF05CC050F05DC051F036
:102F8C005EC052F0200ED0EF17F0D8905232513272
:102F9C0050324F32E82ECBEF17F04F5050105110EB
:102FAC005210D8A4DCEF17F0DEEF17F0E8EF17F0B3
:102FBC00000E5B6E000E5C6E000E5D6E000E5E6EA3
:102FCC0004EF18F0D8905B344F6E5C34506E5D3467
:102FDC00516E5E34526E4F50501051105210D8B486
:102FEC00FAEF17F0FCEF17F004EF18F0000E5B6E21
:102FFC00000E5C6E800E5D6EBF0E5E6E5BC04BF0A5
:10300C005CC04CF05DC04DF05EC04EF01200146E12
:10301C001450D8B414EF18F016EF18F038EF18F06D
:10302C000FBE1DEF18F01BEF18F038EF18F00CC0A6
:10303C0010F00DC011F00EC012F00FC013F0101EE6
:10304C00111E121E131E102A000E11221222132200
:10305C0010C016F011C017F012C018F013C019F000
:10306C0040EF18F00CC016F00DC017F00EC018F0A1
:10307C000FC019F00C500D100E100F10D8A449EF02
:10308C0018F04BEF18F055EF18F0000E0C6E000E08
:10309C000D6E000E0E6E000E0F6EE6EF18F0960E13
:1030AC00156E5FEF18F0152AD890193218321732B6
:1030BC001632000E1614106E000E1714116E000E40
:1030CC001814126EFE0E1914136E105011101210EB
:1030DC001310D8A474EF18F076EF18F059EF18F01D
:1030EC0084EF18F0152A010E1626000E172218224E
:1030FC001922D8901932183217321632000E1614C3
:10310C00106E000E1714116E000E1814126EFF0EB6
:10311C001914136E1050111012101310D8A499EF2B
:10312C0018F09BEF18F078EF18F0A3EF18F01506D5
:10313C00D890163617361836193618BEA8EF18F070
:10314C00AAEF18F0B2EF18F0020E1560B0EF18F0FD
:10315C00B2EF18F09DEF18F015B0B7EF18F0B9EF0B
:10316C0018F0BAEF18F0189ED890153215C010F060
:10317C00116A126A136A10C013F0126A116A106A8B
:10318C001050161211501712125018121350191207
:10319C001450D8B4D4EF18F0D6EF18F0DEEF18F0C6
:1031AC000FBEDDEF18F0DBEF18F0DEEF18F0198E24
:1031BC0016C00CF017C00DF018C00EF019C00FF0AF
:1031CC001200033404340A6E0A50D8A4F0EF18F03D
:1031DC00F2EF18F0FCEF18F0000E016E000E026E0C
:1031EC00000E036E000E046E69EF19F001C005F0BD
:1031FC0002C006F003C007F004C008F0200E0CEF6C
:10320C0019F0D8900832073206320532E82E07EF53
:10321C0019F00550096E038EFF0E0116FF0E0216F3
:10322C00FF0E0316000E0416960E0A5E0ABE23EF5E
:10323C0019F021EF19F039EF19F00A50800A970FA5
:10324C00D8B02BEF19F02DEF19F02FEF19F0F2EF9A
:10325C0018F0D89004320332023201320A3E2FEFBA
:10326C0019F051EF19F01F0E0A643FEF19F041EFFE
:10327C0019F049EF19F0F2EF18F0D8900136023638
:10328C00033604360A060A50D8A44FEF19F051EF52
:10329C0019F043EF19F00950D8B457EF19F059EF62
:1032AC0019F061EF19F0041E031E021E016C000ED2
:1032BC0002220322042201C001F002C002F003C06A
:1032CC0003F004C004F01200000E571400016D6FDF
:1032DC00000E58146E6F800E59146F6F7F0E5A14B7
:1032EC00706F6D516E116F117011D8A480EF19F0C1
:1032FC0082EF19F08AEF19F0000E576E000E586E1F
:10330C00000E596E000E5A6E000E5B146D6F000E9F
:10331C005C146E6F800E5D146F6F7F0E5E14706F99
:10332C006D516E116F117011D8A49FEF19F0A1EFB0
:10333C0019F0A9EF19F0000E5B6E000E5C6E000E1A
:10334C005D6E000E5E6E5AAEAEEF19F0B0EF19F076
:10335C00B9EF19F0576C581ED8B0582A591ED8B06E
:10336C00592A800E5A565EAEBEEF19F0C0EF19F016
:10337C00C9EF19F05B6C5C1ED8B05C2A5D1ED8B02E
:10338C005D2A800E5E56000E571A000E581A000E5B
:10339C00591A800E5A1A000E5B1A000E5C1A000E97
:1033AC005D1A800E5E1A5B50575C5C5058585D502D
:1033BC0059585E505A58D8B0E6EF19F0E8EF19F0AA
:1033CC00EBEF19F0D890ECEF19F0D8801200ECC0AC
:1033DC000BF0EDC00CF0EEC00DF0EFC00EF001C024
:1033EC000BF002C00CF003C00DF004C00EF00BC0CB
:1033FC0005F00CC006F00DC007F00EC008F0180E5A
:10340C000DEF1AF0D8900832073206320532E82E4A
:10341C0008EF1AF00550096E0A6A09500A10D8A470
:10342C001AEF1AF01CEF1AF03CEF1AF0D8900B348C
:10343C00056E0C34066E0D34076E0E34086E055096
:10344C00061007100810D8A42EEF1AF030EF1AF05F
:10345C0036EF1AF0000E026E020E016E6BEF1AF0D0
:10346C00000E026E030E016E6BEF1AF009280A10A3
:10347C00D8A443EF1AF045EF1AF067EF1AF00BC01F
:10348C0005F00CC006F00DC007F00EC008F0090ED8
:10349C00D8900536063607360836E82E4EEF1AF069
:1034AC000550061007100810D8B45FEF1AF062EF41
:1034BC001AF0010E63EF1AF0000E016E026A6BEF48
:1034CC001AF0000E026E040E016E1200D4EC1CF009
:1034DC0005C00CF006C00DF00E6A0F6A000E0DEC64
:1034EC0018F00CC01CF00DC01DF00EC01EF00FC06B
:1034FC001FF0FCEC1CF005C00CF006C00DF00E6AC1
:10350C000F6A000E0DEC18F00CC020F00DC021F06D
:10351C000EC022F00FC023F04CEC1DF005C00CF0D7
:10352C0006C00DF00E6A0F6A000E0DEC18F00CC000
:10353C0024F00DC025F00EC026F00FC027F024ECAF
:10354C001DF005C00CF006C00DF00E6A0F6A000EDF
:10355C000DEC18F01AC0D9FF1BC0DAFF1CC0DEFF3F
:10356C001DC0DEFF1EC0DEFF1FC0DEFF20EE08F018
:10357C001A50D9261B50DA2224C0DEFF25C0DEFFEC
:10358C0026C0DEFF27C0DEFF20EE04F01A50D9263D
:10359C001B50DA2220C0DEFF21C0DEFF22C0DEFF7E
:1035AC0023C0DEFF120003500410D8B4E0EF1AF071
:1035BC00E2EF1AF0EBEF1AF003500410D8A4E9EF85
:1035CC001AF0EBEF1AF0F0EF1AF00150F5EC1EF0D8
:1035DC003DEF1BF020EE09F00350D9260450DA22FF
:1035EC00DE50DE10D8B4FDEF1AF0FFEF1AF01AEF30
:1035FC001BF020EE09F00350D9260450DA2210EE0D
:10360C0003F00350E1260450E222DE50E65CE65063
:10361C00800A096EDE50800A0958D8B018EF1BF0EA
:10362C001AEF1BF03DEF1BF020EE03F00350D926F0
:10363C000450DA22DECF05F0DDCF06F003C0D9FF4F
:10364C0004C0DAFFDECF07F0DDCF08F00550072409
:10365C00D96E06500820DA6E01C0DFFF20EE03F0B1
:10366C000350D9260450DA22DE2A000EDD22120085
:10367C00000E0114096E000E02140A6E800E031463
:10368C000B6E7F0E04140C6E09500A100B100C10EC
:10369C00D8A453EF1BF055EF1BF05DEF1BF0000EA1
:1036AC00016E000E026E000E036E000E046E000E14
:1036BC000514096E000E06140A6E800E07140B6EAC
:1036CC007F0E08140C6E09500A100B100C10D8A4A5
:1036DC0072EF1BF074EF1BF07CEF1BF0000E056E0D
:1036EC00000E066E000E076E000E086E05500118D7
:1036FC000FE1065002180CE10750031809E10850BD
:10370C000418D8B48CEF1BF08EEF1BF091EF1BF06C
:10371C00D89092EF1BF0D8801200E2C0C1F0E3C049
:10372C00C2F0010E0001C36F0E0EC46FE4C0D9FFCE
:10373C00E5C0DAFFDECFC5F0DECFC6F0DECFC7F0D6
:10374C00DECFC8F020EE04F0E451D926E551DA22A0
:10375C00DECFC9F0DECFCAF0DECFCBF0DECFCCF0BF
:10376C0020EE08F0E451D926E551DA22DECFCDF077
:10377C00DECFCEF0DECFCFF0DECFD0F020EE10F0EB
:10378C00E451D926E551DA22DECFD1F0DECFD2F0EA
:10379C00DECFD3F0DECFD4F0ABEC1CF0E2C002F005
:1037AC00E3C003F05FEC1EF0120016BEE0EF1BF05E
:1037BC00E2EF1BF0E8EF1BF015C01AF016C01BF07F
:1037CC00ECEF1BF0000E1B6E000E1A6E000E196E45
:1037DC00000E186EFEEF1BF0000E026E200E016E36
:1037EC0011C003F012C004F0D9EC1AF0184A192ACF
:1037FC001A50185C1950800A176E1B50800A175803
:10380C00D8A00BEF1CF00DEF1CF0F2EF1BF013C067
:10381C000AF014C00BF011C00CF012C00DF0E1EC6A
:10382C001DF01200A4EC1EF024EC1EF07BEC1EF03C
:10383C007F828792798881987E8E869E500E1A6E32
:10384C00010E1B6E6CEC1AF0500E0001716F010E24
:10385C00726F13EC0CF0640E0001E26F010EE36F5B
:10386C00500EE46F010EE56F93EC1BF0520E00014D
:10387C00E76F2B0EE66F000EE82EFED7E62FFCD777
:10388C00E72FFAD700F024EF1CF000EF00F004BE95
:10389C005CEF1CF004500310021006E10104D8B0D8
:1038AC005AEF1CF05CEF1CF077EF1CF001C005F038
:1038BC0002C006F003C007F004C008F0051E061E87
:1038CC00071E081E052A000E06220722082205C024
:1038DC0001F006C002F007C003F008C004F07FEF4F
:1038EC001CF001C001F002C002F003C003F004C0E0
:1038FC0004F01200BBC0BFF0BCC0C0F095EF1CF0D0
:10390C00B9C0A6F0BAC0A7F0BF0E0001A86F000E98
:10391C00A96FBDC0AAF0BEC0ABF0ECEC15F0BFC0F7
:10392C00F6FFC0C0F7FF000EF86E0800F550000956
:10393C00D8A4A3EF1CF0A5EF1CF086EF1CF0000E32
:10394C000001BA6F000EB96F1200C50E0001D56FE1
:10395C00000ED66FC1C0D7F0C2C0D8F0000EDB6F1E
:10396C00000EDA6F000EE16F000EE06FD70EB96F2C
:10397C00000EBA6FC3C0BBF0C4C0BCF0D50EBD6F97
:10398C00000EBE6F80EC1CF00001DA51C125D96E1F
:10399C00DB51C221DA6E000EDF6E1200F0EC1EF06D
:1039AC00520EE0EC1EF0B60EE0EC1EF0E6EC1EF053
:1039BC00530EE0EC1EF0010E03EC1EF0076E0750E8
:1039CC000A6E0B6A000E03EC1EF0076E0750096EB0
:1039DC00086A0A5008100A6E0B5009100B6EEBECBB
:1039EC001EF00AC005F00BC006F01200F0EC1EF041
:1039FC00520EE0EC1EF0B80EE0EC1EF0E6EC1EF001
:103A0C00530EE0EC1EF0010E03EC1EF0076E075097
:103A1C000A6E0B6A000E03EC1EF0076E0750096E5F
:103A2C00086A0A5008100A6E0B5009100B6EEBEC6A
:103A3C001EF00AC005F00BC006F01200F0EC1EF0F0
:103A4C00520EE0EC1EF0B40EE0EC1EF0E6EC1EF0B4
:103A5C00530EE0EC1EF0010E03EC1EF0076E075047
:103A6C000A6E0B6A000E03EC1EF0076E0750096E0F
:103A7C00086A0A5008100A6E0B5009100B6EEBEC1A
:103A8C001EF00AC005F00BC006F01200F0EC1EF0A0
:103A9C00520EE0EC1EF0BA0EE0EC1EF0E6EC1EF05E
:103AAC00530EE0EC1EF0010E03EC1EF0076E0750F7
:103ABC000A6E0B6A000E03EC1EF0076E0750096EBF
:103ACC00086A0A5008100A6E0B5009100B6EEBECCA
:103ADC001EF00AC005F00BC006F0120003C009F07E
:103AEC0004C00AF001C007F002C008F08EEF1DF010
:103AFC0009C0D9FF0AC0DAFFDF500B6E094A0A2A47
:103B0C0007C0D9FF08C0DAFF0BC0DFFF074A082A3D
:103B1C000506D8A00606052806E10628D8A499EFC4
:103B2C001DF09BEF1DF07EEF1DF01200000E2E1A03
:103B3C00000E2F1A000E301A800E311A2AC01AF0FD
:103B4C002BC01BF02CC01CF02DC01DF02EC01EF085
:103B5C002FC01FF030C020F031C021F0A9EC0FF0C5
:103B6C001AC02AF01BC02BF01CC02CF01DC02DF06D
:103B7C00120003C005F004C006F001C007F002C03B
:103B8C0008F005C0F6FF06C0F7FF054A062A000E2E
:103B9C00F86E07C0D9FF08C0DAFF074A082A0800E8
:103BAC00F5CFDFFFDF50D8A4DEEF1DF0E0EF1DF006
:103BBC00C7EF1DF01200000E106E000E0F6EF2EF2C
:103BCC001DF00EC001F0026A0CC003F00DC004F031
:103BDC00D9EC1AF00F4A102A0F500A24D96E105043
:103BEC000B20DA6EDF500E6E0E50D8A400EF1EF0D4
:103BFC0002EF1EF0E7EF1DF01200036E90EC1EF0CA
:103C0C000E01DA8790EC1EF0D5CE04F090EC1EF08D
:103C1C000350D8B414EF1EF018EF1EF0026A022AFB
:103C2C0019EF1EF0026A023A02460E01DA5102182E
:103C3C00DF0B0218DA6FDA89045012007BEC1EF0ED
:103C4C00010E036E000EB5EC1EF03F0E056E550E08
:103C5C00E82EFED7052EFCD700F0030E036E000EE7
:103C6C00B5EC1EF0D60E036E010EB5EC1EF0130E65
:103C7C00036E000EB5EC1EF0120001500210031082
:103C8C000410D8B44CEF1EF04EEF1EF056EF1EF0A1
:103C9C00000E011A000E021A000E031A800E041AEE
:103CAC0001C001F002C002F003C003F004C004F034
:103CBC0012006EEF1EF002C0D9FF03C0DAFFDF5016
:103CCC00D4EC1EF0024A032A6A0EE82EFED700D06E
:103CDC0002C0D9FF03C0DAFFDF50D8A478EF1EF082
:103CEC007AEF1EF061EF1EF012000E01D951F00BAD
:103CFC000809D96FD98B9F0ED66F848A848CA79BA9
:103D0C00A79D1D0E1D6F1E0E1C6F1C0E6F6F1B0EC4
:103D1C00706F12000E01D8B596EF1EF098EF1EF0E2
:103D2C0090EF1EF0DACE01F01F0E0116D8A4A1EF11
:103D3C001EF0A3EF1EF090EF1EF01200838883821A
:103D4C00120E0E01626F110E156FE997E895330E86
:103D5C00E56F000EE66FE789E88BE78F1200046EC3
:103D6C00F0EC1EF0520EE0EC1EF004508009E0EC7A
:103D7C001EF00350E0EC1EF0EBEC1EF0120001EE16
:103D8C0000F0640EEE6AE806FDE100EEE8F00D0EC0
:103D9C00EE6AE806FDE1000118EF1CF0016E0E0161
:103DAC0037A5DBEF1EF0DDEF1EF0D5EF1EF001C0E6
:103DBC00E4FE1200026E90EC1EF002C0D5FE120062
:103DCC0090EC1EF00E01DA83120090EC1EF00E0146
:103DDC00DA85120090EC1EF00E01DA81120012004E
:020000040020DA
:10000000FF0FFF0FFF0FFF0FFF0FFF0FFF0FFF0F80
:020000040030CA
:0C000000AAFFFFFF9FFFFFFFFFFFFFFFB5
:00000001FF
