:0400000016EF00F007
:100008005F820E0133AB0BEF00F00DEF00F014EF41
:1000180000F0000E0001E36F010EE26F0E01339B4A
:080028005F92110059EF21F075
:100E000000436F6C6F757220697320257320200D6D
:100E1000004C6967687420426C7565004461726BB0
:100E200020426C7565004567677368656C6C004FA0
:100E300072616E67650059656C6C6F77004772650B
:100E4000656E0050696E6B006C6C730052656400D7
:010E500000A1
:100E520057C0D9FF58C0DAFFDECF01F0DECF02F073
:100E6200DECF03F0DECF04F020EE04F05750D92697
:100E72005850DA22DECF05F0DECF06F0DECF07F0E3
:100E8200DECF08F02DEC1DF0D8A04AEF07F04CEFB2
:100E920007F07FEF07F057C0D9FF58C0DAFFDECF67
:100EA20001F0DECF02F0DECF03F0DECF04F020EE61
:100EB20008F05750D9265850DA22DECF05F0DECF9F
:100EC20006F0DECF07F0DECF08F02DEC1DF0D8A043
:100ED2006DEF07F06FEF07F07FEF07F020EE10F0F5
:100EE2005750D9265850DA22000EDE6E000EDE6E02
:100EF200000EDE6E000EDD6EA9EF0AF0000E00019C
:100F0200746F000E736F57C0D9FF58C0DAFFDECF7F
:100F120001F0DECF02F0DECF03F0DECF04F020EEF0
:100F220004F05750D9265850DA22DECF05F0DECF32
:100F320006F0DECF07F0DECF08F0EFEC1AF0D8B003
:100F4200A5EF07F0A7EF07F0DEEF07F057C0D9FFD4
:100F520058C0DAFFDECF01F0DECF02F0DECF03F0C1
:100F6200DECF04F020EE08F05750D9265850DA228E
:100F7200DECF05F0DECF06F0DECF07F0DECF08F0E1
:100F8200EFEC1AF0D8B0C8EF07F0CAEF07F0DEEFC7
:100F920007F057C0D9FF58C0DAFFDECF01F0DECF2D
:100FA20002F0DECF03F0DECF04F06CEC1AF001C0E9
:100FB20073F002C074F050EF08F020EE04F05750C6
:100FC200D9265850DA22DECF01F0DECF02F0DECF92
:100FD20003F0DECF04F057C0D9FF58C0DAFFDECFEE
:100FE20005F0DECF06F0DECF07F0DECF08F0EFEC43
:100FF2001AF0D8B0FFEF07F001EF08F03CEF08F06D
:1010020020EE04F05750D9265850DA22DECF01F0F4
:10101200DECF02F0DECF03F0DECF04F020EE08F0E8
:101022005750D9265850DA22DECF05F0DECF06F02F
:10103200DECF07F0DECF08F0EFEC1AF0D8B024EFE5
:1010420008F026EF08F03CEF08F020EE04F05750CD
:10105200D9265850DA22DECF01F0DECF02F0DECF01
:1010620003F0DECF04F06CEC1AF001C073F002C0A2
:1010720074F050EF08F020EE08F05750D92658507F
:10108200DA22DECF01F0DECF02F0DECF03F0DECFD8
:1010920004F06CEC1AF001C073F002C074F020EEA0
:1010A20004F05750D9265850DA22DECF01F0DECFB5
:1010B20002F0DECF03F0DECF04F057C0D9FF58C0F4
:1010C200DAFFDECF05F0DECF06F0DECF07F0DECFAF
:1010D20008F0EFEC1AF0D8B071EF08F073EF08F0F7
:1010E2000DEF09F020EE08F05750D9265850DA22B9
:1010F200DECF01F0DECF02F0DECF03F0DECF04F070
:1011020057C0D9FF58C0DAFFDECF05F0DECF06F0B8
:10111200DECF07F0DECF08F0EFEC1AF0D8B094EF94
:1011220008F096EF08F00DEF09F057C0D9FF58C04C
:10113200DAFFDECF01F0DECF02F0DECF03F0DECF4A
:1011420004F06CEC1AF001C071F002C072F0000100
:101152007351715D596E745172595A6E59C00CF0C7
:101162005AC00DF0000E0DBEFF0E0E6E0F6E010E78
:101172000EEC17F00CC036F00DC037F00EC038F090
:101182000FC039F020EE08F05750D9265850DA2215
:10119200DECF2EF0DECF2FF0DECF30F0DECF31F01B
:1011A20020EE04F05750D9265850DA22DECF2AF02A
:1011B200DECF2BF0DECF2CF0DECF2DF020EC23F0B3
:1011C2002AC032F02BC033F02CC034F02DC035F0E1
:1011D20097EC11F032C04BF033C04CF034C04DF0FC
:1011E20035C04EF0000E4F6E000E506E700E516EF6
:1011F200420E526E81EC0FF020EE10F05750D926BD
:101202005850DA224BC0DEFF4CC0DEFF4DC0DEFF7D
:101212004EC0DEFF75EF0AF057C0D9FF58C0DAFFA3
:10122200DECF01F0DECF02F0DECF03F0DECF04F03E
:1012320020EE04F05750D9265850DA22DECF05F0BE
:10124200DECF06F0DECF07F0DECF08F0EFEC1AF0CB
:10125200D8B02EEF09F030EF09F0E6EF09F020EEFA
:1012620008F05750D9265850DA22DECF01F0DECFEF
:1012720002F0DECF03F0DECF04F020EE04F0575090
:10128200D9265850DA22DECF05F0DECF06F0DECFC7
:1012920007F0DECF08F0EFEC1AF0D8B053EF09F008
:1012A20055EF09F0E6EF09F020EE04F05750D92689
:1012B2005850DA22DECF01F0DECF02F0DECF03F0AB
:1012C200DECF04F06CEC1AF001C071F002C072F0D3
:1012D20000017351715D596E745172595A6E59C041
:1012E2000CF05AC00DF0000E0DBEFF0E0E6E0F6E0A
:1012F200010E0EEC17F00CC036F00DC037F00EC028
:1013020038F00FC039F057C0D9FF58C0DAFFDECF2E
:101312002EF0DECF2FF0DECF30F0DECF31F020EE38
:1013220008F05750D9265850DA22DECF2AF0DECF05
:101332002BF0DECF2CF0DECF2DF020EC23F02AC0F4
:1013420032F02BC033F02CC034F02DC035F097ECC6
:1013520011F032C06DF033C06EF034C06FF035C0A2
:1013620070F0000E1E6E000E1F6E000E206E400EFC
:10137200216E6DC01AF06EC01BF06FC01CF070C001
:101382001DF021EC0DF01AC04BF01BC04CF01CC03C
:101392004DF01DC04EF0000E4F6E000E506E700EDE
:1013A200516E420E526E81EC0FF020EE10F057504B
:1013B200D9265850DA224BC0DEFF4CC0DEFF4DC0AA
:1013C200DEFF4EC0DEFF75EF0AF020EE08F0575048
:1013D200D9265850DA22DECF01F0DECF02F0DECF7E
:1013E20003F0DECF04F06CEC1AF001C071F002C021
:1013F20072F000017351715D596E745172595A6ED7
:1014020059C00CF05AC00DF0000E0DBEFF0E0E6E4C
:101412000F6E010E0EEC17F00CC036F00DC037F057
:101422000EC038F00FC039F020EE04F05750D92624
:101432005850DA22DECF2EF0DECF2FF0DECF30F0A2
:10144200DECF31F057C0D9FF58C0DAFFDECF2AF025
:10145200DECF2BF0DECF2CF0DECF2DF020EC23F010
:101462002AC032F02BC033F02CC034F02DC035F03E
:1014720097EC11F032C06DF033C06EF034C06FF0F3
:1014820035C070F0000E1E6E000E1F6E800E206EB4
:10149200400E216E6DC01AF06EC01BF06FC01CF0C2
:1014A20070C01DF021EC0DF01AC04BF01BC04CF0C7
:1014B2001CC04DF01DC04EF0000E4F6E000E506E5F
:1014C200700E516E420E526E81EC0FF020EE10F053
:1014D2005750D9265850DA224BC0DEFF4CC0DEFFEF
:1014E2004DC0DEFF4EC0DEFF20EE10F05750D92671
:1014F2005850DA22030EDBBE83EF0AF081EF0AF0C6
:10150200A9EF0AF020EE10F05750D9265850DA22EF
:10151200DECF1AF0DECF1BF0DECF1CF0DECF1DF0E7
:10152200000E1E6E000E1F6EB40E206E430E216E54
:1015320021EC0DF020EE10F05750D9265850DA2247
:101542001AC0DEFF1BC0DEFF1CC0DEFF1DC0DEFFB7
:101552001200100E0F6E0E0E106E000E016E000EB7
:10156200026EB00E036E430E046E20EE10F00D50AC
:10157200D9260E50DA22DECF05F0DECF06F0DECF1E
:1015820007F0DECF08F0EFEC1AF0D8B0CBEF0AF09C
:10159200CDEF0AF0FAEF0AF020EE10F00D50D92646
:1015A2000E50DA22DECF01F0DECF02F0DECF03F002
:1015B200DECF04F0000E056E000E066EB40E076E4E
:1015C200430E086EEFEC1AF0D8B0EAEF0AF0ECEF37
:1015D2000AF0FAEF0AF04C0E0F6E0E0E106E20EEAD
:1015E20014F00D50D9260E50DA22000EDE6E000ED7
:1015F200DD6E000E016E000E026E960E036E420E3E
:10160200046E20EE10F00D50D9260E50DA22DECFF5
:1016120005F0DECF06F0DECF07F0DECF08F0EFEC0C
:101622001AF0D8B017EF0BF019EF0BF048EF0BF0F0
:1016320020EE10F00D50D9260E50DA22DECF01F046
:10164200DECF02F0DECF03F0DECF04F0000E056E37
:10165200000E066E9E0E076E420E086EEFEC1AF03A
:10166200D8B036EF0BF038EF0BF048EF0BF03D0E31
:101672000F6E0E0E106E20EE14F00D50D9260E5085
:10168200DA22010EDE6E000EDD6E1CEF0DF0000E92
:10169200016E000E026E110E036E430E046E20EEFA
:1016A20010F00D50D9260E50DA22DECF05F0DECF33
:1016B20006F0DECF07F0DECF08F0EFEC1AF0D8B07C
:1016C20065EF0BF067EF0BF096EF0BF020EE10F0EA
:1016D2000D50D9260E50DA22DECF01F0DECF02F015
:1016E200DECF03F0DECF04F0000E056E000E066EB4
:1016F200240E076E430E086EEFEC1AF0D8B084EF9A
:101702000BF086EF0BF096EF0BF01C0E0F6E0E0E29
:10171200106E20EE14F00D50D9260E50DA22020E71
:10172200DE6E000EDD6E1CEF0DF0000E016E000E7F
:10173200026EA80E036E410E046E20EE10F00D50E4
:10174200D9260E50DA22DECF05F0DECF06F0DECF4C
:1017520007F0DECF08F0EFEC1AF0D8B0B3EF0BF0E1
:10176200B5EF0BF0E4EF0BF020EE10F00D50D926A0
:101772000E50DA22DECF01F0DECF02F0DECF03F030
:10178200DECF04F0000E056E000E066EC80E076E68
:10179200410E086EEFEC1AF0D8B0D2EF0BF0D4EF96
:1017A2000BF0E4EF0BF0360E0F6E0E0E106E20EE05
:1017B20014F00D50D9260E50DA22030EDE6E000E02
:1017C200DD6E1CEF0DF0000E016E000E026E700E4B
:1017D200036E410E046E20EE10F00D50D9260E500D
:1017E200DA22DECF05F0DECF06F0DECF07F0DECF65
:1017F20008F0EFEC1AF0D8B001EF0CF003EF0CF0A8
:1018020032EF0CF020EE10F00D50D9260E50DA22F5
:10181200DECF01F0DECF02F0DECF03F0DECF04F048
:10182200000E056E000E066E980E076E410E086ED3
:10183200EFEC1AF0D8B020EF0CF022EF0CF032EF00
:101842000CF0430E0F6E0E0E106E20EE14F00D50C3
:10185200D9260E50DA22040EDE6E000EDD6E1CEF6B
:101862000DF0000E016E000E026EE00E036E400ED1
:10187200046E20EE10F00D50D9260E50DA22DECF83
:1018820005F0DECF06F0DECF07F0DECF08F0EFEC9A
:101892001AF0D8B04FEF0CF051EF0CF080EF0CF0D3
:1018A20020EE10F00D50D9260E50DA22DECF01F0D4
:1018B200DECF02F0DECF03F0DECF04F0000E056EC5
:1018C200000E066E100E076E410E086EEFEC1AF057
:1018D200D8B06EEF0CF070EF0CF080EF0CF02F0E22
:1018E2000F6E0E0E106E20EE14F00D50D9260E5013
:1018F200DA22050EDE6E000EDD6E1CEF0DF0000E1C
:10190200016E000E026EAA0E036E420E046E20EEEF
:1019120010F00D50D9260E50DA22DECF05F0DECFC0
:1019220006F0DECF07F0DECF08F0EFEC1AF0D8B009
:101932009DEF0CF09FEF0CF0CEEF0CF020EE10F0CC
:101942000D50D9260E50DA22DECF01F0DECF02F0A2
:10195200DECF03F0DECF04F0000E056E000E066E41
:10196200BC0E076E420E086EEFEC1AF0D8B0BCEF58
:101972000CF0BEEF0CF0CEEF0CF0110E0F6E0E0E4F
:10198200106E20EE14F00D50D9260E50DA22060EFB
:10199200DE6E000EDD6E1CEF0DF0000E016E000E0D
:1019A200026ED00E036E410E046E20EE10F00D504A
:1019B200D9260E50DA22DECF05F0DECF06F0DECFDA
:1019C20007F0DECF08F0EFEC1AF0D8B0EBEF0CF036
:1019D200EDEF0CF01CEF0DF020EE10F00D50D926BB
:1019E2000E50DA22DECF01F0DECF02F0DECF03F0BE
:1019F200DECF04F0000E056E000E066EE80E076ED6
:101A0200410E086EEFEC1AF0D8B00AEF0DF00CEFB1
:101A12000DF01CEF0DF0260E0F6E0E0E106E20EE66
:101A220014F00D50D9260E50DA22070EDE6E000E8B
:101A3200DD6E1CEF0DF00FC00DF010C00EF01200A5
:101A42001D50800B266E1D501D24286E1CAE2CEFDF
:101A52000DF02EEF0DF02FEF0DF028802850D8B4A6
:101A620035EF0DF037EF0DF04CEF0DF02828D8A42C
:101A72003DEF0DF03FEF0DF047EF0DF0000E1A6E47
:101A8200000E1B6E000E1C6E000E1D6E1C8E000ED4
:101A92001D6E54EF0DF0000E1A6E000E1B6E000E3E
:101AA2001C6E000E1D6E2150800B276E26502718CB
:101AB200D8B45EEF0DF060EF0DF061EF0DF0268C03
:101AC20021502124276E20AE69EF0DF06BEF0DF04F
:101AD2006CEF0DF027802750D8B472EF0DF074EF41
:101AE2000DF089EF0DF02728D8A47AEF0DF07CEFE6
:101AF2000DF084EF0DF0000E1E6E000E1F6E000E34
:101B0200206E000E216E208E000E216E91EF0DF0E0
:101B1200000E1E6E000E1F6E000E206E000E216E55
:101B22002850275CD8B098EF0DF09AEF0DF0C1EF76
:101B32000DF026AC9FEF0DF0A1EF0DF0A3EF0DF02D
:101B4200800E261A28C029F027C028F029C027F0C5
:101B52001AC029F01EC01AF029C01EF01BC029F0BD
:101B62001FC01BF029C01FF01CC029F020C01CF0B0
:101B720029C020F01DC029F021C01DF029C021F08C
:101B8200000E296E285027C022F0236A225E000E22
:101B9200235A23BED6EF0DF0235009E11A0E225C20
:101BA200D8A0D6EF0DF0D8EF0DF00FEF0EF01A50CF
:101BB2001B101C101D10D8A4E1EF0DF0E4EF0DF086
:101BC200010EE5EF0DF0000E296E000E1A6E000EEA
:101BD2001B6E000E1C6E000E1D6E27C028F018EF43
:101BE2000EF029A0F7EF0DF0F9EF0DF0FFEF0DF079
:101BF200D89029300109296E01EF0EF0D8902932D0
:101C02001AA006EF0EF008EF0EF009EF0EF0298E83
:101C12001D341D321C321B321A32282A2750285CEE
:101C2200D8A016EF0EF018EF0EF0F2EF0DF026BC72
:101C32001DEF0EF01FEF0EF05FEF0EF02850D8A44C
:101C420025EF0EF027EF0EF031EF0EF0000E1A6EB8
:101C5200000E1B6E000E1C6E000E1D6E80EF0FF04C
:101C62001E501A261F501B2220501C2221501D22BA
:101C72001DA03EEF0EF040EF0EF0ECEF0EF029A0AB
:101C820045EF0EF047EF0EF04DEF0EF0D8902930F1
:101C92000109296E4FEF0EF0D89029321AA054EFA5
:101CA2000EF056EF0EF057EF0EF0298E1D341D3256
:101CB2001C321B321A32282AECEF0EF01E501A5C2C
:101CC2001F501B5820501C581D50800A226E215054
:101CD200800A2258D8B070EF0EF072EF0EF09DEF2E
:101CE2000EF01A501E5C226E1B501F58236E1C50A1
:101CF2002058246E1D502158256EFF0E22241A6E84
:101D0200FF0E23201B6EFF0E24201C6EFF0E2520CB
:101D12001D6E800E261A296C2950D8A493EF0EF05E
:101D220095EF0EF0A5EF0EF0010E1A26000E1B2203
:101D32001C221D22A5EF0EF01E501A5E1F501B5AC8
:101D420020501C5A21501D5A1A501B101C101D10D5
:101D5200D8A4AEEF0EF0B0EF0EF0E5EF0EF0295082
:101D6200D8A4B6EF0EF0B8EF0EF0E5EF0EF0000ECD
:101D72001A6E000E1B6E000E1C6E000E1D6E80EFA2
:101D82000FF0D8901A361B361C361D3629AECCEF12
:101D92000EF0CEEF0EF0CFEF0EF01A8029A0D4EFA6
:101DA2000EF0D6EF0EF0DAEF0EF0D8802936DCEF27
:101DB2000EF0D89029362850D8B4E2EF0EF0E4EFB6
:101DC2000EF0E5EF0EF028061CAEEAEF0EF0ECEF97
:101DD2000EF0C2EF0EF0000E276E29AEF3EF0EF0FA
:101DE200F5EF0EF00DEF0FF029C022F07F0E221654
:101DF200D8B4FEEF0EF000EF0FF004EF0FF0010E7B
:101E0200276E0DEF0FF01AA009EF0FF00BEF0FF096
:101E12000DEF0FF000EF0FF02750D8B413EF0FF0D3
:101E220015EF0FF040EF0FF0010E1A26000E1B22E5
:101E32001C221D221DA020EF0FF022EF0FF040EF19
:101E42000FF01AC022F01BC023F01CC024F01DC0EA
:101E520025F02534253224322332223222C01AF0D0
:101E620023C01BF024C01CF025C01DF02828D8B4C4
:101E72003DEF0FF03FEF0FF040EF0FF0282A282838
:101E8200D8B446EF0FF048EF0FF050EF0FF02850A4
:101E9200D8A44EEF0FF050EF0FF062EF0FF0000EEC
:101EA2001A6E000E1B6E000E1C6E000E1D6E285068
:101EB200D8A45EEF0FF060EF0FF062EF0FF0000EAC
:101EC200266E28A067EF0FF069EF0FF06CEF0FF0AE
:101ED2001C8E6DEF0FF01C9ED89028301D6E26AE22
:101EE20075EF0FF077EF0FF078EF0FF01D8E1AC03D
:101EF2001AF01BC01BF01CC01CF01DC01DF012000C
:101F02004E50800B0001606F4E504E24666F4DAEF6
:101F12008DEF0FF08FEF0FF090EF0FF066816651AB
:101F2200D8B496EF0FF098EF0FF0ABEF0FF06629F1
:101F3200D8A49EEF0FF0A0EF0FF0A8EF0FF0000E65
:101F42004B6E000E4C6E000E4D6E000E4E6E4D8EA0
:101F5200B3EF0FF0000E4B6E000E4C6E000E4D6E86
:101F6200000E4E6E5250800B601B52505224656F11
:101F720051AEBEEF0FF0C0EF0FF0C1EF0FF0658171
:101F82006551D8B4C7EF0FF0C9EF0FF0DCEF0FF0D7
:101F92006529D8A4CFEF0FF0D1EF0FF0D9EF0FF0F2
:101FA200000E4F6E000E506E000E516E000E526EFD
:101FB200518EE4EF0FF0000E4F6E000E506E000EC9
:101FC200516E000E526E6551D8B4EAEF0FF0ECEF8D
:101FD2000FF0F4EF0FF06651D8A4F2EF0FF0F4EF28
:101FE2000FF0FEEF0FF0000E4B6E000E4C6E000E67
:101FF2004D6E000E4E6E96EF11F051504B02F3CF24
:102002006BF0F4CF6CF06B51616F626B636B646B5E
:102012006C51676F686B696B6A6B50504C02F3CFFF
:102022006BF0F4CF6CF06B516127000E62236323D7
:1020320064236C516727000E682369236A234F507B
:102042004D02F3CF6BF0F4CF6CF06B516127000EB1
:102052006223632364236C516727000E682369237C
:102062006A2363C064F062C063F061C062F0616BB6
:102072004F504C02F3CF6BF0F4CF6CF06B516127F1
:102082006C516223000E6323000E642350504B02F6
:10209200F3CF6BF0F4CF6CF06B5161276C5162237C
:1020A200000E6323000E642363C064F062C063F019
:1020B20061C062F0616B4F504B02F3CF6BF0F4CF13
:1020C2006CF06B5161276C516223000E6323000E8A
:1020D200642351504C02F3CF6BF0F4CF6CF06B5190
:1020E20067276C516823000E6923000E6A23505043
:1020F2004D02F3CF6BF0F4CF6CF06B5167276C514C
:102102006823000E6923000E6A2351504D02F3CF5B
:102112006BF0F4CF6CF06B51536E6C51546E556A88
:10212200566A55C056F054C055F053C054F0536A25
:1021320053506727545068235550692356506A23D9
:1021420061C053F062C054F063C055F064C056F0F1
:10215200190EB1EF10F0D890563255325432533234
:10216200E82EACEF10F053506727545068235550B7
:10217200692356506A2363C064F062C063F061C091
:1021820062F0616B655166C053F0546A5326000ECB
:102192005422820E53246B6FFF0E54206C6FE7EFB4
:1021A20010F0D8906737683769376A3764AFDCEF69
:1021B20010F0DEEF10F0DFEF10F06781D89061379A
:1021C2006237633764376B07D8A06C0769AFECEFEF
:1021D20010F0EEEF10F0D2EF10F0000E656F64AF6A
:1021E200F5EF10F0F7EF10F01BEF11F0FF0E611595
:1021F200536EFF0E6215546EFF0E6315556E7F0E01
:102202006415566E5350541055105610D8B40CEF36
:1022120011F00EEF11F012EF11F0010E656F1BEFCE
:1022220011F067A117EF11F019EF11F01BEF11F088
:102232000EEF11F06551D8B421EF11F023EF11F038
:1022420047EF11F0010E6727000E682369236A2306
:102252006AA12EEF11F030EF11F047EF11F067C0D5
:1022620053F068C054F069C055F06AC056F0563455
:10227200563255325432533253C067F054C068F06C
:1022820055C069F056C06AF06B4B6C2B6CBF52EFB5
:1022920011F06C5108E16B29D8A052EF11F054EF04
:1022A20011F05EEF11F0000E676F000E686F800E86
:1022B200696F7F0E6A6F8CEF11F06CBF6BEF11F0DC
:1022C2006C5106E16B05D8B069EF11F06BEF11F0BC
:1022D20077EF11F0000E676F000E686F000E696FE6
:1022E200000E6A6F000E606F8CEF11F06BC066F02B
:1022F200FF0E6717FF0E68177F0E6917000E6A1729
:1023020066A186EF11F088EF11F089EF11F0698F65
:10231200D89066316A6F60516A1367C04BF068C02B
:102322004CF069C04DF06AC04EF012003550800B7F
:10233200426E35503524496E34AEA2EF11F0A4EF4F
:1023420011F0A5EF11F049804950D8B4ABEF11F06C
:10235200ADEF11F0C2EF11F04928D8A4B3EF11F09C
:10236200B5EF11F0BDEF11F0000E326E000E336EBC
:10237200000E346E000E356E348E000E356ECAEFCE
:1023820011F0000E326E000E336E000E346E000E2F
:10239200356E3950800B421A395039244A6E38AEA4
:1023A200D5EF11F0D7EF11F0D8EF11F04A804A5073
:1023B200D8B4DEEF11F0E0EF11F0F5EF11F04A289A
:1023C200D8A4E6EF11F0E8EF11F0F0EF11F0000EF3
:1023D200366E000E376E000E386E000E396E388E75
:1023E200000E396EFDEF11F0000E366E000E376EE4
:1023F200000E386E000E396E365037103810391014
:10240200D8A406EF12F008EF12F020EF12F0000E3F
:10241200326E000E336E000E346E000E356E800E7C
:1024220034127F0E35124250351232C032F033C0B0
:1024320033F034C034F035C035F063EF13F0495057
:10244200D8A426EF12F028EF12F032EF12F0000EAD
:10245200326E000E336E000E346E000E356E63EF78
:1024620013F04A5049C03AF03B6A3A5E000E3B5ABA
:102472007F0E3A24436E000E3B20446E32C03EF083
:1024820033C03FF034C040F035C041F0000E326E30
:10249200000E336E000E346E000E356E000E456E69
:1024A200000E466E000E476E000E486E000E4A6E1B
:1024B20093EF12F04A50D8B461EF12F063EF12F0CA
:1024C2007AEF12F0D8903E363F3640364136D890F9
:1024D200323633363436353648AE72EF12F074EF98
:1024E20012F075EF12F03280D890453646364736F4
:1024F200483636503E5C37503F5838504058395075
:102502004158D8A087EF12F089EF12F092EF12F043
:10251200488C36503E5E37503F5A3850405A3950F8
:10252200415A4A2A190E4A6499EF12F09BEF12F0AF
:102532005BEF12F03E503F1040104110D8B4A4EFB0
:1025420012F0A6EF12F0BEEF12F04580BEEF12F0CD
:10255200D890323633363436353648AEB3EF12F0D1
:10256200B5EF12F0B6EF12F03280D890453646360B
:10257200473648364306D8A0440634AEC3EF12F0BD
:10258200C5EF12F0A9EF12F0000E4A6E48AECCEF82
:1025920012F0CEEF12F0F2EF12F0FF0E45143A6E87
:1025A200FF0E46143B6EFF0E47143C6E7F0E48141E
:1025B2003D6E3A503B103C103D10D8B4E3EF12F0A0
:1025C200E5EF12F0E9EF12F0010E4A6EF2EF12F0AF
:1025D20032A0EEEF12F0F0EF12F0F2EF12F0E5EFB0
:1025E20012F04A50D8B4F8EF12F0FAEF12F01EEFE0
:1025F20013F0010E3226000E33223422352235A08A
:1026020005EF13F007EF13F01EEF13F032C03AF0AC
:1026120033C03BF034C03CF035C03DF03D343D3278
:102622003C323B323A323AC032F03BC033F03CC02B
:1026320034F03DC035F0434A442A44BE29EF13F03A
:10264200445008E14328D8A029EF13F02BEF13F0F0
:1026520036EF13F0000E446E4368000E326E000E29
:10266200336E000E346E000E356E44BE43EF13F02F
:10267200445006E14304D8B041EF13F043EF13F0A6
:1026820051EF13F0000E446E000E436E000E326ED8
:10269200000E336E000E346E000E356E000E426E6A
:1026A20043C049F049A058EF13F05AEF13F05DEF21
:1026B20013F0348E5EEF13F0349ED8904930356EAD
:1026C20014EF12F012007C88E6EF14F028C01BF021
:1026D20029C01CF02AC01DF02BC01EF0E0EC1FF038
:1026E20028C020F029C021F02AC022F02BC023F0FC
:1026F200E1EC21F0290E336E960E326E7F0EE82E3B
:10270200FED7322EFCD7332EFAD700F028C01BF0AA
:1027120029C01CF02AC01DF02BC01EF0E0EC1FF0F7
:10272200000E0001FF6F000EDF6F010EDE6FFF0E65
:102732002C24366EFF0E2D20376E37BEA5EF13F018
:10274200A3EF13F0A7EF13F0E6EF14F07C88110E5D
:10275200336E3C0E326ECB0EE82EFED7322EFCD7F5
:10276200332EFAD700F0D8903634D96E3734DA6E79
:102772002E50D9262F50DA22DE50DE10D8A4C4EF14
:1027820013F0C6EF13F0D2EF13F028C021F029C0E6
:1027920022F02AC023F02BC024F0A3EC20F0AAEFF1
:1027A20014F0D8903634D96E3734DA6E2E50D926DA
:1027B2002F50DA22DE04DE10D8A4E2EF13F0E4EFA9
:1027C20013F0F0EF13F028C021F029C022F02AC044
:1027D20023F02BC024F0E1EC20F0AAEF14F0D89003
:1027E2003634D96E3734DA6E2E50D9262F50DA228B
:1027F200020EDE18DE10D8A401EF14F003EF14F07D
:102802000FEF14F028C024F029C025F02AC026F0CA
:102812002BC027F0B7EC21F0AAEF14F0D890363491
:10282200D96E3734DA6E2E50D9262F50DA22030EA3
:10283200DE18DE10D8A420EF14F022EF14F02EEFF1
:1028420014F028C021F029C022F02AC023F02BC0A6
:1028520024F071EC1BF0AAEF14F0D8903634D96E44
:102862003734DA6E2E50D9262F50DA22040EDE18B3
:10287200DE10D8A43FEF14F041EF14F04DEF14F046
:1028820028C021F029C022F02AC023F02BC024F056
:10289200E5EC1BF0AAEF14F0D8903634D96E373439
:1028A200DA6E2E50D9262F50DA22050EDE18DE10EF
:1028B200D8A45EEF14F060EF14F06CEF14F028C0AF
:1028C20021F029C022F02AC023F02BC024F0D5EC3D
:1028D2001DF0AAEF14F0D8903634D96E3734DA6E80
:1028E2002E50D9262F50DA22060EDE18DE10D8A47A
:1028F2007DEF14F07FEF14F08BEF14F028C021F07D
:1029020029C022F02AC023F02BC024F027EC1EF0AD
:10291200AAEF14F0D8903634D96E3734DA6E2E50CE
:10292200D9262F50DA22070EDE18DE10D8A49CEF2B
:1029320014F09EEF14F0AAEF14F028C014F029C08E
:1029420015F02AC016F02BC017F082EC1DF0AAEF8A
:1029520014F07C88000E356E000E346E85EC24F087
:1029620028C014F029C015F02AC016F02BC017F0A9
:1029720023EC20F0C3EF14F048EC24F001C034F053
:1029820002C035F0D8903634D96E3734DA6E305012
:10299200D9263150DA22DE50345CDE503558D8A0C8
:1029A200D5EF14F0D7EF14F0BDEF14F028C014F0F7
:1029B20029C015F02AC016F02BC017F082EC1DF0CA
:1029C2003606D8A037069EEF13F00001DE51DF1164
:1029D200D8B4EEEF14F0F0EF14F067EF13F028C064
:1029E20014F029C015F02AC016F02BC017F082ECA3
:1029F2001DF0520E336E2B0E326E000EE82EFED7F5
:102A0200322EFCD7332EFAD700D07C98120027EC56
:102A120024F064EC23F0D9EC23F063EC24F070ECA6
:102A220024F015EC24F0000E026E630E016E0FEC22
:102A32001FF0000E0001EE6F010EEF6F010EF06F3E
:102A4200AA0EF36F0F0EF46FA60EF56F0F0EF66F50
:102A5200000EF26F630EF16F000EE56F010EE66F6E
:102A6200010EE76F250EEA6F0F0EEB6F210EEC6F72
:102A72000F0EED6F000EE96F630EE86F86840E0194
:102A8200B4958EB447EF15F049EF15F042EF15F00B
:102A9200290E5E6E960E5D6E7F0EE82EFED75D2EBF
:102AA200FCD75E2EFAD700F085EC24F0000E000170
:102AB200D96F000EBFEC23F019EF16F0EE0E146E74
:102AC200000E156EE50E166E000E176E23EC20F04A
:102AD200B0EF15F0700E1A6E010E1B6EE9EC19F0D4
:102AE200750E456E000E466E700E476E010E486EF4
:102AF20084EC23F07CC101F07DC102F07EC103F0C1
:102B02007FC104F0000E056E000E066E480E076EC1
:102B1200420E086EEFEC1AF0D8B092EF15F094EF77
:102B220015F0B0EF15F0010E0001D96F010EBFECE8
:102B320023F0EE0E146E000E156EE50E166E000EEC
:102B4200176E82EC1DF0A30E5E6E570E5D6E020EC6
:102B5200E82EFED75D2EFCD75E2EFAD700D00001FC
:102B6200D951D8B4B7EF15F0B9EF15F06BEF15F0F6
:102B7200700E1A6E010E1B6EE9EC19F0000E0001C8
:102B8200D96F000EBFEC23F0700E576E010E586E17
:102B920029EC07F0700E0D6E010E0E6EAAEC0AF013
:102BA200700E076E010E086EE0C009F0E1C00AF077
:102BB200480E0B6E010E0C6E200E0D6E010E0E6E87
:102BC2008CEC21F0700E386E010E396E25EC16F089
:102BD200070E010184198511D8A4F2EF15F0F4EF64
:102BE20015F0FEEF15F00001DE51DF11D8B4FCEF55
:102BF20015F0FEEF15F0F4EF15F085EC24F000016E
:102C0200E04BE12B750E456E000E466E700E476E60
:102C1200010E486E84EC23F0520E5E6E2B0E5D6E3A
:102C2200000EE82EFED75D2EFCD75E2EFAD700D01E
:102C32000001DE51DF11D8B421EF16F023EF16F0B8
:102C42005FEF15F016EF00F020EE14F03850D926A1
:102C52003950DA22DE50DE10D8A432EF16F034EF0B
:102C620016F040EF16F0EE0E216E000E226EE50E0B
:102C7200236E000E246EA3EC20F0E7EF16F020EE98
:102C820014F03850D9263950DA22DE04DE10D8A4E6
:102C92004DEF16F04FEF16F05BEF16F0EE0E216ED1
:102CA200000E226EE50E236E000E246EE1EC20F083
:102CB200E7EF16F020EE14F03850D9263950DA2218
:102CC200020EDE18DE10D8A469EF16F06BEF16F0D4
:102CD20077EF16F0EE0E246E000E256EE50E266ED0
:102CE200000E276EB7EC21F0E7EF16F020EE14F09D
:102CF2003850D9263950DA22030EDE18DE10D8A455
:102D020085EF16F087EF16F093EF16F0EE0E216EB8
:102D1200000E226EE50E236E000E246E71EC1BF087
:102D2200E7EF16F020EE14F03850D9263950DA22A7
:102D3200040EDE18DE10D8A4A1EF16F0A3EF16F0F1
:102D4200AFEF16F0EE0E216E000E226EE50E236E30
:102D5200000E246EE5EC1BF0E7EF16F020EE14F007
:102D62003850D9263950DA22050EDE18DE10D8A4E2
:102D7200BDEF16F0BFEF16F0CBEF16F0EE0E216EA0
:102D8200000E226EE50E236E000E246ED5EC1DF0B1
:102D9200E7EF16F020EE14F03850D9263950DA2237
:102DA200060EDE18DE10D8A4D9EF16F0DBEF16F00F
:102DB200E7EF16F0EE0E216E000E226EE50E236E88
:102DC200000E246E27EC1EF0E7EF16F020EE14F052
:102DD2003850D9263950DA22070EDE18DE10D8A470
:102DE200F5EF16F0F7EF16F00DEF17F0EE0E286E76
:102DF200000E296EE50E2A6E000E2B6EE0C02CF03E
:102E0200E1C02DF0480E2E6E010E2F6E200E306E98
:102E1200010E316E64EC13F01200146E1450D8B42B
:102E220015EF17F017EF17F039EF17F00FBE1EEF7F
:102E320017F01CEF17F039EF17F00CC010F00DC0AF
:102E420011F00EC012F00FC013F0101E111E121E50
:102E5200131E102A000E11221222132210C016F085
:102E620011C017F012C018F013C019F041EF17F09B
:102E72000CC016F00DC017F00EC018F00FC019F0FC
:102E82000C500D100E100F10D8A44AEF17F04CEF93
:102E920017F056EF17F0000E0C6E000E0D6E000EBE
:102EA2000E6E000E0F6EE7EF17F0960E156E60EFC6
:102EB20017F0152AD8901932183217321632000E2E
:102EC2001614106E000E1714116E000E1814126EE6
:102ED200FE0E1914136E1050111012101310D8A4F4
:102EE20075EF17F077EF17F05AEF17F085EF17F03D
:102EF200152A010E1626000E172218221922D89022
:102F02001932183217321632000E1614106E000ED5
:102F12001714116E000E1814126EFF0E1914136E90
:102F22001050111012101310D8A49AEF17F09CEF42
:102F320017F079EF17F0A4EF17F01506D8901636B0
:102F420017361836193618BEA9EF17F0ABEF17F07F
:102F5200B3EF17F0020E1560B1EF17F0B3EF17F0F1
:102F62009EEF17F015B0B8EF17F0BAEF17F0BBEFFE
:102F720017F0189ED890153215C010F0116A126A17
:102F8200136A10C013F0126A116A106A10501612F6
:102F92001150171212501812135019121450D8B49B
:102FA200D5EF17F0D7EF17F0DFEF17F00FBEDEEF18
:102FB20017F0DCEF17F0DFEF17F0198E16C00CF0E8
:102FC20017C00DF018C00EF019C00FF0120020EE5D
:102FD20002F00E50D9260F50DA22DF50D8B4F4EFA7
:102FE20017F0F6EF17F02AEF18F00EC0D9FF0FC056
:102FF200DAFFDF50106E1050016E026A20EE03F00D
:103002000E50D9260F50DA22DECF03F0DDCF04F0C6
:1030120002EC24F001C007F002C008F0000E0A6EB4
:10302200640E096E1FEC21F020EE03F00E50D9263B
:103032000F50DA22DF50116E0750115C126E20EE33
:1030420003F00E50D9260F50DA22DF50136E4DEFE7
:1030520018F0000E126E0EC0D9FF0FC0DAFFDF505B
:10306200106E1050016E026A20EE03F00E50D92647
:103072000F50DA22DECF03F0DDCF04F002EC24F0B1
:1030820001C007F002C008F0000E0A6E640E096E5D
:103092001FEC21F00750136E20EE01F00E50D926DE
:1030A2000F50DA22DF50D8B459EF18F05BEF18F066
:1030B2007DEF18F020EE05F00E50D9260F50DA22DF
:1030C200DECF10F0DDCF11F010C0D9FF11C0DAFF52
:1030D20012C0DFFF20EE07F00E50D9260F50DA2281
:1030E200DECF10F0DDCF11F010C0D9FF11C0DAFF32
:1030F20013C0DFFF9DEF18F020EE05F00E50D92629
:103102000F50DA22DECF10F0DDCF11F010C0D9FF60
:1031120011C0DAFF13C0DFFF20EE07F00E50D926F0
:103122000F50DA22DECF10F0DDCF11F010C0D9FF40
:1031320011C0DAFF12C0DFFF120022C0D9FF23C084
:10314200DAFFDECFF6FFDDCFF7FF0800F550250AE4
:10315200D8A4AEEF18F0B0EF18F036EF19F022C095
:10316200D9FF23C0DAFFDE2A000EDD22000E0001A5
:10317200DB6F000EDA6FDAC0E4F0DC69DD6922C0D1
:10318200D9FF23C0DAFFDECFF6FFDDCFF7FF08005D
:10319200F550730AD8B4D0EF18F0D2EF18F0EDEF73
:1031A20018F022C0D9FF23C0DAFFDECF01F0DDCF55
:1031B20002F0480E036E0E0E046E000E066E030E33
:1031C200056E59EC1CF001500210D8A4EBEF18F078
:1031D200EDEF18F02DEF19F022C0D9FF23C0DAFF6E
:1031E200DECFF6FFDDCFF7FF0800F550730AD8B443
:1031F200FDEF18F0FFEF18F005EF19F0000E296E41
:10320200030E286E09EF19F0000E296E010E286ECA
:1032120022C0D9FF23C0DAFF2850DE262950DD2242
:1032220020C00AF021C00BF024C0D9FF25C0DAFF6C
:10323200DFCF26F0020EDE26DFCF27F0000EDD22E2
:1032420026C0D9FF27C0DAFFDECF0CF0DDCF0DF0AC
:103252004BEC19F04AEF19F022C0D9FF23C0DAFF74
:10326200DE2A000EDD224AEF19F022C0D9FF23C068
:10327200DAFFDECFF6FFDDCFF7FF0800F550016E73
:10328200026A20C003F021C004F0C8EC1CF02DEF4C
:1032920019F0120021EE86F010EE0FF0060EDBCFD1
:1032A200E3FFE806FCE20CC01AF00DC01BF01A5056
:1032B2001B10D8A45FEF19F061EF19F065EF19F058
:1032C2000F0E1A6E000E1B6E1AC001F01BC002F028
:1032D200AAEC22F001C01CF002C01DF0DCC01EF0FE
:1032E200DDC01FF01FBE78EF19F07AEF19F08FEFF3
:1032F20019F01C501E5C1F50800A0E6E1D50800A71
:103302000E58D8A087EF19F089EF19F08BEF19F05A
:103312008FEF19F01EC01CF01FC01DF01CC01EF064
:103322001DC01FF0DAC016F0DBC017F0A5EF19F0D0
:10333200000E026E200E016E0AC003F00BC004F0F4
:10334200C8EC1CF01C4A1D2A16501C5C1D50800A39
:103352000E6E1750800A0E58D8A0B2EF19F0B4EFD3
:1033620019F099EF19F0000E196E000E186ED9EFD0
:1033720019F01AC0F6FF1BC0F7FF000EF86E0D0E13
:10338200F76403D00800F55005D0F6CFE1FFF7CF80
:10339200E2FFE7500E6E0E50016E026A0AC003F0A1
:1033A2000BC004F0C8EC1CF01A4A1B2A184A192A4E
:1033B2001E50185C1950800A0E6E1F50800A0E585B
:1033C200D8A0E6EF19F0E8EF19F0BAEF19F0120001
:1033D2000AEC22F005C00CF006C00DF00E6A0F6A6E
:1033E200000E0EEC17F00CC01CF00DC01DF00EC04C
:1033F2001EF00FC01FF032EC22F005C00CF006C028
:103402000DF00E6A0F6A000E0EEC17F00CC020F0E1
:103412000DC021F00EC022F00FC023F082EC22F08A
:1034220005C00CF006C00DF00E6A0F6A000E0EEC1D
:1034320017F00CC024F00DC025F00EC026F00FC00E
:1034420027F05AEC22F005C00CF006C00DF00E6A0F
:103452000F6A000E0EEC17F00CC028F00DC029F018
:103462000EC02AF00FC02BF01AC0D9FF1BC0DAFF22
:103472001CC0DEFF1DC0DEFF1EC0DEFF1FC0DEFF60
:1034820020EE08F01A50D9261B50DA2224C0DEFFA3
:1034920025C0DEFF26C0DEFF27C0DEFF20EE04F0DF
:1034A2001A50D9261B50DA2220C0DEFF21C0DEFFCF
:1034B20022C0DEFF23C0DEFF20EE0CF01A50D92618
:1034C2001B50DA2228C0DEFF29C0DEFF2AC0DEFF41
:1034D2002BC0DEFF1200033404340A6E0A50D8A453
:1034E20075EF1AF077EF1AF081EF1AF0000E016E05
:1034F200000E026E000E036E000E046EEEEF1AF066
:1035020001C005F002C006F003C007F004C008F0D5
:10351200200E91EF1AF0D8900832073206320532A7
:10352200E82E8CEF1AF00550096E038EFF0E01167D
:10353200FF0E0216FF0E0316000E0416960E0A5E0A
:103542000ABEA8EF1AF0A6EF1AF0BEEF1AF00A5060
:10355200800A970FD8B0B0EF1AF0B2EF1AF0B4EFBA
:103562001AF077EF1AF0D8900432033202320132A5
:103572000A3EB4EF1AF0D6EF1AF01F0E0A64C4EF37
:103582001AF0C6EF1AF0CEEF1AF077EF1AF0D890D1
:1035920001360236033604360A060A50D8A4D4EF9E
:1035A2001AF0D6EF1AF0C8EF1AF00950D8B4DCEFCF
:1035B2001AF0DEEF1AF0E6EF1AF0041E031E021EE6
:1035C200016C000E02220322042201C001F002C09B
:1035D20002F003C003F004C004F01200000E011454
:1035E200096E000E02140A6E800E03140B6E7F0E1B
:1035F20004140C6E09500A100B100C10D8A404EF1E
:103602001BF006EF1BF00EEF1BF0000E016E000E1A
:10361200026E000E036E000E046E000E0514096E9B
:10362200000E06140A6E800E07140B6E7F0E08142D
:103632000C6E09500A100B100C10D8A423EF1BF0CB
:1036420025EF1BF02DEF1BF0000E056E000E066E2F
:10365200000E076E000E086E04AE32EF1BF034EF60
:103662001BF03DEF1BF0016C021ED8B0022A031EB4
:10367200D8B0032A800E045608AE42EF1BF044EF86
:103682001BF04DEF1BF0056C061ED8B0062A071E74
:10369200D8B0072A800E0856000E011A000E021A30
:1036A200000E031A800E041A000E051A000E061AE6
:1036B200000E071A800E081A0550015C06500258C7
:1036C2000750035808500458D8B06AEF1BF06CEF4B
:1036D2001BF06FEF1BF0D89070EF1BF0D880120038
:1036E2000001FF51D8B478EF1BF07AEF1BF0B0EF76
:1036F2001BF021C01BF022C01CF023C01DF024C00F
:103702001EF0E0EC1FF021C014F022C015F023C01F
:1037120016F024C017F063EC20F0390E266ED20E9C
:10372200256E4C0EE82EFED7252EFCD7262EFAD774
:1037320000D021C01AF022C01BF023C01CF024C00C
:103742001DF09CEC1FF021C01AF022C01BF023C018
:103752001CF024C01DF09CEC1FF0E4EF1BF021C014
:103762001AF022C01BF023C01CF024C01DF057EC3D
:103772001FF021C01AF022C01BF023C01CF024C08D
:103782001DF057EC1FF021C014F022C015F023C029
:1037920016F024C017F023EC20F0390E266ED20E5C
:1037A200256E4C0EE82EFED7252EFCD7262EFAD7F4
:1037B20000D021C014F022C015F023C016F024C09E
:1037C20017F082EC1DF012000001FF51D8B4ECEFAB
:1037D2001BF0EEEF1BF024EF1CF021C01BF022C007
:1037E2001CF023C01DF024C01EF0E0EC1FF021C02D
:1037F20014F022C015F023C016F024C017F063ECB9
:1038020020F0390E266ED20E256E4C0EE82EFED713
:10381200252EFCD7262EFAD700D021C01AF022C0BE
:103822001BF023C01CF024C01DF057EC1FF021C078
:103832001AF022C01BF023C01CF024C01DF057EC6C
:103842001FF058EF1CF021C01AF022C01BF023C059
:103852001CF024C01DF09CEC1FF021C01AF022C005
:103862001BF023C01CF024C01DF09CEC1FF021C0F3
:1038720014F022C015F023C016F024C017F023EC78
:1038820020F0390E266ED20E256E4C0EE82EFED793
:10389200252EFCD7262EFAD700D021C014F022C044
:1038A20015F023C016F024C017F082EC1DF01200B0
:1038B20001C008F002C009F003C00AF004C00BF016
:1038C2000506D8A00606052806E10628D8A46CEF4E
:1038D2001CF06EEF1CF07BEF1CF0000E026E000E6F
:1038E200016EC7EF1CF0084A092A0A4A0B2A05068C
:1038F200D8A0060608C0F6FF09C0F7FF0800F55079
:103902000009D8B487EF1CF089EF1CF0B5EF1CF06A
:103912000AC0F6FF0BC0F7FF0800F5500009D8B443
:1039220095EF1CF097EF1CF0B5EF1CF00550061058
:10393200D8B49EEF1CF0A0EF1CF0B5EF1CF008C04D
:10394200F6FF09C0F7FF0800F5CF07F00AC0F6FF3F
:103952000BC0F7FF0800F5500718D8B4B3EF1CF0FE
:10396200B5EF1CF074EF1CF008C0F6FF09C0F7FFBA
:103972000800F5CF07F00AC0F6FF0BC0F7FF0800FA
:10398200F550075C016E026AD8A0020612000350CD
:103992000410D8B4CFEF1CF0D1EF1CF0DAEF1CF01A
:1039A20003500410D8A4D8EF1CF0DAEF1CF0DFEFBC
:1039B2001CF0015092EC24F02CEF1DF020EE09F0E7
:1039C2000350D9260450DA22DE50DE10D8B4ECEFD0
:1039D2001CF0EEEF1CF009EF1DF020EE09F0035091
:1039E200D9260450DA2210EE03F00350E1260450E7
:1039F200E222DE50E65CE650800A096EDE50800A62
:103A02000958D8B007EF1DF009EF1DF02CEF1DF09B
:103A120020EE03F00350D9260450DA22DECF05F05F
:103A2200DDCF06F003C0D9FF04C0DAFFDECF07F016
:103A3200DDCF08F005500724D96E06500820DA6E53
:103A420001C0DFFF20EE03F00350D9260450DA2232
:103A5200DE2A000EDD221200000E0114096E000E95
:103A620002140A6E800E03140B6E7F0E04140C6E89
:103A720009500A100B100C10D8A442EF1DF044EFAD
:103A82001DF04CEF1DF0000E016E000E026E000ED6
:103A9200036E000E046E000E0514096E000E06146D
:103AA2000A6E800E07140B6E7F0E08140C6E0950FE
:103AB2000A100B100C10D8A461EF1DF063EF1DF07B
:103AC2006BEF1DF0000E056E000E066E000E076E07
:103AD200000E086E055001180FE1065002180CE1A5
:103AE2000750031809E108500418D8B47BEF1DF001
:103AF2007DEF1DF080EF1DF0D89081EF1DF0D88092
:103B020012007C88BBEF1DF014C0D9FF15C0DAFF8C
:103B1200DF50D8B48FEF1DF091EF1DF096EF1DF03E
:103B220014C0D9FF15C0DAFFDF0616C0D9FF17C0CF
:103B3200DAFFDF50D8B4A0EF1DF0A2EF1DF0A7EF1F
:103B42001DF016C0D9FF17C0DAFFDF0614C00EF051
:103B520015C00FF0E8EC17F016C00EF017C00FF00A
:103B6200E8EC17F0090E186E4E0EE82EFED7182E4E
:103B7200FCD700D014C0D9FF15C0DAFFDF50D8B48B
:103B8200C5EF1DF0C7EF1DF0D3EF1DF016C0D9FF32
:103B920017C0DAFFDF50D8A4D1EF1DF0D3EF1DF02C
:103BA20085EF1DF07C9812000001FF51D8B4DCEFC4
:103BB2001DF0DEEF1DF008EF1EF021C01BF022C049
:103BC2001CF023C01DF024C01EF0E0EC1FF021C049
:103BD2001AF022C01BF023C01CF024C01DF09CEC84
:103BE2001FF021C01AF022C01BF023C01CF024C019
:103BF2001DF09CEC1FF021C01AF022C01BF023C064
:103C02001CF024C01DF09CEC1FF026EF1EF021C01A
:103C12001AF022C01BF023C01CF024C01DF057EC88
:103C22001FF021C01AF022C01BF023C01CF024C0D8
:103C32001DF057EC1FF021C01AF022C01BF023C068
:103C42001CF024C01DF057EC1FF012000001FF51C0
:103C5200D8B42EEF1EF030EF1EF05AEF1EF021C046
:103C62001BF022C01CF023C01DF024C01EF0E0ECAB
:103C72001FF021C01AF022C01BF023C01CF024C088
:103C82001DF057EC1FF021C01AF022C01BF023C018
:103C92001CF024C01DF057EC1FF021C01AF022C006
:103CA2001BF023C01CF024C01DF057EC1FF078EF6E
:103CB2001EF021C01AF022C01BF023C01CF024C049
:103CC2001DF09CEC1FF021C01AF022C01BF023C093
:103CD2001CF024C01DF09CEC1FF021C01AF022C081
:103CE2001BF023C01CF024C01DF09CEC1FF012003E
:103CF20020EE01F01450D9261550DA22010EDF6EA3
:103D020020EE01F01650D9261750DA22000EDF6E8F
:103D120014C00EF015C00FF0E8EC17F016C00EF04C
:103D220017C00FF0E8EC17F0000E196E000E186EB7
:103D320014C0D9FF15C0DAFFDF2A16C0D9FF17C099
:103D4200DAFFDF2A14C00EF015C00FF0E8EC17F00E
:103D520016C00EF017C00FF0E8EC17F0E40E00D01A
:103D620000D0E82EFCD700D000D0184A192A1950EA
:103D720009E1320E185CD8A0C1EF1EF0C3EF1EF0AD
:103D820099EF1EF0120020EE01F01450D9261550C2
:103D9200DA22000EDF6E20EE01F01650D9261750FF
:103DA200DA22010EDF6E14C00EF015C00FF0E8EC3F
:103DB20017F016C00EF017C00FF0E8EC17F0000E67
:103DC200196E000E186E14C0D9FF15C0DAFFDF2A73
:103DD20016C0D9FF17C0DAFFDF2A14C00EF015C0D3
:103DE2000FF0E8EC17F016C00EF017C00FF0E8EC79
:103DF20017F0E40E00D000D0E82EFCD700D000D09F
:103E0200184A192A195009E1320E185CD8A00CEF91
:103E12001FF00EEF1FF0E4EF1EF012008594839E58
:103E22008598879C7D947B9E7D987F9C050E0E01D4
:103E3200746F060E766F070E696F080E886FBD509D
:103E42008F0B4009BD6EE00EBE16BF50F00B01098C
:103E5200BF6E01C0BCFFBD8E000EAA6E000EA66E24
:103E6200000E0F01256F000E216FFC0EAD16F30E32
:103E7200AD16CF0EAD163F0EAD16AB88AB50F00BA4
:103E82000C09AB6EAB8EA788A750F00B0C09A76E7E
:103E9200A78E26892651F00B0C09266F268F2289C0
:103EA2002251F00B0C09226F228F12007E801AC061
:103EB20014F01BC015F01CC016F01DC017F082ECE8
:103EC2001DF0050E1F6E0F0E1E6EF10EE82EFED7B0
:103ED2001E2EFCD71F2EFAD700F01AC014F01BC0FA
:103EE20015F01CC016F01DC017F0C4EC1EF00C0E2D
:103EF2001F6EDA0E1E6EBA0EE82EFED71E2EFCD7ED
:103F02001F2EFAD700D01AC014F01BC015F01CC027
:103F120016F01DC017F082EC1DF0050E1F6E0F0E7D
:103F22001E6EF10EE82EFED71E2EFCD71F2EFAD7DC
:103F320000F07E90120080801AC014F01BC015F0B1
:103F42001CC016F01DC017F082EC1DF0050E1F6E8E
:103F52000F0E1E6EF10EE82EFED71E2EFCD71F2E60
:103F6200FAD700F01AC014F01BC015F01CC016F0EE
:103F72001DC017F079EC1EF00D0E1F6E190E1E6E8D
:103F8200100EE82EFED71E2EFCD71F2EFAD71AC00F
:103F920014F01BC015F01CC016F01DC017F082EC07
:103FA2001DF0050E1F6E0F0E1E6EF10EE82EFED7CF
:103FB2001E2EFCD71F2EFAD700F0809012001BC0D5
:103FC20014F01CC015F01DC016F01EC017F082ECD4
:103FD2001DF0090E206E1E0E1F6EE40EE82EFED797
:103FE2001F2EFCD7202EFAD700D01BC014F01CC005
:103FF20015F01DC016F01EC017F063EC20F01D0E68
:10400200206E690E1F6EA50EE82EFED71F2EFCD75E
:10401200202EFAD700F01BC014F01CC015F01DC0F2
:1040220016F01EC017F082EC1DF0090E206E1E0E57
:104032001F6EE40EE82EFED71F2EFCD7202EFAD7D5
:1040420000D0120020EE01F01450D9261550DA22C9
:10405200010EDF6E20EE01F01650D9261750DA223B
:10406200010EDF6E000E1A6E000E196E14C0D9FF1B
:1040720015C0DAFFDF2A16C0D9FF17C0DAFFDF2A20
:1040820014C00EF015C00FF0E8EC17F016C00EF0D9
:1040920017C00FF0E8EC17F0090E186E4E0EE82E5E
:1040A200FED7182EFCD700D0194A1A2A1A5009E155
:1040B200320E195CD8A060EF20F062EF20F037EFEB
:1040C20020F0120020EE01F01450D9261550DA2209
:1040D200000EDF6E20EE01F01650D9261750DA22BC
:1040E200000EDF6E000E1A6E000E196E14C0D9FF9C
:1040F20015C0DAFFDF2A16C0D9FF17C0DAFFDF2AA0
:1041020014C00EF015C00FF0E8EC17F016C00EF058
:1041120017C00FF0E8EC17F0090E186E4E0EE82EDD
:10412200FED7182EFCD700D0194A1A2A1A5009E1D4
:10413200320E195CD8A0A0EF20F0A2EF20F077EFAA
:1041420020F012000001FF51D8B4AAEF20F0ACEF2A
:1041520020F0CCEF20F021C01BF022C01CF023C0C5
:104162001DF024C01EF0E0EC1FF021C01AF022C0A6
:104172001BF023C01CF024C01DF09CEC1FF021C0DA
:104182001AF022C01BF023C01CF024C01DF09CECCE
:104192001FF0E0EF20F021C01AF022C01BF023C074
:1041A2001CF024C01DF057EC1FF021C01AF022C0F1
:1041B2001BF023C01CF024C01DF057EC1FF01200AE
:1041C2000001FF51D8B4E8EF20F0EAEF20F00AEF47
:1041D20021F021C01BF022C01CF023C01DF024C01E
:1041E2001EF0E0EC1FF021C01AF022C01BF023C029
:1041F2001CF024C01DF057EC1FF021C01AF022C0A1
:104202001BF023C01CF024C01DF057EC1FF01EEF62
:1042120021F021C01AF022C01BF023C01CF024C0E0
:104222001DF09CEC1FF021C01AF022C01BF023C02D
:104232001CF024C01DF09CEC1FF01200000E0C6E4E
:10424200000E0B6E09500A10D8B42AEF21F02CEFA1
:1042520021F054EF21F0010E0D6E34EF21F0D890D1
:1042620009360A360D2A0AAE39EF21F03BEF21F06A
:1042720030EF21F0D8900B360C360950075C0A500B
:104282000858D8A047EF21F049EF21F04EEF21F076
:104292000950075E0A50085A0B80D8900A32093238
:1042A2000D2E3BEF21F00BC007F00CC008F01200FE
:1042B2001D0EF66E490EF76E000EF86E01EE86F0D8
:1042C20010EE07F00900F5CFEEFFE550E150FAE1FC
:1042D200140EF66E490EF76E000EF86E00EEF7F051
:1042E20010EE09F00900F5CFEEFFE550E150FAE1DA
:1042F20001EE00F0860EEE6AE806FDE100EEDAF06D
:104302001D0EEE6AE806FDE15F905F92000EF86E08
:10431200000108EF15F020EE14F00750D9260850DE
:10432200DA22DECF0FF0DDCF10F048EC24F001C02E
:1043320011F002C012F0D8900934D96E0A34DA6E44
:104342000D50D9260E50DA2211C0DEFF12C0DDFF59
:10435200D8900934D96E0A34DA6E0B50D9260C5033
:10436200DA220FC0DEFF10C0DDFF12000001FF5194
:10437200D8B4BEEF21F0C0EF21F0D6EF21F024C077
:104382001BF025C01CF026C01DF027C01EF0E0EC7B
:104392001FF024C020F025C021F026C022F027C043
:1043A20023F0E1EC21F0E0EF21F024C020F025C061
:1043B20021F026C022F027C023F0E1EC21F0120008
:1043C20020C01AF021C01BF022C01CF023C01DF037
:1043D20057EC1FF020C01AF021C01BF022C01CF0C5
:1043E20023C01DF057EC1FF020C01AF021C01BF0B3
:1043F20022C01CF023C01DF057EC1FF020C01AF0A1
:1044020021C01BF022C01CF023C01DF057EC1FF08E
:10441200120080EC24F0520E6AEC24F0B60E6AEC24
:1044220024F076EC24F0530E6AEC24F0010E43ECF7
:1044320023F0076E07500A6E0B6A000E43EC23F05E
:10444200076E0750096E086A0A5008100A6E0B5070
:1044520009100B6E7BEC24F00AC005F00BC006F0CD
:10446200120080EC24F0520E6AEC24F0B80E6AECD2
:1044720024F076EC24F0530E6AEC24F0010E43ECA7
:1044820023F0076E07500A6E0B6A000E43EC23F00E
:10449200076E0750096E086A0A5008100A6E0B5020
:1044A20009100B6E7BEC24F00AC005F00BC006F07D
:1044B200120080EC24F0520E6AEC24F0B40E6AEC86
:1044C20024F076EC24F0530E6AEC24F0010E43EC57
:1044D20023F0076E07500A6E0B6A000E43EC23F0BE
:1044E200076E0750096E086A0A5008100A6E0B50D0
:1044F20009100B6E7BEC24F00AC005F00BC006F02D
:10450200120080EC24F0520E6AEC24F0BA0E6AEC2F
:1045120024F076EC24F0530E6AEC24F0010E43EC06
:1045220023F0076E07500A6E0B6A000E43EC23F06D
:10453200076E0750096E086A0A5008100A6E0B507F
:1045420009100B6E7BEC24F00AC005F00BC006F0DC
:10455200120001C003F002C004F0B2EF22F0014ADF
:10456200022A01C0F6FF02C0F7FF000EF86E0D0E20
:10457200F76403D00800F55005D0F6CFE1FFF7CF7E
:10458200E2FFE7500009D8A4C9EF22F0CBEF22F0F6
:10459200B0EF22F00350015C016E04500258026E2B
:1045A2001200360E386E000E396E32C03AF033C049
:1045B2003BF0000E3E6E000E3D6E000E446E000E8D
:1045C200436E3A0E2A6E000E2B6E34C02CF035C0AC
:1045D2002DF0380E2E6E000E2F6EF9EC22F03D50AB
:1045E2003224D96E3E503320DA6E000EDF6E120096
:1045F2002CC030F02DC031F00DEF23F02AC020F096
:104602002BC021F0300E226E000E236E2EC024F03D
:104612002FC025F09EEC18F030C0F6FF31C0F7FF36
:104622000800F5500009D8A419EF23F01BEF23F07E
:10463200FFEF22F0000E2B6E000E2A6E1200000E0B
:104642002E1A000E2F1A000E301A800E311A2AC0AE
:104652001AF02BC01BF02CC01CF02DC01DF02EC078
:104662001EF02FC01FF030C020F031C021F021EC2D
:104672000DF01AC02AF01BC02BF01CC02CF01DC07C
:104682002DF01200036EEEEC23F00E01DA87EEEC51
:1046920023F0D5CE04F0EEEC23F00350D8B454EF5F
:1046A20023F058EF23F0026A022A59EF23F0026A3C
:1046B200023A02460E01DA510218DF0B0218DA6FD3
:1046C200DA8904501200D9EC23F0010E036E000EB9
:1046D20038EC24F03F0E056E550EE82EFED7052E5F
:1046E200FCD700F0030E036E000E38EC24F0D60E59
:1046F200036E010E38EC24F07F92879279988198AC
:104702007E9E869E120047C00DF048C00EF0AAECB5
:104712000AF00DC049F00EC04AF045C032F046C062
:1047220033F0010E346E0E0E356E49C036F04AC0BB
:1047320037F0D2EC22F045C002F046C003F0A3EC01
:1047420023F01200B2EF23F002C0D9FF03C0DAFF58
:10475200DF5057EC24F0024A032A6A0EE82EFED7F5
:1047620000D002C0D9FF03C0DAFFDF50D8A4BCEFEB
:1047720023F0BEEF23F0A5EF23F01200016E0150EB
:10478200D8B4C6EF23F0C8EF23F0CDEF23F07F8239
:1047920079887E8ED8EF23F00150D8A4D3EF23F08E
:1047A200D5EF23F0D8EF23F07F9279987E9E120006
:1047B2000E01D951F00B0809D96FD98B9F0ED66F14
:1047C200848A848CA79BA79D1D0E1D6F1E0E1C6FD5
:1047D2001C0E6F6F1B0E706F12000E01D8B5F4EF36
:1047E20023F0F6EF23F0EEEF23F0DACE01F01F0E06
:1047F2000116D8A4FFEF23F001EF24F0EEEF23F02F
:10480200120001500302F3CF05F0F4CF06F001507D
:104812000402F350062602500302F350062605C096
:1048220001F006C002F01200D6501F0B4009D66EEE
:10483200D688D650F00B0D09D66ED5880E01298B7D
:10484200000ED46E000ED36ED58E12008388838242
:10485200120E0E01626F110E156FE997E895330E75
:10486200E56F000EE66FE789E88BE78F1200046EB2
:1048720080EC24F0520E6AEC24F0045080096AECB9
:1048820024F003506AEC24F07BEC24F01200D3CF26
:1048920005F0066AD450046E036A035005120450F0
:1048A200061205C001F006C002F01200016E0E01F0
:1048B20037A55EEF24F060EF24F058EF24F001C03A
:1048C200E4FE12008498889086907C9880907E9076
:1048D2001200026EEEEC23F002C0D5FE12000E01B1
:1048E2002D87F28AF28CF28E1200EEEC23F00E018A
:1048F200DA831200EEEC23F00E01DA851200EEEC00
:1049020023F00E01DA811200000ED36E000ED46E77
:1049120012005E01BC029500920001286E756C6C5B
:044922002900120056
:020000040020DA
:10000000FF0FFF0FFF0FFF0FFF0FFF0FFF0FFF0F80
:020000040030CA
:0C000000AAFFFFFF9FFFFFFFFFFFFFFFB5
:00000001FF
