:0400000016EF00F007
:100008005F820E0133AB0BEF00F00DEF00F014EF41
:1000180000F0000E0101256F010E246F0E01339BC5
:080028005F92110094EF21F03A
:100E000000436F6C6F757220697320257320200D6D
:100E1000004C6967687420426C7565004461726BB0
:100E200020426C7565004567677368656C6C004FA0
:100E300072616E67650059656C6C6F77004772650B
:100E4000656E0050696E6B006C6C730052656400D7
:010E500000A1
:100E52006FC0D9FF70C0DAFFDECF01F0DECF02F043
:100E6200DECF03F0DECF04F0000120EE04F06F517C
:100E7200D9267051DA22DECF05F0DECF06F0DECFC2
:100E820007F0DECF08F033EC1DF0D8A04BEF07F0EF
:100E92004DEF07F082EF07F06FC0D9FF70C0DAFFA5
:100EA200DECF01F0DECF02F0DECF03F0DECF04F0C2
:100EB200000120EE08F06F51D9267051DA22DECF00
:100EC20005F0DECF06F0DECF07F0DECF08F033EC20
:100ED2001DF0D8A06FEF07F071EF07F082EF07F077
:100EE200000120EE10F06F51D9267051DA22000E67
:100EF200DE6E000EDE6E000EDE6E000EDD6EBEEFEA
:100F02000AF0000E00017C6F000E7B6F6FC0D9FFEC
:100F120070C0DAFFDECF01F0DECF02F0DECF03F0E9
:100F2200DECF04F020EE04F06F51D9267051DA22A0
:100F3200DECF05F0DECF06F0DECF07F0DECF08F021
:100F4200F5EC1AF0D8B0A8EF07F0AAEF07F0E2EF3D
:100F520007F06FC0D9FF70C0DAFFDECF01F0DECF3D
:100F620002F0DECF03F0DECF04F0000120EE08F045
:100F72006F51D9267051DA22DECF05F0DECF06F0AE
:100F8200DECF07F0DECF08F0F5EC1AF0D8B0CCEFE8
:100F920007F0CEEF07F0E2EF07F06FC0D9FF70C0A5
:100FA200DAFFDECF57F0DECF58F0DECF59F0DECFDA
:100FB2005AF0EEEC19F057C07BF058C07CF058EFB5
:100FC20008F0000120EE04F06F51D9267051DA22A8
:100FD200DECF01F0DECF02F0DECF03F0DECF04F091
:100FE2006FC0D9FF70C0DAFFDECF05F0DECF06F0AA
:100FF200DECF07F0DECF08F0F5EC1AF0D8B004EF40
:1010020008F006EF08F043EF08F0000120EE04F0CC
:101012006F51D9267051DA22DECF01F0DECF02F015
:10102200DECF03F0DECF04F020EE08F06F51D926B8
:101032007051DA22DECF05F0DECF06F0DECF07F008
:10104200DECF08F0F5EC1AF0D8B02AEF08F02CEF5A
:1010520008F043EF08F0000120EE04F06F51D926AA
:101062007051DA22DECF57F0DECF58F0DECF59F0E2
:10107200DECF5AF0EEEC19F057C07BF058C07CF08E
:1010820058EF08F0000120EE08F06F51D926705198
:10109200DA22DECF57F0DECF58F0DECF59F0DECFC6
:1010A2005AF0EEEC19F057C07BF058C07CF000010A
:1010B20020EE04F06F51D9267051DA22DECF01F012
:1010C200DECF02F0DECF03F0DECF04F06FC0D9FF37
:1010D20070C0DAFFDECF05F0DECF06F0DECF07F01C
:1010E200DECF08F0F5EC1AF0D8B07AEF08F07CEF1A
:1010F20008F019EF09F0000120EE08F06F51D9262F
:101102007051DA22DECF01F0DECF02F0DECF03F043
:10111200DECF04F06FC0D9FF70C0DAFFDECF05F07A
:10112200DECF06F0DECF07F0DECF08F0F5EC1AF0E6
:10113200D8B09EEF08F0A0EF08F019EF09F06FC0E9
:10114200D9FF70C0DAFFDECF57F0DECF58F0DECF26
:1011520059F0DECF5AF0EEEC19F057C079F058C0D2
:101162007AF000017B51795D716F7C517A59726F0F
:1011720071C00CF072C00DF0000E0DBEFF0E0E6EAF
:101182000F6E010E13EC17F00CC036F00DC037F0E5
:101192000EC038F00FC039F0000120EE08F06F5198
:1011A200D9267051DA22DECF2EF0DECF2FF0DECF3D
:1011B20030F0DECF31F020EE04F06F51D9267051BD
:1011C200DA22DECF2AF0DECF2BF0DECF2CF0DECF1C
:1011D2002DF029EC23F02AC032F02BC033F02CC0C2
:1011E20034F02DC035F0ACEC11F032C04BF033C00E
:1011F2004CF034C04DF035C04EF0000E4F6E000E74
:10120200506E700E516E420E526E96EC0FF000014F
:1012120020EE10F06F51D9267051DA224BC0DEFF5A
:101222004CC0DEFF4DC0DEFF4EC0DEFF89EF0AF08C
:101232006FC0D9FF70C0DAFFDECF01F0DECF02F05F
:10124200DECF03F0DECF04F0000120EE04F06F5198
:10125200D9267051DA22DECF05F0DECF06F0DECFDE
:1012620007F0DECF08F0F5EC1AF0D8B03BEF09F04A
:101272003DEF09F0F7EF09F0000120EE08F06F51A1
:10128200D9267051DA22DECF01F0DECF02F0DECFB6
:1012920003F0DECF04F020EE04F06F51D926705136
:1012A200DA22DECF05F0DECF06F0DECF07F0DECFAA
:1012B20008F0F5EC1AF0D8B061EF09F063EF09F02D
:1012C200F7EF09F0000120EE04F06F51D9267051BA
:1012D200DA22DECF57F0DECF58F0DECF59F0DECF84
:1012E2005AF0EEEC19F057C079F058C07AF00001CC
:1012F2007B51795D716F7C517A59726F71C00CF0BC
:1013020072C00DF0000E0DBEFF0E0E6E0F6E010EBE
:1013120013EC17F00CC036F00DC037F00EC038F0E9
:101322000FC039F06FC0D9FF70C0DAFFDECF2EF0E8
:10133200DECF2FF0DECF30F0DECF31F0000120EE35
:1013420008F06F51D9267051DA22DECF2AF0DECFB3
:101352002BF0DECF2CF0DECF2DF029EC23F02AC0CB
:1013620032F02BC033F02CC034F02DC035F0ACEC91
:1013720011F032C075F033C076F034C077F035C06A
:1013820078F0000E1E6E000E1F6E000E206E400ED4
:10139200216E75C01AF076C01BF077C01CF078C0C1
:1013A2001DF036EC0DF01AC04BF01BC04CF01CC007
:1013B2004DF01DC04EF0000E4F6E000E506E700EBE
:1013C200516E420E526E96EC0FF0000120EE10F0BC
:1013D2006F51D9267051DA224BC0DEFF4CC0DEFFBE
:1013E2004DC0DEFF4EC0DEFF89EF0AF0000120EEA5
:1013F20008F06F51D9267051DA22DECF57F0DECFD6
:1014020058F0DECF59F0DECF5AF0EEEC19F057C0AB
:1014120079F058C07AF000017B51795D716F7C518F
:101422007A59726F71C00CF072C00DF0000E0DBED1
:10143200FF0E0E6E0F6E010E13EC17F00CC036F09D
:101442000DC037F00EC038F00FC039F0000120EEA9
:1014520004F06F51D9267051DA22DECF2EF0DECFA2
:101462002FF0DECF30F0DECF31F06FC0D9FF70C089
:10147200DAFFDECF2AF0DECF2BF0DECF2CF0DECF8C
:101482002DF029EC23F02AC032F02BC033F02CC00F
:1014920034F02DC035F0ACEC11F032C075F033C031
:1014A20076F034C077F035C078F0000E1E6E000E74
:1014B2001F6E800E206E400E216E75C01AF076C02F
:1014C2001BF077C01CF078C01DF036EC0DF01AC08E
:1014D2004BF01BC04CF01CC04DF01DC04EF0000E76
:1014E2004F6E000E506E700E516E420E526E96ECA2
:1014F2000FF0000120EE10F06F51D9267051DA2260
:101502004BC0DEFF4CC0DEFF4DC0DEFF4EC0DEFF33
:1015120020EE10F06F51D9267051DA22030EDBBE95
:1015220097EF0AF095EF0AF0BEEF0AF020EE10F006
:101532006F51D9267051DA22DECF1AF0DECF1BF0BE
:10154200DECF1CF0DECF1DF0000E1E6E000E1F6EF1
:10155200B40E206E430E216E36EC0DF0000120EE2B
:1015620010F06F51D9267051DA221AC0DEFF1BC06B
:10157200DEFF1CC0DEFF1DC0DEFF1200100E0F6E6C
:101582000E0E106E000E016E000E026EB00E036E95
:10159200430E046E20EE10F00D50D9260E50DA22C2
:1015A200DECF05F0DECF06F0DECF07F0DECF08F0AB
:1015B200F5EC1AF0D8B0E0EF0AF0E2EF0AF00FEF24
:1015C2000BF020EE10F00D50D9260E50DA22DECFAD
:1015D20001F0DECF02F0DECF03F0DECF04F0000E2A
:1015E200056E000E066EB40E076E430E086EF5EC25
:1015F2001AF0D8B0FFEF0AF001EF0BF00FEF0BF08B
:101602004C0E0F6E0E0E106E20EE14F00D50D926F9
:101612000E50DA22000EDE6E000EDD6E000E016E3E
:10162200000E026E960E036E420E046E20EE10F055
:101632000D50D9260E50DA22DECF05F0DECF06F0AD
:10164200DECF07F0DECF08F0F5EC1AF0D8B02CEFC1
:101652000BF02EEF0BF05DEF0BF020EE10F00D50C3
:10166200D9260E50DA22DECF01F0DECF02F0DECF35
:1016720003F0DECF04F0000E056E000E066E9E0E25
:10168200076E420E086EF5EC1AF0D8B04BEF0BF075
:101692004DEF0BF05DEF0BF03D0E0F6E0E0E106E68
:1016A20020EE14F00D50D9260E50DA22010EDE6E15
:1016B200000EDD6E31EF0DF0000E016E000E026EB7
:1016C200110E036E430E046E20EE10F00D50D9265B
:1016D2000E50DA22DECF05F0DECF06F0DECF07F0C5
:1016E200DECF08F0F5EC1AF0D8B07AEF0BF07CEF11
:1016F2000BF0ABEF0BF020EE10F00D50D9260E5090
:10170200DA22DECF01F0DECF02F0DECF03F0DECF51
:1017120004F0000E056E000E066E240E076E430ED8
:10172200086EF5EC1AF0D8B099EF0BF09BEF0BF0C6
:10173200ABEF0BF01C0E0F6E0E0E106E20EE14F0BF
:101742000D50D9260E50DA22020EDE6E000EDD6E2C
:1017520031EF0DF0000E016E000E026EA80E036E48
:10176200410E046E20EE10F00D50D9260E50DA22F2
:10177200DECF05F0DECF06F0DECF07F0DECF08F0D9
:10178200F5EC1AF0D8B0C8EF0BF0CAEF0BF0F9EF96
:101792000BF020EE10F00D50D9260E50DA22DECFDB
:1017A20001F0DECF02F0DECF03F0DECF04F0000E58
:1017B200056E000E066EC80E076E410E086EF5EC41
:1017C2001AF0D8B0E7EF0BF0E9EF0BF0F9EF0BF0FE
:1017D200360E0F6E0E0E106E20EE14F00D50D9263E
:1017E2000E50DA22030EDE6E000EDD6E31EF0DF0CA
:1017F200000E016E000E026E700E036E410E046E3C
:1018020020EE10F00D50D9260E50DA22DECF05F070
:10181200DECF06F0DECF07F0DECF08F0F5EC1AF0EF
:10182200D8B016EF0CF018EF0CF047EF0CF020EEEA
:1018320010F00D50D9260E50DA22DECF01F0DECFA5
:1018420002F0DECF03F0DECF04F0000E056E000ED4
:10185200066E980E076E410E086EF5EC1AF0D8B0BF
:1018620035EF0CF037EF0CF047EF0CF0430E0F6E34
:101872000E0E106E20EE14F00D50D9260E50DA2204
:10188200040EDE6E000EDD6E31EF0DF0000E016E05
:10189200000E026EE00E036E400E046E20EE10F09B
:1018A2000D50D9260E50DA22DECF05F0DECF06F03B
:1018B200DECF07F0DECF08F0F5EC1AF0D8B064EF17
:1018C2000CF066EF0CF095EF0CF020EE10F00D50DE
:1018D200D9260E50DA22DECF01F0DECF02F0DECFC3
:1018E20003F0DECF04F0000E056E000E066E100E41
:1018F200076E410E086EF5EC1AF0D8B083EF0CF0CB
:1019020085EF0CF095EF0CF02F0E0F6E0E0E106E91
:1019120020EE14F00D50D9260E50DA22050EDE6E9E
:10192200000EDD6E31EF0DF0000E016E000E026E44
:10193200AA0E036E420E046E20EE10F00D50D92650
:101942000E50DA22DECF05F0DECF06F0DECF07F052
:10195200DECF08F0F5EC1AF0D8B0B2EF0CF0B4EF2D
:101962000CF0E3EF0CF020EE10F00D50D9260E50E3
:10197200DA22DECF01F0DECF02F0DECF03F0DECFDF
:1019820004F0000E056E000E066EBC0E076E420ECF
:10199200086EF5EC1AF0D8B0D1EF0CF0D3EF0CF0E2
:1019A200E3EF0CF0110E0F6E0E0E106E20EE14F01F
:1019B2000D50D9260E50DA22060EDE6E000EDD6EB6
:1019C20031EF0DF0000E016E000E026ED00E036EAE
:1019D200410E046E20EE10F00D50D9260E50DA2280
:1019E200DECF05F0DECF06F0DECF07F0DECF08F067
:1019F200F5EC1AF0D8B000EF0DF002EF0DF031EF78
:101A02000DF020EE10F00D50D9260E50DA22DECF66
:101A120001F0DECF02F0DECF03F0DECF04F0000EE5
:101A2200056E000E066EE80E076E410E086EF5ECAE
:101A32001AF0D8B01FEF0DF021EF0DF031EF0DF0DD
:101A4200260E0F6E0E0E106E20EE14F00D50D926DB
:101A52000E50DA22070EDE6E000EDD6E31EF0DF053
:101A62000FC00DF010C00EF012001D50800B266E3C
:101A72001D501D24286E1CAE41EF0DF043EF0DF0FA
:101A820044EF0DF028802850D8B44AEF0DF04CEF07
:101A92000DF061EF0DF02828D8A452EF0DF054EFAD
:101AA2000DF05CEF0DF0000E1A6E000E1B6E000EB4
:101AB2001C6E000E1D6E1C8E000E1D6E69EF0DF069
:101AC200000E1A6E000E1B6E000E1C6E000E1D6EB6
:101AD2002150800B276E26502718D8B473EF0DF0D3
:101AE20075EF0DF076EF0DF0268C21502124276E34
:101AF20020AE7EEF0DF080EF0DF081EF0DF027802C
:101B02002750D8B487EF0DF089EF0DF09EEF0DF05E
:101B12002728D8A48FEF0DF091EF0DF099EF0DF07B
:101B2200000E1E6E000E1F6E000E206E000E216E45
:101B3200208E000E216EA6EF0DF0000E1E6E000E1E
:101B42001F6E000E206E000E216E2850275CD8B04A
:101B5200ADEF0DF0AFEF0DF0D6EF0DF026ACB4EF18
:101B62000DF0B6EF0DF0B8EF0DF0800E261A28C07A
:101B720029F027C028F029C027F01AC029F01EC07A
:101B82001AF029C01EF01BC029F01FC01BF029C08B
:101B92001FF01CC029F020C01CF029C020F01DC07D
:101BA20029F021C01DF029C021F0000E296E285015
:101BB20027C022F0236A225E000E235A23BEEBEFD7
:101BC2000DF0235009E11A0E225CD8A0EBEF0DF0C4
:101BD200EDEF0DF024EF0EF01A501B101C101D102B
:101BE200D8A4F6EF0DF0F9EF0DF0010EFAEF0DF0BB
:101BF200000E296E000E1A6E000E1B6E000E1C6E79
:101C0200000E1D6E27C028F02DEF0EF029A00CEF5C
:101C12000EF00EEF0EF014EF0EF0D89029300109FD
:101C2200296E16EF0EF0D89029321AA01BEF0EF093
:101C32001DEF0EF01EEF0EF0298E1D341D321C32E8
:101C42001B321A32282A2750285CD8A02BEF0EF01C
:101C52002DEF0EF007EF0EF026BC32EF0EF034EF50
:101C62000EF074EF0EF02850D8A43AEF0EF03CEFCD
:101C72000EF046EF0EF0000E1A6E000E1B6E000EF6
:101C82001C6E000E1D6E95EF0FF01E501A261F508F
:101C92001B2220501C2221501D221DA053EF0EF0AA
:101CA20055EF0EF001EF0FF029A05AEF0EF05CEFA6
:101CB2000EF062EF0EF0D89029300109296E64EF20
:101CC2000EF0D89029321AA069EF0EF06BEF0EF0E9
:101CD2006CEF0EF0298E1D341D321C321B321A326B
:101CE200282A01EF0FF01E501A5C1F501B5820507B
:101CF2001C581D50800A226E2150800A2258D8B0EA
:101D020085EF0EF087EF0EF0B2EF0EF01A501E5C68
:101D1200226E1B501F58236E1C502058246E1D50DB
:101D22002158256EFF0E22241A6EFF0E23201B6EF1
:101D3200FF0E24201C6EFF0E25201D6E800E261A1B
:101D4200296C2950D8A4A8EF0EF0AAEF0EF0BAEF32
:101D52000EF0010E1A26000E1B221C221D22BAEFC3
:101D62000EF01E501A5E1F501B5A20501C5A215052
:101D72001D5A1A501B101C101D10D8A4C3EF0EF0D0
:101D8200C5EF0EF0FAEF0EF02950D8A4CBEF0EF00B
:101D9200CDEF0EF0FAEF0EF0000E1A6E000E1B6E73
:101DA200000E1C6E000E1D6E95EF0FF0D8901A36C5
:101DB2001B361C361D3629AEE1EF0EF0E3EF0EF0B6
:101DC200E4EF0EF01A8029A0E9EF0EF0EBEF0EF02F
:101DD200EFEF0EF0D8802936F1EF0EF0D8902936C9
:101DE2002850D8B4F7EF0EF0F9EF0EF0FAEF0EF03C
:101DF20028061CAEFFEF0EF001EF0FF0D7EF0EF04A
:101E0200000E276E29AE08EF0FF00AEF0FF022EF57
:101E12000FF029C022F07F0E2216D8B413EF0FF074
:101E220015EF0FF019EF0FF0010E276E22EF0FF0F2
:101E32001AA01EEF0FF020EF0FF022EF0FF015EFB8
:101E42000FF02750D8B428EF0FF02AEF0FF055EF1C
:101E52000FF0010E1A26000E1B221C221D221DA0AD
:101E620035EF0FF037EF0FF055EF0FF01AC022F0F9
:101E72001BC023F01CC024F01DC025F025342532E0
:101E820024322332223222C01AF023C01BF024C093
:101E92001CF025C01DF02828D8B452EF0FF054EFE3
:101EA2000FF055EF0FF0282A2828D8B45BEF0FF077
:101EB2005DEF0FF065EF0FF02850D8A463EF0FF03D
:101EC20065EF0FF077EF0FF0000E1A6E000E1B6E2B
:101ED200000E1C6E000E1D6E2850D8A473EF0FF07A
:101EE20075EF0FF077EF0FF0000E266E28A07CEF53
:101EF2000FF07EEF0FF081EF0FF01C8E82EF0FF0EC
:101F02001C9ED89028301D6E26AE8AEF0FF08CEF03
:101F12000FF08DEF0FF01D8E1AC01AF01BC01BF0D0
:101F22001CC01CF01DC01DF012004E50800B0001A1
:101F3200606F4E504E24666F4DAEA2EF0FF0A4EFCD
:101F42000FF0A5EF0FF066816651D8B4ABEF0FF03A
:101F5200ADEF0FF0C0EF0FF06629D8A4B3EF0FF08A
:101F6200B5EF0FF0BDEF0FF0000E4B6E000E4C6E92
:101F7200000E4D6E000E4E6E4D8EC8EF0FF0000E2D
:101F82004B6E000E4C6E000E4D6E000E4E6E525099
:101F9200800B601B52505224656F51AED3EF0FF08D
:101FA200D5EF0FF0D6EF0FF065816551D8B4DCEFB5
:101FB2000FF0DEEF0FF0F1EF0FF06529D8A4E4EF98
:101FC2000FF0E6EF0FF0EEEF0FF0000E4F6E000E87
:101FD200506E000E516E000E526E518EF9EF0FF0E0
:101FE200000E4F6E000E506E000E516E000E526EBD
:101FF2006551D8B4FFEF0FF001EF10F009EF10F0C8
:102002006651D8A407EF10F009EF10F013EF10F0AB
:10201200000E4B6E000E4C6E000E4D6E000E4E6E9C
:10202200ABEF11F051504B02F3CF6BF0F4CF6CF0E9
:102032006B51616F626B636B646B6C51676F686B42
:10204200696B6A6B50504C02F3CF6BF0F4CF6CF0BB
:102052006B516127000E6223632364236C5167274F
:10206200000E682369236A234F504D02F3CF6BF0B1
:10207200F4CF6CF06B516127000E6223632364235B
:102082006C516727000E682369236A2363C064F0DA
:1020920062C063F061C062F0616B4F504C02F3CFDB
:1020A2006BF0F4CF6CF06B5161276C516223000E20
:1020B2006323000E642350504B02F3CF6BF0F4CF36
:1020C2006CF06B5161276C516223000E6323000E8A
:1020D200642363C064F062C063F061C062F0616B4C
:1020E2004F504B02F3CF6BF0F4CF6CF06B51612782
:1020F2006C516223000E6323000E642351504C0284
:10210200F3CF6BF0F4CF6CF06B5167276C516823FF
:10211200000E6923000E6A2350504D02F3CF6BF07C
:10212200F4CF6CF06B5167276C516823000E692362
:10213200000E6A2351504D02F3CF6BF0F4CF6CF0D6
:102142006B51536E6C51546E556A566A55C056F0B7
:1021520054C055F053C054F0536A5350672754503B
:1021620068235550692356506A2361C053F062C0F8
:1021720054F063C055F064C056F0190EC6EF10F06B
:10218200D8905632553254325332E82EC1EF10F005
:1021920053506727545068235550692356506A2379
:1021A20063C064F062C063F061C062F0616B65514C
:1021B20066C053F0546A5326000E5422820E5324F2
:1021C2006B6FFF0E54206C6FFCEF10F0D8906737E6
:1021D200683769376A3764AFF1EF10F0F3EF10F048
:1021E200F4EF10F06781D890613762376337643754
:1021F2006B07D8A06C0769AF01EF11F003EF11F084
:10220200E7EF10F0000E656F64AF0AEF11F00CEF0C
:1022120011F030EF11F0FF0E6115536EFF0E6215D3
:10222200546EFF0E6315556E7F0E6415566E535035
:10223200541055105610D8B421EF11F023EF11F0BD
:1022420027EF11F0010E656F30EF11F067A12CEF4F
:1022520011F02EEF11F030EF11F023EF11F0655174
:10226200D8B436EF11F038EF11F05CEF11F0010E37
:102272006727000E682369236A236AA143EF11F0DE
:1022820045EF11F05CEF11F067C053F068C054F0F5
:1022920069C055F06AC056F056345632553254323F
:1022A200533253C067F054C068F055C069F056C04D
:1022B2006AF06B4B6C2B6CBF67EF11F06C5108E14D
:1022C2006B29D8A067EF11F069EF11F073EF11F0ED
:1022D200000E676F000E686F800E696F7F0E6A6F67
:1022E200A1EF11F06CBF80EF11F06C5106E16B05AC
:1022F200D8B07EEF11F080EF11F08CEF11F0000EEC
:10230200676F000E686F000E696F000E6A6F000E35
:10231200606FA1EF11F06BC066F0FF0E6717FF0E42
:1023220068177F0E6917000E6A1766A19BEF11F0FE
:102332009DEF11F09EEF11F0698FD89066316A6FB0
:1023420060516A1367C04BF068C04CF069C04DF031
:102352006AC04EF012003550800B426E3550352463
:10236200496E34AEB7EF11F0B9EF11F0BAEF11F0D8
:1023720049804950D8B4C0EF11F0C2EF11F0D7EF45
:1023820011F04928D8A4C8EF11F0CAEF11F0D2EF2A
:1023920011F0000E326E000E336E000E346E000E1F
:1023A200356E348E000E356EDFEF11F0000E326E98
:1023B200000E336E000E346E000E356E3950800BF7
:1023C200421A395039244A6E38AEEAEF11F0ECEF76
:1023D20011F0EDEF11F04A804A50D8B4F3EF11F04A
:1023E200F5EF11F00AEF12F04A28D8A4FBEF11F032
:1023F200FDEF11F005EF12F0000E366E000E376E93
:10240200000E386E000E396E388E000E396E12EFE5
:1024120012F0000E366E000E376E000E386E000E91
:10242200396E3650371038103910D8A41BEF12F01D
:102432001DEF12F035EF12F0000E326E000E336E09
:10244200000E346E000E356E800E34127F0E351281
:102452004250351232C032F033C033F034C034F05F
:1024620035C035F078EF13F04950D8A43BEF12F0A5
:102472003DEF12F047EF12F0000E326E000E336E97
:10248200000E346E000E356E78EF13F04A5049C0DC
:102492003AF03B6A3A5E000E3B5A7F0E3A24436E94
:1024A200000E3B20446E32C03EF033C03FF034C0D9
:1024B20040F035C041F0000E326E000E336E000E59
:1024C200346E000E356E000E456E000E466E000E26
:1024D200476E000E486E000E4A6EA8EF12F04A5088
:1024E200D8B476EF12F078EF12F08FEF12F0D890A6
:1024F2003E363F3640364136D89032363336343661
:10250200353648AE87EF12F089EF12F08AEF12F0FB
:102512003280D890453646364736483636503E5C8D
:1025220037503F583850405839504158D8A09CEF46
:1025320012F09EEF12F0A7EF12F0488C36503E5E7A
:1025420037503F5A3850405A3950415A4A2A190E88
:102552004A64AEEF12F0B0EF12F070EF12F03E509C
:102562003F1040104110D8B4B9EF12F0BBEF12F097
:10257200D3EF12F04580D3EF12F0D89032363336D3
:102582003436353648AEC8EF12F0CAEF12F0CBEF50
:1025920012F03280D89045364636473648364306E2
:1025A200D8A0440634AED8EF12F0DAEF12F0BEEF44
:1025B20012F0000E4A6E48AEE1EF12F0E3EF12F0B5
:1025C20007EF13F0FF0E45143A6EFF0E46143B6EF2
:1025D200FF0E47143C6E7F0E48143D6E3A503B107E
:1025E2003C103D10D8B4F8EF12F0FAEF12F0FEEF03
:1025F20012F0010E4A6E07EF13F032A003EF13F050
:1026020005EF13F007EF13F0FAEF12F04A50D8B4C7
:102612000DEF13F00FEF13F033EF13F0010E32262C
:10262200000E33223422352235A01AEF13F01CEFAC
:1026320013F033EF13F032C03AF033C03BF034C042
:102642003CF035C03DF03D343D323C323B323A3213
:102652003AC032F03BC033F03CC034F03DC035F0FC
:10266200434A442A44BE3EEF13F0445008E1432853
:10267200D8A03EEF13F040EF13F04BEF13F0000E33
:10268200446E4368000E326E000E336E000E346EDE
:10269200000E356E44BE58EF13F0445006E1430479
:1026A200D8B056EF13F058EF13F066EF13F0000EA8
:1026B200446E000E436E000E326E000E336E000E3C
:1026C200346E000E356E000E426E43C049F049A0D2
:1026D2006DEF13F06FEF13F072EF13F0348E73EFB0
:1026E20013F0349ED8904930356E29EF12F0120063
:1026F2007C88F3EF14F075C01BF076C01CF077C035
:102702001DF078C01EF0E6EC1FF075C020F076C018
:1027120021F077C022F078C023F0EAEC21F0290EF4
:102722000001806F960E7F6F7F0EE82EFED77F2FFF
:10273200FCD7802FFAD7000E0001FE6F000EF16F5A
:10274200010EF06F79C083F07AC084F084BFAEEFDF
:1027520013F0ACEF13F0B0EF13F0F3EF14F07C884A
:10276200110E0001806F3C0E7F6FCB0EE82EFED75C
:102772007F2FFCD7802FFAD7D89000018335D96EEE
:102782008435DA6E7B51D9267C51DA22DE50DE1096
:10279200D8A4CEEF13F0D0EF13F0DCEF13F075C036
:1027A20021F076C022F077C023F078C024F0A9ECA3
:1027B20020F0B4EF14F0D8908335D96E8435DA6EF8
:1027C2007B51D9267C51DA22DE04DE10D8A4ECEF4C
:1027D20013F0EEEF13F0FAEF13F075C021F076C0AC
:1027E20022F077C023F078C024F0E7EC20F0B4EFB9
:1027F20014F0D8908335D96E8435DA6E7B51D926A0
:102802007C51DA22020EDE18DE10D8A40BEF14F08F
:102812000DEF14F019EF14F075C024F076C025F016
:1028220077C026F078C027F0C0EC21F0B4EF14F0A6
:10283200D8908335D96E8435DA6E7B51D9267C5196
:10284200DA22030EDE18DE10D8A42AEF14F02CEFE1
:1028520014F038EF14F075C021F076C022F077C082
:1028620023F078C024F077EC1BF0B4EF14F0D8908A
:102872008335D96E8435DA6E7B51D9267C51DA22C2
:10288200040EDE18DE10D8A449EF14F04BEF14F05A
:1028920057EF14F075C021F076C022F077C023F014
:1028A20078C024F0EBEC1BF0B4EF14F0D890833531
:1028B200D96E8435DA6E7B51D9267C51DA22050E27
:1028C200DE18DE10D8A468EF14F06AEF14F076EF89
:1028D20014F075C021F076C022F077C023F078C0E2
:1028E20024F0DBEC1DF0B4EF14F0D8908335D96EF0
:1028F2008435DA6E7B51D9267C51DA22060EDE1837
:10290200DE10D8A487EF14F089EF14F095EF14F0DD
:1029120075C021F076C022F077C023F078C024F091
:102922002DEC1EF0B4EF14F0D8908335D96E8435B7
:10293200DA6E7B51D9267C51DA22070EDE18DE10C0
:10294200D8A4A6EF14F0A8EF14F0B4EF14F075C0F9
:1029520014F076C015F077C016F078C017F088EC46
:102962001DF0B4EF14F07C88000E0001826F000E9F
:10297200816FB6EC24F075C014F076C015F077C004
:1029820016F078C017F029EC20F0CEEF14F05FECCF
:1029920021F06FC081F070C082F0D89000018335C1
:1029A200D96E8435DA6E7D51D9267E51DA22DE5017
:1029B200815DDE508259D8A0E1EF14F0E3EF14F00C
:1029C200C8EF14F075C014F076C015F077C016F099
:1029D20078C017F088EC1DF000018307D8A08407A7
:1029E200A7EF13F00001F051F111D8B4FBEF14F08E
:1029F200FDEF14F07CEF13F075C014F076C015F003
:102A020077C016F078C017F088EC1DF0520E000166
:102A1200806F2B0E7F6F000EE82EFED77F2FFCD724
:102A2200802FFAD700F07C9812005FEC24F06DEC56
:102A320023F011EC24F094EC24F0A1EC24F04DEC02
:102A420024F0000E026E630E016E15EC1FF0000EF4
:102A52000001F56F010EF66F010EF76FAA0EFA6F05
:102A62000F0EFB6FA60EFC6F0F0EFD6F000EF96FBF
:102A7200630EF86F000E01018C6F010E8D6F010E57
:102A82008E6F250E916F0F0E926F210E936F0F0EA8
:102A9200946F000E906F630E8F6F86840E01B49553
:102AA2008EB456EF15F058EF15F051EF15F0290ED0
:102AB20000018A6F960E896F7F0EE82EFED7892F4E
:102AC200FCD78A2FFAD7B6EC24F0000E0001EF6F84
:102AD200000EC8EC23F01CEF16F0F50E146E000E7B
:102AE200156E8C0E166E010E176E29EC20F0CBEFD0
:102AF20015F0760E1A6E010E1B6E72EC1AF08B0E2A
:102B0200456E000E466E760E476E010E486E8DECD7
:102B120023F082C101F083C102F084C103F085C1B8
:102B220004F0000E056E000E066E480E076E420E91
:102B3200086EF5EC1AF0D8B0A1EF15F0A3EF15F07E
:102B4200CBEF15F0F2C075F0F3C076F0260E00015F
:102B5200776F010E786FFAEC23F0010E0001EF6F30
:102B6200010EC8EC23F0F50E146E000E156E8C0EDD
:102B7200166E010E176E88EC1DF0A30E00018A6F0F
:102B8200570E896F020EE82EFED7892FFCD78A2FA7
:102B9200FAD700F00001EF51D8B4D2EF15F0D4EF1C
:102BA20015F07AEF15F0760E1A6E010E1B6E72ECAE
:102BB2001AF0000E0001EF6F000EC8EC23F0760E43
:102BC20000016F6F010E706F29EC07F0760E0D6E2B
:102BD200010E0E6EBFEC0AF0760E016E010E026E51
:102BE200F2C003F0F3C004F04E0E056E010E066E45
:102BF200E2EC23F0760E0001856F010E866F28EC61
:102C020016F0070E01018A198B11D8A40BEF16F0EA
:102C12000DEF16F017EF16F00001F051F111D8B4D4
:102C220015EF16F017EF16F00DEF16F0B6EC24F0D4
:102C32000001F24BF32B0001F051F111D8B424EF53
:102C420016F026EF16F06EEF15F016EF00F0000109
:102C520020EE14F08551D9268651DA22DE50DE109C
:102C6200D8A436EF16F038EF16F044EF16F0F50E52
:102C7200216E000E226E8C0E236E010E246EA9ECC4
:102C820020F0EBEF16F020EE14F08551D926865194
:102C9200DA22DE04DE10D8A451EF16F053EF16F05C
:102CA2005FEF16F0F50E216E000E226E8C0E236E73
:102CB200010E246EE7EC20F0EBEF16F020EE14F09C
:102CC2008551D9268651DA22020EDE18DE10D8A4EA
:102CD2006DEF16F06FEF16F07BEF16F0F50E246E27
:102CE200000E256E8C0E266E010E276EC0EC21F0B2
:102CF200EBEF16F020EE14F08551D9268651DA2238
:102D0200030EDE18DE10D8A489EF16F08BEF16F052
:102D120097EF16F0F50E216E000E226E8C0E236ECA
:102D2200010E246E77EC1BF0EBEF16F020EE14F0A0
:102D32008551D9268651DA22040EDE18DE10D8A477
:102D4200A5EF16F0A7EF16F0B3EF16F0F50E216E11
:102D5200000E226E8C0E236E010E246EEBEC1BF025
:102D6200EBEF16F020EE14F08551D9268651DA22C7
:102D7200050EDE18DE10D8A4C1EF16F0C3EF16F070
:102D8200CFEF16F0F50E216E000E226E8C0E236E22
:102D9200010E246EDBEC1DF0EBEF16F020EE14F0CA
:102DA2008551D9268651DA22060EDE18DE10D8A405
:102DB200DDEF16F0DFEF16F0EBEF16F0F50E216EF9
:102DC200000E226E8C0E236E010E246E2DEC1EF070
:102DD200EBEF16F0000120EE14F08551D926865152
:102DE200DA22070EDE18DE10D8A4FAEF16F0FCEF96
:102DF20016F012EF17F0F50E756F000E766F8C0E4F
:102E0200776F010E786FF2C079F0F3C07AF04E0E50
:102E12007B6F010E7C6F260E7D6F010E7E6F79EC4B
:102E220013F01200146E1450D8B41AEF17F01CEFFE
:102E320017F03EEF17F00FBE23EF17F021EF17F058
:102E42003EEF17F00CC010F00DC011F00EC012F0E2
:102E52000FC013F0101E111E121E131E102A000E98
:102E620011221222132210C016F011C017F012C044
:102E720018F013C019F046EF17F00CC016F00DC091
:102E820017F00EC018F00FC019F00C500D100E10F4
:102E92000F10D8A44FEF17F051EF17F05BEF17F0B8
:102EA200000E0C6E000E0D6E000E0E6E000E0F6EFA
:102EB200ECEF17F0960E156E65EF17F0152AD89005
:102EC2001932183217321632000E1614106E000E16
:102ED2001714116E000E1814126EFE0E1914136ED2
:102EE2001050111012101310D8A47AEF17F07CEFC3
:102EF20017F05FEF17F08AEF17F0152A010E16266A
:102F0200000E172218221922D890193218321732BD
:102F12001632000E1614106E000E1714116E000EEB
:102F22001814126EFF0E1914136E10501110121095
:102F32001310D8A49FEF17F0A1EF17F07EEF17F050
:102F4200A9EF17F01506D890163617361836193627
:102F520018BEAEEF17F0B0EF17F0B8EF17F0020E91
:102F62001560B6EF17F0B8EF17F0A3EF17F015B032
:102F7200BDEF17F0BFEF17F0C0EF17F0189ED89013
:102F8200153215C010F0116A126A136A10C013F0DC
:102F9200126A116A106A105016121150171212504A
:102FA2001812135019121450D8B4DAEF17F0DCEFDC
:102FB20017F0E4EF17F00FBEE3EF17F0E1EF17F0B1
:102FC200E4EF17F0198E16C00CF017C00DF018C000
:102FD2000EF019C00FF0120020EE02F00E50D926AA
:102FE2000F50DA22DF50D8B4F9EF17F0FBEF17F0E9
:102FF2002FEF18F00EC0D9FF0FC0DAFFDF50106EAE
:103002001050016E026A20EE03F00E50D9260F50C6
:10301200DA22DECF03F0DDCF04F03AEC24F001C077
:1030220007F002C008F0000E0A6E640E096E25EC6D
:1030320021F020EE03F00E50D9260F50DA22DF5095
:10304200116E0750115C126E20EE03F00E50D9265D
:103052000F50DA22DF50136E52EF18F0000E126E8C
:103062000EC0D9FF0FC0DAFFDF50106E1050016E94
:10307200026A20EE03F00E50D9260F50DA22DECF7C
:1030820003F0DDCF04F03AEC24F001C007F002C0F7
:1030920008F0000E0A6E640E096E25EC21F007504E
:1030A200136E20EE01F00E50D9260F50DA22DF50B7
:1030B200D8B45EEF18F060EF18F082EF18F020EE4F
:1030C20005F00E50D9260F50DA22DECF10F0DDCFF8
:1030D20011F010C0D9FF11C0DAFF12C0DFFF20EEDD
:1030E20007F00E50D9260F50DA22DECF10F0DDCFD6
:1030F20011F010C0D9FF11C0DAFF13C0DFFFA2EF39
:1031020018F020EE05F00E50D9260F50DA22DECF4D
:1031120010F0DDCF11F010C0D9FF11C0DAFF13C0DB
:10312200DFFF20EE07F00E50D9260F50DA22DECF55
:1031320010F0DDCF11F010C0D9FF11C0DAFF12C0BC
:10314200DFFF120022C0D9FF23C0DAFFDECFF6FF75
:10315200DDCFF7FF0800F550250AD8A4B3EF18F029
:10316200B5EF18F03BEF19F022C0D9FF23C0DAFF08
:10317200DE2A000EDD22000E0101216F000E206FFB
:1031820020C1F4F02269236922C0D9FF23C0DAFFEB
:10319200DECFF6FFDDCFF7FF0800F550730AD8B493
:1031A200D5EF18F0D7EF18F0F2EF18F022C0D9FFE0
:1031B20023C0DAFFDECF01F0DDCF02F0480E036E4E
:1031C2000E0E046E000E066E030E056E5FEC1CF012
:1031D20001500210D8A4F0EF18F0F2EF18F032EF1D
:1031E20019F022C0D9FF23C0DAFFDECFF6FFDDCF10
:1031F200F7FF0800F550730AD8B402EF19F004EF94
:1032020019F00AEF19F0000E296E030E286E0EEF68
:1032120019F0000E296E010E286E22C0D9FF23C0BC
:10322200DAFF2850DE262950DD2220C00AF021C014
:103232000BF024C0D9FF25C0DAFFDFCF26F0020E43
:10324200DE26DFCF27F0000EDD2226C0D9FF27C001
:10325200DAFFDECF0CF0DDCF0DF050EC19F04FEFBE
:1032620019F022C0D9FF23C0DAFFDE2A000EDD22C8
:103272004FEF19F022C0D9FF23C0DAFFDECFF6FFED
:10328200DDCFF7FF0800F550016E026A20C003F09F
:1032920021C004F0CEEC1CF032EF19F0120021EE46
:1032A20095F010EE0FF0060EDBCFE3FFE806FCE22E
:1032B2000CC01AF00DC01BF01A501B10D8A464EFFA
:1032C20019F066EF19F06AEF19F00F0E1A6E000E80
:1032D2001B6E1AC001F01BC002F0B3EC22F001C059
:1032E2001CF002C01DF022C11EF023C11FF01FBE40
:1032F2007DEF19F07FEF19F094EF19F01C501E5C6E
:103302001F50800A0E6E1D50800A0E58D8A08CEFF6
:1033120019F08EEF19F090EF19F094EF19F01EC02A
:103322001CF01FC01DF01CC01EF01DC01FF020C1EC
:1033320016F021C117F0AAEF19F0000E026E200E4E
:10334200016E0AC003F00BC004F0CEEC1CF01C4A64
:103352001D2A16501C5C1D50800A0E6E1750800AE2
:103362000E58D8A0B7EF19F0B9EF19F09EEF19F087
:10337200000E196E000E186EDEEF19F01AC0F6FF7D
:103382001BC0F7FF000EF86E0D0EF76403D00800A5
:10339200F55005D0F6CFE1FFF7CFE2FFE7500E6E12
:1033A2000E50016E026A0AC003F00BC004F0CEECAC
:1033B2001CF01A4A1B2A184A192A1E50185C195066
:1033C200800A0E6E1F50800A0E58D8A0EBEF19F03B
:1033D200EDEF19F0BFEF19F0120059345A34000121
:1033E2006E6F6E51D8A4F8EF19F0FAEF19F004EFEE
:1033F2001AF0000E576E000E586E000E596E000E37
:103402005A6E71EF1AF057C05BF058C05CF059C0A9
:103412005DF05AC05EF0200E14EF1AF0D8905E32C2
:103422005D325C325B32E82E0FEF1AF05B506D6F4B
:10343200598EFF0E5716FF0E5816FF0E5916000E24
:103442005A16960E6E5F6EBF2BEF1AF029EF1AF026
:1034520041EF1AF06E51800A970FD8B033EF1AF08D
:1034620035EF1AF037EF1AF0FAEF19F0D8905A3216
:103472005932583257326E3F37EF1AF059EF1AF07D
:103482001F0E6E6547EF1AF049EF1AF051EF1AF06E
:10349200FAEF19F0D8905736583659365A366E0721
:1034A2006E51D8A457EF1AF059EF1AF04BEF1AF0F9
:1034B2006D51D8B45FEF1AF061EF1AF069EF1AF0AC
:1034C2005A1E591E581E576C000E582259225A2253
:1034D20057C057F058C058F059C059F05AC05AF066
:1034E200120013EC22F005C00CF006C00DF00E6ABB
:1034F2000F6A000E13EC17F00CC01CF00DC01DF08B
:103502000EC01EF00FC01FF03BEC22F005C00CF005
:1035120006C00DF00E6A0F6A000E13EC17F00CC015
:1035220020F00DC021F00EC022F00FC023F08BEC72
:1035320022F005C00CF006C00DF00E6A0F6A000EF4
:1035420013EC17F00CC024F00DC025F00EC026F0CD
:103552000FC027F063EC22F005C00CF006C00DF09E
:103562000E6A0F6A000E13EC17F00CC028F00DC0A3
:1035720029F00EC02AF00FC02BF01AC0D9FF1BC0D1
:10358200DAFF1CC0DEFF1DC0DEFF1EC0DEFF1FC053
:10359200DEFF20EE08F01A50D9261B50DA2224C092
:1035A200DEFF25C0DEFF26C0DEFF27C0DEFF20EEE5
:1035B20004F01A50D9261B50DA2220C0DEFF21C0A7
:1035C200DEFF22C0DEFF23C0DEFF20EE0CF01A5029
:1035D200D9261B50DA2228C0DEFF29C0DEFF2AC00E
:1035E200DEFF2BC0DEFF1200000E0114096E000E7A
:1035F20002140A6E800E03140B6E7F0E04140C6EFE
:1036020009500A100B100C10D8A40AEF1BF00CEF93
:103612001BF014EF1BF0000E016E000E026E000E86
:10362200036E000E046E000E0514096E000E0614E1
:103632000A6E800E07140B6E7F0E08140C6E095072
:103642000A100B100C10D8A429EF1BF02BEF1BF063
:1036520033EF1BF0000E056E000E066E000E076EB5
:10366200000E086E04AE38EF1BF03AEF1BF043EF8A
:103672001BF0016C021ED8B0022A031ED8B0032A26
:10368200800E045608AE48EF1BF04AEF1BF053EFD2
:103692001BF0056C061ED8B0062A071ED8B0072AF2
:1036A200800E0856000E011A000E021A000E031AAE
:1036B200800E041A000E051A000E061A000E071AD2
:1036C200800E081A0550015C065002580750035834
:1036D20008500458D8B070EF1BF072EF1BF075EF72
:1036E2001BF0D89076EF1BF0D88012000001FE513B
:1036F200D8B47EEF1BF080EF1BF0B6EF1BF021C0B9
:103702001BF022C01CF023C01DF024C01EF0E6EC0A
:103712001FF021C014F022C015F023C016F024C0FF
:1037220017F069EC20F0390E266ED20E256E4C0E83
:10373200E82EFED7252EFCD7262EFAD700D021C0A0
:103742001AF022C01BF023C01CF024C01DF0A2EC12
:103752001FF021C01AF022C01BF023C01CF024C0AD
:103762001DF0A2EC1FF0EAEF1BF021C01AF022C0FC
:103772001BF023C01CF024C01DF05DEC1FF021C023
:103782001AF022C01BF023C01CF024C01DF05DEC17
:103792001FF021C014F022C015F023C016F024C07F
:1037A20017F029EC20F0390E266ED20E256E4C0E43
:1037B200E82EFED7252EFCD7262EFAD700D021C020
:1037C20014F022C015F023C016F024C017F088ECC4
:1037D2001DF012000001FE51D8B4F2EF1BF0F4EF1D
:1037E2001BF02AEF1CF021C01BF022C01CF023C0EA
:1037F2001DF024C01EF0E6EC1FF021C014F022C020
:1038020015F023C016F024C017F069EC20F0390E31
:10381200266ED20E256E4C0EE82EFED7252EFCD734
:10382200262EFAD700D021C01AF022C01BF023C0E6
:103832001CF024C01DF05DEC1FF021C01AF022C064
:103842001BF023C01CF024C01DF05DEC1FF05EEFE6
:103852001CF021C01AF022C01BF023C01CF024C0AF
:103862001DF0A2EC1FF021C01AF022C01BF023C0F1
:103872001CF024C01DF0A2EC1FF021C014F022C0E5
:1038820015F023C016F024C017F029EC20F0390EF1
:10389200266ED20E256E4C0EE82EFED7252EFCD7B4
:1038A200262EFAD700D021C014F022C015F023C072
:1038B20016F024C017F088EC1DF0120001C008F0C9
:1038C20002C009F003C00AF004C00BF00506D8A03C
:1038D2000606052806E10628D8A472EF1CF074EF4C
:1038E2001CF081EF1CF0000E026E000E016ECDEF97
:1038F2001CF0084A092A0A4A0B2A0506D8A006061D
:1039020008C0F6FF09C0F7FF0800F5500009D8B457
:103912008DEF1CF08FEF1CF0BBEF1CF00AC0F6FF1E
:103922000BC0F7FF0800F5500009D8B49BEF1CF05C
:103932009DEF1CF0BBEF1CF005500610D8B4A4EFAD
:103942001CF0A6EF1CF0BBEF1CF008C0F6FF09C08C
:10395200F7FF0800F5CF07F00AC0F6FF0BC0F7FF2C
:103962000800F5500718D8B4B9EF1CF0BBEF1CF0F3
:103972007AEF1CF008C0F6FF09C0F7FF0800F5CF88
:1039820007F00AC0F6FF0BC0F7FF0800F550075C0E
:10399200016E026AD8A00206120003500410D8B4C5
:1039A200D5EF1CF0D7EF1CF0E0EF1CF00350041031
:1039B200D8A4DEEF1CF0E0EF1CF0E5EF1CF00150A4
:1039C200BBEC24F032EF1DF020EE09F00350D926B3
:1039D2000450DA22DE50DE10D8B4F2EF1CF0F4EF1D
:1039E2001CF00FEF1DF020EE09F00350D926045011
:1039F200DA2210EE03F00350E1260450E222DE50F8
:103A0200E65CE650800A096EDE50800A0958D8B09A
:103A12000DEF1DF00FEF1DF032EF1DF020EE03F061
:103A22000350D9260450DA22DECF05F0DDCF06F0AE
:103A320003C0D9FF04C0DAFFDECF07F0DDCF08F004
:103A420005500724D96E06500820DA6E01C0DFFF48
:103A520020EE03F00350D9260450DA22DE2A000EAB
:103A6200DD221200000E0114096E000E02140A6E0D
:103A7200800E03140B6E7F0E04140C6E09500A1094
:103A82000B100C10D8A448EF1DF04AEF1DF052EFB6
:103A92001DF0000E016E000E026E000E036E000E8F
:103AA200046E000E0514096E000E06140A6E800ED6
:103AB20007140B6E7F0E08140C6E09500A100B10BF
:103AC2000C10D8A467EF1DF069EF1DF071EF1DF027
:103AD200000E056E000E066E000E076E000E086EDA
:103AE200055001180FE1065002180CE107500318A7
:103AF20009E108500418D8B481EF1DF083EF1DF0DE
:103B020086EF1DF0D89087EF1DF0D88012007C88D8
:103B1200C1EF1DF014C0D9FF15C0DAFFDF50D8B4D1
:103B220095EF1DF097EF1DF09CEF1DF014C0D9FF2B
:103B320015C0DAFFDF0616C0D9FF17C0DAFFDF5063
:103B4200D8B4A6EF1DF0A8EF1DF0ADEF1DF016C022
:103B5200D9FF17C0DAFFDF0614C00EF015C00FF050
:103B6200EDEC17F016C00EF017C00FF0EDEC17F0E9
:103B7200090E186E4E0EE82EFED7182EFCD700D076
:103B820014C0D9FF15C0DAFFDF50D8B4CBEF1DF057
:103B9200CDEF1DF0D9EF1DF016C0D9FF17C0DAFF27
:103BA200DF50D8A4D7EF1DF0D9EF1DF08BEF1DF039
:103BB2007C9812000001FE51D8B4E2EF1DF0E4EF50
:103BC2001DF00EEF1EF021C01BF022C01CF023C01E
:103BD2001DF024C01EF0E6EC1FF021C01AF022C036
:103BE2001BF023C01CF024C01DF0A2EC1FF021C06A
:103BF2001AF022C01BF023C01CF024C01DF0A2EC5E
:103C02001FF021C01AF022C01BF023C01CF024C0F8
:103C12001DF0A2EC1FF02CEF1EF021C01AF022C002
:103C22001BF023C01CF024C01DF05DEC1FF021C06E
:103C32001AF022C01BF023C01CF024C01DF05DEC62
:103C42001FF021C01AF022C01BF023C01CF024C0B8
:103C52001DF05DEC1FF012000001FE51D8B434EFEC
:103C62001EF036EF1EF060EF1EF021C01BF022C0E6
:103C72001CF023C01DF024C01EF0E6EC1FF021C092
:103C82001AF022C01BF023C01CF024C01DF05DEC12
:103C92001FF021C01AF022C01BF023C01CF024C068
:103CA2001DF05DEC1FF021C01AF022C01BF023C0F2
:103CB2001CF024C01DF05DEC1FF07EEF1EF021C051
:103CC2001AF022C01BF023C01CF024C01DF0A2EC8D
:103CD2001FF021C01AF022C01BF023C01CF024C028
:103CE2001DF0A2EC1FF021C01AF022C01BF023C06D
:103CF2001CF024C01DF0A2EC1FF0120020EE01F017
:103D02001450D9261550DA22010EDF6E20EE01F092
:103D12001650D9261750DA22000EDF6E14C00EF0AC
:103D220015C00FF0EDEC17F016C00EF017C00FF033
:103D3200EDEC17F0000E196E000E186E14C0D9FFCC
:103D420015C0DAFFDF2A16C0D9FF17C0DAFFDF2A53
:103D520014C00EF015C00FF0EDEC17F016C00EF007
:103D620017C00FF0EDEC17F0E40E00D000D0E82EF3
:103D7200FCD700D000D0184A192A195009E1320E96
:103D8200185CD8A0C7EF1EF0C9EF1EF09FEF1EF01F
:103D9200120020EE01F01450D9261550DA22000E3E
:103DA200DF6E20EE01F01650D9261750DA22010EEE
:103DB200DF6E14C00EF015C00FF0EDEC17F016C058
:103DC2000EF017C00FF0EDEC17F0000E196E000E9A
:103DD200186E14C0D9FF15C0DAFFDF2A16C0D9FF4A
:103DE20017C0DAFFDF2A14C00EF015C00FF0EDEC99
:103DF20017F016C00EF017C00FF0EDEC17F0E40E3E
:103E020000D000D0E82EFCD700D000D0184A192AE2
:103E1200195009E1320E185CD8A012EF1FF014EF0E
:103E22001FF0EAEF1EF012008594839E8598879C0E
:103E32007D947B9E7D987F9C050E0E01746F060E0D
:103E4200766F070E696F080E886FBD508F0B4009A1
:103E5200BD6EE00EBE16BF50F00B0109BF6E01C071
:103E6200BCFFBD8E000EAA6E000EA66E000E0F01E4
:103E7200256F000E216FFC0EAD16F30EAD16CF0EA0
:103E8200AD163F0EAD16AB88AB50F00B0C09AB6E06
:103E9200AB8EA788A750F00B0C09A76EA78E2689B8
:103EA2002651F00B0C09266F268F22892251F00B26
:103EB2000C09226F228F12007E801AC014F01BC0E0
:103EC20015F01CC016F01DC017F088EC1DF0050E91
:103ED2001F6E0F0E1E6EF10EE82EFED71E2EFCD7A1
:103EE2001F2EFAD700F01AC014F01BC015F01CC028
:103EF20016F01DC017F0CAEC1EF00C0E1F6EDA0E83
:103F02001E6EBA0EE82EFED71E2EFCD71F2EFAD733
:103F120000D01AC014F01BC015F01CC016F01DC052
:103F220017F088EC1DF0050E1F6E0F0E1E6EF10EBF
:103F3200E82EFED71E2EFCD71F2EFAD700F07E9059
:103F4200120080801AC014F01BC015F01CC016F0BD
:103F52001DC017F088EC1DF0050E1F6E0F0E1E6EB1
:103F6200F10EE82EFED71E2EFCD71F2EFAD700F038
:103F72001AC014F01BC015F01CC016F01DC017F0BB
:103F82007FEC1EF00D0E1F6E190E1E6E100EE82E27
:103F9200FED71E2EFCD71F2EFAD71AC014F01BC054
:103FA20015F01CC016F01DC017F088EC1DF0050EB0
:103FB2001F6E0F0E1E6EF10EE82EFED71E2EFCD7C0
:103FC2001F2EFAD700F0809012001BC014F01CC004
:103FD20015F01DC016F01EC017F088EC1DF0090E7A
:103FE200206E1E0E1F6EE40EE82EFED71F2EFCD78B
:103FF200202EFAD700D01BC014F01CC015F01DC033
:1040020016F01EC017F069EC20F01D0E206E690E2E
:104012001F6EA50EE82EFED71F2EFCD7202EFAD734
:1040220000F01BC014F01CC015F01DC016F01EC01D
:1040320017F088EC1DF0090E206E1E0E1F6EE40EA6
:10404200E82EFED71F2EFCD7202EFAD700D0120062
:1040520020EE01F01450D9261550DA22010EDF6E3F
:1040620020EE01F01650D9261750DA22010EDF6E2B
:10407200000E1A6E000E196E14C0D9FF15C0DAFFB9
:10408200DF2A16C0D9FF17C0DAFFDF2A14C00EF0EC
:1040920015C00FF0EDEC17F016C00EF017C00FF0C0
:1040A200EDEC17F0090E186E4E0EE82EFED7182E04
:1040B200FCD700D0194A1A2A1A5009E1320E195CAB
:1040C200D8A066EF20F068EF20F03DEF20F012005C
:1040D20020EE01F01450D9261550DA22000EDF6EC0
:1040E20020EE01F01650D9261750DA22000EDF6EAC
:1040F200000E1A6E000E196E14C0D9FF15C0DAFF39
:10410200DF2A16C0D9FF17C0DAFFDF2A14C00EF06B
:1041120015C00FF0EDEC17F016C00EF017C00FF03F
:10412200EDEC17F0090E186E4E0EE82EFED7182E83
:10413200FCD700D0194A1A2A1A5009E1320E195C2A
:10414200D8A0A6EF20F0A8EF20F07DEF20F012001B
:104152000001FE51D8B4B0EF20F0B2EF20F0D2EF60
:1041620020F021C01BF022C01CF023C01DF024C08F
:104172001EF0E6EC1FF021C01AF022C01BF023C093
:104182001CF024C01DF0A2EC1FF021C01AF022C0C6
:104192001BF023C01CF024C01DF0A2EC1FF0E6EFC0
:1041A20020F021C01AF022C01BF023C01CF024C052
:1041B2001DF05DEC1FF021C01AF022C01BF023C0DD
:1041C2001CF024C01DF05DEC1FF012000001FE5136
:1041D200D8B4EEEF20F0F0EF20F010EF21F021C084
:1041E2001BF022C01CF023C01DF024C01EF0E6EC20
:1041F2001FF021C01AF022C01BF023C01CF024C003
:104202001DF05DEC1FF021C01AF022C01BF023C08C
:104212001CF024C01DF05DEC1FF024EF21F021C042
:104222001AF022C01BF023C01CF024C01DF0A2EC27
:104232001FF021C01AF022C01BF023C01CF024C0C2
:104242001DF0A2EC1FF01200000E0C6E000E0B6EA1
:1042520009500A10D8B430EF21F032EF21F05AEFB2
:1042620021F0010E0D6E3AEF21F0D89009360A3690
:104272000D2A0AAE3FEF21F041EF21F036EF21F097
:10428200D8900B360C360950075C0A500858D8A053
:104292004DEF21F04FEF21F054EF21F00950075E6E
:1042A2000A50085A0B80D8900A3209320D2E41EF7B
:1042B20021F00BC007F00CC008F01200D3CF73F04E
:1042C2000001746BD450726F716B71517313725120
:1042D2007413BD0E4F6E370E506E860E516E3F0E2A
:1042E200526E73C00CF074C00DF00E6A0F6A000EAD
:1042F20013EC17F00CC04BF00DC04CF00EC04DF09B
:104302000FC04EF096EC0FF04BC057F04CC058F077
:104312004DC059F04EC05AF0EEEC19F057C06FF094
:1043220058C070F01200180EF66E490EF76E000EAD
:10433200F86E01EE95F010EE0FF00900F5CFEEFFEA
:10434200E550E150FAE1780EF66E490EF76E000E76
:10435200F86E0900F5CFFEF001EE00F0950EEE6A60
:10436200E806FDE100EEF0F00E0EEE6AE806FDE171
:104372005F905F92000EF86E000116EF15F00001DB
:10438200FE51D8B4C7EF21F0C9EF21F0DFEF21F0E1
:1043920024C01BF025C01CF026C01DF027C01EF053
:1043A200E6EC1FF024C020F025C021F026C022F048
:1043B20027C023F0EAEC21F0E9EF21F024C020F03D
:1043C20025C021F026C022F027C023F0EAEC21F01C
:1043D200120020C01AF021C01BF022C01CF023C022
:1043E2001DF05DEC1FF020C01AF021C01BF022C0AE
:1043F2001CF023C01DF05DEC1FF020C01AF021C09C
:104402001BF022C01CF023C01DF05DEC1FF020C089
:104412001AF021C01BF022C01CF023C01DF05DEC7D
:104422001FF01200B1EC24F0520E9BEC24F0B60EF9
:104432009BEC24F0A7EC24F0530E9BEC24F0010E2D
:104442004CEC23F0076E07500A6E0B6A000E4CEC20
:1044520023F0076E0750096E086A0A5008100A6EA8
:104462000B5009100B6EACEC24F00AC005F00BC027
:1044720006F01200B1EC24F0520E9BEC24F0B80EC0
:104482009BEC24F0A7EC24F0530E9BEC24F0010EDD
:104492004CEC23F0076E07500A6E0B6A000E4CECD0
:1044A20023F0076E0750096E086A0A5008100A6E58
:1044B2000B5009100B6EACEC24F00AC005F00BC0D7
:1044C20006F01200B1EC24F0520E9BEC24F0B40E74
:1044D2009BEC24F0A7EC24F0530E9BEC24F0010E8D
:1044E2004CEC23F0076E07500A6E0B6A000E4CEC80
:1044F20023F0076E0750096E086A0A5008100A6E08
:104502000B5009100B6EACEC24F00AC005F00BC086
:1045120006F01200B1EC24F0520E9BEC24F0BA0E1D
:104522009BEC24F0A7EC24F0530E9BEC24F0010E3C
:104532004CEC23F0076E07500A6E0B6A000E4CEC2F
:1045420023F0076E0750096E086A0A5008100A6EB7
:104552000B5009100B6EACEC24F00AC005F00BC036
:1045620006F0120001C003F002C004F0BBEF22F01B
:10457200014A022A01C0F6FF02C0F7FF000EF86EE0
:104582000D0EF76403D00800F55005D0F6CFE1FF19
:10459200F7CFE2FFE7500009D8A4D2EF22F0D4EF20
:1045A20022F0B9EF22F00350015C016E0450025870
:1045B200026E1200360E386E000E396E32C03AF0BC
:1045C20033C03BF0000E3E6E000E3D6E000E446E98
:1045D200000E436E3A0E2A6E000E2B6E34C02CF083
:1045E20035C02DF0380E2E6E000E2F6E02EC23F029
:1045F2003D503224D96E3E503320DA6E000EDF6E0B
:1046020012002CC030F02DC031F016EF23F02AC07A
:1046120020F02BC021F0300E226E000E236E2EC031
:1046220024F02FC025F0A3EC18F030C0F6FF31C003
:10463200F7FF0800F5500009D8A422EF23F024EF79
:1046420023F008EF23F0000E2B6E000E2A6E1200EC
:10465200000E2E1A000E2F1A000E301A800E311A7A
:104662002AC01AF02BC01BF02CC01CF02DC01DF06C
:104672002EC01EF02FC01FF030C020F031C021F03C
:1046820036EC0DF01AC02AF01BC02BF01CC02CF027
:104692001DC02DF01200036E26EC24F00E01DA8705
:1046A20026EC24F0D5CE04F026EC24F00350D8B446
:1046B2005DEF23F061EF23F0026A022A62EF23F03A
:1046C200026A023A02460E01DA510218DF0B0218A0
:1046D200DA6FDA890450120011EC24F0010E036E35
:1046E200000E70EC24F03F0E056E550EE82EFED73C
:1046F200052EFCD700F0030E036E000E70EC24F0C2
:10470200D60E036E010E70EC24F07F928792799898
:1047120081987E9E869E120047C00DF048C00EF022
:10472200BFEC0AF00DC049F00EC04AF045C032F0AD
:1047320046C033F0010E346E0E0E356E49C036F0AF
:104742004AC037F0DBEC22F045C002F046C003F06D
:10475200ACEC23F01200BBEF23F002C0D9FF03C080
:10476200DAFFDF5080EC24F0024A032A6A0EE82EB8
:10477200FED700D002C0D9FF03C0DAFFDF50D8A4B1
:10478200C5EF23F0C7EF23F0AEEF23F01200016E66
:104792000150D8B4CFEF23F0D1EF23F0D6EF23F0BE
:1047A2007F8279887E8EE1EF23F00150D8A4DCEF7E
:1047B20023F0DEEF23F0E1EF23F07F9279987E9EE3
:1047C200120020EE14F00150D9260250DA22DECF78
:1047D20007F0DDCF08F0D8900334D96E0434DA6ED6
:1047E2000550D9260650DA2207C0DEFF08C0DDFFD9
:1047F20012005FEC21F0180E00016F25796FFC0E9C
:1048020070217A6FD8907535D96E7635DA6E775118
:10481200D9267851DA2279C0DEFF7AC0DDFF120094
:104822000E01D951F00B0809D96FD98B9F0ED66FA3
:10483200848A848CA79BA79D1D0E1D6F1E0E1C6F64
:104842001C0E6F6F1B0E706F12000E01D8B52CEF8D
:1048520024F02EEF24F026EF24F0DACE01F01F0E22
:104862000116D8A437EF24F039EF24F026EF24F014
:10487200120001500302F3CF05F0F4CF06F001500D
:104882000402F350062602500302F350062605C026
:1048920001F006C002F01200D6501F0B4009D66E7E
:1048A200D688D650F00B0D09D66ED5880E01298B0D
:1048B200000ED46E000ED36ED58E120083888382D2
:1048C200120E0E01626F110E156FE997E895330E05
:1048D200E56F000EE66FE789E88BE78F1200046E42
:1048E200B1EC24F0520E9BEC24F0045080099BECB6
:1048F20024F003509BEC24F0ACEC24F01200016E87
:104902000E0137A587EF24F089EF24F081EF24F020
:1049120001C0E4FE1200286E756C6C29005E01BCB9
:05492200029500920067
:104928008498889086907C9880907E901200026E81
:1049380026EC24F002C0D5FE12000E012D87F28A63
:10494800F28CF28E120026EC24F00E01DA831200AB
:1049580026EC24F00E01DA85120026EC24F00E0174
:10496800DA811200000ED36E000ED46E120012000F
:01497800013D
:020000040020DA
:10000000FF0FFF0FFF0FFF0FFF0FFF0FFF0FFF0F80
:020000040030CA
:0C000000AAFFFFFF9FFFFFFFFFFFFFFFB5
:00000001FF
