:04000000CBEF11F041
:100E00000052656420256420477265656E2C256458
:100E100020426C75652C256420436C656172202529
:050E200064200D00003C
:100E26001850800B256E185018242C6E17AE1EEF26
:100E360007F020EF07F021EF07F02C802C50D8B4F4
:100E460027EF07F029EF07F03EEF07F02C28D8A48C
:100E56002FEF07F031EF07F039EF07F0000E156EB0
:100E6600000E166E000E176E000E186E178E000E10
:100E7600186E46EF07F0000E156E000E166E000E89
:100E8600176E000E186E1C50800B251A1C501C2461
:100E96002D6E1BAE51EF07F053EF07F054EF07F03E
:100EA6002D802D50D8B45AEF07F05CEF07F071EFA4
:100EB60007F02D28D8A462EF07F064EF07F06CEF77
:100EC60007F0000E196E000E1A6E000E1B6E000E55
:100ED6001C6E1B8E000E1C6E79EF07F0000E196E4D
:100EE600000E1A6E000E1B6E000E1C6E19501A10A4
:100EF6001B101C10D8A482EF07F084EF07F09CEFBC
:100F060007F0000E156E000E166E000E176E000E20
:100F1600186E800E17127F0E18122550181215C063
:100F260015F016C016F017C017F018C018F0DFEF4E
:100F360008F02C50D8A4A2EF07F0A4EF07F0AEEF0C
:100F460007F0000E156E000E166E000E176E000EE0
:100F5600186EDFEF08F02D502CC01DF01E6A1D5EC6
:100F6600000E1E5A7F0E1D24266E000E1E20276EB2
:100F760015C021F016C022F017C023F018C024F0C7
:100F8600000E156E000E166E000E176E000E186E11
:100F9600000E286E000E296E000E2A6E000E2B6EB5
:100FA600000E2D6E0FEF08F02D50D8B4DDEF07F0D0
:100FB600DFEF07F0F6EF07F0D8902136223623361A
:100FC6002436D89015361636173618362BAEEEEF71
:100FD60007F0F0EF07F0F1EF07F01580D89028360C
:100FE60029362A362B361950215C1A5022581B50A6
:100FF60023581C502458D8A003EF08F005EF08F03A
:101006000EEF08F02B8C1950215E1A50225A1B50F5
:10101600235A1C50245A2D2A190E2D6415EF08F058
:1010260017EF08F0D7EF07F02150221023102410F5
:10103600D8B420EF08F022EF08F03AEF08F0288045
:101046003AEF08F0D89015361636173618362BAE06
:101056002FEF08F031EF08F032EF08F01580D89046
:10106600283629362A362B362606D8A0270617AE66
:101076003FEF08F041EF08F025EF08F0000E2D6E67
:101086002BAE48EF08F04AEF08F06EEF08F0FF0EBF
:1010960028141D6EFF0E29141E6EFF0E2A141F6ED5
:1010A6007F0E2B14206E1D501E101F102010D8B45A
:1010B6005FEF08F061EF08F065EF08F0010E2D6EA6
:1010C6006EEF08F015A06AEF08F06CEF08F06EEF0F
:1010D60008F061EF08F02D50D8B474EF08F076EF01
:1010E60008F09AEF08F0010E1526000E16221722B8
:1010F600182218A081EF08F083EF08F09AEF08F0A5
:1011060015C01DF016C01EF017C01FF018C020F045
:10111600203420321F321E321D321DC015F01EC073
:1011260016F01FC017F020C018F0264A272A27BE3F
:10113600A5EF08F0275008E12628D8A0A5EF08F06B
:10114600A7EF08F0B2EF08F0000E276E2668000E33
:10115600156E000E166E000E176E000E186E27BE68
:10116600BFEF08F0275006E12604D8B0BDEF08F01F
:10117600BFEF08F0CDEF08F0000E276E000E266ECA
:10118600000E156E000E166E000E176E000E186E0F
:10119600000E256E26C02CF02CA0D4EF08F0D6EF5A
:1011A60008F0D9EF08F0178EDAEF08F0179ED890FE
:1011B6002C30186E90EF07F0120080EC10F038C05B
:1011C600D9FF39C0DAFF05C0DEFF06C0DDFFA8EC97
:1011D60010F020EE02F03850D9263950DA2205C038
:1011E600DEFF06C0DDFFF8EC10F020EE04F038500C
:1011F600D9263950DA2205C0DEFF06C0DDFFD0EC65
:1012060010F020EE06F03850D9263950DA2205C003
:10121600DEFF06C0DDFF20EE06F03850D926395035
:10122600DA22DECF3CF0DDCF3DF020EE04F0385080
:10123600D9263950DA22DECF3EF0DDCF3FF020EE60
:1012460002F03850D9263950DA22DECF40F0DDCF11
:1012560041F038C0D9FF39C0DAFFDECF42F0DDCF2A
:1012660043F040504224446E41504320456E3E5068
:101276004424466E3F504520476E3C504624486EF7
:101286003D504720496E38C0D9FF39C0DAFFDECF5E
:1012960001F0DDCF02F0270E046E100E036E2DEC6A
:1012A60012F001C007F002C008F0000E08BEFF0EE3
:1012B600096E0A6E010ED9EC0BF007C04AF008C0A1
:1012C6004BF009C04CF00AC04DF048C007F049C0C9
:1012D60008F0000E08BEFF0E096E0A6E010ED9EC6C
:1012E6000BF007C019F008C01AF009C01BF00AC0BD
:1012F6001CF04AC015F04BC016F04CC017F04DC09C
:1013060018F013EC07F015C02EF016C02FF017C01A
:1013160030F018C031F0D0EC0EF03AC0D9FF3BC027
:10132600DAFF2EC0DEFF2FC0DDFF20EE04F03850BE
:10133600D9263950DA22DECF01F0DDCF02F0270EB2
:10134600046E100E036E2DEC12F001C007F002C001
:1013560008F0000E08BEFF0E096E0A6E010ED9ECEB
:101366000BF007C04AF008C04BF009C04CF00AC0A9
:101376004DF048C007F049C008F0000E08BEFF0E49
:10138600096E0A6E010ED9EC0BF007C019F008C001
:101396001AF009C01BF00AC01CF04AC015F04BC079
:1013A60016F04CC017F04DC018F013EC07F015C03E
:1013B6002EF016C02FF017C030F018C031F0D0EC68
:1013C6000EF020EE04F03A50D9263B50DA222EC019
:1013D600DEFF2FC0DDFF20EE02F03850D92639504F
:1013E600DA22DECF01F0DDCF02F0270E046E100EFA
:1013F600036E2DEC12F001C007F002C008F0000EDB
:1014060008BEFF0E096E0A6E010ED9EC0BF007C07E
:101416004AF008C04BF009C04CF00AC04DF048C075
:1014260007F049C008F0000E08BEFF0E096E0A6EEE
:10143600010ED9EC0BF007C019F008C01AF009C06C
:101446001BF00AC01CF04AC015F04BC016F04CC089
:1014560017F04DC018F013EC07F015C02EF016C0AB
:101466002FF017C030F018C031F0D0EC0EF020EE9F
:1014760002F03A50D9263B50DA222EC0DEFF2FC0AA
:10148600DDFF20EE06F03850D9263950DA22DECFBD
:1014960001F0DDCF02F0270E046E100E036E2DEC68
:1014A60012F001C007F002C008F0000E08BEFF0EE1
:1014B600096E0A6E010ED9EC0BF007C04AF008C09F
:1014C6004BF009C04CF00AC04DF048C007F049C0C7
:1014D60008F0000E08BEFF0E096E0A6E010ED9EC6A
:1014E6000BF007C019F008C01AF009C01BF00AC0BB
:1014F6001CF04AC015F04BC016F04CC017F04DC09A
:1015060018F013EC07F015C02EF016C02FF017C018
:1015160030F018C031F0D0EC0EF020EE06F03A5064
:10152600D9263B50DA222EC0DEFF2FC0DDFF120087
:101536001EC034F01FC035F020C036F021C037F091
:1015460022C038F023C039F024C03AF025C03BF061
:101556003BBEB0EF0AF0B3EF0AF0010EB4EF0AF0AB
:10156600000E3E6E3E50D8B4BBEF0AF0BDEF0AF057
:10157600CDEF0AF03B1E3A1E391E381E371E361EA8
:10158600351E346C000E3522362237223822392297
:101596003A223B22000177BFDBEF0AF0775106E1E2
:1015A6007605D8B0D9EF0AF0DBEF0AF0E1EF0AF0E2
:1015B600000E316E010E306EE5EF0AF076C030F0A7
:1015C60077C031F074C032F075C033F03E50D8B4F5
:1015D600EFEF0AF0F1EF0AF008EF0BF03206D8A0B1
:1015E60033063E50D8A4FAEF0AF0FCEF0AF002EFF9
:1015F6000BF0000E2F6E2B0E2E6E06EF0BF0000E6C
:101606002F6E2D0E2E6E2EC03EF0000E3D6E1F0E5E
:101616003C6E000E9B6F8CEF0BF03C06D8A03D068F
:101626007C0E3C24D96E000E3D20DA6E34C001F0EB
:1016360035C002F036C003F037C004F038C005F0FC
:1016460039C006F03AC007F03BC008F00A0E096E32
:10165600000E0A6E000E0B6E000E0C6E000E0D6E66
:10166600000E0E6E000E0F6E000E106E77EC0DF073
:1016760001C026F002C027F003C028F004C029F0FC
:1016860005C02AF006C02BF007C02CF008C02DF0CC
:1016960026C013F027C014F0ABEC11F01350300F36
:1016A600DF6E3006D8A031063206D8A0330634C025
:1016B60001F035C002F036C003F037C004F038C080
:1016C60005F039C006F03AC007F03BC008F00A0E34
:1016D600096E000E0A6E000E0B6E000E0C6E000EEA
:1016E6000D6E000E0E6E000E0F6E000E106EB3EC39
:1016F6000CF001C034F002C035F003C036F004C06F
:1017060037F005C038F006C039F007C03AF008C017
:101716003BF03DBE97EF0BF03D5008E13C04D8A0EE
:1017260097EF0BF099EF0BF0B5EF0BF03450351047
:1017360036103710381039103A103B10D8A4A6EFDF
:101746000BF0A8EF0BF010EF0BF031BEB5EF0BF07E
:10175600315006E13004D8B0B3EF0BF0B5EF0BF023
:1017660010EF0BF03E50D8B4BBEF0BF0BDEF0BF013
:10177600C8EF0BF03C06D8A03D067C0E3C24D96E83
:10178600000E3D20DA6E3EC0DFFF1CC011F01DC00A
:1017960012F07C0E3C24136E000E3D20146E32C0F7
:1017A60015F033C016F0B8EC0FF012000F6E0F50A4
:1017B600D8B4E0EF0BF0E2EF0BF004EF0CF00ABE4A
:1017C600E9EF0BF0E7EF0BF004EF0CF007C00BF0BE
:1017D60008C00CF009C00DF00AC00EF00B1E0C1E5E
:1017E6000D1E0E1E0B2A000E0C220D220E220BC001
:1017F60011F00CC012F00DC013F00EC014F00CEF77
:101806000CF007C011F008C012F009C013F00AC0AE
:1018160014F00750081009100A10D8A415EF0CF0A0
:1018260017EF0CF021EF0CF0000E076E000E086E9D
:10183600000E096E000E0A6EB2EF0CF0960E106ED8
:101846002BEF0CF0102AD8901432133212321132C8
:10185600000E11140B6E000E12140C6E000E1314F3
:101866000D6EFE0E14140E6E0B500C100D100E1095
:10187600D8A440EF0CF042EF0CF025EF0CF050EF3F
:101886000CF0102A010E1126000E12221322142229
:10189600D8901432133212321132000E11140B6E1C
:1018A600000E12140C6E000E13140D6EFF0E14149F
:1018B6000E6E0B500C100D100E10D8A465EF0CF028
:1018C60067EF0CF044EF0CF06FEF0CF01006D890B9
:1018D600113612361336143613BE74EF0CF076EF4B
:1018E6000CF07EEF0CF0020E10607CEF0CF07EEF39
:1018F6000CF069EF0CF010B083EF0CF085EF0CF0F4
:1019060086EF0CF0139ED890103210C00BF00C6AC4
:101916000D6A0E6A0BC00EF00D6A0C6A0B6A0B504C
:1019260011120C5012120D5013120E5014120F50A9
:10193600D8B4A0EF0CF0A2EF0CF0AAEF0CF00ABEA0
:10194600A9EF0CF0A7EF0CF0AAEF0CF0148E11C063
:1019560007F012C008F013C009F014C00AF0120014
:10196600000E126E10BEBCEF0CF0BAEF0CF0CEEF0C
:101976000CF0101E0F1E0E1E0D1E0C1E0B1E0A1E38
:10198600096C000E0A220B220C220D220E220F22B7
:101996001022010E126E08BED5EF0CF0D3EF0CF03C
:1019A600E7EF0CF0081E071E061E051E041E031E8A
:1019B600021E016C000E02220322042205220622C8
:1019C60007220822010E121A20EE13F0070EDE6A15
:1019D600E806FDE209500A100B100C100D100E104F
:1019E6000F101010D8B4FAEF0CF0FCEF0CF04EEF1D
:1019F6000DF0010E116E0AEF0DF0D89009360A3679
:101A06000B360C360D360E360F361036112A10AE42
:101A16000FEF0DF011EF0DF000EF0DF0D89013362B
:101A26001436153616361736183619361A3609503C
:101A3600015C0A5002580B5003580C5004580D50C4
:101A460005580E5006580F50075810500858D8A081
:101A56002FEF0DF031EF0DF042EF0DF00950015E62
:101A66000A50025A0B50035A0C50045A0D50055A8C
:101A76000E50065A0F50075A1050085A1380D89025
:101A860010320F320E320D320C320B320A3209325C
:101A9600112E11EF0DF01250D8B454EF0DF056EF91
:101AA6000DF066EF0DF01A1E191E181E171E161ED3
:101AB600151E141E136C000E142215221622172250
:101AC600182219221A2213C001F014C002F015C000
:101AD60003F016C004F017C005F018C006F019C0D0
:101AE60007F01AC008F01200000E126E08BE80EF52
:101AF6000DF07EEF0DF092EF0DF0081E071E061E8C
:101B0600051E041E031E021E016C000E0222032285
:101B160004220522062207220822010E126E10BE9A
:101B260099EF0DF097EF0DF0A9EF0DF0101E0F1EB7
:101B36000E1E0D1E0C1E0B1E0A1E096C000E0A221E
:101B46000B220C220D220E220F22102209500A10FF
:101B56000B100C100D100E100F101010D8B4B6EF9D
:101B66000DF0B8EF0DF000EF0EF0010E116EC6EF9E
:101B76000DF0D89009360A360B360C360D360E3671
:101B86000F361036112A10AECBEF0DF0CDEF0DF05B
:101B9600BCEF0DF00950015C0A5002580B50035877
:101BA6000C5004580D5005580E5006580F50075843
:101BB60010500858D8A0E2EF0DF0E4EF0DF0F4EF66
:101BC6000DF00950015E0A50025A0B50035A0C5090
:101BD600045A0D50055A0E50065A0F50075A105007
:101BE600085AD89010320F320E320D320C320B32A8
:101BF6000A320932112ECDEF0DF01250D8B406EF8D
:101C06000EF008EF0EF018EF0EF0081E071E061E67
:101C1600051E041E031E021E016C000E0222032274
:101C26000422052206220722082201C001F002C072
:101C360002F003C003F004C004F005C005F006C0BE
:101C460006F007C007F008C008F0120041C0D9FF2F
:101C560042C0DAFFDECFF6FFDDCFF7FF0800F55012
:101C6600250AD8A439EF0EF03BEF0EF0BBEF0EF0CD
:101C760041C0D9FF42C0DAFFDE2A000EDD22000E87
:101C86000001756F000E746F74C078F0766977691D
:101C960041C0D9FF42C0DAFFDECF4FF0DDCF50F0B2
:101CA6004FC0F6FF50C0F7FF0800F550640AD8B4DD
:101CB6005FEF0EF061EF0EF06FEF0EF04FC0F6FF24
:101CC60050C0F7FF0800F550690AD8A46DEF0EF072
:101CD6006FEF0EF0B2EF0EF043C0D9FF44C0DAFF4B
:101CE600DFCF45F0020EDE26DFCF46F0000EDD2206
:101CF60045C0D9FF46C0DAFFDECF47F0DDCF48F05A
:101D0600000E48BEFF0E496E4A6E4B6E4C6E4D6E0F
:101D16004E6E010E4F24456E000E5020466E41C099
:101D2600D9FF42C0DAFF45C0DEFF46C0DDFF3FC037
:101D36001CF040C01DF047C01EF048C01FF049C04F
:101D460020F04AC021F04BC022F04CC023F04DC019
:101D560024F04EC025F09BEC0AF0CFEF0EF041C008
:101D6600D9FF42C0DAFFDE2A000EDD22CFEF0EF0E9
:101D760041C0D9FF42C0DAFFDECFF6FFDDCFF7FF65
:101D86000800F550016E026A3FC003F040C004F03F
:101D960053EC0FF0B2EF0EF0120030343134376EE0
:101DA6003750D8A4D9EF0EF0DBEF0EF0E5EF0EF0CA
:101DB600000E2E6E000E2F6E000E306E000E316E6F
:101DC60052EF0FF02EC032F02FC033F030C034F097
:101DD60031C035F0200EF5EF0EF0D89035323432A2
:101DE60033323232E82EF0EF0EF03250366E308E4D
:101DF600FF0E2E16FF0E2F16FF0E3016000E311692
:101E0600960E375E37BE0CEF0FF00AEF0FF022EF9B
:101E16000FF03750800A970FD8B014EF0FF016EF77
:101E26000FF018EF0FF0DBEF0EF0D89031323032B2
:101E36002F322E32373E18EF0FF03AEF0FF01F0E0B
:101E4600376428EF0FF02AEF0FF032EF0FF0DBEFD9
:101E56000EF0D8902E362F363036313637063750BC
:101E6600D8A438EF0FF03AEF0FF02CEF0FF0365002
:101E7600D8B440EF0FF042EF0FF04AEF0FF0311EEB
:101E8600301E2F1E2E6C000E2F22302231222EC025
:101E96002EF02FC02FF030C030F031C031F01200DC
:101EA60003500410D8B45AEF0FF05CEF0FF065EF53
:101EB6000FF003500410D8A463EF0FF065EF0FF096
:101EC6006AEF0FF0015098EC12F0B7EF0FF020EE2A
:101ED60009F00350D9260450DA22DE50DE10D8B4B9
:101EE60077EF0FF079EF0FF094EF0FF020EE09F097
:101EF6000350D9260450DA2210EE03F00350E126EF
:101F06000450E222DE50E65CE650800A096EDE509E
:101F1600800A0958D8B092EF0FF094EF0FF0B7EFA0
:101F26000FF020EE03F00350D9260450DA22DECF5C
:101F360005F0DDCF06F003C0D9FF04C0DAFFDECF1F
:101F460007F0DDCF08F005500724D96E06500820AB
:101F5600DA6E01C0DFFF20EE03F00350D9260450ED
:101F6600DA22DE2A000EDD22120016BEBDEF0FF0C9
:101F7600BFEF0FF0C5EF0FF015C01AF016C01BF03B
:101F8600C9EF0FF0000E1B6E000E1A6E000E196ED2
:101F9600000E186EDBEF0FF0000E026E200E016EC3
:101FA60011C003F012C004F053EC0FF0184A192ABE
:101FB6001A50185C1950800A176E1B50800A175861
:101FC600D8A0E8EF0FF0EAEF0FF0CFEF0FF013C055
:101FD6000AF014C00BF011C00CF012C00DF047EC63
:101FE60011F0120059C0ACF05AC0ADF0010E00015C
:101FF600AE6F0E0EAF6F5BC0D9FF5CC0DAFFDECFEF
:10200600B0F0DDCFB1F020EE02F05B50D9265C5087
:10201600DA22DECFB2F0DDCFB3F020EE04F05B5073
:10202600D9265C50DA22DECFB4F0DDCFB5F020EE53
:1020360006F05B50D9265C50DA22DECFB6F0DDCF53
:10204600B7F057EC10F059C002F05AC003F0E8ECB4
:1020560011F0120040EC12F08AEC11F004EC12F0D0
:10206600A40E386E000E396E9C0E3A6E000E3B6E54
:10207600E0EC08F0C50E596E000E5A6E9C0E5B6EB3
:10208600000E5C6EF5EC0FF0520E5E6E2B0E5D6E62
:10209600000EE82EFED75D2EFCD75E2EFAD700D0B6
:1020A60033EF10F000EF00F0B00E0001B86F000E35
:1020B600B96FACC0BAF0ADC0BBF0000EBE6F000E7B
:1020C600BD6F000EC46F000EC36FBA0E516E000EC8
:1020D600526EAEC053F0AFC054F0B80E556E000E3F
:1020E600566E20EC11F00001BD51AC25D96EBE51E3
:1020F600AD21DA6E000EDF6E120093EC12F0520E76
:1021060083EC12F0B60E83EC12F089EC12F0530E4B
:1021160083EC12F0010E69EC11F0076E07500A6E9F
:102126000B6A000E69EC11F0076E0750096E086A1B
:102136000A5008100A6E0B5009100B6E8EEC12F046
:102146000AC005F00BC006F0120093EC12F0520E16
:1021560083EC12F0B80E83EC12F089EC12F0530EF9
:1021660083EC12F0010E69EC11F0076E07500A6E4F
:102176000B6A000E69EC11F0076E0750096E086ACB
:102186000A5008100A6E0B5009100B6E8EEC12F0F6
:102196000AC005F00BC006F0120093EC12F0520EC6
:1021A60083EC12F0B40E83EC12F089EC12F0530EAD
:1021B60083EC12F0010E69EC11F0076E07500A6EFF
:1021C6000B6A000E69EC11F0076E0750096E086A7B
:1021D6000A5008100A6E0B5009100B6E8EEC12F0A6
:1021E6000AC005F00BC006F0120093EC12F0520E76
:1021F60083EC12F0BA0E83EC12F089EC12F0530E57
:1022060083EC12F0010E69EC11F0076E07500A6EAE
:102216000B6A000E69EC11F0076E0750096E086A2A
:102226000A5008100A6E0B5009100B6E8EEC12F055
:102236000AC005F00BC006F0120053C057F054C098
:1022460058F034EF11F051C03FF052C040F0570E35
:10225600416E000E426E55C043F056C044F029EC64
:102266000EF057C0F6FF58C0F7FF0800F5500009FA
:10227600D8A440EF11F042EF11F026EF11F0000E56
:10228600526E000E516E1200000E106E000E0F6E92
:1022960058EF11F00EC001F0026A0CC003F00DC039
:1022A60004F053EC0FF00F4A102A0F500A24D96E8F
:1022B60010500B20DA6EDF500E6E0E50D8A466EF6B
:1022C60011F068EF11F04DEF11F01200036E19ECEA
:1022D60012F00E01DA8719EC12F0D5CE04F019ECE3
:1022E60012F00350D8B47AEF11F07EEF11F0026AC3
:1022F600022A7FEF11F0026A023A02460E01DA5113
:102306000218DF0B0218DA6FDA890450120004ECA7
:1023160012F0010E036E000E51EC12F03F0E056E28
:10232600550EE82EFED7052EFCD700F0030E036EE1
:10233600000E51EC12F0D50E036E010E51EC12F0A8
:10234600000E036E010E61EC12F07DEC12F012002D
:1023560014BEB8EF11F0145006E11304D8B0B6EF6E
:1023660011F0B8EF11F0C6EF11F013C015F014C05C
:1023760016F0151E161E154A162A15C013F016C09D
:1023860014F0CAEF11F013C013F014C014F01200C9
:10239600320EF66E250EF76E000EF86E0900F5CFBA
:1023A600E3F001EE00F03C0EEE6AE806FDE100EE19
:1023B60060F04C0EEE6AE806FDE15F6A000EF86E0C
:1023C6000E0EF76E00012DEF10F0F7EF11F002C0C0
:1023D600D9FF03C0DAFFDF5071EC12F0024A032A7C
:1023E6006A0EE82EFED700D002C0D9FF03C0DAFF7E
:1023F600DF50D8A401EF12F003EF12F0EAEF11F06C
:1024060012000E01D951F00B0809D96FD98B9F0E16
:10241600D66F848A848CA79BA79D1D0E1D6F1E0EEA
:102426001C6F1C0E6F6F1B0E706F12000E01D8B55D
:102436001FEF12F021EF12F019EF12F0DACE01F0D1
:102446001F0E0116D8A42AEF12F02CEF12F019EF86
:1024560012F0120001500302F3CF05F0F4CF06F09C
:1024660001500402F350062602500302F3500626DA
:1024760005C001F006C002F0120083888382120EA6
:102486000E01626F110E156FE997E895330EE56F31
:10249600000EE66FE789E88BE78F1200046E93EC77
:1024A60012F0520E83EC12F00450800983EC12F005
:1024B600035083EC12F08EEC12F01200046E93ECD3
:1024C60012F0520E83EC12F00450800983EC12F0E5
:1024D600035083EC12F08EEC12F01200016E0E0126
:1024E60037A578EF12F07AEF12F072EF12F001C012
:1024F600E4FE1200030E036E000E61EC12F01200F1
:10250600026E19EC12F002C0D5FE120019EC12F0A0
:102516000E01DA83120019EC12F00E01DA851200B0
:0D25260019EC12F00E01DA81120012000112
:020000040020DA
:10000000FF0FFF0FFF0FFF0FFF0FFF0FFF0FFF0F80
:020000040030CA
:0C000000AAFFFFFF9FFFFFFFFFFFFFFFB5
:00000001FF
