:040000003FEF19F0C5
:100E000000436F6C6F757220697320257320200D6D
:100E1000004C6967687420426C7565004461726BB0
:100E200020426C7565004567677368656C6C004FA0
:100E300072616E67650059656C6C6F77004772650B
:100E4000656E0050696E6B006C6C730052656400D7
:010E500000A1
:100E520057C0D9FF58C0DAFFDECF01F0DECF02F073
:100E6200DECF03F0DECF04F020EE04F05750D92697
:100E72005850DA22DECF05F0DECF06F0DECF07F0E3
:100E8200DECF08F07FEC17F0D8A04AEF07F04CEF66
:100E920007F07FEF07F057C0D9FF58C0DAFFDECF67
:100EA20001F0DECF02F0DECF03F0DECF04F020EE61
:100EB20008F05750D9265850DA22DECF05F0DECF9F
:100EC20006F0DECF07F0DECF08F07FEC17F0D8A0F7
:100ED2006DEF07F06FEF07F07FEF07F020EE10F0F5
:100EE2005750D9265850DA22000EDE6E000EDE6E02
:100EF200000EDE6E000EDD6EA9EF0AF0000E00019C
:100F0200746F000E736F57C0D9FF58C0DAFFDECF7F
:100F120001F0DECF02F0DECF03F0DECF04F020EEF0
:100F220004F05750D9265850DA22DECF05F0DECF32
:100F320006F0DECF07F0DECF08F0BCEC15F0D8B03B
:100F4200A5EF07F0A7EF07F0DEEF07F057C0D9FFD4
:100F520058C0DAFFDECF01F0DECF02F0DECF03F0C1
:100F6200DECF04F020EE08F05750D9265850DA228E
:100F7200DECF05F0DECF06F0DECF07F0DECF08F0E1
:100F8200BCEC15F0D8B0C8EF07F0CAEF07F0DEEFFF
:100F920007F057C0D9FF58C0DAFFDECF01F0DECF2D
:100FA20002F0DECF03F0DECF04F039EC15F001C021
:100FB20073F002C074F050EF08F020EE04F05750C6
:100FC200D9265850DA22DECF01F0DECF02F0DECF92
:100FD20003F0DECF04F057C0D9FF58C0DAFFDECFEE
:100FE20005F0DECF06F0DECF07F0DECF08F0BCEC76
:100FF20015F0D8B0FFEF07F001EF08F03CEF08F072
:1010020020EE04F05750D9265850DA22DECF01F0F4
:10101200DECF02F0DECF03F0DECF04F020EE08F0E8
:101022005750D9265850DA22DECF05F0DECF06F02F
:10103200DECF07F0DECF08F0BCEC15F0D8B024EF1D
:1010420008F026EF08F03CEF08F020EE04F05750CD
:10105200D9265850DA22DECF01F0DECF02F0DECF01
:1010620003F0DECF04F039EC15F001C073F002C0DA
:1010720074F050EF08F020EE08F05750D92658507F
:10108200DA22DECF01F0DECF02F0DECF03F0DECFD8
:1010920004F039EC15F001C073F002C074F020EED8
:1010A20004F05750D9265850DA22DECF01F0DECFB5
:1010B20002F0DECF03F0DECF04F057C0D9FF58C0F4
:1010C200DAFFDECF05F0DECF06F0DECF07F0DECFAF
:1010D20008F0BCEC15F0D8B071EF08F073EF08F02F
:1010E2000DEF09F020EE08F05750D9265850DA22B9
:1010F200DECF01F0DECF02F0DECF03F0DECF04F070
:1011020057C0D9FF58C0DAFFDECF05F0DECF06F0B8
:10111200DECF07F0DECF08F0BCEC15F0D8B094EFCC
:1011220008F096EF08F00DEF09F057C0D9FF58C04C
:10113200DAFFDECF01F0DECF02F0DECF03F0DECF4A
:1011420004F039EC15F001C071F002C072F0000138
:101152007351715D596E745172595A6E59C00CF0C7
:101162005AC00DF0000E0DBEFF0E0E6E0F6E010E78
:1011720014EC13F00CC036F00DC037F00EC038F08E
:101182000FC039F020EE08F05750D9265850DA2215
:10119200DECF2EF0DECF2FF0DECF30F0DECF31F01B
:1011A20020EE04F05750D9265850DA22DECF2AF02A
:1011B200DECF2BF0DECF2CF0DECF2DF01CEC19F0C1
:1011C2002AC032F02BC033F02CC034F02DC035F0E1
:1011D20047EC11F032C04BF033C04CF034C04DF04C
:1011E20035C04EF0000E4F6E000E506E700E516EF6
:1011F200420E526E31EC0FF020EE10F05750D9260D
:101202005850DA224BC0DEFF4CC0DEFF4DC0DEFF7D
:101212004EC0DEFF75EF0AF057C0D9FF58C0DAFFA3
:10122200DECF01F0DECF02F0DECF03F0DECF04F03E
:1012320020EE04F05750D9265850DA22DECF05F0BE
:10124200DECF06F0DECF07F0DECF08F0BCEC15F003
:10125200D8B02EEF09F030EF09F0E6EF09F020EEFA
:1012620008F05750D9265850DA22DECF01F0DECFEF
:1012720002F0DECF03F0DECF04F020EE04F0575090
:10128200D9265850DA22DECF05F0DECF06F0DECFC7
:1012920007F0DECF08F0BCEC15F0D8B053EF09F040
:1012A20055EF09F0E6EF09F020EE04F05750D92689
:1012B2005850DA22DECF01F0DECF02F0DECF03F0AB
:1012C200DECF04F039EC15F001C071F002C072F00B
:1012D20000017351715D596E745172595A6E59C041
:1012E2000CF05AC00DF0000E0DBEFF0E0E6E0F6E0A
:1012F200010E14EC13F00CC036F00DC037F00EC026
:1013020038F00FC039F057C0D9FF58C0DAFFDECF2E
:101312002EF0DECF2FF0DECF30F0DECF31F020EE38
:1013220008F05750D9265850DA22DECF2AF0DECF05
:101332002BF0DECF2CF0DECF2DF01CEC19F02AC002
:1013420032F02BC033F02CC034F02DC035F047EC16
:1013520011F032C06DF033C06EF034C06FF035C0A2
:1013620070F0000E1E6E000E1F6E000E206E400EFC
:10137200216E6DC01AF06EC01BF06FC01CF070C001
:101382001DF0AAEC0AF01AC04BF01BC04CF01CC0B6
:101392004DF01DC04EF0000E4F6E000E506E700EDE
:1013A200516E420E526E31EC0FF020EE10F057509B
:1013B200D9265850DA224BC0DEFF4CC0DEFF4DC0AA
:1013C200DEFF4EC0DEFF75EF0AF020EE08F0575048
:1013D200D9265850DA22DECF01F0DECF02F0DECF7E
:1013E20003F0DECF04F039EC15F001C071F002C059
:1013F20072F000017351715D596E745172595A6ED7
:1014020059C00CF05AC00DF0000E0DBEFF0E0E6E4C
:101412000F6E010E14EC13F00CC036F00DC037F055
:101422000EC038F00FC039F020EE04F05750D92624
:101432005850DA22DECF2EF0DECF2FF0DECF30F0A2
:10144200DECF31F057C0D9FF58C0DAFFDECF2AF025
:10145200DECF2BF0DECF2CF0DECF2DF01CEC19F01E
:101462002AC032F02BC033F02CC034F02DC035F03E
:1014720047EC11F032C06DF033C06EF034C06FF043
:1014820035C070F0000E1E6E000E1F6E800E206EB4
:10149200400E216E6DC01AF06EC01BF06FC01CF0C2
:1014A20070C01DF0AAEC0AF01AC04BF01BC04CF041
:1014B2001CC04DF01DC04EF0000E4F6E000E506E5F
:1014C200700E516E420E526E31EC0FF020EE10F0A3
:1014D2005750D9265850DA224BC0DEFF4CC0DEFFEF
:1014E2004DC0DEFF4EC0DEFF20EE10F05750D92671
:1014F2005850DA22030EDBBE83EF0AF081EF0AF0C6
:10150200A9EF0AF020EE10F05750D9265850DA22EF
:10151200DECF1AF0DECF1BF0DECF1CF0DECF1DF0E7
:10152200000E1E6E000E1F6EB40E206E430E216E54
:10153200AAEC0AF020EE10F05750D9265850DA22C1
:101542001AC0DEFF1BC0DEFF1CC0DEFF1DC0DEFFB7
:1015520012001D50800B266E1D501D24286E1CAEDD
:10156200B5EF0AF0B7EF0AF0B8EF0AF0288028507A
:10157200D8B4BEEF0AF0C0EF0AF0D5EF0AF028287F
:10158200D8A4C6EF0AF0C8EF0AF0D0EF0AF0000EB6
:101592001A6E000E1B6E000E1C6E000E1D6E1C8E4F
:1015A200000E1D6EDDEF0AF0000E1A6E000E1B6EAD
:1015B200000E1C6E000E1D6E2150800B276E2650F1
:1015C2002718D8B4E7EF0AF0E9EF0AF0EAEF0AF0D9
:1015D200268C21502124276E20AEF2EF0AF0F4EF80
:1015E2000AF0F5EF0AF027802750D8B4FBEF0AF093
:1015F200FDEF0AF012EF0BF02728D8A403EF0BF04F
:1016020005EF0BF00DEF0BF0000E1E6E000E1F6EBD
:10161200000E206E000E216E208E000E216E1AEF3B
:101622000BF0000E1E6E000E1F6E000E206E000EDE
:10163200216E2850275CD8B021EF0BF023EF0BF07E
:101642004AEF0BF026AC28EF0BF02AEF0BF02CEF51
:101652000BF0800E261A28C029F027C028F029C0D6
:1016620027F01AC029F01EC01AF029C01EF01BC0B4
:1016720029F01FC01BF029C01FF01CC029F020C098
:101682001CF029C020F01DC029F021C01DF029C086
:1016920021F0000E296E285027C022F0236A225E14
:1016A200000E235A23BE5FEF0BF0235009E11A0EFE
:1016B200225CD8A05FEF0BF061EF0BF098EF0BF01C
:1016C2001A501B101C101D10D8A46AEF0BF06DEFFE
:1016D2000BF0010E6EEF0BF0000E296E000E1A6E6B
:1016E200000E1B6E000E1C6E000E1D6E27C028F031
:1016F200A1EF0BF029A080EF0BF082EF0BF088EF47
:101702000BF0D89029300109296E8AEF0BF0D8909E
:1017120029321AA08FEF0BF091EF0BF092EF0BF042
:10172200298E1D341D321C321B321A32282A2750B0
:10173200285CD8A09FEF0BF0A1EF0BF07BEF0BF032
:1017420026BCA6EF0BF0A8EF0BF0E8EF0BF0285049
:10175200D8A4AEEF0BF0B0EF0BF0BAEF0BF0000E27
:101762001A6E000E1B6E000E1C6E000E1D6E09EF2F
:101772000DF01E501A261F501B2220501C222150F1
:101782001D221DA0C7EF0BF0C9EF0BF075EF0CF097
:1017920029A0CEEF0BF0D0EF0BF0D6EF0BF0D890E4
:1017A20029300109296ED8EF0BF0D89029321AA0FE
:1017B200DDEF0BF0DFEF0BF0E0EF0BF0298E1D34C5
:1017C2001D321C321B321A32282A75EF0CF01E50C1
:1017D2001A5C1F501B5820501C581D50800A226E44
:1017E2002150800A2258D8B0F9EF0BF0FBEF0BF032
:1017F20026EF0CF01A501E5C226E1B501F58236EEF
:101802001C502058246E1D502158256EFF0E222494
:101812001A6EFF0E23201B6EFF0E24201C6EFF0E7D
:1018220025201D6E800E261A296C2950D8A41CEF83
:101832000CF01EEF0CF02EEF0CF0010E1A26000E2B
:101842001B221C221D222EEF0CF01E501A5E1F506E
:101852001B5A20501C5A21501D5A1A501B101C1082
:101862001D10D8A437EF0CF039EF0CF06EEF0CF02E
:101872002950D8A43FEF0CF041EF0CF06EEF0CF0C2
:10188200000E1A6E000E1B6E000E1C6E000E1D6EF8
:1018920009EF0DF0D8901A361B361C361D3629AECC
:1018A20055EF0CF057EF0CF058EF0CF01A8029A00E
:1018B2005DEF0CF05FEF0CF063EF0CF0D88029368F
:1018C20065EF0CF0D89029362850D8B46BEF0CF0A5
:1018D2006DEF0CF06EEF0CF028061CAE73EF0CF0FF
:1018E20075EF0CF04BEF0CF0000E276E29AE7CEF7B
:1018F2000CF07EEF0CF096EF0CF029C022F07F0E78
:101902002216D8B487EF0CF089EF0CF08DEF0CF0B3
:10191200010E276E96EF0CF01AA092EF0CF094EFE6
:101922000CF096EF0CF089EF0CF02750D8B49CEF36
:101932000CF09EEF0CF0C9EF0CF0010E1A26000E0F
:101942001B221C221D221DA0A9EF0CF0ABEF0CF0F4
:10195200C9EF0CF01AC022F01BC023F01CC024F007
:101962001DC025F02534253224322332223222C0F2
:101972001AF023C01BF024C01CF025C01DF028283B
:10198200D8B4C6EF0CF0C8EF0CF0C9EF0CF0282A5F
:101992002828D8B4CFEF0CF0D1EF0CF0D9EF0CF02F
:1019A2002850D8A4D7EF0CF0D9EF0CF0EBEF0CF0E5
:1019B200000E1A6E000E1B6E000E1C6E000E1D6EC7
:1019C2002850D8A4E7EF0CF0E9EF0CF0EBEF0CF0A5
:1019D200000E266E28A0F0EF0CF0F2EF0CF0F5EFFF
:1019E2000CF01C8EF6EF0CF01C9ED89028301D6E69
:1019F20026AEFEEF0CF000EF0DF001EF0DF01D8EA4
:101A02001AC01AF01BC01BF01CC01CF01DC01DF038
:101A12001200100E0F6E0E0E106E000E016E000EF2
:101A2200026EB00E036E430E046E20EE10F00D50E7
:101A3200D9260E50DA22DECF05F0DECF06F0DECF59
:101A420007F0DECF08F0BCEC15F0D8B02BEF0DF0AC
:101A52002DEF0DF050EF0DF020EE10F00D50D926C5
:101A62000E50DA22DECF01F0DECF02F0DECF03F03D
:101A7200DECF04F0000E056E000E066EB40E076E89
:101A8200430E086EBCEC15F0D8B04AEF0DF04CEFE7
:101A92000DF050EF0DF04C0E0F6E0E0E106E000E8C
:101AA200016E000E026E960E036E420E046E20EE62
:101AB20010F00D50D9260E50DA22DECF05F0DECF1F
:101AC20006F0DECF07F0DECF08F0BCEC15F0D8B0A0
:101AD2006DEF0DF06FEF0DF094EF0DF020EE10F0C2
:101AE2000D50D9260E50DA22DECF01F0DECF02F001
:101AF200DECF03F0DECF04F0000E056E000E066EA0
:101B02009E0E076E420E086EBCEC15F0D8B08CEF3C
:101B12000DF08EEF0DF094EF0DF03D0E0F6E0E0EE8
:101B2200106E2CEF0FF0000E016E000E026ED00E42
:101B3200036E410E046E20EE10F00D50D9260E50A9
:101B4200DA22DECF05F0DECF06F0DECF07F0DECF01
:101B520008F0BCEC15F0D8B0B1EF0DF0B3EF0DF01A
:101B6200D8EF0DF020EE10F00D50D9260E50DA22EB
:101B7200DECF01F0DECF02F0DECF03F0DECF04F0E5
:101B8200000E056E000E066EE80E076E410E086E20
:101B9200BCEC15F0D8B0D0EF0DF0D2EF0DF0D8EFCD
:101BA2000DF0260E0F6E0E0E106E2CEF0FF0000EC3
:101BB200016E000E026E700E036E410E046E20EE78
:101BC20010F00D50D9260E50DA22DECF05F0DECF0E
:101BD20006F0DECF07F0DECF08F0BCEC15F0D8B08F
:101BE200F5EF0DF0F7EF0DF01CEF0EF020EE10F018
:101BF2000D50D9260E50DA22DECF01F0DECF02F0F0
:101C0200DECF03F0DECF04F0000E056E000E066E8E
:101C1200980E076E410E086EBCEC15F0D8B014EFAA
:101C22000EF016EF0EF01CEF0EF0430E0F6E0E0EBE
:101C3200106E2CEF0FF0000E016E000E026EA80E59
:101C4200036E410E046E20EE10F00D50D9260E5098
:101C5200DA22DECF05F0DECF06F0DECF07F0DECFF0
:101C620008F0BCEC15F0D8B039EF0EF03BEF0EF0F7
:101C720060EF0EF020EE10F00D50D9260E50DA2251
:101C8200DECF01F0DECF02F0DECF03F0DECF04F0D4
:101C9200000E056E000E066EC80E076E410E086E2F
:101CA200BCEC15F0D8B058EF0EF05AEF0EF060EF22
:101CB2000EF0360E0F6E0E0E106E2CEF0FF0000EA1
:101CC200016E000E026EE00E036E400E046E20EEF8
:101CD20010F00D50D9260E50DA22DECF05F0DECFFD
:101CE20006F0DECF07F0DECF08F0BCEC15F0D8B07E
:101CF2007DEF0EF07FEF0EF0A4EF0EF020EE10F06D
:101D02000D50D9260E50DA22DECF01F0DECF02F0DE
:101D1200DECF03F0DECF04F0000E056E000E066E7D
:101D2200100E076E410E086EBCEC15F0D8B09CEF99
:101D32000EF09EEF0EF0A4EF0EF02F0E0F6E0E0EB1
:101D4200106E2CEF0FF0000E016E000E026EAA0E46
:101D5200036E420E046E20EE10F00D50D9260E5086
:101D6200DA22DECF05F0DECF06F0DECF07F0DECFDF
:101D720008F0BCEC15F0D8B0C1EF0EF0C3EF0EF0D6
:101D8200E8EF0EF020EE10F00D50D9260E50DA22B8
:101D9200DECF01F0DECF02F0DECF03F0DECF04F0C3
:101DA200000E056E000E066EBC0E076E420E086E29
:101DB200BCEC15F0D8B0E0EF0EF0E2EF0EF0E8EF79
:101DC2000EF0110E0F6E0E0E106E2CEF0FF0000EB5
:101DD200016E000E026E110E036E430E046E20EEB3
:101DE20010F00D50D9260E50DA22DECF05F0DECFEC
:101DF20006F0DECF07F0DECF08F0BCEC15F0D8B06D
:101E020005EF0FF007EF0FF02CEF0FF020EE10F0C0
:101E12000D50D9260E50DA22DECF01F0DECF02F0CD
:101E2200DECF03F0DECF04F0000E056E000E066E6C
:101E3200240E076E430E086EBCEC15F0D8B024EFEA
:101E42000FF026EF0FF02CEF0FF01C0E0F6E0E0EA0
:101E5200106E2CEF0FF00FC00DF010C00EF012003C
:101E62004E50800B0001606F4E504E24666F4DAE97
:101E72003DEF0FF03FEF0FF040EF0FF0668166513C
:101E8200D8B446EF0FF048EF0FF05BEF0FF0662982
:101E9200D8A44EEF0FF050EF0FF058EF0FF0000EF6
:101EA2004B6E000E4C6E000E4D6E000E4E6E4D8E41
:101EB20063EF0FF0000E4B6E000E4C6E000E4D6E77
:101EC200000E4E6E5250800B601B52505224656FB2
:101ED20051AE6EEF0FF070EF0FF071EF0FF0658102
:101EE2006551D8B477EF0FF079EF0FF08CEF0FF068
:101EF2006529D8A47FEF0FF081EF0FF089EF0FF083
:101F0200000E4F6E000E506E000E516E000E526E9D
:101F1200518E94EF0FF0000E4F6E000E506E000EB9
:101F2200516E000E526E6551D8B49AEF0FF09CEFCD
:101F32000FF0A4EF0FF06651D8A4A2EF0FF0A4EFB8
:101F42000FF0AEEF0FF0000E4B6E000E4C6E000E57
:101F52004D6E000E4E6E46EF11F051504B02F3CF14
:101F62006BF0F4CF6CF06B51616F626B636B646BFF
:101F72006C51676F686B696B6A6B50504C02F3CFA0
:101F82006BF0F4CF6CF06B516127000E6223632378
:101F920064236C516727000E682369236A234F501C
:101FA2004D02F3CF6BF0F4CF6CF06B516127000E52
:101FB2006223632364236C516727000E682369231D
:101FC2006A2363C064F062C063F061C062F0616B57
:101FD2004F504C02F3CF6BF0F4CF6CF06B51612792
:101FE2006C516223000E6323000E642350504B0297
:101FF200F3CF6BF0F4CF6CF06B5161276C5162231D
:10200200000E6323000E642363C064F062C063F0B9
:1020120061C062F0616B4F504B02F3CF6BF0F4CFB3
:102022006CF06B5161276C516223000E6323000E2A
:10203200642351504C02F3CF6BF0F4CF6CF06B5130
:1020420067276C516823000E6923000E6A235050E3
:102052004D02F3CF6BF0F4CF6CF06B5167276C51EC
:102062006823000E6923000E6A2351504D02F3CFFC
:102072006BF0F4CF6CF06B51536E6C51546E556A29
:10208200566A55C056F054C055F053C054F0536AC6
:1020920053506727545068235550692356506A237A
:1020A20061C053F062C054F063C055F064C056F092
:1020B200190E61EF10F0D890563255325432533225
:1020C200E82E5CEF10F053506727545068235550A8
:1020D200692356506A2363C064F062C063F061C032
:1020E20062F0616B655166C053F0546A5326000E6C
:1020F2005422820E53246B6FFF0E54206C6F97EFA5
:1021020010F0D8906737683769376A3764AF8CEF59
:1021120010F08EEF10F08FEF10F06781D8906137DA
:102122006237633764376B07D8A06C0769AF9CEFDF
:1021320010F09EEF10F082EF10F0000E656F64AFAA
:10214200A5EF10F0A7EF10F0CBEF10F0FF0E611526
:10215200536EFF0E6215546EFF0E6315556E7F0EA1
:102162006415566E5350541055105610D8B4BCEF27
:1021720010F0BEEF10F0C2EF10F0010E656FCBEF62
:1021820010F067A1C7EF10F0C9EF10F0CBEF10F01D
:10219200BEEF10F06551D8B4D1EF10F0D3EF10F0CC
:1021A200F7EF10F0010E6727000E682369236A23F8
:1021B2006AA1DEEF10F0E0EF10F0F7EF10F067C069
:1021C20053F068C054F069C055F06AC056F05634F6
:1021D200563255325432533253C067F054C068F00D
:1021E20055C069F056C06AF06B4B6C2B6CBF02EFA6
:1021F20011F06C5108E16B29D8A002EF11F004EF45
:1022020011F00EEF11F0000E676F000E686F800E76
:10221200696F7F0E6A6F3CEF11F06CBF1BEF11F01C
:102222006C5106E16B05D8B019EF11F01BEF11F0FC
:1022320027EF11F0000E676F000E686F000E696FD6
:10224200000E6A6F000E606F3CEF11F06BC066F01B
:10225200FF0E6717FF0E68177F0E6917000E6A17C9
:1022620066A136EF11F038EF11F039EF11F0698FF6
:10227200D89066316A6F60516A1367C04BF068C0CC
:102282004CF069C04DF06AC04EF012003550800B20
:10229200426E35503524496E34AE52EF11F054EF90
:1022A20011F055EF11F049804950D8B45BEF11F0AD
:1022B2005DEF11F072EF11F04928D8A463EF11F02D
:1022C20065EF11F06DEF11F0000E326E000E336EFD
:1022D200000E346E000E356E348E000E356E7AEFBF
:1022E20011F0000E326E000E336E000E346E000ED0
:1022F200356E3950800B421A395039244A6E38AE45
:1023020085EF11F087EF11F088EF11F04A804A5003
:10231200D8B48EEF11F090EF11F0A5EF11F04A282A
:10232200D8A496EF11F098EF11F0A0EF11F0000E83
:10233200366E000E376E000E386E000E396E388E15
:10234200000E396EADEF11F0000E366E000E376ED4
:10235200000E386E000E396E3650371038103910B4
:10236200D8A4B6EF11F0B8EF11F0D0EF11F0000ED3
:10237200326E000E336E000E346E000E356E800E1D
:1023820034127F0E35124250351232C032F033C051
:1023920033F034C034F035C035F013EF13F0495048
:1023A200D8A4D6EF11F0D8EF11F0E2EF11F0000E41
:1023B200326E000E336E000E346E000E356E13EF69
:1023C20013F04A5049C03AF03B6A3A5E000E3B5A5B
:1023D2007F0E3A24436E000E3B20446E32C03EF024
:1023E20033C03FF034C040F035C041F0000E326ED1
:1023F200000E336E000E346E000E356E000E456E0A
:10240200000E466E000E476E000E486E000E4A6EBB
:1024120043EF12F04A50D8B411EF12F013EF12F05A
:102422002AEF12F0D8903E363F3640364136D890E9
:10243200323633363436353648AE22EF12F024EFD8
:1024420012F025EF12F03280D890453646364736E4
:10245200483636503E5C37503F5838504058395015
:102462004158D8A037EF12F039EF12F042EF12F0D4
:10247200488C36503E5E37503F5A3850405A395099
:10248200415A4A2A190E4A6449EF12F04BEF12F0F0
:102492000BEF12F03E503F1040104110D8B454EFF1
:1024A20012F056EF12F06EEF12F045806EEF12F05E
:1024B200D890323633363436353648AE63EF12F0C2
:1024C20065EF12F066EF12F03280D890453646364C
:1024D200473648364306D8A0440634AE73EF12F0AE
:1024E20075EF12F059EF12F0000E4A6E48AE7CEF13
:1024F20012F07EEF12F0A2EF12F0FF0E45143A6EC8
:10250200FF0E46143B6EFF0E47143C6E7F0E4814BE
:102512003D6E3A503B103C103D10D8B493EF12F090
:1025220095EF12F099EF12F0010E4A6EA2EF12F03F
:1025320032A09EEF12F0A0EF12F0A2EF12F095EF90
:1025420012F04A50D8B4A8EF12F0AAEF12F0CEEF70
:1025520012F0010E3226000E33223422352235A02B
:10256200B5EF12F0B7EF12F0CEEF12F032C03AF040
:1025720033C03BF034C03CF035C03DF03D343D3219
:102582003C323B323A323AC032F03BC033F03CC0CC
:1025920034F03DC035F0434A442A44BED9EF12F02C
:1025A200445008E14328D8A0D9EF12F0DBEF12F033
:1025B200E6EF12F0000E446E4368000E326E000E1B
:1025C200336E000E346E000E356E44BEF3EF12F021
:1025D200445006E14304D8B0F1EF12F0F3EF12F0E9
:1025E20001EF13F0000E446E000E436E000E326EC9
:1025F200000E336E000E346E000E356E000E426E0B
:1026020043C049F049A008EF13F00AEF13F00DEFB1
:1026120013F0348E0EEF13F0349ED8904930356E9D
:10262200C4EF11F01200146E1450D8B41BEF13F063
:102632001DEF13F03FEF13F00FBE24EF13F022EF64
:1026420013F03FEF13F00CC010F00DC011F00EC0EC
:1026520012F00FC013F0101E111E121E131E102AAC
:10266200000E11221222132210C016F011C017F010
:1026720012C018F013C019F047EF13F00CC016F097
:102682000DC017F00EC018F00FC019F00C500D104D
:102692000E100F10D8A450EF13F052EF13F05CEFAE
:1026A20013F0000E0C6E000E0D6E000E0E6E000E7C
:1026B2000F6EEDEF13F0960E156E66EF13F0152AFE
:1026C200D8901932183217321632000E1614106EC4
:1026D200000E1714116E000E1814126EFE0E19144D
:1026E200136E1050111012101310D8A47BEF13F0B8
:1026F2007DEF13F060EF13F08BEF13F0152A010E4C
:102702001626000E172218221922D89019321832D2
:1027120017321632000E1614106E000E1714116EB8
:10272200000E1814126EFF0E1914136E10501110B1
:1027320012101310D8A4A0EF13F0A2EF13F07FEF42
:1027420013F0AAEF13F01506D8901636173618367E
:10275200193618BEAFEF13F0B1EF13F0B9EF13F063
:10276200020E1560B7EF13F0B9EF13F0A4EF13F0F8
:1027720015B0BEEF13F0C0EF13F0C1EF13F0189EC7
:10278200D890153215C010F0116A126A136A10C07F
:1027920013F0126A116A106A1050161211501712B1
:1027A20012501812135019121450D8B4DBEF13F050
:1027B200DDEF13F0E5EF13F00FBEE4EF13F0E2EFFD
:1027C20013F0E5EF13F0198E16C00CF017C00DF0E0
:1027D20018C00EF019C00FF0120022C0D9FF23C09A
:1027E200DAFFDECFF6FFDDCFF7FF0800F550250A4E
:1027F200D8A4FEEF13F000EF14F086EF14F022C01D
:10280200D9FF23C0DAFFDE2A000EDD22000E00010E
:10281200C66F000EC56FC5C05FF0C769C86922C028
:10282200D9FF23C0DAFFDECFF6FFDDCFF7FF0800C6
:10283200F550730AD8B420EF14F022EF14F03DEFF4
:1028420014F022C0D9FF23C0DAFFDECF01F0DDCFC2
:1028520002F0480E036E0E0E046E000E066E030E9C
:10286200056E3EEC16F001500210D8A43BEF14F0B6
:102872003DEF14F07DEF14F022C0D9FF23C0DAFF40
:10288200DECFF6FFDDCFF7FF0800F550730AD8B4AC
:102892004DEF14F04FEF14F055EF14F0000E296EC7
:1028A200030E286E59EF14F0000E296E010E286EE9
:1028B20022C0D9FF23C0DAFF2850DE262950DD22AC
:1028C20020C00AF021C00BF024C0D9FF25C0DAFFD6
:1028D200DFCF26F0020EDE26DFCF27F0000EDD224C
:1028E20026C0D9FF27C0DAFFDECF0CF0DDCF0DF016
:1028F2009BEC14F09AEF14F022C0D9FF23C0DAFF48
:10290200DE2A000EDD229AEF14F022C0D9FF23C086
:10291200DAFFDECFF6FFDDCFF7FF0800F550016EDC
:10292200026A20C003F021C004F01AEC17F07DEF18
:1029320014F0120020EEEDF010EE0FF0060EDBCFD9
:10294200E3FFE806FCE20CC01AF00DC01BF01A50BF
:102952001B10D8A4AFEF14F0B1EF14F0B5EF14F0E0
:102962000F0E1A6E000E1B6E1AC001F01BC002F091
:10297200A6EC18F001C01CF002C01DF0C7C01EF08A
:10298200C8C01FF01FBEC8EF14F0CAEF14F0DFEF8B
:1029920014F01C501E5C1F50800A0E6E1D50800ADF
:1029A2000E58D8A0D7EF14F0D9EF14F0DBEF14F0E3
:1029B200DFEF14F01EC01CF01FC01DF01CC01EF083
:1029C2001DC01FF0C5C016F0C6C017F0F5EF14F019
:1029D200000E026E200E016E0AC003F00BC004F05E
:1029E2001AEC17F01C4A1D2A16501C5C1D50800A56
:1029F2000E6E1750800A0E58D8A002EF15F004EFA1
:102A020015F0E9EF14F0000E196E000E186E29EFA2
:102A120015F01AC0F6FF1BC0F7FF000EF86E0D0E80
:102A2200F76403D00800F55005D0F6CFE1FFF7CFE9
:102A3200E2FFE7500E6E0E50016E026A0AC003F00A
:102A42000BC004F01AEC17F01A4A1B2A184A192A6A
:102A52001E50185C1950800A0E6E1F50800A0E58C4
:102A6200D8A036EF15F038EF15F00AEF15F0120086
:102A7200033404340A6E0A50D8A442EF15F044EF2E
:102A820015F04EEF15F0000E016E000E026E000EF4
:102A9200036E000E046EBBEF15F001C005F002C01C
:102AA20006F003C007F004C008F0200E5EEF15F038
:102AB200D8900832073206320532E82E59EF15F067
:102AC2000550096E038EFF0E0116FF0E0216FF0E51
:102AD2000316000E0416960E0A5E0ABE75EF15F076
:102AE20073EF15F08BEF15F00A50800A970FD8B0EC
:102AF2007DEF15F07FEF15F081EF15F044EF15F043
:102B0200D89004320332023201320A3E81EF15F0CC
:102B1200A3EF15F01F0E0A6491EF15F093EF15F075
:102B22009BEF15F044EF15F0D890013602360336CC
:102B320004360A060A50D8A4A1EF15F0A3EF15F047
:102B420095EF15F00950D8B4A9EF15F0ABEF15F0D9
:102B5200B3EF15F0041E031E021E016C000E0222CA
:102B62000322042201C001F002C002F003C003F0FC
:102B720004C004F01200000E0114096E000E0214CB
:102B82000A6E800E03140B6E7F0E04140C6E095035
:102B92000A100B100C10D8A4D1EF15F0D3EF15F0DA
:102BA200DBEF15F0000E016E000E026E000E036EDA
:102BB200000E046E000E0514096E000E06140A6E55
:102BC200800E07140B6E7F0E08140C6E09500A104B
:102BD2000B100C10D8A4F0EF15F0F2EF15F0FAEF8D
:102BE20015F0000E056E000E066E000E076E000E4A
:102BF200086E04AEFFEF15F001EF16F00AEF16F0C3
:102C0200016C021ED8B0022A031ED8B0032A800E1D
:102C1200045608AE0FEF16F011EF16F01AEF16F089
:102C2200056C061ED8B0062A071ED8B0072A800EE9
:102C32000856000E011A000E021A000E031A800E28
:102C4200041A000E051A000E061A000E071A800E4C
:102C5200081A0550015C06500258075003580850E4
:102C62000458D8B037EF16F039EF16F03CEF16F0F3
:102C7200D8903DEF16F0D880120001C008F002C0D3
:102C820009F003C00AF004C00BF00506D8A006063E
:102C9200052806E10628D8A451EF16F053EF16F0E6
:102CA20060EF16F0000E026E000E016EACEF16F031
:102CB200084A092A0A4A0B2A0506D8A0060608C0AD
:102CC200F6FF09C0F7FF0800F5500009D8B46CEF11
:102CD20016F06EEF16F09AEF16F00AC0F6FF0BC070
:102CE200F7FF0800F5500009D8B47AEF16F07CEF30
:102CF20016F09AEF16F005500610D8B483EF16F0CE
:102D020085EF16F09AEF16F008C0F6FF09C0F7FF3C
:102D12000800F5CF07F00AC0F6FF0BC0F7FF080066
:102D2200F5500718D8B498EF16F09AEF16F059EF4D
:102D320016F008C0F6FF09C0F7FF0800F5CF07F04C
:102D42000AC0F6FF0BC0F7FF0800F550075C016EE2
:102D5200026AD8A00206120006EC18F005C00CF0B8
:102D620006C00DF00E6A0F6A000E14EC13F00CC0D0
:102D72001CF00DC01DF00EC01EF00FC01FF02EEC97
:102D820018F005C00CF006C00DF00E6A0F6A000EB6
:102D920014EC13F00CC020F00DC021F00EC022F094
:102DA2000FC023F07EEC18F005C00CF006C00DF049
:102DB2000E6A0F6A000E14EC13F00CC024F00DC062
:102DC20025F00EC026F00FC027F056EC18F005C013
:102DD2000CF006C00DF00E6A0F6A000E14EC13F030
:102DE2001AC0D9FF1BC0DAFF1CC0DEFF1DC0DEFF08
:102DF2001EC0DEFF1FC0DEFF20EE08F01A50D926EB
:102E02001B50DA2224C0DEFF25C0DEFF26C0DEFF13
:102E120027C0DEFF20EE04F01A50D9261B50DA221A
:102E220020C0DEFF21C0DEFF22C0DEFF23C0DEFFA6
:102E3200120003500410D8B421EF17F023EF17F05B
:102E42002CEF17F003500410D8A42AEF17F02CEF40
:102E520017F031EF17F0015053EC1AF07EEF17F034
:102E620020EE09F00350D9260450DA22DE50DE109B
:102E7200D8B43EEF17F040EF17F05BEF17F020EEFB
:102E820009F00350D9260450DA2210EE03F0035061
:102E9200E1260450E222DE50E65CE650800A096E2A
:102EA200DE50800A0958D8B059EF17F05BEF17F0DF
:102EB2007EEF17F020EE03F00350D9260450DA22F9
:102EC200DECF05F0DDCF06F003C0D9FF04C0DAFF84
:102ED200DECF07F0DDCF08F005500724D96E06508B
:102EE2000820DA6E01C0DFFF20EE03F00350D9267E
:102EF2000450DA22DE2A000EDD221200000E011436
:102F0200096E000E02140A6E800E03140B6E7F0E01
:102F120004140C6E09500A100B100C10D8A494EF74
:102F220017F096EF17F09EEF17F0000E016E000EED
:102F3200026E000E036E000E046E000E0514096E82
:102F4200000E06140A6E800E07140B6E7F0E081414
:102F52000C6E09500A100B100C10D8A4B3EF17F026
:102F6200B5EF17F0BDEF17F0000E056E000E066EFE
:102F7200000E076E000E086E055001180FE1065094
:102F820002180CE10750031809E108500418D8B4DC
:102F9200CDEF17F0CFEF17F0D2EF17F0D890D3EFB5
:102FA20017F0D880120005EC1AF082EC19F0DCEC74
:102FB20019F07F828792798881987E8E869EC90ECB
:102FC2001A6E000E1B6EADEC16F0C90E576E000E97
:102FD200586E29EC07F0750E456E000E466EC90E4E
:102FE200476E000E486EA1EC19F0520E5E6E2B0E6B
:102FF2005D6E000EE82EFED75D2EFCD75E2EFAD750
:1030020000D0E0EF17F000EF00F04EEC1AF0520E95
:103012003EEC1AF0B60E3EEC1AF044EC1AF0530EE7
:103022003EEC1AF0010E61EC19F0076E07500A6EC1
:103032000B6A000E61EC19F0076E0750096E086A00
:103042000A5008100A6E0B5009100B6E49EC1AF068
:103052000AC005F00BC006F012004EEC1AF0520E38
:103062003EEC1AF0B80E3EEC1AF044EC1AF0530E95
:103072003EEC1AF0010E61EC19F0076E07500A6E71
:103082000B6A000E61EC19F0076E0750096E086AB0
:103092000A5008100A6E0B5009100B6E49EC1AF018
:1030A2000AC005F00BC006F012004EEC1AF0520EE8
:1030B2003EEC1AF0B40E3EEC1AF044EC1AF0530E49
:1030C2003EEC1AF0010E61EC19F0076E07500A6E21
:1030D2000B6A000E61EC19F0076E0750096E086A60
:1030E2000A5008100A6E0B5009100B6E49EC1AF0C8
:1030F2000AC005F00BC006F012004EEC1AF0520E98
:103102003EEC1AF0BA0E3EEC1AF044EC1AF0530EF2
:103112003EEC1AF0010E61EC19F0076E07500A6ED0
:103122000B6A000E61EC19F0076E0750096E086A0F
:103132000A5008100A6E0B5009100B6E49EC1AF077
:103142000AC005F00BC006F0120001C003F002C075
:1031520004F0AEEF18F0014A022A01C0F6FF02C0E5
:10316200F7FF000EF86E0D0EF76403D00800F5505D
:1031720005D0F6CFE1FFF7CFE2FFE7500009D8A470
:10318200C5EF18F0C7EF18F0ACEF18F00350015C70
:10319200016E04500258026E1200360E386E000E96
:1031A200396E32C03AF033C03BF0000E3E6E000E74
:1031B2003D6E000E446E000E436E3A0E2A6E000EF5
:1031C2002B6E34C02CF035C02DF0380E2E6E000E52
:1031D2002F6EF5EC18F03D503224D96E3E5033205C
:1031E200DA6E000EDF6E12002CC030F02DC031F00E
:1031F20009EF19F02AC020F02BC021F0300E226E08
:10320200000E236E2EC024F02FC025F0EEEC13F03A
:1032120030C0F6FF31C0F7FF0800F5500009D8A40E
:1032220015EF19F017EF19F0FBEF18F0000E2B6EE7
:10323200000E2A6E1200000E2E1A000E2F1A000E19
:10324200301A800E311A2AC01AF02BC01BF02CC083
:103252001CF02DC01DF02EC01EF02FC01FF030C07C
:1032620020F031C021F0AAEC0AF01AC02AF01BC0EB
:103272002BF01CC02CF01DC02DF01200640EF66E57
:10328200340EF76E000EF86E00EEDDF010EE17F061
:103292000900F5CFEEFFE550E150FAE101EE00F052
:1032A200200EEE6AE806FDE100EEC5F0180EEE6AA9
:1032B200E806FDE15F6A000EF86E0001D4EF17F038
:1032C200036EF1EC19F00E01DA87F1EC19F0D5CEAC
:1032D20004F0F1EC19F00350D8B472EF19F076EF64
:1032E20019F0026A022A77EF19F0026A023A0246DC
:1032F2000E01DA510218DF0B0218DA6FDA89045074
:103302001200DCEC19F0010E036E000E16EC1AF03E
:103312003F0E056E550EE82EFED7052EFCD700F0A7
:10332200030E036E000E16EC1AF0D60E036E010E9B
:1033320016EC1AF0130E036E000E16EC1AF01200C1
:1033420047C00DF048C00EF00AEC0DF00DC049F078
:103352000EC04AF045C032F046C033F0010E346E62
:103362000E0E356E49C036F04AC037F0CEEC18F07A
:1033720045C002F046C003F0C0EC19F01200CFEFD6
:1033820019F002C0D9FF03C0DAFFDF5026EC1AF0B1
:10339200024A032A6A0EE82EFED700D002C0D9FFE5
:1033A20003C0DAFFDF50D8A4D9EF19F0DBEF19F030
:1033B200C2EF19F012000E01D951F00B0809D96FB2
:1033C200D98B9F0ED66F848A848CA79BA79D1D0ED6
:1033D2001D6F1E0E1C6F1C0E6F6F1B0E706F120086
:1033E2000E01D8B5F7EF19F0F9EF19F0F1EF19F076
:1033F200DACE01F01F0E0116D8A402EF1AF004EF84
:103402001AF0F1EF19F0120083888382120E0E0176
:10341200626F110E156FE997E895330EE56F000E96
:10342200E66FE789E88BE78F1200046E4EEC1AF024
:10343200520E3EEC1AF0045080093EEC1AF0035092
:103442003EEC1AF049EC1AF01200016E0E0137A59B
:103452002DEF1AF02FEF1AF027EF1AF001C0E4FE59
:1034620012004C0E260E430E360E2F0E110E1C0E9F
:093472003D0E286E756C6C2900FA
:10347C00026EF1EC19F002C0D5FE1200F1EC19F05D
:10348C000E01DA831200F1EC19F00E01DA8512004C
:0C349C00F1EC19F00E01DA8112001200B0
:020000040020DA
:10000000FF0FFF0FFF0FFF0FFF0FFF0FFF0FFF0F80
:020000040030CA
:0C000000AAFFFFFF9FFFFFFFFFFFFFFFB5
:00000001FF
