:0400000016EF00F007
:100008005F820E0133AB0BEF00F00DEF00F014EF41
:1000180000F0000E0001EB6F010EEA6F0E01339B3A
:080028005F921100D5EF21F0F9
:100E000000436F6C6F757220697320257320200D6D
:100E1000004C6967687420426C7565004461726BB0
:100E200020426C7565004567677368656C6C004FA0
:100E300072616E67650059656C6C6F77004772650B
:100E4000656E0050696E6B006C6C730052656400D7
:010E500000A1
:100E52006DC0D9FF6EC0DAFFDECF01F0DECF02F047
:100E6200DECF03F0DECF04F0000120EE04F06D517E
:100E7200D9266E51DA22DECF05F0DECF06F0DECFC4
:100E820007F0DECF08F030EC1DF0D8A04BEF07F0F2
:100E92004DEF07F082EF07F06DC0D9FF6EC0DAFFA9
:100EA200DECF01F0DECF02F0DECF03F0DECF04F0C2
:100EB200000120EE08F06D51D9266E51DA22DECF04
:100EC20005F0DECF06F0DECF07F0DECF08F030EC23
:100ED2001DF0D8A06FEF07F071EF07F082EF07F077
:100EE200000120EE10F06D51D9266E51DA22000E6B
:100EF200DE6E000EDE6E000EDE6E000EDD6EBEEFEA
:100F02000AF0000E00017A6F000E796F6DC0D9FFF2
:100F12006EC0DAFFDECF01F0DECF02F0DECF03F0EB
:100F2200DECF04F020EE04F06D51D9266E51DA22A4
:100F3200DECF05F0DECF06F0DECF07F0DECF08F021
:100F4200F2EC1AF0D8B0A8EF07F0AAEF07F0E2EF40
:100F520007F06DC0D9FF6EC0DAFFDECF01F0DECF41
:100F620002F0DECF03F0DECF04F0000120EE08F045
:100F72006D51D9266E51DA22DECF05F0DECF06F0B2
:100F8200DECF07F0DECF08F0F2EC1AF0D8B0CCEFEB
:100F920007F0CEEF07F0E2EF07F06DC0D9FF6EC0A9
:100FA200DAFFDECF4BF0DECF4CF0DECF4DF0DECFFE
:100FB2004EF06FEC1AF04BC079F04CC07AF058EF5B
:100FC20008F0000120EE04F06D51D9266E51DA22AC
:100FD200DECF01F0DECF02F0DECF03F0DECF04F091
:100FE2006DC0D9FF6EC0DAFFDECF05F0DECF06F0AE
:100FF200DECF07F0DECF08F0F2EC1AF0D8B004EF43
:1010020008F006EF08F043EF08F0000120EE04F0CC
:101012006D51D9266E51DA22DECF01F0DECF02F019
:10102200DECF03F0DECF04F020EE08F06D51D926BA
:101032006E51DA22DECF05F0DECF06F0DECF07F00A
:10104200DECF08F0F2EC1AF0D8B02AEF08F02CEF5D
:1010520008F043EF08F0000120EE04F06D51D926AC
:101062006E51DA22DECF4BF0DECF4CF0DECF4DF008
:10107200DECF4EF06FEC1AF04BC079F04CC07AF034
:1010820058EF08F0000120EE08F06D51D9266E519C
:10109200DA22DECF4BF0DECF4CF0DECF4DF0DECFEA
:1010A2004EF06FEC1AF04BC079F04CC07AF00001B0
:1010B20020EE04F06D51D9266E51DA22DECF01F016
:1010C200DECF02F0DECF03F0DECF04F06DC0D9FF39
:1010D2006EC0DAFFDECF05F0DECF06F0DECF07F01E
:1010E200DECF08F0F2EC1AF0D8B07AEF08F07CEF1D
:1010F20008F019EF09F0000120EE08F06D51D92631
:101102006E51DA22DECF01F0DECF02F0DECF03F045
:10111200DECF04F06DC0D9FF6EC0DAFFDECF05F07E
:10112200DECF06F0DECF07F0DECF08F0F2EC1AF0E9
:10113200D8B09EEF08F0A0EF08F019EF09F06DC0EB
:10114200D9FF6EC0DAFFDECF4BF0DECF4CF0DECF40
:101152004DF0DECF4EF06FEC1AF04BC077F04CC082
:1011620078F000017951775D6F6F7A517859706F1D
:101172006FC00CF070C00DF0000E0DBEFF0E0E6EB3
:101182000F6E010E11EC17F00CC057F00DC058F0A5
:101192000EC059F00FC05AF0000120EE08F06D5158
:1011A200D9266E51DA22DECF4FF0DECF50F0DECFFD
:1011B20051F0DECF52F020EE04F06D51D9266E517F
:1011C200DA22DECF4BF0DECF4CF0DECF4DF0DECFB9
:1011D2004EF06AEC23F04BC053F04CC054F04DC0BB
:1011E20055F04EC056F0B5EC11F053C01AF054C091
:1011F2001BF055C01CF056C01DF0000E1E6E000EF6
:101202001F6E700E206E420E216EA0EC0FF00001D8
:1012120020EE10F06D51D9266E51DA221AC0DEFF8F
:101222001BC0DEFF1CC0DEFF1DC0DEFF89EF0AF01F
:101232006DC0D9FF6EC0DAFFDECF01F0DECF02F063
:10124200DECF03F0DECF04F0000120EE04F06D519A
:10125200D9266E51DA22DECF05F0DECF06F0DECFE0
:1012620007F0DECF08F0F2EC1AF0D8B03BEF09F04D
:101272003DEF09F0F7EF09F0000120EE08F06D51A3
:10128200D9266E51DA22DECF01F0DECF02F0DECFB8
:1012920003F0DECF04F020EE04F06D51D9266E513A
:1012A200DA22DECF05F0DECF06F0DECF07F0DECFAA
:1012B20008F0F2EC1AF0D8B061EF09F063EF09F030
:1012C200F7EF09F0000120EE04F06D51D9266E51BE
:1012D200DA22DECF4BF0DECF4CF0DECF4DF0DECFA8
:1012E2004EF06FEC1AF04BC077F04CC078F0000172
:1012F2007951775D6F6F7A517859706F6FC00CF0CA
:1013020070C00DF0000E0DBEFF0E0E6E0F6E010EC0
:1013120011EC17F00CC057F00DC058F00EC059F088
:101322000FC05AF06DC0D9FF6EC0DAFFDECF4FF0AA
:10133200DECF50F0DECF51F0DECF52F0000120EED2
:1013420008F06D51D9266E51DA22DECF4BF0DECF96
:101352004CF0DECF4DF0DECF4EF06AEC23F04BC006
:1013620053F04CC054F04DC055F04EC056F0B5ECA1
:1013720011F053C073F054C074F055C075F056C0EC
:1013820076F0000E3F6E000E406E000E416E400E73
:10139200426E73C03BF074C03CF075C03DF076C045
:1013A2003EF040EC0DF03BC01AF03CC01BF03DC0DB
:1013B2001CF03EC01DF0000E1E6E000E1F6E700E61
:1013C200206E420E216EA0EC0FF0000120EE10F014
:1013D2006D51D9266E51DA221AC0DEFF1BC0DEFF24
:1013E2001CC0DEFF1DC0DEFF89EF0AF0000120EE07
:1013F20008F06D51D9266E51DA22DECF4BF0DECFE6
:101402004CF0DECF4DF0DECF4EF06FEC1AF04BC059
:1014120077F04CC078F000017951775D6F6F7A51A7
:101422007859706F6FC00CF070C00DF0000E0DBED9
:10143200FF0E0E6E0F6E010E11EC17F00CC057F07E
:101442000DC058F00EC059F00FC05AF0000120EE46
:1014520004F06D51D9266E51DA22DECF4FF0DECF85
:1014620050F0DECF51F0DECF52F06DC0D9FF6EC02A
:10147200DAFFDECF4BF0DECF4CF0DECF4DF0DECF29
:101482004EF06AEC23F04BC053F04CC054F04DC008
:1014920055F04EC056F0B5EC11F053C073F054C085
:1014A20074F055C075F056C076F0000E3F6E000E17
:1014B200406E800E416E400E426E73C03BF074C0AF
:1014C2003CF075C03DF076C03EF040EC0DF03BC004
:1014D2001AF03CC01BF03DC01CF03EC01DF0000ED7
:1014E2001E6E000E1F6E700E206E420E216EA0EC5C
:1014F2000FF0000120EE10F06D51D9266E51DA2264
:101502001AC0DEFF1BC0DEFF1CC0DEFF1DC0DEFFF7
:1015120020EE10F06D51D9266E51DA22030EDBBE99
:1015220097EF0AF095EF0AF0BEEF0AF020EE10F006
:101532006D51D9266E51DA22DECF3BF0DECF3CF080
:10154200DECF3DF0DECF3EF0000E3F6E000E406E6D
:10155200B40E416E430E426E40EC0DF0000120EEDF
:1015620010F06D51D9266E51DA223BC0DEFF3CC02D
:10157200DEFF3DC0DEFF3EC0DEFF1200100E0F6E2A
:101582000E0E106E000E016E000E026EAF0E036E96
:10159200430E046E20EE10F00D50D9260E50DA22C2
:1015A200DECF05F0DECF06F0DECF07F0DECF08F0AB
:1015B200F2EC1AF0D8B0E0EF0AF0E2EF0AF00FEF27
:1015C2000BF020EE10F00D50D9260E50DA22DECFAD
:1015D20001F0DECF02F0DECF03F0DECF04F0000E2A
:1015E200056E000E066EB40E076E430E086EF2EC28
:1015F2001AF0D8B0FFEF0AF001EF0BF00FEF0BF08B
:101602004C0E0F6E0E0E106E20EE14F00D50D926F9
:101612000E50DA22000EDE6E000EDD6E000E016E3E
:10162200000E026E8C0E036E420E046E20EE10F05F
:101632000D50D9260E50DA22DECF05F0DECF06F0AD
:10164200DECF07F0DECF08F0F2EC1AF0D8B02CEFC4
:101652000BF02EEF0BF05DEF0BF020EE10F00D50C3
:10166200D9260E50DA22DECF01F0DECF02F0DECF35
:1016720003F0DECF04F0000E056E000E066E9E0E25
:10168200076E420E086EF2EC1AF0D8B04BEF0BF078
:101692004DEF0BF05DEF0BF03D0E0F6E0E0E106E68
:1016A20020EE14F00D50D9260E50DA22010EDE6E15
:1016B200000EDD6E3BEF0DF0000E016E000E026EAD
:1016C200110E036E430E046E20EE10F00D50D9265B
:1016D2000E50DA22DECF05F0DECF06F0DECF07F0C5
:1016E200DECF08F0F2EC1AF0D8B07AEF0BF07CEF14
:1016F2000BF0ABEF0BF020EE10F00D50D9260E5090
:10170200DA22DECF01F0DECF02F0DECF03F0DECF51
:1017120004F0000E056E000E066E340E076E430EC8
:10172200086EF2EC1AF0D8B099EF0BF09BEF0BF0C9
:10173200ABEF0BF01C0E0F6E0E0E106E20EE14F0BF
:101742000D50D9260E50DA22020EDE6E000EDD6E2C
:101752003BEF0DF0000E016E000E026EA80E036E3E
:10176200410E046E20EE10F00D50D9260E50DA22F2
:10177200DECF05F0DECF06F0DECF07F0DECF08F0D9
:10178200F2EC1AF0D8B0C8EF0BF0CAEF0BF0F9EF99
:101792000BF020EE10F00D50D9260E50DA22DECFDB
:1017A20001F0DECF02F0DECF03F0DECF04F0000E58
:1017B200056E000E066EC80E076E410E086EF2EC44
:1017C2001AF0D8B0E7EF0BF0E9EF0BF0F9EF0BF0FE
:1017D200360E0F6E0E0E106E20EE14F00D50D9263E
:1017E2000E50DA22030EDE6E000EDD6E3BEF0DF0C0
:1017F200000E016E000E026E700E036E410E046E3C
:1018020020EE10F00D50D9260E50DA22DECF05F070
:10181200DECF06F0DECF07F0DECF08F0F2EC1AF0F2
:10182200D8B016EF0CF018EF0CF047EF0CF020EEEA
:1018320010F00D50D9260E50DA22DECF01F0DECFA5
:1018420002F0DECF03F0DECF04F0000E056E000ED4
:10185200066E980E076E410E086EF2EC1AF0D8B0C2
:1018620035EF0CF037EF0CF047EF0CF0430E0F6E34
:101872000E0E106E20EE14F00D50D9260E50DA2204
:10188200040EDE6E000EDD6E3BEF0DF0000E016EFB
:10189200000E026E400E036E400E046E20EE10F03B
:1018A2000D50D9260E50DA22DECF05F0DECF06F03B
:1018B200DECF07F0DECF08F0F2EC1AF0D8B064EF1A
:1018C2000CF066EF0CF095EF0CF020EE10F00D50DE
:1018D200D9260E50DA22DECF01F0DECF02F0DECFC3
:1018E20003F0DECF04F0000E056E000E066E300E21
:1018F200076E410E086EF2EC1AF0D8B083EF0CF0CE
:1019020085EF0CF095EF0CF02F0E0F6E0E0E106E91
:1019120020EE14F00D50D9260E50DA22050EDE6E9E
:10192200000EDD6E3BEF0DF0000E016E000E026E3A
:10193200AA0E036E420E046E20EE10F00D50D92650
:101942000E50DA22DECF05F0DECF06F0DECF07F052
:10195200DECF08F0F2EC1AF0D8B0B2EF0CF0B4EF30
:101962000CF0E3EF0CF020EE10F00D50D9260E50E3
:10197200DA22DECF01F0DECF02F0DECF03F0DECFDF
:1019820004F0000E056E000E066ED20E076E420EB9
:10199200086EF2EC1AF0D8B0D1EF0CF0D3EF0CF0E5
:1019A200E3EF0CF0110E0F6E0E0E106E20EE14F01F
:1019B2000D50D9260E50DA22060EDE6E000EDD6EB6
:1019C2003BEF0DF0000E016E000E026EC80E036EAC
:1019D200410E046E20EE10F00D50D9260E50DA2280
:1019E200DECF05F0DECF06F0DECF07F0DECF08F067
:1019F200F2EC1AF0D8B000EF0DF002EF0DF031EF7B
:101A02000DF020EE10F00D50D9260E50DA22DECF66
:101A120001F0DECF02F0DECF03F0DECF04F0000EE5
:101A2200056E000E066E040E076E420E086EF2EC94
:101A32001AF0D8B01FEF0DF021EF0DF031EF0DF0DD
:101A4200260E0F6E0E0E106E20EE14F00D50D926DB
:101A52000E50DA22070EDE6E000EDD6E3BEF0DF049
:101A620020EE14F00D50D9260E50DA22080EDE6E4A
:101A7200000EDD6E0FC00DF010C00EF012003E50D1
:101A8200800B476E3E503E24496E3DAE4BEF0DF04B
:101A92004DEF0DF04EEF0DF049804950D8B454EFA0
:101AA2000DF056EF0DF06BEF0DF04928D8A45CEF66
:101AB2000DF05EEF0DF066EF0DF0000E3B6E000EC6
:101AC2003C6E000E3D6E000E3E6E3D8E000E3E6E72
:101AD20073EF0DF0000E3B6E000E3C6E000E3D6E7D
:101AE200000E3E6E4250800B486E47504818D8B4E4
:101AF2007DEF0DF07FEF0DF080EF0DF0478C42503F
:101B02004224486E41AE88EF0DF08AEF0DF08BEF64
:101B12000DF048804850D8B491EF0DF093EF0DF0DE
:101B2200A8EF0DF04828D8A499EF0DF09BEF0DF027
:101B3200A3EF0DF0000E3F6E000E406E000E416EE0
:101B4200000E426E418E000E426EB0EF0DF0000E9E
:101B52003F6E000E406E000E416E000E426E495006
:101B6200485CD8B0B7EF0DF0B9EF0DF0E0EF0DF033
:101B720047ACBEEF0DF0C0EF0DF0C2EF0DF0800EDE
:101B8200471A49C04AF048C049F04AC048F03BC031
:101B92004AF03FC03BF04AC03FF03CC04AF040C070
:101BA2003CF04AC040F03DC04AF041C03DF04AC05E
:101BB20041F03EC04AF042C03EF04AC042F0000E40
:101BC2004A6E495048C043F0446A435E000E445A8C
:101BD20044BEF5EF0DF0445009E11A0E435CD8A063
:101BE200F5EF0DF0F7EF0DF02EEF0EF03B503C103D
:101BF2003D103E10D8A400EF0EF003EF0EF0010EE0
:101C020004EF0EF0000E4A6E000E3B6E000E3C6EAC
:101C1200000E3D6E000E3E6E48C049F037EF0EF0EA
:101C22004AA016EF0EF018EF0EF01EEF0EF0D8904D
:101C32004A3001094A6E20EF0EF0D8904A323BA09A
:101C420025EF0EF027EF0EF028EF0EF04A8E3E340D
:101C52003E323D323C323B32492A4850495CD8A0A0
:101C620035EF0EF037EF0EF011EF0EF047BC3CEF00
:101C72000EF03EEF0EF07EEF0EF04950D8A444EF86
:101C82000EF046EF0EF050EF0EF0000E3B6E000E1F
:101C92003C6E000E3D6E000E3E6E9FEF0FF03F5009
:101CA2003B2640503C2241503D2242503E223EA023
:101CB2005DEF0EF05FEF0EF00BEF0FF04AA064EF56
:101CC2000EF066EF0EF06CEF0EF0D8904A3001097C
:101CD2004A6E6EEF0EF0D8904A323BA073EF0EF0D0
:101CE20075EF0EF076EF0EF04A8E3E343E323D3204
:101CF2003C323B32492A0BEF0FF03F503B5C4050E5
:101D02003C5841503D583E50800A436E4250800A32
:101D12004358D8B08FEF0EF091EF0EF0BCEF0EF0FB
:101D22003B503F5C436E3C504058446E3D504158DE
:101D3200456E3E504258466EFF0E43243B6EFF0EE8
:101D420044203C6EFF0E45203D6EFF0E46203E6E47
:101D5200800E471A4A6C4A50D8A4B2EF0EF0B4EF84
:101D62000EF0C4EF0EF0010E3B26000E3C223D2287
:101D72003E22C4EF0EF03F503B5E40503C5A415071
:101D82003D5A42503E5A3B503C103D103E10D8A4A2
:101D9200CDEF0EF0CFEF0EF004EF0FF04A50D8A4C3
:101DA200D5EF0EF0D7EF0EF004EF0FF0000E3B6E02
:101DB200000E3C6E000E3D6E000E3E6E9FEF0FF069
:101DC200D8903B363C363D363E364AAEEBEF0EF00F
:101DD200EDEF0EF0EEEF0EF03B804AA0F3EF0EF0C7
:101DE200F5EF0EF0F9EF0EF0D8804A36FBEF0EF069
:101DF200D8904A364950D8B401EF0FF003EF0FF0F4
:101E020004EF0FF049063DAE09EF0FF00BEF0FF0B4
:101E1200E1EF0EF0000E486E4AAE12EF0FF014EF33
:101E22000FF02CEF0FF04AC043F07F0E4316D8B4E8
:101E32001DEF0FF01FEF0FF023EF0FF0010E486EB2
:101E42002CEF0FF03BA028EF0FF02AEF0FF02CEF52
:101E52000FF01FEF0FF04850D8B432EF0FF034EF0D
:101E62000FF05FEF0FF0010E3B26000E3C223D22E9
:101E72003E223EA03FEF0FF041EF0FF05FEF0FF079
:101E82003BC043F03CC044F03DC045F03EC046F08C
:101E92004634463245324432433243C03BF044C0BA
:101EA2003CF045C03DF046C03EF04928D8B45CEF56
:101EB2000FF05EEF0FF05FEF0FF0492A4928D8B418
:101EC20065EF0FF067EF0FF06FEF0FF04950D8A4F6
:101ED2006DEF0FF06FEF0FF081EF0FF0000E3B6E22
:101EE200000E3C6E000E3D6E000E3E6E4950D8A4B0
:101EF2007DEF0FF07FEF0FF081EF0FF0000E476ED6
:101F020049A086EF0FF088EF0FF08BEF0FF03D8EB8
:101F12008CEF0FF03D9ED89049303E6E47AE94EF65
:101F22000FF096EF0FF097EF0FF03E8E3BC03BF0B5
:101F32003CC03CF03DC03DF03EC03EF012001D50A2
:101F4200800B266E1D501D242C6E1CAEABEF0FF0C5
:101F5200ADEF0FF0AEEF0FF02C802C50D8B4B4EFF1
:101F62000FF0B6EF0FF0C9EF0FF02C28D8A4BCEF9A
:101F72000FF0BEEF0FF0C6EF0FF0000E1A6E000E5C
:101F82001B6E000E1C6E000E1D6E1C8ED1EF0FF02C
:101F9200000E1A6E000E1B6E000E1C6E000E1D6EE1
:101FA2002150800B261A215021242B6E20AEDCEF0B
:101FB2000FF0DEEF0FF0DFEF0FF02B802B50D8B4D5
:101FC200E5EF0FF0E7EF0FF0FAEF0FF02B28D8A4B0
:101FD200EDEF0FF0EFEF0FF0F7EF0FF0000E1E6EC8
:101FE200000E1F6E000E206E000E216E208E02EF7C
:101FF20010F0000E1E6E000E1F6E000E206E000E00
:10200200216E2B50D8B408EF10F00AEF10F012EF47
:1020120010F02C50D8A410EF10F012EF10F01CEFBB
:1020220010F0000E1A6E000E1B6E000E1C6E000EDB
:102032001D6EB4EF11F020501A02F3CF31F0F4CF3D
:1020420032F03150276E286A296A2A6A32502D6E80
:102052002E6A2F6A306A1F501B02F3CF31F0F4CF81
:1020620032F031502726000E282229222A2232500D
:102072002D26000E2E222F2230221E501C02F3CFBC
:1020820031F0F4CF32F031502726000E28222922D7
:102092002A2232502D26000E2E222F22302229C033
:1020A2002AF028C029F027C028F0276A1E501B02F8
:1020B200F3CF31F0F4CF32F03150272632502822BC
:1020C200000E2922000E2A221F501A02F3CF31F0ED
:1020D200F4CF32F03150272632502822000E292226
:1020E200000E2A2229C02AF028C029F027C028F091
:1020F200276A1E501A02F3CF31F0F4CF32F031507A
:10210200272632502822000E2922000E2A22205091
:102112001B02F3CF31F0F4CF32F031502D26325082
:102122002E22000E2F22000E30221F501C02F3CF4F
:1021320031F0F4CF32F031502D2632502E22000EE3
:102142002F22000E302220501C02F3CF31F0F4CFA8
:1021520032F03150226E3250236E246A256A24C036
:1021620025F023C024F022C023F0226A22502D261B
:1021720023502E2224502F222550302227C022F015
:1021820028C023F029C024F02AC025F0190ECFEF71
:1021920010F0D8902532243223322232E82ECAEFB0
:1021A20010F022502D2623502E2224502F2225506B
:1021B200302229C02AF028C029F027C028F0276A37
:1021C2002B502CC022F0236A2226000E2322820EDC
:1021D2002224316EFF0E2320326E05EF11F0D890CB
:1021E2002D362E362F3630362AAEFAEF10F0FCEFAF
:1021F20010F0FDEF10F02D80D890273628362936C2
:102202002A363106D8A032062FAE0AEF11F00CEFB3
:1022120011F0F0EF10F0000E2B6E2AAE13EF11F05A
:1022220015EF11F039EF11F0FF0E2714226EFF0E99
:102232002814236EFF0E2914246E7F0E2A14256E95
:102242002250231024102510D8B42AEF11F02CEFBD
:1022520011F030EF11F0010E2B6E39EF11F02DA0BD
:1022620035EF11F037EF11F039EF11F02CEF11F0DB
:102272002B50D8B43FEF11F041EF11F065EF11F0A0
:10228200010E2D26000E2E222F22302230A04CEFDE
:1022920011F04EEF11F065EF11F02DC022F02EC0BB
:1022A20023F02FC024F030C025F02534253224320B
:1022B2002332223222C02DF023C02EF024C02FF070
:1022C20025C030F0314A322A32BE70EF11F032505E
:1022D20008E13128D8A070EF11F072EF11F07CEF15
:1022E20011F0000E2D6E000E2E6E800E2F6E7F0EE0
:1022F200306EAAEF11F032BE89EF11F0325006E1D2
:102302003104D8B087EF11F089EF11F095EF11F099
:10231200000E2D6E000E2E6E000E2F6E000E306E11
:10232200000E266EAAEF11F031C02CF0FF0E2D1612
:10233200FF0E2E167F0E2F16000E30162CA0A4EFC5
:1023420011F0A6EF11F0A7EF11F02F8ED8902C30DC
:10235200306E265030122DC01AF02EC01BF02FC046
:102362001CF030C01DF012005650800B0001646F4B
:10237200565056246B6F55AEC1EF11F0C3EF11F0FA
:10238200C4EF11F06B816B51D8B4CAEF11F0CCEFEE
:1023920011F0E1EF11F06B29D8A4D2EF11F0D4EFD4
:1023A20011F0DCEF11F0000E536E000E546E000EB1
:1023B200556E000E566E558E000E566EE9EF11F0F8
:1023C200000E536E000E546E000E556E000E566EC9
:1023D2005A50800B641B5A505A246C6F59AEF4EF5A
:1023E20011F0F6EF11F0F7EF11F06C816C51D8B4E7
:1023F200FDEF11F0FFEF11F014EF12F06C29D8A4E9
:1024020005EF12F007EF12F00FEF12F0000E576E09
:10241200000E586E000E596E000E5A6E598E000E46
:102422005A6E1CEF12F0000E576E000E586E000E20
:10243200596E000E5A6E5750581059105A10D8A49F
:1024420025EF12F027EF12F03FEF12F0000E536E5D
:10245200000E546E000E556E000E566E800E551212
:102462007F0E56126451561253C053F054C054F0AA
:1024720055C055F056C056F082EF13F06B51D8A4F8
:1024820045EF12F047EF12F051EF12F0000E536ECB
:10249200000E546E000E556E000E566E82EF13F053
:1024A2006C516BC05BF05C6A5B5E000E5C5A7F0E27
:1024B2005B24656F000E5C20666F53C060F054C0F1
:1024C20061F055C062F056C063F0000E536E000E0C
:1024D200546E000E556E000E566E000E676F000EA3
:1024E200686F000E696F000E6A6F000E6C6FB2EFBC
:1024F20012F06C51D8B480EF12F082EF12F099EF23
:1025020012F0D8906037613762376337D89053360C
:102512005436553656366AAF91EF12F093EF12F0F9
:1025220094EF12F05380D8906737683769376A376B
:102532005750605D58506159595062595A50635909
:10254200D8A0A6EF12F0A8EF12F0B1EF12F06A8D48
:102552005750605F5850615B5950625B5A50635BE1
:102562006C2B190E6C65B8EF12F0BAEF12F07AEF1D
:1025720012F06051611162116311D8B4C3EF12F00D
:10258200C5EF12F0DDEF12F06781DDEF12F0D890A7
:1025920053365436553656366AAFD2EF12F0D4EF70
:1025A20012F0D5EF12F05380D89067376837693749
:1025B2006A376507D8A0660755AEE2EF12F0E4EF7E
:1025C20012F0C8EF12F0000E6C6F6AAFEBEF12F070
:1025D200EDEF12F011EF13F0FF0E67155B6EFF0EB9
:1025E20068155C6EFF0E69155D6E7F0E6A155E6E74
:1025F2005B505C105D105E10D8B402EF13F004EF74
:1026020013F008EF13F0010E6C6F11EF13F053A0EB
:102612000DEF13F00FEF13F011EF13F004EF13F0BF
:102622006C51D8B417EF13F019EF13F03DEF13F01C
:10263200010E5326000E54225522562256A024EF94
:1026420013F026EF13F03DEF13F053C05BF054C0CC
:102652005CF055C05DF056C05EF05E345E325D32B5
:102662005C325B325BC053F05CC054F05DC055F02D
:102672005EC056F0654B662B66BF48EF13F066519D
:1026820008E16529D8A048EF13F04AEF13F055EF9F
:1026920013F0000E666F6569000E536E000E546EE5
:1026A200000E556E000E566E66BF62EF13F0665155
:1026B20006E16505D8B060EF13F062EF13F070EF3A
:1026C20013F0000E666F000E656F000E536E000E63
:1026D200546E000E556E000E566E000E646F65C08D
:1026E2006BF06BA177EF13F079EF13F07CEF13F03F
:1026F200558E7DEF13F0559ED8906B31566E33EFA9
:1027020012F012007C8807EF15F055C01BF056C07E
:102712001CF057C01DF058C01EF02EEC20F055C022
:1027220020F056C021F057C022F058C023F02BEC05
:1027320022F0290E0001616F960E606F7F0EE82E67
:10274200FED7602FFCD7612FFAD7000E0001FF6F72
:10275200000EE76F010EE66F59C064F05AC065F0D3
:1027620065BFB8EF13F0B6EF13F0BAEF13F007EF4F
:1027720015F07C88110E0001616F3C0E606FCB0E6C
:10278200E82EFED7602FFCD7612FFAD7D890000130
:102792006435D96E6535DA6E5B50D9265C50DA2223
:1027A200DE50DE10D8A4D8EF13F0DAEF13F0E6EF24
:1027B20013F055C021F056C022F057C023F058C084
:1027C20024F0F1EC20F0BEEF14F0D8906435D96E0D
:1027D2006535DA6E5B50D9265C50DA22DE04DE10F3
:1027E200D8A4F6EF13F0F8EF13F004EF14F055C08D
:1027F20021F056C022F057C023F058C024F02FEC2D
:1028020021F0BEEF14F0D8906435D96E6535DA6EDA
:102812005B50D9265C50DA22020EDE18DE10D8A4F4
:1028220015EF14F017EF14F023EF14F055C024F055
:1028320056C025F057C026F058C027F001EC22F010
:10284200BEEF14F0D8906435D96E6535DA6E5B5000
:10285200D9265C50DA22030EDE18DE10D8A434EF3B
:1028620014F036EF14F042EF14F055C021F056C0C8
:1028720022F057C023F058C024F074EC1BF0BEEFD6
:1028820014F0D8906435D96E6535DA6E5B50D9266E
:102892005C50DA22040EDE18DE10D8A453EF14F0D6
:1028A20055EF14F061EF14F055C021F056C022F03C
:1028B20057C023F058C024F0E8EC1BF0BEEF14F030
:1028C200D8906435D96E6535DA6E5B50D9265C5086
:1028D200DA22050EDE18DE10D8A472EF14F074EFBF
:1028E20014F080EF14F055C021F056C022F057C00A
:1028F20023F058C024F0D8EC1DF0BEEF14F0D890AD
:102902006435D96E6535DA6E5B50D9265C50DA22B1
:10291200060EDE18DE10D8A491EF14F093EF14F037
:102922009FEF14F055C021F056C022F057C023F09B
:1029320058C024F02AEC1EF0BEEF14F0D890643593
:10294200D96E6535DA6E5B50D9265C50DA22070EF5
:10295200DE18DE10D8A4B0EF14F0B2EF14F0BEEF20
:1029620014F055C014F056C015F057C016F058C0F8
:1029720017F085EC1DF0BEEF14F07C88000E00010C
:10298200636F000E626FC8EC24F055C014F056C09D
:1029920015F057C016F058C017F071EC20F0E2EFB6
:1029A20014F0A7EC21F033C04BF034C04CF035C02A
:1029B2004DF036C04EF06FEC1AF04BC062F04CC0D6
:1029C20063F0D89000016435D96E6535DA6E5D50DA
:1029D200D9265E50DA22DE50625DDE506359D8A0FD
:1029E200F5EF14F0F7EF14F0D2EF14F055C014F035
:1029F20056C015F057C016F058C017F085EC1DF000
:102A020000016407D8A06507B1EF13F00001E65199
:102A1200E711D8B40FEF15F011EF15F086EF13F0B0
:102A220055C014F056C015F057C016F058C017F034
:102A320085EC1DF0520E0001616F2B0E606F000ECF
:102A4200E82EFED7602FFCD7612FFAD700F07C98D2
:102A5200120077EC24F0AEEC23F03BEC24F0ACEC6B
:102A620024F0000E026E630E016E5CEC1FF0000E8D
:102A72000001F66F010EF76F010EF86FAA0EFB6FE1
:102A82000F0EFC6FA60EFD6F0F0EFE6F000EFA6F9B
:102A9200630EF96F000EED6F010EEE6F010EEF6F18
:102AA200250EF26F0F0EF36F210EF46F0F0EF56FFE
:102AB200000EF16F630EF06F86840E01B4958EB432
:102AC20065EF15F067EF15F060EF15F0520E00019B
:102AD2007C6F2B0E7B6F000EE82EFED77B2FFCD770
:102AE2007C2FFAD700F0C8EC24F0000E0001E16F51
:102AF200000E09EC24F02BEF16F0F60E146E000E09
:102B0200156EED0E166E000E176E71EC20F0DAEFF8
:102B120015F0700E1A6E010E1B6EECEC19F07D0EA4
:102B2200456E000E466E700E476E010E486ECEEC7C
:102B320023F07CC101F07DC102F07EC103F07FC1B0
:102B420004F0000E056E000E066E480E076E420E71
:102B5200086EF2EC1AF0D8B0B1EF15F0B3EF15F041
:102B6200DAEF15F0E8C055F0E9C056F0200E576EC6
:102B7200010E586E12EC1FF0010E0001E16F010E02
:102B820009EC24F0520E00017C6F2B0E7B6F000EBD
:102B9200E82EFED77B2FFCD77C2FFAD700F0F60E5B
:102BA200146E000E156EED0E166E000E176E85EC8D
:102BB2001DF00001E151D8B4E1EF15F0E3EF15F09B
:102BC2008AEF15F0700E1A6E010E1B6EECEC19F006
:102BD200000E0001E16F000E09EC24F0700E0001FE
:102BE2006D6F010E6E6F29EC07F0700E0D6E010E07
:102BF2000E6EBFEC0AF0700E016E010E026EE8C09E
:102C020003F0E9C004F0480E056E010E066E23ECD7
:102C120024F0700E0001666F010E676F37EC16F03C
:102C2200070E010184198511D8A41AEF16F01CEFC2
:102C320016F026EF16F00001E651E711D8B424EFA2
:102C420016F026EF16F01CEF16F0C8EC24F0000187
:102C5200E84BE92B0001E651E711D8B433EF16F047
:102C620035EF16F07EEF15F016EF00F0000120EEC2
:102C720014F06651D9266751DA22DE50DE10D8A44C
:102C820045EF16F047EF16F053EF16F0F60E216EF1
:102C9200000E226EED0E236E000E246EF1EC20F07B
:102CA20010EF17F020EE14F06651D9266751DA22A0
:102CB200DE04DE10D8A460EF16F062EF16F06EEFBD
:102CC20016F0F60E216E000E226EED0E236E000E31
:102CD200246E2FEC21F010EF17F020EE14F0665165
:102CE200D9266751DA22020EDE18DE10D8A47CEF54
:102CF20016F07EEF16F08AEF16F0F60E246E000E36
:102D0200256EED0E266E000E276E01EC22F010EFFE
:102D120017F020EE14F06651D9266751DA22030E1D
:102D2200DE18DE10D8A498EF16F09AEF16F0A6EF90
:102D320016F0F60E216E000E226EED0E236E000EC0
:102D4200246E74EC1BF010EF17F020EE14F06651B5
:102D5200D9266751DA22040EDE18DE10D8A4B4EFA9
:102D620016F0B6EF16F0C2EF16F0F60E216E000E58
:102D7200226EED0E236E000E246EE8EC1BF010EFB7
:102D820017F020EE14F06651D9266751DA22050EAB
:102D9200DE18DE10D8A4D0EF16F0D2EF16F0DEEF78
:102DA20016F0F60E216E000E226EED0E236E000E50
:102DB200246ED8EC1DF010EF17F020EE14F06651DF
:102DC200D9266751DA22060EDE18DE10D8A4ECEFFF
:102DD20016F0EEEF16F0FAEF16F0F60E216E000E78
:102DE200226EED0E236E000E246E2AEC1EF010EF02
:102DF20017F0F60E556E000E566EED0E576E000E63
:102E0200586EE8C059F0E9C05AF0480E5B6E010EE8
:102E12005C6E200E5D6E010E5E6E83EC13F012008E
:102E2200146E1450D8B418EF17F01AEF17F03CEFE5
:102E320017F00FBE21EF17F01FEF17F03CEF17F05E
:102E42000CC010F00DC011F00EC012F00FC013F044
:102E5200101E111E121E131E102A000E1122122203
:102E6200132210C016F011C017F012C018F013C0D0
:102E720019F044EF17F00CC016F00DC017F00EC099
:102E820018F00FC019F00C500D100E100F10D8A42E
:102E92004DEF17F04FEF17F059EF17F0000E0C6ED1
:102EA200000E0D6E000E0E6E000E0F6EEAEF17F0A2
:102EB200960E156E63EF17F0152AD8901932183254
:102EC20017321632000E1614106E000E1714116E01
:102ED200000E1814126EFE0E1914136E10501110FB
:102EE20012101310D8A478EF17F07AEF17F05DEFF5
:102EF20017F088EF17F0152A010E1626000E17227A
:102F020018221922D8901932183217321632000EAE
:102F12001614106E000E1714116E000E1814126E95
:102F2200FF0E1914136E1050111012101310D8A4A2
:102F32009DEF17F09FEF17F07CEF17F0A7EF17F058
:102F42001506D890163617361836193618BEACEF55
:102F520017F0AEEF17F0B6EF17F0020E1560B4EFF0
:102F620017F0B6EF17F0A1EF17F015B0BBEF17F09F
:102F7200BDEF17F0BEEF17F0189ED890153215C0AE
:102F820010F0116A126A136A10C013F0126A116A01
:102F9200106A1050161211501712125018121350B4
:102FA20019121450D8B4D8EF17F0DAEF17F0E2EF95
:102FB20017F00FBEE1EF17F0DFEF17F0E2EF17F0B7
:102FC200198E16C00CF017C00DF018C00EF019C003
:102FD2000FF0120020EE02F00E50D9260F50DA2226
:102FE200DF50D8B4F7EF17F0F9EF17F02DEF18F024
:102FF2000EC0D9FF0FC0DAFFDF50106E1050016E05
:10300200026A20EE03F00E50D9260F50DA22DECFEC
:1030120003F0DDCF04F064EC24F001C007F002C03D
:1030220008F0000E0A6E640E096E6DEC21F020EEBF
:1030320003F00E50D9260F50DA22DF50116E0750DE
:10304200115C126E20EE03F00E50D9260F50DA22D8
:10305200DF50136E50EF18F0000E126E0EC0D9FF43
:103062000FC0DAFFDF50106E1050016E026A20EEC0
:1030720003F00E50D9260F50DA22DECF03F0DDCF57
:1030820004F064EC24F001C007F002C008F0000E66
:103092000A6E640E096E6DEC21F00750136E20EE7D
:1030A20001F00E50D9260F50DA22DF50D8B45CEF6F
:1030B20018F05EEF18F080EF18F020EE05F00E50D9
:1030C200D9260F50DA22DECF10F0DDCF11F010C07A
:1030D200D9FF11C0DAFF12C0DFFF20EE07F00E5059
:1030E200D9260F50DA22DECF10F0DDCF11F010C05A
:1030F200D9FF11C0DAFF13C0DFFFA0EF18F020EEF6
:1031020005F00E50D9260F50DA22DECF10F0DDCFB7
:1031120011F010C0D9FF11C0DAFF13C0DFFF20EE9B
:1031220007F00E50D9260F50DA22DECF10F0DDCF95
:1031320011F010C0D9FF11C0DAFF12C0DFFF120078
:1031420022C0D9FF23C0DAFFDECFF6FFDDCFF7FFC3
:103152000800F550250AD8A4B1EF18F0B3EF18F023
:1031620039EF19F022C0D9FF23C0DAFFDE2A000EA0
:10317200DD22000E0001E36F000EE26FE2C0ECF010
:10318200E469E56922C0D9FF23C0DAFFDECFF6FF8A
:10319200DDCFF7FF0800F550730AD8B4D3EF18F06B
:1031A200D5EF18F0F0EF18F022C0D9FF23C0DAFFF4
:1031B200DECF01F0DDCF02F0480E036E0E0E046E7C
:1031C200000E066E030E056E5CEC1CF00150021040
:1031D200D8A4EEEF18F0F0EF18F030EF19F022C09B
:1031E200D9FF23C0DAFFDECFF6FFDDCFF7FF0800FD
:1031F200F550730AD8B400EF19F002EF19F008EF96
:1032020019F0000E296E030E286E0CEF19F0000E55
:10321200296E010E286E22C0D9FF23C0DAFF285082
:10322200DE262950DD2220C00AF021C00BF024C086
:10323200D9FF25C0DAFFDFCF26F0020EDE26DFCF70
:1032420027F0000EDD2226C0D9FF27C0DAFFDECF2D
:103252000CF0DDCF0DF04EEC19F04DEF19F022C05D
:10326200D9FF23C0DAFFDE2A000EDD224DEF19F06E
:1032720022C0D9FF23C0DAFFDECFF6FFDDCFF7FF92
:103282000800F550016E026A20C003F021C004F06C
:10329200CBEC1CF030EF19F0120021EE86F010EEAC
:1032A2000FF0060EDBCFE3FFE806FCE20CC01AF0DB
:1032B2000DC01BF01A501B10D8A462EF19F064EF76
:1032C20019F068EF19F00F0E1A6E000E1B6E1AC07D
:1032D20001F01BC002F0F4EC22F001C01CF002C0AD
:1032E2001DF0E4C01EF0E5C01FF01FBE7BEF19F019
:1032F2007DEF19F092EF19F01C501E5C1F50800AEE
:103302000E6E1D50800A0E58D8A08AEF19F08CEF6D
:1033120019F08EEF19F092EF19F01EC01CF01FC0C9
:103322001DF01CC01EF01DC01FF0E2C016F0E3C06D
:1033320017F0A8EF19F0000E026E200E016E0AC0FF
:1033420003F00BC004F0CBEC1CF01C4A1D2A1650F3
:103352001C5C1D50800A0E6E1750800A0E58D8A0B1
:10336200B5EF19F0B7EF19F09CEF19F0000E196ED6
:10337200000E186EDCEF19F01AC0F6FF1BC0F7FF43
:10338200000EF86E0D0EF76403D00800F55005D05C
:10339200F6CFE1FFF7CFE2FFE7500E6E0E50016E5F
:1033A200026A0AC003F00BC004F0CBEC1CF01A4A0C
:1033B2001B2A184A192A1E50185C1950800A0E6ED0
:1033C2001F50800A0E58D8A0E9EF19F0EBEF19F060
:1033D200BDEF19F0120054EC22F005C00CF006C04B
:1033E2000DF00E6A0F6A000E11EC17F00CC01CF003
:1033F2000DC01DF00EC01EF00FC01FF07CEC22F0BD
:1034020005C00CF006C00DF00E6A0F6A000E11EC3A
:1034120017F00CC020F00DC021F00EC022F00FC03A
:1034220023F0CCEC22F005C00CF006C00DF00E6AC1
:103432000F6A000E11EC17F00CC024F00DC025F03D
:103442000EC026F00FC027F0A4EC22F005C00CF04D
:1034520006C00DF00E6A0F6A000E11EC17F00CC0D8
:1034620028F00DC029F00EC02AF00FC02BF01AC0B0
:10347200D9FF1BC0DAFF1CC0DEFF1DC0DEFF1EC06D
:10348200DEFF1FC0DEFF20EE08F01A50D9261B50C7
:10349200DA2224C0DEFF25C0DEFF26C0DEFF27C001
:1034A200DEFF20EE04F01A50D9261B50DA2220C08B
:1034B200DEFF21C0DEFF22C0DEFF23C0DEFF20EEE2
:1034C2000CF01A50D9261B50DA2228C0DEFF29C080
:1034D200DEFF2AC0DEFF2BC0DEFF12004D344E3469
:1034E200546E5450D8A478EF1AF07AEF1AF084EFA1
:1034F2001AF0000E4B6E000E4C6E000E4D6E000E5A
:103502004E6EF1EF1AF04BC04FF04CC050F04DC070
:1035120051F04EC052F0200E94EF1AF0D890523271
:10352200513250324F32E82E8FEF1AF04F50536E15
:103532004D8EFF0E4B16FF0E4C16FF0E4D16000E53
:103542004E16960E545E54BEABEF1AF0A9EF1AF067
:10355200C1EF1AF05450800A970FD8B0B3EF1AF0A7
:10356200B5EF1AF0B7EF1AF07AEF1AF0D8904E32A0
:103572004D324C324B32543EB7EF1AF0D9EF1AF0BB
:103582001F0E5464C7EF1AF0C9EF1AF0D1EF1AF008
:103592007AEF1AF0D8904B364C364D364E365406EA
:1035A2005450D8A4D7EF1AF0D9EF1AF0CBEF1AF093
:1035B2005350D8B4DFEF1AF0E1EF1AF0E9EF1AF046
:1035C2004E1E4D1E4C1E4B6C000E4C224D224E22A6
:1035D2004BC04BF04CC04CF04DC04DF04EC04EF0C5
:1035E2001200000E0114096E000E02140A6E800E03
:1035F20003140B6E7F0E04140C6E09500A100B108C
:103602000C10D8A407EF1BF009EF1BF011EF1BF011
:10361200000E016E000E026E000E036E000E046EAE
:10362200000E0514096E000E06140A6E800E0714B1
:103632000B6E7F0E08140C6E09500A100B100C1042
:10364200D8A426EF1BF028EF1BF030EF1BF0000E82
:10365200056E000E066E000E076E000E086E04AEBA
:1036620035EF1BF037EF1BF040EF1BF0016C021E31
:10367200D8B0022A031ED8B0032A800E045608AE20
:1036820045EF1BF047EF1BF050EF1BF0056C061ED9
:10369200D8B0062A071ED8B0072A800E0856000E98
:1036A200011A000E021A000E031A800E041A000EEE
:1036B200051A000E061A000E071A800E081A055087
:1036C200015C065002580750035808500458D8B0FD
:1036D2006DEF1BF06FEF1BF072EF1BF0D89073EFE2
:1036E2001BF0D88012000001FF51D8B47BEF1BF011
:1036F2007DEF1BF0B3EF1BF021C01BF022C01CF0CA
:1037020023C01DF024C01EF02EEC20F021C014F0C6
:1037120022C015F023C016F024C017F0B1EC20F03F
:10372200390E266ED20E256E4C0EE82EFED7252EB1
:10373200FCD7262EFAD700D021C01AF022C01BF0E7
:1037420023C01CF024C01DF0A4EC1FF021C01AF00D
:1037520022C01BF023C01CF024C01DF0A4EC1FF0FB
:10376200E7EF1BF021C01AF022C01BF023C01CF0AF
:1037720024C01DF0E9EC1FF021C01AF022C01BF09A
:1037820023C01CF024C01DF0E9EC1FF021C014F08E
:1037920022C015F023C016F024C017F071EC20F0FF
:1037A200390E266ED20E256E4C0EE82EFED7252E31
:1037B200FCD7262EFAD700D021C014F022C015F073
:1037C20023C016F024C017F085EC1DF01200000192
:1037D200FF51D8B4EFEF1BF0F1EF1BF027EF1CF015
:1037E20021C01BF022C01CF023C01DF024C01EF01B
:1037F2002EEC20F021C014F022C015F023C016F0E8
:1038020024C017F0B1EC20F0390E266ED20E256ED0
:103812004C0EE82EFED7252EFCD7262EFAD700D046
:1038220021C01AF022C01BF023C01CF024C01DF0DE
:10383200E9EC1FF021C01AF022C01BF023C01CF0DB
:1038420024C01DF0E9EC1FF05BEF1CF021C01AF060
:1038520022C01BF023C01CF024C01DF0A4EC1FF0FA
:1038620021C01AF022C01BF023C01CF024C01DF09E
:10387200A4EC1FF021C014F022C015F023C016F0F2
:1038820024C017F071EC20F0390E266ED20E256E90
:103892004C0EE82EFED7252EFCD7262EFAD700D0C6
:1038A20021C014F022C015F023C016F024C017F076
:1038B20085EC1DF0120001C008F002C009F003C03F
:1038C2000AF004C00BF00506D8A00606052806E19A
:1038D2000628D8A46FEF1CF071EF1CF07EEF1CF0ED
:1038E200000E026E000E016ECAEF1CF0084A092A91
:1038F2000A4A0B2A0506D8A0060608C0F6FF09C028
:10390200F7FF0800F5500009D8B48AEF1CF08CEFDD
:103912001CF0B8EF1CF00AC0F6FF0BC0F7FF08005E
:10392200F5500009D8B498EF1CF09AEF1CF0B8EFEC
:103932001CF005500610D8B4A1EF1CF0A3EF1CF048
:10394200B8EF1CF008C0F6FF09C0F7FF0800F5CF7A
:1039520007F00AC0F6FF0BC0F7FF0800F550071882
:10396200D8B4B6EF1CF0B8EF1CF077EF1CF008C02B
:10397200F6FF09C0F7FF0800F5CF07F00AC0F6FF0F
:103982000BC0F7FF0800F550075C016E026AD8A071
:103992000206120003500410D8B4D2EF1CF0D4EF88
:1039A2001CF0DDEF1CF003500410D8A4DBEF1CF078
:1039B200DDEF1CF0E2EF1CF00150CDEC24F02FEF14
:1039C2001DF020EE09F00350D9260450DA22DE5011
:1039D200DE10D8B4EFEF1CF0F1EF1CF00CEF1DF08D
:1039E20020EE09F00350D9260450DA2210EE03F03B
:1039F2000350E1260450E222DE50E65CE650800AE3
:103A0200096EDE50800A0958D8B00AEF1DF00CEF9B
:103A12001DF02FEF1DF020EE03F00350D9260450C5
:103A2200DA22DECF05F0DDCF06F003C0D9FF04C0F5
:103A3200DAFFDECF07F0DDCF08F005500724D96E9C
:103A420006500820DA6E01C0DFFF20EE03F00350BB
:103A5200D9260450DA22DE2A000EDD221200000EE0
:103A62000114096E000E02140A6E800E03140B6E0E
:103A72007F0E04140C6E09500A100B100C10D8A4FF
:103A820045EF1DF047EF1DF04FEF1DF0000E016EE8
:103A9200000E026E000E036E000E046E000E051480
:103AA200096E000E06140A6E800E07140B6E7F0E4E
:103AB20008140C6E09500A100B100C10D8A464EFF5
:103AC2001DF066EF1DF06EEF1DF0000E056E000E8C
:103AD200066E000E076E000E086E055001180FE10B
:103AE200065002180CE10750031809E108500418A7
:103AF200D8B47EEF1DF080EF1DF083EF1DF0D8905B
:103B020084EF1DF0D88012007C88BEEF1DF014C037
:103B1200D9FF15C0DAFFDF50D8B492EF1DF094EF51
:103B22001DF099EF1DF014C0D9FF15C0DAFFDF06B2
:103B320016C0D9FF17C0DAFFDF50D8B4A3EF1DF0CB
:103B4200A5EF1DF0AAEF1DF016C0D9FF17C0DAFFCE
:103B5200DF0614C00EF015C00FF0EBEC17F016C024
:103B62000EF017C00FF0EBEC17F0090E186E4E0EA8
:103B7200E82EFED7182EFCD700D014C0D9FF15C0EE
:103B8200DAFFDF50D8B4C8EF1DF0CAEF1DF0D6EF50
:103B92001DF016C0D9FF17C0DAFFDF50D8A4D4EF4A
:103BA2001DF0D6EF1DF088EF1DF07C981200000189
:103BB200FF51D8B4DFEF1DF0E1EF1DF00BEF1EF067
:103BC20021C01BF022C01CF023C01DF024C01EF037
:103BD2002EEC20F021C01AF022C01BF023C01CF0F2
:103BE20024C01DF0A4EC1FF021C01AF022C01BF06B
:103BF20023C01CF024C01DF0A4EC1FF021C01AF059
:103C020022C01BF023C01CF024C01DF0A4EC1FF046
:103C120029EF1EF021C01AF022C01BF023C01CF0B5
:103C220024C01DF0E9EC1FF021C01AF022C01BF0E5
:103C320023C01CF024C01DF0E9EC1FF021C01AF0D3
:103C420022C01BF023C01CF024C01DF0E9EC1FF0C1
:103C520012000001FF51D8B431EF1EF033EF1EF015
:103C62005DEF1EF021C01BF022C01CF023C01DF02E
:103C720024C01EF02EEC20F021C01AF022C01BF04E
:103C820023C01CF024C01DF0E9EC1FF021C01AF083
:103C920022C01BF023C01CF024C01DF0E9EC1FF071
:103CA20021C01AF022C01BF023C01CF024C01DF05A
:103CB200E9EC1FF07BEF1EF021C01AF022C01BF0CE
:103CC20023C01CF024C01DF0A4EC1FF021C01AF088
:103CD20022C01BF023C01CF024C01DF0A4EC1FF076
:103CE20021C01AF022C01BF023C01CF024C01DF01A
:103CF200A4EC1FF0120020EE01F01450D92615504A
:103D0200DA22010EDF6E20EE01F01650D92617508E
:103D1200DA22000EDF6E14C00EF015C00FF0EBECCD
:103D220017F016C00EF017C00FF0EBEC17F0000EF4
:103D3200196E000E186E14C0D9FF15C0DAFFDF2A03
:103D420016C0D9FF17C0DAFFDF2A14C00EF015C063
:103D52000FF0EBEC17F016C00EF017C00FF0EBEC03
:103D620017F0E40E00D000D0E82EFCD700D000D02F
:103D7200184A192A195009E1320E185CD8A0C4EF6A
:103D82001EF0C6EF1EF09CEF1EF0120020EE01F0B6
:103D92001450D9261550DA22000EDF6E20EE01F003
:103DA2001650D9261750DA22010EDF6E14C00EF01B
:103DB20015C00FF0EBEC17F016C00EF017C00FF0A5
:103DC200EBEC17F0000E196E000E186E14C0D9FF3E
:103DD20015C0DAFFDF2A16C0D9FF17C0DAFFDF2AC3
:103DE20014C00EF015C00FF0EBEC17F016C00EF079
:103DF20017C00FF0EBEC17F0E40E00D000D0E82E65
:103E0200FCD700D000D0184A192A195009E1320E05
:103E1200185CD8A00FEF1FF011EF1FF0E7EF1EF0B4
:103E22001200000E3F6E000E406EAF0E416EC30ECA
:103E3200426EA7EC21F033C03BF034C03CF035C0F9
:103E42003DF036C03EF040EC0DF03BC059F03CC0B6
:103E52005AF03DC05BF03EC05CF0000E3F6E800E3B
:103E6200406E220E416EC40E426E59C03BF05AC0E3
:103E72003CF05BC03DF05CC03EF040EC0DF03BC05E
:103E82004BF03CC04CF03DC04DF03EC04EF06FECEC
:103E92001AF04BC05DF04CC05EF0D8905534D96E2C
:103EA2005634DA6E5750D9265850DA225DC0DEFFFA
:103EB2005EC0DDFF12008594839E8598879C7D9469
:103EC2007B9E7D987F9C050E0E01746F060E766FA9
:103ED200070E696F080E886FBD508F0B4009BD6ECB
:103EE200E00EBE16BF50F00B0109BF6E01C0BCFF51
:103EF200BD8E000EAA6E000EA66E000E0F01256F7B
:103F0200000E216FFC0EAD16F30EAD16CF0EAD16E0
:103F12003F0EAD16AB88AB50F00B0C09AB6EAB8EFF
:103F2200A788A750F00B0C09A76EA78E26892651E9
:103F3200F00B0C09266F268F22892251F00B0C09F7
:103F4200226F228F120080801AC014F01BC015F05D
:103F52001CC016F01DC017F085EC1DF0050E1F6E7B
:103F62000F0E1E6EF10EE82EFED71E2EFCD71F2E50
:103F7200FAD700F01AC014F01BC015F01CC016F0DE
:103F82001DC017F07CEC1EF00D0E1F6EFD0E1E6E96
:103F9200A20EE82EFED71E2EFCD71F2EFAD700D077
:103FA2001AC014F01BC015F01CC016F01DC017F08B
:103FB20085EC1DF0050E1F6E0F0E1E6EF10EE82E23
:103FC200FED71E2EFCD71F2EFAD700F080901200CB
:103FD2007E801AC014F01BC015F01CC016F01DC064
:103FE20017F085EC1DF0050E1F6E0F0E1E6EF10E02
:103FF200E82EFED71E2EFCD71F2EFAD700F01AC0CD
:1040020014F01BC015F01CC016F01DC017F0C7EC51
:104012001EF00D0E1F6EFD0E1E6EA20EE82EFED7B6
:104022001E2EFCD71F2EFAD700D01AC014F01BC0C8
:1040320015F01CC016F01DC017F085EC1DF0050E22
:104042001F6E0F0E1E6EF10EE82EFED71E2EFCD72F
:104052001F2EFAD700F07E9012001BC014F01CC075
:1040620015F01DC016F01EC017F085EC1DF0090EEC
:10407200206E1E0E1F6EE40EE82EFED71F2EFCD7FA
:10408200202EFAD700D01BC014F01CC015F01DC0A2
:1040920016F01EC017F0B1EC20F01D0E206E690E56
:1040A2001F6EA50EE82EFED71F2EFCD7202EFAD7A4
:1040B20000F01BC014F01CC015F01DC016F01EC08D
:1040C20017F085EC1DF0090E206E1E0E1F6EE40E19
:1040D200E82EFED71F2EFCD7202EFAD700D01200D2
:1040E20020EE01F01450D9261550DA22010EDF6EAF
:1040F20020EE01F01650D9261750DA22010EDF6E9B
:10410200000E1A6E000E196E14C0D9FF15C0DAFF28
:10411200DF2A16C0D9FF17C0DAFFDF2A14C00EF05B
:1041220015C00FF0EBEC17F016C00EF017C00FF031
:10413200EBEC17F0090E186E4E0EE82EFED7182E75
:10414200FCD700D0194A1A2A1A5009E1320E195C1A
:10415200D8A0AEEF20F0B0EF20F085EF20F01200F3
:1041620020EE01F01450D9261550DA22000EDF6E2F
:1041720020EE01F01650D9261750DA22000EDF6E1B
:10418200000E1A6E000E196E14C0D9FF15C0DAFFA8
:10419200DF2A16C0D9FF17C0DAFFDF2A14C00EF0DB
:1041A20015C00FF0EBEC17F016C00EF017C00FF0B1
:1041B200EBEC17F0090E186E4E0EE82EFED7182EF5
:1041C200FCD700D0194A1A2A1A5009E1320E195C9A
:1041D200D8A0EEEF20F0F0EF20F0C5EF20F01200B3
:1041E2000001FF51D8B4F8EF20F0FAEF20F01AEFF7
:1041F20021F021C01BF022C01CF023C01DF024C0FE
:104202001EF02EEC20F021C01AF022C01BF023C0B9
:104212001CF024C01DF0A4EC1FF021C01AF022C033
:104222001BF023C01CF024C01DF0A4EC1FF02EEFE5
:1042320021F021C01AF022C01BF023C01CF024C0C0
:104242001DF0E9EC1FF021C01AF022C01BF023C0C0
:104252001CF024C01DF0E9EC1FF012000001FF5118
:10426200D8B436EF21F038EF21F058EF21F021C019
:104272001BF022C01CF023C01DF024C01EF02EEC47
:1042820020F021C01AF022C01BF023C01CF024C071
:104292001DF0E9EC1FF021C01AF022C01BF023C070
:1042A2001CF024C01DF0E9EC1FF06CEF21F021C0DE
:1042B2001AF022C01BF023C01CF024C01DF0A4EC95
:1042C2001FF021C01AF022C01BF023C01CF024C032
:1042D2001DF0A4EC1FF01200000E0C6E000E0B6E0F
:1042E20009500A10D8B478EF21F07AEF21F0A2EF4A
:1042F20021F0010E0D6E82EF21F0D89009360A36B8
:104302000D2A0AAE87EF21F089EF21F07EEF21F02E
:10431200D8900B360C360950075C0A500858D8A0C2
:1043220095EF21F097EF21F09CEF21F00950075E05
:104332000A50085A0B80D8900A3209320D2E89EFA2
:1043420021F00BC007F00CC008F01200D3CF39F0F7
:104352003A6AD450386E376A3750391238503A12A6
:1043620039C00CF03AC00DF00E6A0F6A000E11EC63
:1043720017F00CC01AF00DC01BF00EC01CF00FC0DD
:104382001DF0BD0E1E6E370E1F6E860E206E3F0E86
:10439200216EA0EC0FF01AC033F01BC034F01CC029
:1043A20035F01DC036F01200480EF66E490EF76E5B
:1043B200000EF86E01EE86F010EE0FF00900F5CF58
:1043C200EEFFE550E150FAE19C0EF66E490EF76EF3
:1043D200000EF86E0900F5CFFFF001EE00F0860E38
:1043E200EE6AE806FDE100EEE2F01D0EEE6AE80676
:1043F200FDE15F905F92000EF86E00012AEF15F06A
:104402000001FF51D8B408EF22F00AEF22F020EFAA
:1044120022F024C01BF025C01CF026C01DF027C0CE
:104422001EF02EEC20F024C020F025C021F026C082
:1044320022F027C023F02BEC22F02AEF22F024C036
:1044420020F025C021F026C022F027C023F02BEC5B
:1044520022F0120020C01AF021C01BF022C01CF072
:1044620023C01DF0E9EC1FF020C01AF021C01BF0A0
:1044720022C01CF023C01DF0E9EC1FF020C01AF08E
:1044820021C01BF022C01CF023C01DF0E9EC1FF07C
:1044920020C01AF021C01BF022C01CF023C01DF066
:1044A200E9EC1FF01200C3EC24F0520EB3EC24F03E
:1044B200B60EB3EC24F0B9EC24F0530EB3EC24F0B6
:1044C200010E8DEC23F0076E07500A6E0B6A000E88
:1044D2008DEC23F0076E0750096E086A0A50081027
:1044E2000A6E0B5009100B6EBEEC24F00AC005F0E8
:1044F2000BC006F01200C3EC24F0520EB3EC24F011
:10450200B80EB3EC24F0B9EC24F0530EB3EC24F063
:10451200010E8DEC23F0076E07500A6E0B6A000E37
:104522008DEC23F0076E0750096E086A0A500810D6
:104532000A6E0B5009100B6EBEEC24F00AC005F097
:104542000BC006F01200C3EC24F0520EB3EC24F0C0
:10455200B40EB3EC24F0B9EC24F0530EB3EC24F017
:10456200010E8DEC23F0076E07500A6E0B6A000EE7
:104572008DEC23F0076E0750096E086A0A50081086
:104582000A6E0B5009100B6EBEEC24F00AC005F047
:104592000BC006F01200C3EC24F0520EB3EC24F070
:1045A200BA0EB3EC24F0B9EC24F0530EB3EC24F0C1
:1045B200010E8DEC23F0076E07500A6E0B6A000E97
:1045C2008DEC23F0076E0750096E086A0A50081036
:1045D2000A6E0B5009100B6EBEEC24F00AC005F0F7
:1045E2000BC006F0120001C003F002C004F0FCEFA1
:1045F20022F0014A022A01C0F6FF02C0F7FF000EB4
:10460200F86E0D0EF76403D00800F55005D0F6CF12
:10461200E1FFF7CFE2FFE7500009D8A413EF23F040
:1046220015EF23F0FAEF22F00350015C016E045003
:104632000258026E1200360E386E000E396E32C00B
:104642003AF033C03BF0000E3E6E000E3D6E000E9F
:10465200446E000E436E3A0E2A6E000E2B6E34C06C
:104662002CF035C02DF0380E2E6E000E2F6E43EC5E
:1046720023F03D503224D96E3E503320DA6E000EC4
:10468200DF6E12002CC030F02DC031F057EF23F056
:104692002AC020F02BC021F0300E226E000E236EB5
:1046A2002EC024F02FC025F0A1EC18F030C0F6FF88
:1046B20031C0F7FF0800F5500009D8A463EF23F0DA
:1046C20065EF23F049EF23F0000E2B6E000E2A6EE9
:1046D2001200000E4F1A000E501A000E511A800ED0
:1046E200521A4BC03BF04CC03CF04DC03DF04EC0A6
:1046F2003EF04FC03FF050C040F051C041F052C0B8
:1047020042F040EC0DF03BC04BF03CC04CF03DC0E1
:104712004DF03EC04EF01200036E50EC24F00E013C
:10472200DA8750EC24F0D5CE04F050EC24F003509C
:10473200D8B49EEF23F0A2EF23F0026A022AA3EF7D
:1047420023F0026A023A02460E01DA510218DF0B26
:104752000218DA6FDA89045012003BEC24F0010EE1
:10476200036E000E88EC24F03F0E056E550EE82E07
:10477200FED7052EFCD700F0030E036E000E88EC68
:1047820024F0D60E036E010E88EC24F07F928792FD
:10479200799881987E9E869E120047C00DF048C08F
:1047A2000EF0BFEC0AF00DC049F00EC04AF045C051
:1047B20032F046C033F0010E346E0E0E356E49C033
:1047C20036F04AC037F01CEC23F045C002F046C078
:1047D20003F0EDEC23F01200FCEF23F002C0D9FF4E
:1047E20003C0DAFFDF5098EC24F0024A032A6A0E73
:1047F200E82EFED700D002C0D9FF03C0DAFFDF5097
:10480200D8A406EF24F008EF24F0EFEF23F0120013
:10481200016E0150D8B410EF24F012EF24F017EF1C
:1048220024F07F8279887E8E22EF24F00150D8A472
:104832001DEF24F01FEF24F022EF24F07F927998ED
:104842007E9E120020EE14F00150D9260250DA2288
:10485200DECF07F0DDCF08F0D8900334D96E0434F0
:10486200DA6E0550D9260650DA2207C0DEFF08C0EC
:10487200DDFF12000E01D951F00B0809D96FD98B57
:104882009F0ED66F848A848CA79BA79D1D0E1D6FD9
:104892001E0E1C6F1C0E6F6F1B0E706F12000E012E
:1048A200D8B556EF24F058EF24F050EF24F0DACECA
:1048B20001F01F0E0116D8A461EF24F063EF24F07B
:1048C20050EF24F0120001500302F3CF05F0F4CFB1
:1048D20006F001500402F350062602500302F35080
:1048E200062605C001F006C002F01200838883820A
:1048F200120E0E01626F110E156FE997E895330ED5
:10490200E56F000EE66FE789E88BE78F1200046E11
:10491200C3EC24F0520EB3EC24F004508009B3EC43
:1049220024F00350B3EC24F0BEEC24F01200016E2C
:104932000E0137A59FEF24F0A1EF24F099EF24F0A8
:1049420001C0E4FE1200286E756C6C29005E01BC89
:0549520002A000A0001E
:104958008498889086907C9880907E901200026E51
:1049680050EC24F002C0D5FE120050EC24F00E01E9
:10497800DA83120050EC24F00E01DA85120050ECB4
:1049880024F00E01DA811200000ED36E000ED46EF0
:054998001200120001F5
:020000040020DA
:10000000FF0FFF0FFF0FFF0FFF0FFF0FFF0FFF0F80
:020000040030CA
:0C000000AAFFFFFF9FFFFFFFFFFFFFFFB5
:00000001FF
