:040000001DEF0BF0F5
:100E0000005265643A20256420477265656E3A2079
:100E1000256420426C75653A20256420436C656129
:090E2000723A202564200D000047
:100E2A0020EE02F03950D9263A50DA22DF50D8B4EF
:100E3A0021EF07F023EF07F057EF07F039C0D9FF8A
:100E4A003AC0DAFFDF503B6E3B502C6E2D6A20EE23
:100E5A0003F03950D9263A50DA22DECF2EF0DDCF10
:100E6A002FF083EC0BF02CC032F02DC033F0000EC3
:100E7A00356E640E346EE3EC0AF020EE03F039505E
:100E8A00D9263A50DA22DF503C6E32503C5C3D6E35
:100E9A0020EE03F03950D9263A50DA22DF503E6E5E
:100EAA007AEF07F0000E3D6E39C0D9FF3AC0DAFF7B
:100EBA00DF503B6E3B502C6E2D6A20EE03F039500A
:100ECA00D9263A50DA22DECF2EF0DDCF2FF083EC8E
:100EDA000BF02CC032F02DC033F0000E356E640ECC
:100EEA00346EE3EC0AF032503E6E20EE01F03950D7
:100EFA00D9263A50DA22DF50D8B486EF07F088EFC5
:100F0A0007F0AAEF07F020EE05F03950D9263A503B
:100F1A00DA22DECF3BF0DDCF3CF03BC0D9FF3CC04C
:100F2A00DAFF3DC0DFFF20EE07F03950D9263A50EC
:100F3A00DA22DECF3BF0DDCF3CF03BC0D9FF3CC02C
:100F4A00DAFF3EC0DFFFCAEF07F020EE05F03950A6
:100F5A00D9263A50DA22DECF3BF0DDCF3CF03BC057
:100F6A00D9FF3CC0DAFF3EC0DFFF20EE07F0395060
:100F7A00D9263A50DA22DECF3BF0DDCF3CF03BC037
:100F8A00D9FF3CC0DAFF3DC0DFFF12001550D8B4CC
:100F9A00D1EF07F0D3EF07F035EF08F04BC03FF081
:100FAA004CC040F04DC041F04EC042F06AEC08F02F
:100FBA004BC03FF04CC040F04DC041F04EC042F033
:100FCA0063EC0AF0520E506E2B0E4F6E000EE82E96
:100FDA00FED74F2EFCD7502EFAD700D04BC03FF089
:100FEA004CC040F04DC041F04EC042F06AEC08F0EF
:100FFA00050E506E0F0E4F6EF10EE82EFED74F2ED5
:10100A00FCD7502EFAD700F04BC03FF04CC040F04E
:10101A004DC041F04EC042F063EC0AF0A30E506E90
:10102A00570E4F6E020EE82EFED74F2EFCD7502ECB
:10103A00FAD700D04BC045F04CC046F04DC047F03F
:10104A004EC048F0DFEC09F04BC045F04CC046F00A
:10105A004DC047F04EC048F0DFEC09F069EF08F0E8
:10106A004BC045F04CC046F04DC047F04EC048F06A
:10107A0021EC0AF04BC045F04CC046F04DC047F099
:10108A004EC048F021EC0AF04BC03FF04CC040F093
:10109A004DC041F04EC042F0A3EC0AF0A30E506ED0
:1010AA00570E4F6E020EE82EFED74F2EFCD7502E4B
:1010BA00FAD700D04BC03FF04CC040F04DC041F0D1
:1010CA004EC042F06AEC08F012009EEF08F03FC0F2
:1010DA00D9FF40C0DAFFDF50D8B476EF08F078EFD6
:1010EA0008F07DEF08F03FC0D9FF40C0DAFFDF0605
:1010FA0041C0D9FF42C0DAFFDF50D8B487EF08F009
:10110A0089EF08F08EEF08F041C0D9FF42C0DAFF3C
:10111A00DF063FC039F040C03AF015EC07F041C095
:10112A0039F042C03AF015EC07F0350EE82EFED73A
:10113A0000F03FC0D9FF40C0DAFFDF50D8B4A8EFB3
:10114A0008F0AAEF08F0B6EF08F041C0D9FF42C094
:10115A00DAFFDF50D8A4B4EF08F0B6EF08F06CEF6E
:10116A0008F0120020EE01F03F50D9264050DA2252
:10117A00000EDF6E20EE01F04150D9264250DA22ED
:10118A00010EDF6E3FC039F040C03AF015EC07F0AF
:10119A0041C039F042C03AF015EC07F0000E446E37
:1011AA00000E436E3FC0D9FF40C0DAFFDF2A41C0BC
:1011BA00D9FF42C0DAFFDF2A3FC039F040C03AF017
:1011CA0015EC07F041C039F042C03AF015EC07F0CF
:1011DA00E40E00D000D0E82EFCD700D000D0434A5D
:1011EA00442A445009E1320E435CD8A0FFEF08F0CC
:1011FA0001EF09F0D7EF08F0120020EE01F03F509E
:10120A00D9264050DA22010EDF6E20EE01F041505D
:10121A00D9264250DA22000EDF6E3FC039F040C0B4
:10122A003AF015EC07F041C039F042C03AF015EC3B
:10123A0007F0000E446E000E436E3FC0D9FF40C057
:10124A00DAFFDF2A41C0D9FF42C0DAFFDF2A3FC0F6
:10125A0039F040C03AF015EC07F041C039F042C00D
:10126A003AF015EC07F0E40E00D000D0E82EFCD7D7
:10127A0000D000D0434A442A445009E1320E435C6C
:10128A00D8A04AEF09F04CEF09F022EF09F012005A
:10129A0096EC0BF040EC0BF05AEC0BF0000E2D6EB6
:1012AA00630E2C6E97EC09F0000E236E010E246E6D
:1012BA00010E256EAA0E286E0F0E296EA60E2A6E34
:1012CA000F0E2B6E000E276E630E266E000E1A6E20
:1012DA00010E1B6E010E1C6E250E1F6E0F0E206E68
:1012EA00210E216E0F0E226E000E1E6E630E1D6EF3
:1012FA00230E4B6E000E4C6E1A0E4D6E000E4E6E85
:10130A00CBEC07F0520E526E2B0E516E000EE82EE9
:10131A00FED7512EFCD7522EFAD700D07DEF09F016
:10132A0000EF00F08594839E8598879C7D947B9E30
:10133A007D987F9C050E0E01746F060E766F070E60
:10134A00696F080E886FBD508F0B4009BD6EE00EA5
:10135A00BE16BF50F00B0109BF6E2CC0BCFFBD8E7C
:10136A00000EAA6E000EA66E000E0F01256F000E6B
:10137A00216FFC0EAD16F30EAD16CF0EAD163F0E55
:10138A00AD16AB88AB50F00B0C09AB6EAB8EA788D1
:10139A00A750F00B0C09A76EA78E26892651F00BD1
:1013AA000C09266F268F22892251F00B0C09226F15
:1013BA00228F120045C03FF046C040F047C041F0BE
:1013CA0048C042F06AEC08F0050E4A6E0F0E496EEC
:1013DA00F10EE82EFED7492EFCD74A2EFAD700F096
:1013EA0045C03FF046C040F047C041F048C042F017
:1013FA00B7EC08F0190E4A6E5A0E496EB20EE82E74
:10140A00FED7492EFCD74A2EFAD745C03FF046C030
:10141A0040F047C041F048C042F06AEC08F0050EBF
:10142A004A6E0F0E496EF10EE82EFED7492EFCD7F2
:10143A004A2EFAD700F0120045C03FF046C040F0ED
:10144A0047C041F048C042F06AEC08F0050E4A6E07
:10145A000F0E496EF10EE82EFED7492EFCD74A2E02
:10146A00FAD700F045C03FF046C040F047C041F00F
:10147A0048C042F002EC09F0190E4A6E5A0E496E43
:10148A00B20EE82EFED7492EFCD74A2EFAD745C00F
:10149A003FF046C040F047C041F048C042F06AEC15
:1014AA0008F0050E4A6E0F0E496EF10EE82EFED7B1
:1014BA00492EFCD74A2EFAD700F0120020EE01F08E
:1014CA003F50D9264050DA22010EDF6E20EE01F09D
:1014DA004150D9264250DA22010EDF6E000E456EC7
:1014EA00000E446E3FC0D9FF40C0DAFFDF2A41C078
:1014FA00D9FF42C0DAFFDF2A3FC039F040C03AF0D4
:10150A0015EC07F041C039F042C03AF015EC07F08B
:10151A00150E436EC60EE82EFED7432EFCD700D01A
:10152A00444A452A455009E1320E445CD8A0A0EF4E
:10153A000AF0A2EF0AF077EF0AF0120020EE01F0AB
:10154A003F50D9264050DA22000EDF6E20EE01F01D
:10155A004150D9264250DA22000EDF6E000E456E47
:10156A00000E446E3FC0D9FF40C0DAFFDF2A41C0F7
:10157A00D9FF42C0DAFFDF2A3FC039F040C03AF053
:10158A0015EC07F041C039F042C03AF015EC07F00B
:10159A00150E436EC60EE82EFED7432EFCD700D09A
:1015AA00444A452A455009E1320E445CD8A0E0EF8E
:1015BA000AF0E2EF0AF0B7EF0AF01200000E376EF7
:1015CA00000E366E34503510D8B4EEEF0AF0F0EF54
:1015DA000AF018EF0BF0010E386EF8EF0AF0D89007
:1015EA0034363536382A35AEFDEF0AF0FFEF0AF009
:1015FA00F4EF0AF0D890363637363450325C35502C
:10160A003358D8A00BEF0BF00DEF0BF012EF0BF0E5
:10161A003450325E3550335A3680D89035323432AF
:10162A00382EFFEF0AF036C032F037C033F012001E
:10163A008E0EF66E170EF76E000EF86E00EE53F071
:10164A0010EE09F00900F5CFEEFFE550E150FAE19E
:10165A0000EE60F03C0EEE6AE806FDE100EE01F0F5
:10166A002B0EEE6AE806FDE1000EF86E0E0EF76E1E
:10167A0000014DEF09F05AEC0BF0010E2E6E000E30
:10168A00A7EC0BF03F0E306E550EE82EFED7302E2B
:10169A00FCD700F0030E2E6E000EA7EC0BF0D50E51
:1016AA002E6E010EA7EC0BF012000E01D951F00BB1
:1016BA000809D96FD98B9F0ED66F848A848CA79B11
:1016CA00A79D1D0E1D6F1E0E1C6F1C0E6F6F1B0E2D
:1016DA00706F12000E01D8B575EF0BF077EF0BF0B3
:1016EA006FEF0BF0DACE2CF01F0E2C16D8A480EF79
:1016FA000BF082EF0BF06FEF0BF012002C502E0262
:10170A00F3CF30F0F4CF31F02C502F02F3503126C2
:10171A002D502E02F350312630C02CF031C02DF05E
:10172A00120083888382120E0E01626F110E156FEA
:10173A00E997E895330EE56F000EE66FE789E88BC7
:10174A00E78F12002F6EC2EC0BF0520EB7EC0BF0C3
:10175A002F508009B7EC0BF02E50B7EC0BF0BDEC14
:10176A000BF012002D6E6FEC0BF02DC0D5FE12009F
:10177A006FEC0BF00E01DA8512006FEC0BF00E0124
:0D178A00DA811200E803D0072C012C0101C8
:020000040020DA
:10000000FF0FFF0FFF0FFF0FFF0FFF0FFF0FFF0F80
:020000040030CA
:0C000000AAFFFFFF9FFFFFFFFFFFFFFFB5
:00000001FF
