:0400000016EF00F007
:100008005F820E0133AB0BEF00F00DEF00F014EF41
:1000180000F0000E0001EB6F010EEA6F0E01339B3A
:080028005F92110031EF22F09C
:100E000000436F6C6F757220697320257320200D6D
:100E1000004C6967687420426C7565004461726BB0
:100E200020426C7565004567677368656C6C004FA0
:100E300072616E67650059656C6C6F77004772650B
:100E4000656E0050696E6B006C6C730052656400D7
:010E500000A1
:100E52006DC0D9FF6EC0DAFFDECF01F0DECF02F047
:100E6200DECF03F0DECF04F0000120EE04F06D517E
:100E7200D9266E51DA22DECF05F0DECF06F0DECFC4
:100E820007F0DECF08F0E0EC1CF0D8A04BEF07F043
:100E92004DEF07F082EF07F06DC0D9FF6EC0DAFFA9
:100EA200DECF01F0DECF02F0DECF03F0DECF04F0C2
:100EB200000120EE08F06D51D9266E51DA22DECF04
:100EC20005F0DECF06F0DECF07F0DECF08F0E0EC73
:100ED2001CF0D8A06FEF07F071EF07F082EF07F078
:100EE200000120EE10F06D51D9266E51DA22000E6B
:100EF200DE6E000EDE6E000EDE6E000EDD6EBEEFEA
:100F02000AF0000E00017A6F000E796F6DC0D9FFF2
:100F12006EC0DAFFDECF4BF0DECF4CF0DECF4DF00D
:100F2200DECF4EF020EE04F06D51D9266E51DA225A
:100F3200DECF4FF0DECF50F0DECF51F0DECF52F0F9
:100F42008AEC1BF0D8B0A8EF07F0AAEF07F0E2EFA7
:100F520007F06DC0D9FF6EC0DAFFDECF4BF0DECFF7
:100F62004CF0DECF4DF0DECF4EF0000120EE08F067
:100F72006D51D9266E51DA22DECF4FF0DECF50F01E
:100F8200DECF51F0DECF52F08AEC1BF0D8B0CCEFBE
:100F920007F0CEEF07F0E2EF07F06DC0D9FF6EC0A9
:100FA200DAFFDECF01F0DECF02F0DECF03F0DECFDC
:100FB20004F007EC1BF001C079F002C07AF058EFA0
:100FC20008F0000120EE04F06D51D9266E51DA22AC
:100FD200DECF4BF0DECF4CF0DECF4DF0DECF4EF069
:100FE2006DC0D9FF6EC0DAFFDECF4FF0DECF50F01A
:100FF200DECF51F0DECF52F08AEC1BF0D8B004EF16
:1010020008F006EF08F043EF08F0000120EE04F0CC
:101012006D51D9266E51DA22DECF4BF0DECF4CF085
:10102200DECF4DF0DECF4EF020EE08F06D51D92626
:101032006E51DA22DECF4FF0DECF50F0DECF51F02C
:10104200DECF52F08AEC1BF0D8B02AEF08F02CEF7A
:1010520008F043EF08F0000120EE04F06D51D926AC
:101062006E51DA22DECF01F0DECF02F0DECF03F0E6
:10107200DECF04F007EC1BF001C079F002C07AF079
:1010820058EF08F0000120EE08F06D51D9266E519C
:10109200DA22DECF01F0DECF02F0DECF03F0DECFC8
:1010A20004F007EC1BF001C079F002C07AF00001F5
:1010B20020EE04F06D51D9266E51DA22DECF4BF0CC
:1010C200DECF4CF0DECF4DF0DECF4EF06DC0D9FF5B
:1010D2006EC0DAFFDECF4FF0DECF50F0DECF51F040
:1010E200DECF52F08AEC1BF0D8B07AEF08F07CEF3A
:1010F20008F019EF09F0000120EE08F06D51D92631
:101102006E51DA22DECF4BF0DECF4CF0DECF4DF067
:10111200DECF4EF06DC0D9FF6EC0DAFFDECF4FF0EA
:10112200DECF50F0DECF51F0DECF52F08AEC1BF072
:10113200D8B09EEF08F0A0EF08F019EF09F06DC0EB
:10114200D9FF6EC0DAFFDECF01F0DECF02F0DECFD4
:1011520003F0DECF04F007EC1BF001C077F002C011
:1011620078F000017951775D6F6F7A517859706F1D
:101172006FC00CF070C00DF0000E0DBEFF0E0E6EB3
:101182000F6E010EA9EC17F00CC057F00DC058F00D
:101192000EC059F00FC05AF0000120EE08F06D5158
:1011A200D9266E51DA22DECF4FF0DECF50F0DECFFD
:1011B20051F0DECF52F020EE04F06D51D9266E517F
:1011C200DA22DECF4BF0DECF4CF0DECF4DF0DECFB9
:1011D2004EF0C6EC23F04BC053F04CC054F04DC05F
:1011E20055F04EC056F0E0EC13F053C01AF054C064
:1011F2001BF055C01CF056C01DF0000E1E6E000EF6
:101202001F6E700E206E420E216ECBEC11F00001AB
:1012120020EE10F06D51D9266E51DA221AC0DEFF8F
:101222001BC0DEFF1CC0DEFF1DC0DEFF89EF0AF01F
:101232006DC0D9FF6EC0DAFFDECF4BF0DECF4CF0CF
:10124200DECF4DF0DECF4EF0000120EE04F06D5106
:10125200D9266E51DA22DECF4FF0DECF50F0DECF4C
:1012620051F0DECF52F08AEC1BF0D8B03BEF09F020
:101272003DEF09F0F7EF09F0000120EE08F06D51A3
:10128200D9266E51DA22DECF4BF0DECF4CF0DECF24
:101292004DF0DECF4EF020EE04F06D51D9266E51A6
:1012A200DA22DECF4FF0DECF50F0DECF51F0DECFCC
:1012B20052F08AEC1BF0D8B061EF09F063EF09F04D
:1012C200F7EF09F0000120EE04F06D51D9266E51BE
:1012D200DA22DECF01F0DECF02F0DECF03F0DECF86
:1012E20004F007EC1BF001C077F002C078F00001B7
:1012F2007951775D6F6F7A517859706F6FC00CF0CA
:1013020070C00DF0000E0DBEFF0E0E6E0F6E010EC0
:10131200A9EC17F00CC057F00DC058F00EC059F0F0
:101322000FC05AF06DC0D9FF6EC0DAFFDECF4FF0AA
:10133200DECF50F0DECF51F0DECF52F0000120EED2
:1013420008F06D51D9266E51DA22DECF4BF0DECF96
:101352004CF0DECF4DF0DECF4EF0C6EC23F04BC0AA
:1013620053F04CC054F04DC055F04EC056F0E0EC76
:1013720013F053C073F054C074F055C075F056C0EA
:1013820076F0000E3F6E000E406E000E416E400E73
:10139200426E73C03BF074C03CF075C03DF076C045
:1013A2003EF036EC0DF03BC01AF03CC01BF03DC0E5
:1013B2001CF03EC01DF0000E1E6E000E1F6E700E61
:1013C200206E420E216ECBEC11F0000120EE10F0E7
:1013D2006D51D9266E51DA221AC0DEFF1BC0DEFF24
:1013E2001CC0DEFF1DC0DEFF89EF0AF0000120EE07
:1013F20008F06D51D9266E51DA22DECF01F0DECF30
:1014020002F0DECF03F0DECF04F007EC1BF001C0E8
:1014120077F002C078F000017951775D6F6F7A51F1
:101422007859706F6FC00CF070C00DF0000E0DBED9
:10143200FF0E0E6E0F6E010EA9EC17F00CC057F0E6
:101442000DC058F00EC059F00FC05AF0000120EE46
:1014520004F06D51D9266E51DA22DECF4FF0DECF85
:1014620050F0DECF51F0DECF52F06DC0D9FF6EC02A
:10147200DAFFDECF4BF0DECF4CF0DECF4DF0DECF29
:101482004EF0C6EC23F04BC053F04CC054F04DC0AC
:1014920055F04EC056F0E0EC13F053C073F054C058
:1014A20074F055C075F056C076F0000E3F6E000E17
:1014B200406E800E416E400E426E73C03BF074C0AF
:1014C2003CF075C03DF076C03EF036EC0DF03BC00E
:1014D2001AF03CC01BF03DC01CF03EC01DF0000ED7
:1014E2001E6E000E1F6E700E206E420E216ECBEC31
:1014F20011F0000120EE10F06D51D9266E51DA2262
:101502001AC0DEFF1BC0DEFF1CC0DEFF1DC0DEFFF7
:1015120020EE10F06D51D9266E51DA22030EDBBE99
:1015220097EF0AF095EF0AF0BEEF0AF020EE10F006
:101532006D51D9266E51DA22DECF3BF0DECF3CF080
:10154200DECF3DF0DECF3EF0000E3F6E000E406E6D
:10155200B40E416E430E426E36EC0DF0000120EEE9
:1015620010F06D51D9266E51DA223BC0DEFF3CC02D
:10157200DEFF3DC0DEFF3EC0DEFF1200100E596EE0
:101582000E0E5A6E000E4B6E000E4C6EB00E4D6E6D
:10159200430E4E6E20EE10F05750D9265850DA22E4
:1015A200DECF4FF0DECF50F0DECF51F0DECF52F083
:1015B2008AEC1BF0D8B0E0EF0AF0E2EF0AF00FEF8E
:1015C2000BF020EE10F05750D9265850DA22DECF19
:1015D2004BF0DECF4CF0DECF4DF0DECF4EF0000E02
:1015E2004F6E000E506EB40E516E430E526E8AEC68
:1015F2001BF0D8B0FFEF0AF001EF0BF00FEF0BF08A
:101602004C0E596E0E0E5A6E20EE14F05750D9261B
:101612005850DA22000EDE6E000EDD6E000E4B6EAA
:10162200000E4C6E960E4D6E420E4E6E20EE10F077
:101632005750D9265850DA22DECF4FF0DECF50F085
:10164200DECF51F0DECF52F08AEC1BF0D8B02CEF97
:101652000BF02EEF0BF05DEF0BF020EE10F0575079
:10166200D9265850DA22DECF4BF0DECF4CF0DECF57
:101672004DF0DECF4EF0000E4F6E000E506E9E0EFD
:10168200516E420E526E8AEC1BF0D8B04BEF0BF04B
:101692004DEF0BF05DEF0BF03D0E596E0E0E5A6ED4
:1016A20020EE14F05750D9265850DA22010EDE6E81
:1016B200000EDD6E31EF0DF0000E4B6E000E4C6E23
:1016C200110E4D6E430E4E6E20EE10F05750D9267D
:1016D2005850DA22DECF4FF0DECF50F0DECF51F09D
:1016E200DECF52F08AEC1BF0D8B07AEF0BF07CEF31
:1016F2000BF0ABEF0BF020EE10F05750D9265850FC
:10170200DA22DECF4BF0DECF4CF0DECF4DF0DECF73
:101712004EF0000E4F6E000E506E240E516E430EB0
:10172200526E8AEC1BF0D8B099EF0BF09BEF0BF0E6
:10173200ABEF0BF01C0E596E0E0E5A6E20EE14F02B
:101742005750D9265850DA22020EDE6E000EDD6E98
:1017520031EF0DF0000E4B6E000E4C6EA80E4D6E6A
:10176200410E4E6E20EE10F05750D9265850DA2214
:10177200DECF4FF0DECF50F0DECF51F0DECF52F0B1
:101782008AEC1BF0D8B0C8EF0BF0CAEF0BF0F9EF00
:101792000BF020EE10F05750D9265850DA22DECF47
:1017A2004BF0DECF4CF0DECF4DF0DECF4EF0000E30
:1017B2004F6E000E506EC80E516E410E526E8AEC84
:1017C2001BF0D8B0E7EF0BF0E9EF0BF0F9EF0BF0FD
:1017D200360E596E0E0E5A6E20EE14F05750D92660
:1017E2005850DA22030EDE6E000EDD6E31EF0DF080
:1017F200000E4B6E000E4C6E700E4D6E410E4E6E14
:1018020020EE10F05750D9265850DA22DECF4FF092
:10181200DECF50F0DECF51F0DECF52F08AEC1BF07B
:10182200D8B016EF0CF018EF0CF047EF0CF020EEEA
:1018320010F05750D9265850DA22DECF4BF0DECFC7
:101842004CF0DECF4DF0DECF4EF0000E4F6E000EAC
:10185200506E980E516E410E526E8AEC1BF0D8B04B
:1018620035EF0CF037EF0CF047EF0CF0430E596EEA
:101872000E0E5A6E20EE14F05750D9265850DA2226
:10188200040EDE6E000EDD6E31EF0DF0000E4B6EBB
:10189200000E4C6EE00E4D6E400E4E6E20EE10F0BD
:1018A2005750D9265850DA22DECF4FF0DECF50F013
:1018B200DECF51F0DECF52F08AEC1BF0D8B064EFED
:1018C2000CF066EF0CF095EF0CF020EE10F0575094
:1018D200D9265850DA22DECF4BF0DECF4CF0DECFE5
:1018E2004DF0DECF4EF0000E4F6E000E506E100E19
:1018F200516E410E526E8AEC1BF0D8B083EF0CF0A1
:1019020085EF0CF095EF0CF02F0E596E0E0E5A6EFD
:1019120020EE14F05750D9265850DA22050EDE6E0A
:10192200000EDD6E31EF0DF0000E4B6E000E4C6EB0
:10193200AA0E4D6E420E4E6E20EE10F05750D92672
:101942005850DA22DECF4FF0DECF50F0DECF51F02A
:10195200DECF52F08AEC1BF0D8B0B2EF0CF0B4EF4D
:101962000CF0E3EF0CF020EE10F05750D92658504F
:10197200DA22DECF4BF0DECF4CF0DECF4DF0DECF01
:101982004EF0000E4F6E000E506EBC0E516E420EA7
:10199200526E8AEC1BF0D8B0D1EF0CF0D3EF0CF002
:1019A200E3EF0CF0110E596E0E0E5A6E20EE14F08B
:1019B2005750D9265850DA22060EDE6E000EDD6E22
:1019C20031EF0DF0000E4B6E000E4C6ED00E4D6ED0
:1019D200410E4E6E20EE10F05750D9265850DA22A2
:1019E200DECF4FF0DECF50F0DECF51F0DECF52F03F
:1019F2008AEC1BF0D8B000EF0DF002EF0DF031EFE2
:101A02000DF020EE10F05750D9265850DA22DECFD2
:101A12004BF0DECF4CF0DECF4DF0DECF4EF0000EBD
:101A22004F6E000E506EE80E516E410E526E8AECF1
:101A32001BF0D8B01FEF0DF021EF0DF031EF0DF0DC
:101A4200260E596E0E0E5A6E20EE14F05750D926FD
:101A52005850DA22070EDE6E000EDD6E31EF0DF009
:101A620059C057F05AC058F012003E50800B476ED2
:101A72003E503E24496E3DAE41EF0DF043EF0DF076
:101A820044EF0DF049804950D8B44AEF0DF04CEFC5
:101A92000DF061EF0DF04928D8A452EF0DF054EF8C
:101AA2000DF05CEF0DF0000E3B6E000E3C6E000E72
:101AB2003D6E000E3E6E3D8E000E3E6E69EF0DF0E5
:101AC200000E3B6E000E3C6E000E3D6E000E3E6E32
:101AD2004250800B486E47504818D8B473EF0DF04F
:101AE20075EF0DF076EF0DF0478C42504224486EB0
:101AF20041AE7EEF0DF080EF0DF081EF0DF04880EA
:101B02004850D8B487EF0DF089EF0DF09EEF0DF03D
:101B12004828D8A48FEF0DF091EF0DF099EF0DF05A
:101B2200000E3F6E000E406E000E416E000E426EC1
:101B3200418E000E426EA6EF0DF0000E3F6E000EBB
:101B4200406E000E416E000E426E4950485CD8B0A5
:101B5200ADEF0DF0AFEF0DF0D6EF0DF047ACB4EFF7
:101B62000DF0B6EF0DF0B8EF0DF0800E471A49C038
:101B72004AF048C049F04AC048F03BC04AF03FC072
:101B82003BF04AC03FF03CC04AF040C03CF04AC083
:101B920040F03DC04AF041C03DF04AC041F03EC075
:101BA2004AF042C03EF04AC042F0000E4A6E49502E
:101BB20048C043F0446A435E000E445A44BEEBEF11
:101BC2000DF0445009E11A0E435CD8A0EBEF0DF082
:101BD200EDEF0DF024EF0EF03B503C103D103E10A7
:101BE200D8A4F6EF0DF0F9EF0DF0010EFAEF0DF0BB
:101BF200000E4A6E000E3B6E000E3C6E000E3D6EF5
:101C0200000E3E6E48C049F02DEF0EF04AA00CEFD8
:101C12000EF00EEF0EF014EF0EF0D8904A300109DC
:101C22004A6E16EF0EF0D8904A323BA01BEF0EF030
:101C32001DEF0EF01EEF0EF04A8E3E343E323D3264
:101C42003C323B32492A4850495CD8A02BEF0EF077
:101C52002DEF0EF007EF0EF047BC32EF0EF034EF2F
:101C62000EF074EF0EF04950D8A43AEF0EF03CEFAC
:101C72000EF046EF0EF0000E3B6E000E3C6E000EB4
:101C82003D6E000E3E6E95EF0FF03F503B264050EA
:101C92003C2241503D2242503E223EA053EF0EF0E4
:101CA20055EF0EF001EF0FF04AA05AEF0EF05CEF85
:101CB2000EF062EF0EF0D8904A3001094A6E64EFDE
:101CC2000EF0D8904A323BA069EF0EF06BEF0EF0A7
:101CD2006CEF0EF04A8E3E343E323D323C323B32A5
:101CE200492A01EF0FF03F503B5C40503C584150B5
:101CF2003D583E50800A436E4250800A4358D8B045
:101D020085EF0EF087EF0EF0B2EF0EF03B503F5C26
:101D1200436E3C504058446E3D504158456E3E50D3
:101D22004258466EFF0E43243B6EFF0E44203C6E2B
:101D3200FF0E45203D6EFF0E46203E6E800E471A76
:101D42004A6C4A50D8A4A8EF0EF0AAEF0EF0BAEFF0
:101D52000EF0010E3B26000E3C223D223E22BAEF3F
:101D62000EF03F503B5E40503C5A41503D5A42506B
:101D72003E5A3B503C103D103E10D8A4C3EF0EF02B
:101D8200C5EF0EF0FAEF0EF04A50D8A4CBEF0EF0EA
:101D9200CDEF0EF0FAEF0EF0000E3B6E000E3C6E31
:101DA200000E3D6E000E3E6E95EF0FF0D8903B3662
:101DB2003C363D363E364AAEE1EF0EF0E3EF0EF032
:101DC200E4EF0EF03B804AA0E9EF0EF0EBEF0EF0ED
:101DD200EFEF0EF0D8804A36F1EF0EF0D8904A3687
:101DE2004950D8B4F7EF0EF0F9EF0EF0FAEF0EF01B
:101DF20049063DAEFFEF0EF001EF0FF0D7EF0EF008
:101E0200000E486E4AAE08EF0FF00AEF0FF022EF15
:101E12000FF04AC043F07F0E4316D8B413EF0FF011
:101E220015EF0FF019EF0FF0010E486E22EF0FF0D1
:101E32003BA01EEF0FF020EF0FF022EF0FF015EF97
:101E42000FF04850D8B428EF0FF02AEF0FF055EFFB
:101E52000FF0010E3B26000E3C223D223E223EA008
:101E620035EF0FF037EF0FF055EF0FF03BC043F0B7
:101E72003CC044F03DC045F03EC046F046344632D8
:101E820045324432433243C03BF044C03CF045C08B
:101E92003DF046C03EF04928D8B452EF0FF054EF5F
:101EA2000FF055EF0FF0492A4928D8B45BEF0FF035
:101EB2005DEF0FF065EF0FF04950D8A463EF0FF01C
:101EC20065EF0FF077EF0FF0000E3B6E000E3C6EE9
:101ED200000E3D6E000E3E6E4950D8A473EF0FF017
:101EE20075EF0FF077EF0FF0000E476E49A07CEF11
:101EF2000FF07EEF0FF081EF0FF03D8E82EF0FF0CB
:101F02003D9ED89049303E6E47AE8AEF0FF08CEF7F
:101F12000FF08DEF0FF03E8E3BC03BF03CC03CF02B
:101F22003DC03DF03EC03EF012007C88A9EF11F0AA
:101F320060C01BF061C01CF062C01DF063C01EF0E7
:101F420087EC20F060C020F061C021F062C022F076
:101F520063C023F087EC22F0290E586E960E576E5E
:101F62007F0EE82EFED7572EFCD7582EFAD700F058
:101F7200000E0001FF6F000EE76F010EE66F64C0F6
:101F82006EF065C06FF06FBFCBEF0FF0C9EF0FF0CF
:101F9200CDEF0FF0A9EF11F07C88110E586E3C0EB8
:101FA200576ECB0EE82EFED7572EFCD7582EFAD7F7
:101FB20000F0D89000016E35D96E6F35DA6E665139
:101FC200D9266751DA22DE50DE10D8A4EBEF0FF0EB
:101FD200EDEF0FF0F9EF0FF060C021F061C022F0D9
:101FE20062C023F063C024F04AEC21F0D1EF10F07C
:101FF200D8906E35D96E6F35DA6E6651D926675133
:10200200DA22DE04DE10D8A409EF10F00BEF10F094
:1020120017EF10F060C021F061C022F062C023F01F
:1020220063C024F088EC21F0D1EF10F0D8906E3527
:10203200D96E6F35DA6E6651D9266751DA22020EF1
:10204200DE18DE10D8A428EF10F02AEF10F036EFD9
:1020520010F060C024F061C025F062C026F063C0B9
:1020620027F05DEC22F0D1EF10F0D8906E35D96EEA
:102072006F35DA6E6651D9266751DA22030EDE1801
:10208200DE10D8A447EF10F049EF10F055EF10F032
:1020920060C021F061C022F062C023F063C024F06E
:1020A20035EC1DF0D1EF10F0D8906E35D96E6F354A
:1020B200DA6E6651D9266751DA22040EDE18DE1076
:1020C200D8A466EF10F068EF10F074EF10F060C063
:1020D20021F061C022F062C023F063C024F089ECD9
:1020E2001DF0D1EF10F0D8906E35D96E6F35DA6EE3
:1020F2006651D9266751DA22050EDE18DE10D8A401
:1021020085EF10F087EF10F093EF10F060C021F030
:1021120061C022F062C023F063C024F030EC1EF0F4
:10212200D1EF10F0D8906E35D96E6F35DA6E6651F8
:10213200D9266751DA22060EDE18DE10D8A4A4EFE3
:1021420010F0A6EF10F0B2EF10F060C021F061C005
:1021520022F062C023F063C024F082EC1EF0D1EFC3
:1021620010F0D8906E35D96E6F35DA6E6651D92679
:102172006751DA22070EDE18DE10D8A4C3EF10F082
:10218200C5EF10F0D1EF10F060C014F061C015F08F
:1021920062C016F063C017F0DDEC1DF0D1EF10F055
:1021A2007C88000E00016A6F000E6B6F000E6C6F70
:1021B200000E6D6F3DEC25F060C014F061C015F0AB
:1021C20062C016F063C017F0CAEC20F0D89000018C
:1021D2006E35D96E6F35DA6ED890D936DA366851E7
:1021E200D9266951DA22030EDBBEFCEF10F0FAEFBA
:1021F20010F042EF11F008EF11F000EC22F033C0C2
:102202006AF034C06BF035C06CF036C06DF06AC055
:102212004BF06BC04CF06CC04DF06DC04EF0000E38
:102222003F6E800E406E220E416E440E426ED8907A
:1022320000016E35D96E6F35DA6ED890D936DA363E
:102242006851D9266951DA22DECF3BF0DECF3CF06D
:10225200DECF3DF0DECF3EF036EC0DF03BC04FF06E
:102262003CC050F03DC051F03EC052F08AEC1BF031
:10227200D8A03EEF11F040EF11F0FEEF10F099EF11
:1022820011F0000E4B6E000E4C6E000E4D6E000EE5
:102292004E6ED8906E35D96E6F35DA6ED890D936CB
:1022A200DA366851D9266951DA22DECF4FF0DECF15
:1022B20050F0DECF51F0DECF52F08AEC1BF0D8B0F6
:1022C20065EF11F067EF11F099EF11F073EF11F074
:1022D20000EC22F033C06AF034C06BF035C06CF011
:1022E20036C06DF06AC04BF06BC04CF06CC04DF064
:1022F2006DC04EF0D89000016E35D96E6F35DA6E32
:10230200D890D936DA366851D9266951DA22DECF29
:102312004FF0DECF50F0DECF51F0DECF52F08AEC3C
:102322001BF0D8A097EF11F099EF11F069EF11F0BF
:1023320060C014F061C015F062C016F063C017F0FF
:10234200DDEC1DF000016E07D8A06F07C4EF0FF09F
:102352000001E651E711D8B4B1EF11F0B3EF11F07B
:1023620099EF0FF060C014F061C015F062C016F072
:1023720063C017F0DDEC1DF0520E586E2B0E576E37
:10238200000EE82EFED7572EFCD7582EFAD700D0D3
:102392007C9812001D50800B266E1D501D242C6E41
:1023A2001CAED6EF11F0D8EF11F0D9EF11F02C805E
:1023B2002C50D8B4DFEF11F0E1EF11F0F4EF11F08F
:1023C2002C28D8A4E7EF11F0E9EF11F0F1EF11F0AA
:1023D200000E1A6E000E1B6E000E1C6E000E1D6E9D
:1023E2001C8EFCEF11F0000E1A6E000E1B6E000E1A
:1023F2001C6E000E1D6E2150800B261A21502124C6
:102402002B6E20AE07EF12F009EF12F00AEF12F076
:102412002B802B50D8B410EF12F012EF12F025EFF0
:1024220012F02B28D8A418EF12F01AEF12F022EFB4
:1024320012F0000E1E6E000E1F6E000E206E000EB9
:10244200216E208E2DEF12F0000E1E6E000E1F6EFA
:10245200000E206E000E216E2B50D8B433EF12F016
:1024620035EF12F03DEF12F02C50D8A43BEF12F0F2
:102472003DEF12F047EF12F0000E1A6E000E1B6EC7
:10248200000E1C6E000E1D6EDFEF13F020501A02BC
:10249200F3CF31F0F4CF32F03150276E286A296A37
:1024A2002A6A32502D6E2E6A2F6A306A1F501B0222
:1024B200F3CF31F0F4CF32F031502726000E28222C
:1024C20029222A2232502D26000E2E222F2230229D
:1024D2001E501C02F3CF31F0F4CF32F031502726D8
:1024E200000E282229222A2232502D26000E2E22C8
:1024F2002F22302229C02AF028C029F027C028F034
:10250200276A1E501B02F3CF31F0F4CF32F0315064
:10251200272632502822000E2922000E2A221F507E
:102522001A02F3CF31F0F4CF32F031502726325075
:102532002822000E2922000E2A2229C02AF028C0B1
:1025420029F027C028F0276A1E501A02F3CF31F073
:10255200F4CF32F03150272632502822000E2922A1
:10256200000E2A2220501B02F3CF31F0F4CF32F0BA
:1025720031502D2632502E22000E2F22000E3022F4
:102582001F501C02F3CF31F0F4CF32F031502D2620
:1025920032502E22000E2F22000E302220501C021A
:1025A200F3CF31F0F4CF32F03150226E3250236E3D
:1025B200246A256A24C025F023C024F022C023F017
:1025C200226A22502D2623502E2224502F222550BB
:1025D200302227C022F028C023F029C024F02AC0CC
:1025E20025F0190EFAEF12F0D89025322432233258
:1025F2002232E82EF5EF12F022502D2623502E2201
:1026020024502F222550302229C02AF028C029F038
:1026120027C028F0276A2B502CC022F0236A2226DA
:10262200000E2322820E2224316EFF0E2320326EF0
:1026320030EF13F0D8902D362E362F3630362AAEA4
:1026420025EF13F027EF13F028EF13F02D80D89029
:102652002736283629362A363106D8A032062FAE3A
:1026620035EF13F037EF13F01BEF13F0000E2B6E64
:102672002AAE3EEF13F040EF13F064EF13F0FF0EBB
:102682002714226EFF0E2814236EFF0E2914246EC7
:102692007F0E2A14256E2250231024102510D8B440
:1026A20055EF13F057EF13F05BEF13F0010E2B6EA3
:1026B20064EF13F02DA060EF13F062EF13F064EFFC
:1026C20013F057EF13F02B50D8B46AEF13F06CEFFE
:1026D20013F090EF13F0010E2D26000E2E222F2262
:1026E200302230A077EF13F079EF13F090EF13F070
:1026F2002DC022F02EC023F02FC024F030C025F0D0
:102702002534253224322332223222C02DF023C036
:102712002EF024C02FF025C030F0314A322A32BECA
:102722009BEF13F0325008E13128D8A09BEF13F051
:102732009DEF13F0A7EF13F0000E2D6E000E2E6E1C
:10274200800E2F6E7F0E306ED5EF13F032BEB4EFD7
:1027520013F0325006E13104D8B0B2EF13F0B4EF07
:1027620013F0C0EF13F0000E2D6E000E2E6E000E51
:102772002F6E000E306E000E266ED5EF13F031C0B4
:102782002CF0FF0E2D16FF0E2E167F0E2F16000EAA
:1027920030162CA0CFEF13F0D1EF13F0D2EF13F0DD
:1027A2002F8ED8902C30306E265030122DC01AF059
:1027B2002EC01BF02FC01CF030C01DF0120056506E
:1027C200800B0001646F565056246B6F55AEECEFD0
:1027D20013F0EEEF13F0EFEF13F06B816B51D8B4FF
:1027E200F5EF13F0F7EF13F00CEF14F06B29D8A408
:1027F200FDEF13F0FFEF13F007EF14F0000E536E2E
:10280200000E546E000E556E000E566E558E000E62
:10281200566E14EF14F0000E536E000E546E000E3E
:10282200556E000E566E5A50800B641B5A505A2435
:102832006C6F59AE1FEF14F021EF14F022EF14F079
:102842006C816C51D8B428EF14F02AEF14F03FEFEA
:1028520014F06C29D8A430EF14F032EF14F03AEFF0
:1028620014F0000E576E000E586E000E596E000ED8
:102872005A6E598E000E5A6E47EF14F0000E576EC4
:10288200000E586E000E596E000E5A6E57505810B8
:1028920059105A10D8A450EF14F052EF14F06AEF06
:1028A20014F0000E536E000E546E000E556E000EA4
:1028B200566E800E55127F0E56126451561253C038
:1028C20053F054C054F055C055F056C056F0ADEF19
:1028D20015F06B51D8A470EF14F072EF14F07CEF86
:1028E20014F0000E536E000E546E000E556E000E64
:1028F200566EADEF15F06C516BC05BF05C6A5B5EBF
:10290200000E5C5A7F0E5B24656F000E5C20666FC2
:1029120053C060F054C061F055C062F056C063F01D
:10292200000E536E000E546E000E556E000E566E63
:10293200000E676F000E686F000E696F000E6A6FFF
:10294200000E6C6FDDEF14F06C51D8B4ABEF14F0E5
:10295200ADEF14F0C4EF14F0D890603761376237EE
:102962006337D89053365436553656366AAFBCEF75
:1029720014F0BEEF14F0BFEF14F05380D890673715
:10298200683769376A375750605D585061595950F6
:1029920062595A506359D8A0D1EF14F0D3EF14F012
:1029A200DCEF14F06A8D5750605F5850615B5950EC
:1029B200625B5A50635B6C2B190E6C65E3EF14F08B
:1029C200E5EF14F0A5EF14F060516111621163118B
:1029D200D8B4EEEF14F0F0EF14F008EF15F06781C1
:1029E20008EF15F0D89053365436553656366AAF3E
:1029F200FDEF14F0FFEF14F000EF15F05380D890C4
:102A02006737683769376A376507D8A0660755AEF2
:102A12000DEF15F00FEF15F0F3EF14F0000E6C6FE1
:102A22006AAF16EF15F018EF15F03CEF15F0FF0E38
:102A320067155B6EFF0E68155C6EFF0E69155D6EA5
:102A42007F0E6A155E6E5B505C105D105E10D8B42E
:102A52002DEF15F02FEF15F033EF15F0010E6C6F1F
:102A62003CEF15F053A038EF15F03AEF15F03CEFBC
:102A720015F02FEF15F06C51D8B442EF15F044EF7A
:102A820015F068EF15F0010E5326000E5422552260
:102A9200562256A04FEF15F051EF15F068EF15F0E2
:102AA20053C05BF054C05CF055C05DF056C05EF0A0
:102AB2005E345E325D325C325B325BC053F05CC0CE
:102AC20054F05DC055F05EC056F0654B662B66BF94
:102AD20073EF15F0665108E16529D8A073EF15F080
:102AE20075EF15F080EF15F0000E666F6569000E48
:102AF200536E000E546E000E556E000E566E66BF7B
:102B02008DEF15F0665106E16505D8B08BEF15F033
:102B12008DEF15F09BEF15F0000E666F000E656FDE
:102B2200000E536E000E546E000E556E000E566E61
:102B3200000E646F65C06BF06BA1A2EF15F0A4EFFD
:102B420015F0A7EF15F0558EA8EF15F0559ED89009
:102B52006B31566E5EEF14F01200E5EC24F00AECD5
:102B620024F097EC24F01BEC25F028EC25F0D3ECB4
:102B720024F0000E026E630E016EB5EC1FF0000E23
:102B82000001F66F010EF76F010EF86FAA0EFB6FD0
:102B92000F0EFC6FA60EFD6F0F0EFE6F000EFA6F8A
:102BA200630EF96F000EED6F010EEE6F010EEF6F07
:102BB200250EF26F0F0EF36F210EF46F0F0EF56FED
:102BC200000EF16F630EF06F86840E01B4958EB421
:102BD200EDEF15F0EFEF15F0E8EF15F0290E00011B
:102BE2007C6F960E7B6F7F0EE82EFED77B2FFCD775
:102BF2007C2FFAD73DEC25F0000E0001E16F000EAC
:102C020065EC24F0B1EF16F0F60E146E000E156EA0
:102C1200ED0E166E000E176ECAEC20F061EF16F084
:102C2200980E1A6E010E1B6E84EC1AF07D0E5B6E0E
:102C3200000E5C6E980E5D6E010E5E6E2AEC24F044
:102C4200A4C14BF0A5C14CF0A6C14DF0A7C14EF0F6
:102C5200000E4F6E000E506EC80E516E420E526E36
:102C62008AEC1BF0D8B038EF16F03AEF16F061EFAD
:102C720016F0E8C04BF0E9C04CF0200E4D6E010E8C
:102C82004E6ED4EC1EF0010E0001E16F010E65ECF8
:102C920024F0A30E00017C6F570E7B6F020EE82E0C
:102CA200FED77B2FFCD77C2FFAD700F0F60E146EDE
:102CB200000E156EED0E166E000E176EDDEC1DF099
:102CC2000001E151D8B468EF16F06AEF16F011EF87
:102CD20016F0980E1A6E010E1B6E84EC1AF0000E9E
:102CE2000001E16F000E65EC24F0980E00016D6F9B
:102CF200010E6E6F29EC07F0980E576E010E586E9A
:102D0200BFEC0AF0980E016E010E026EE8C003F0ED
:102D1200E9C004F0700E056E010E066E7FEC24F021
:102D2200980E5B6E010E5C6EBDEC16F0070E010193
:102D3200AC19AD11D8A4A0EF16F0A2EF16F0ACEFCB
:102D420016F00001E651E711D8B4AAEF16F0ACEF85
:102D520016F0A2EF16F03DEC25F00001E84BE92B4E
:102D62000001E651E711D8B4B9EF16F0BBEF16F047
:102D720005EF16F016EF00F020EE14F05B50D926A6
:102D82005C50DA22DE50DE10D8A4CAEF16F0CCEF87
:102D920016F0D8EF16F0F60E216E000E226EED0E32
:102DA200236E000E246E4AEC21F0A8EF17F020EEFD
:102DB20014F05B50D9265C50DA22DE04DE10D8A46F
:102DC200E5EF16F0E7EF16F0F3EF16F0F60E216ED0
:102DD200000E226EED0E236E000E246E88EC21F0A2
:102DE200A8EF17F020EE14F05B50D9265C50DA22DF
:102DF200020EDE18DE10D8A401EF17F003EF17F071
:102E02000FEF17F0F60E246E000E256EED0E266EF5
:102E1200000E276E5DEC22F0A8EF17F020EE14F002
:102E22005B50D9265C50DA22030EDE18DE10D8A4DD
:102E32001DEF17F01FEF17F02BEF17F0F60E216EB4
:102E4200000E226EED0E236E000E246E35EC1DF088
:102E5200A8EF17F020EE14F05B50D9265C50DA226E
:102E6200040EDE18DE10D8A439EF17F03BEF17F08E
:102E720047EF17F0F60E216E000E226EED0E236E56
:102E8200000E246E89EC1DF0A8EF17F020EE14F06E
:102E92005B50D9265C50DA22050EDE18DE10D8A46B
:102EA20055EF17F057EF17F063EF17F0F60E216E9C
:102EB200000E226EED0E236E000E246E30EC1EF01C
:102EC200A8EF17F020EE14F05B50D9265C50DA22FE
:102ED200060EDE18DE10D8A471EF17F073EF17F0AC
:102EE2007FEF17F0F60E216E000E226EED0E236EAE
:102EF200000E246E82EC1EF0A8EF17F020EE14F004
:102F02005B50D9265C50DA22070EDE18DE10D8A4F8
:102F12008DEF17F08FEF17F0A8EF17F0F60E000104
:102F2200606F000E616FED0E626F000E636FE8C09E
:102F320064F0E9C065F0700E666F010E676F200ED7
:102F4200686F010E696F96EC0FF0A8EF17F0120090
:102F5200146E1450D8B4B0EF17F0B2EF17F0D4EFEC
:102F620017F00FBEB9EF17F0B7EF17F0D4EF17F065
:102F72000CC010F00DC011F00EC012F00FC013F013
:102F8200101E111E121E131E102A000E11221222D2
:102F9200132210C016F011C017F012C018F013C09F
:102FA20019F0DCEF17F00CC016F00DC017F00EC0D0
:102FB20018F00FC019F00C500D100E100F10D8A4FD
:102FC200E5EF17F0E7EF17F0F1EF17F0000E0C6ED8
:102FD200000E0D6E000E0E6E000E0F6E82EF18F0D8
:102FE200960E156EFBEF17F0152AD890193218328B
:102FF20017321632000E1614106E000E1714116ED0
:10300200000E1814126EFE0E1914136E10501110C9
:1030120012101310D8A410EF18F012EF18F0F5EFF9
:1030220017F020EF18F0152A010E1626000E1722AF
:1030320018221922D8901932183217321632000E7D
:103042001614106E000E1714116E000E1814126E64
:10305200FF0E1914136E1050111012101310D8A471
:1030620035EF18F037EF18F014EF18F03FEF18F0C3
:103072001506D890163617361836193618BE44EF8C
:1030820018F046EF18F04EEF18F0020E15604CEFF4
:1030920018F04EEF18F039EF18F015B053EF18F0A2
:1030A20055EF18F056EF18F0189ED890153215C04B
:1030B20010F0116A126A136A10C013F0126A116AD0
:1030C200106A105016121150171212501812135083
:1030D20019121450D8B470EF18F072EF18F07AEF9A
:1030E20018F00FBE79EF18F077EF18F07AEF18F0BA
:1030F200198E16C00CF017C00DF018C00EF019C0D2
:103102000FF0120020EE02F00E50D9260F50DA22F4
:10311200DF50D8B48FEF18F091EF18F0C5EF18F028
:103122000EC0D9FF0FC0DAFFDF50106E1050016ED3
:10313200026A20EE03F00E50D9260F50DA22DECFBB
:1031420003F0DDCF04F0C0EC24F001C007F002C0B0
:1031520008F0000E0A6E640E096EC6EC21F020EE35
:1031620003F00E50D9260F50DA22DF50116E0750AD
:10317200115C126E20EE03F00E50D9260F50DA22A7
:10318200DF50136EE8EF18F0000E126E0EC0D9FF7A
:103192000FC0DAFFDF50106E1050016E026A20EE8F
:1031A20003F00E50D9260F50DA22DECF03F0DDCF26
:1031B20004F0C0EC24F001C007F002C008F0000ED9
:1031C2000A6E640E096EC6EC21F00750136E20EEF3
:1031D20001F00E50D9260F50DA22DF50D8B4F4EFA6
:1031E20018F0F6EF18F018EF19F020EE05F00E5077
:1031F200D9260F50DA22DECF10F0DDCF11F010C049
:10320200D9FF11C0DAFF12C0DFFF20EE07F00E5027
:10321200D9260F50DA22DECF10F0DDCF11F010C028
:10322200D9FF11C0DAFF13C0DFFF38EF19F020EE2B
:1032320005F00E50D9260F50DA22DECF10F0DDCF86
:1032420011F010C0D9FF11C0DAFF13C0DFFF20EE6A
:1032520007F00E50D9260F50DA22DECF10F0DDCF64
:1032620011F010C0D9FF11C0DAFF12C0DFFF120047
:1032720022C0D9FF23C0DAFFDECFF6FFDDCFF7FF92
:103282000800F550250AD8A449EF19F04BEF19F0C0
:10329200D1EF19F022C0D9FF23C0DAFFDE2A000ED7
:1032A200DD22000E0001E36F000EE26FE2C0ECF0DF
:1032B200E469E56922C0D9FF23C0DAFFDECFF6FF59
:1032C200DDCFF7FF0800F550730AD8B46BEF19F0A1
:1032D2006DEF19F088EF19F022C0D9FF23C0DAFF91
:1032E200DECF01F0DDCF02F0480E036E0E0E046E4B
:1032F200000E066E030E056E0CEC1CF0015002105F
:10330200D8A486EF19F088EF19F0C8EF19F022C09F
:10331200D9FF23C0DAFFDECFF6FFDDCFF7FF0800CB
:10332200F550730AD8B498EF19F09AEF19F0A0EF9C
:1033320019F0000E296E030E286EA4EF19F0000E8C
:10334200296E010E286E22C0D9FF23C0DAFF285051
:10335200DE262950DD2220C00AF021C00BF024C055
:10336200D9FF25C0DAFFDFCF26F0020EDE26DFCF3F
:1033720027F0000EDD2226C0D9FF27C0DAFFDECFFC
:103382000CF0DDCF0DF0E6EC19F0E5EF19F022C0FC
:10339200D9FF23C0DAFFDE2A000EDD22E5EF19F0A5
:1033A20022C0D9FF23C0DAFFDECFF6FFDDCFF7FF61
:1033B2000800F550016E026A20C003F021C004F03B
:1033C2007BEC1CF0C8EF19F0120021EEAEF010EE0B
:1033D2000FF0060EDBCFE3FFE806FCE20CC01AF0AA
:1033E2000DC01BF01A501B10D8A4FAEF19F0FCEF15
:1033F20019F000EF1AF00F0E1A6E000E1B6E1AC0B3
:1034020001F01BC002F050EC23F001C01CF002C01E
:103412001DF0E4C01EF0E5C01FF01FBE13EF1AF04E
:1034220015EF1AF02AEF1AF01C501E5C1F50800A8A
:103432000E6E1D50800A0E58D8A022EF1AF024EF0B
:103442001AF026EF1AF02AEF1AF01EC01CF01FC065
:103452001DF01CC01EF01DC01FF0E2C016F0E3C03C
:1034620017F040EF1AF0000E026E200E016E0AC035
:1034720003F00BC004F07BEC1CF01C4A1D2A165012
:103482001C5C1D50800A0E6E1750800A0E58D8A080
:103492004DEF1AF04FEF1AF034EF1AF0000E196EDA
:1034A200000E186E74EF1AF01AC0F6FF1BC0F7FF79
:1034B200000EF86E0D0EF76403D00800F55005D02B
:1034C200F6CFE1FFF7CFE2FFE7500E6E0E50016E2E
:1034D200026A0AC003F00BC004F07BEC1CF01A4A2B
:1034E2001B2A184A192A1E50185C1950800A0E6E9F
:1034F2001F50800A0E58D8A081EF1AF083EF1AF0FD
:1035020055EF1AF01200B0EC22F005C00CF006C024
:103512000DF00E6A0F6A000EA9EC17F00CC01CF039
:103522000DC01DF00EC01EF00FC01FF0D8EC22F02F
:1035320005C00CF006C00DF00E6A0F6A000EA9EC71
:1035420017F00CC020F00DC021F00EC022F00FC009
:1035520023F028EC23F005C00CF006C00DF00E6A33
:103562000F6A000EA9EC17F00CC024F00DC025F074
:103572000EC026F00FC027F000EC23F005C00CF0BF
:1035820006C00DF00E6A0F6A000EA9EC17F00CC00F
:1035920028F00DC029F00EC02AF00FC02BF01AC07F
:1035A200D9FF1BC0DAFF1CC0DEFF1DC0DEFF1EC03C
:1035B200DEFF1FC0DEFF20EE08F01A50D9261B5096
:1035C200DA2224C0DEFF25C0DEFF26C0DEFF27C0D0
:1035D200DEFF20EE04F01A50D9261B50DA2220C05A
:1035E200DEFF21C0DEFF22C0DEFF23C0DEFF20EEB1
:1035F2000CF01A50D9261B50DA2228C0DEFF29C04F
:10360200DEFF2AC0DEFF2BC0DEFF120003340434CB
:103612000A6E0A50D8A410EF1BF012EF1BF01CEF39
:103622001BF0000E016E000E026E000E036E000E05
:10363200046E89EF1BF001C005F002C006F003C062
:1036420007F004C008F0200E2CEF1BF0D8900832CF
:10365200073206320532E82E27EF1BF00550096EBD
:10366200038EFF0E0116FF0E0216FF0E0316000E4A
:103672000416960E0A5E0ABE43EF1BF041EF1BF0E2
:1036820059EF1BF00A50800A970FD8B04BEF1BF08E
:103692004DEF1BF04FEF1BF012EF1BF0D8900432EE
:1036A2000332023201320A3E4FEF1BF071EF1BF080
:1036B2001F0E0A645FEF1BF061EF1BF069EF1BF056
:1036C20012EF1BF0D89001360236033604360A0692
:1036D2000A50D8A46FEF1BF071EF1BF063EF1BF0E1
:1036E2000950D8B477EF1BF079EF1BF081EF1BF094
:1036F200041E031E021E016C000E0222032204227B
:1037020001C001F002C002F003C003F004C004F0E3
:103712001200000E4B14536E000E4C14546E800EA9
:103722004D14556E7F0E4E14566E53505410551054
:103732005610D8A49FEF1BF0A1EF1BF0A9EF1BF0CE
:10374200000E4B6E000E4C6E000E4D6E000E4E6E55
:10375200000E4F14536E000E5014546E800E51140E
:10376200556E7F0E5214566E53505410551056100B
:10377200D8A4BEEF1BF0C0EF1BF0C8EF1BF0000E89
:103782004F6E000E506E000E516E000E526E4EAE17
:10379200CDEF1BF0CFEF1BF0D8EF1BF04B6C4C1EA4
:1037A200D8B04C2A4D1ED8B04D2A800E4E5652AE7D
:1037B200DDEF1BF0DFEF1BF0E8EF1BF04F6C501E4C
:1037C200D8B0502A511ED8B0512A800E5256000E3F
:1037D2004B1A000E4C1A000E4D1A800E4E1A000E95
:1037E2004F1A000E501A000E511A800E521A4F50E4
:1037F2004B5C50504C5851504D5852504E58D8B0C6
:1038020005EF1CF007EF1CF00AEF1CF0D8900BEF4D
:103812001CF0D880120001C008F002C009F003C0F9
:103822000AF004C00BF00506D8A00606052806E13A
:103832000628D8A41FEF1CF021EF1CF02EEF1CF07D
:10384200000E026E000E016E7AEF1CF0084A092A81
:103852000A4A0B2A0506D8A0060608C0F6FF09C0C8
:10386200F7FF0800F5500009D8B43AEF1CF03CEF1E
:103872001CF068EF1CF00AC0F6FF0BC0F7FF08004F
:10388200F5500009D8B448EF1CF04AEF1CF068EF7D
:103892001CF005500610D8B451EF1CF053EF1CF089
:1038A20068EF1CF008C0F6FF09C0F7FF0800F5CF6B
:1038B20007F00AC0F6FF0BC0F7FF0800F550071823
:1038C200D8B466EF1CF068EF1CF027EF1CF008C0BC
:1038D200F6FF09C0F7FF0800F5CF07F00AC0F6FFB0
:1038E2000BC0F7FF0800F550075C016E026AD8A012
:1038F2000206120003500410D8B482EF1CF084EFC9
:103902001CF08DEF1CF003500410D8A48BEF1CF0B8
:103912008DEF1CF092EF1CF0015042EC25F0DFEF2E
:103922001CF020EE09F00350D9260450DA22DE50B2
:10393200DE10D8B49FEF1CF0A1EF1CF0BCEF1CF01E
:1039420020EE09F00350D9260450DA2210EE03F0DB
:103952000350E1260450E222DE50E65CE650800A83
:10396200096EDE50800A0958D8B0BAEF1CF0BCEFDD
:103972001CF0DFEF1CF020EE03F00350D9260450B8
:10398200DA22DECF05F0DDCF06F003C0D9FF04C096
:10399200DAFFDECF07F0DDCF08F005500724D96E3D
:1039A20006500820DA6E01C0DFFF20EE03F003505C
:1039B200D9260450DA22DE2A000EDD221200000E81
:1039C2000114096E000E02140A6E800E03140B6EAF
:1039D2007F0E04140C6E09500A100B100C10D8A4A0
:1039E200F5EF1CF0F7EF1CF0FFEF1CF0000E016E7C
:1039F200000E026E000E036E000E046E000E051421
:103A0200096E000E06140A6E800E07140B6E7F0EEE
:103A120008140C6E09500A100B100C10D8A414EFE5
:103A22001DF016EF1DF01EEF1DF0000E056E000ECC
:103A3200066E000E076E000E086E055001180FE1AB
:103A4200065002180CE10750031809E10850041847
:103A5200D8B42EEF1DF030EF1DF033EF1DF0D890EB
:103A620034EF1DF0D88012000001FF51D8B43CEFB2
:103A72001DF03EEF1DF074EF1DF021C01BF022C0BF
:103A82001CF023C01DF024C01EF087EC20F021C0E2
:103A920014F022C015F023C016F024C017F00AEC6F
:103AA20021F0390E266ED20E256E4C0EE82EFED770
:103AB200252EFCD7262EFAD700D021C01AF022C01C
:103AC2001BF023C01CF024C01DF0FDEC1FF021C030
:103AD2001AF022C01BF023C01CF024C01DF0FDEC24
:103AE2001FF088EF1DF021C01AF022C01BF023C086
:103AF2001CF024C01DF042EC20F021C01AF022C0BC
:103B02001BF023C01CF024C01DF042EC20F0120078
:103B12000001FF51D8B490EF1DF092EF1DF0C8EFF5
:103B22001DF021C01BF022C01CF023C01DF024C0D8
:103B32001EF087EC20F021C014F022C015F023C043
:103B420016F024C017F00AEC21F0390E266ED20EC0
:103B5200256E4C0EE82EFED7252EFCD7262EFAD740
:103B620000D021C01AF022C01BF023C01CF024C0D8
:103B72001DF042EC20F021C01AF022C01BF023C03D
:103B82001CF024C01DF042EC20F0DCEF1DF021C03F
:103B92001AF022C01BF023C01CF024C01DF0FDEC63
:103BA2001FF021C01AF022C01BF023C01CF024C059
:103BB2001DF0FDEC1FF012007C8816EF1EF014C001
:103BC200D9FF15C0DAFFDF50D8B4EAEF1DF0ECEFF1
:103BD2001DF0F1EF1DF014C0D9FF15C0DAFFDF06AA
:103BE20016C0D9FF17C0DAFFDF50D8B4FBEF1DF0C3
:103BF200FDEF1DF002EF1EF016C0D9FF17C0DAFF6D
:103C0200DF0614C00EF015C00FF083EC18F016C0DA
:103C12000EF017C00FF083EC18F0090E186E4E0E5E
:103C2200E82EFED7182EFCD700D014C0D9FF15C03D
:103C3200DAFFDF50D8B420EF1EF022EF1EF02EEF95
:103C42001EF016C0D9FF17C0DAFFDF50D8A42CEF40
:103C52001EF02EEF1EF0E0EF1DF07C981200000126
:103C6200FF51D8B437EF1EF039EF1EF063EF1EF0AC
:103C720021C01BF022C01CF023C01DF024C01EF086
:103C820087EC20F021C01AF022C01BF023C01CF0E8
:103C920024C01DF0FDEC1FF021C01AF022C01BF061
:103CA20023C01CF024C01DF0FDEC1FF021C01AF04F
:103CB20022C01BF023C01CF024C01DF0FDEC1FF03D
:103CC20081EF1EF021C01AF022C01BF023C01CF0AD
:103CD20024C01DF042EC20F021C01AF022C01BF0DB
:103CE20023C01CF024C01DF042EC20F021C01AF0C9
:103CF20022C01BF023C01CF024C01DF042EC20F0B7
:103D020012000001FF51D8B489EF1EF08BEF1EF0B4
:103D1200B5EF1EF021C01BF022C01CF023C01DF025
:103D220024C01EF087EC20F021C01AF022C01BF044
:103D320023C01CF024C01DF042EC20F021C01AF078
:103D420022C01BF023C01CF024C01DF042EC20F066
:103D520021C01AF022C01BF023C01CF024C01DF0A9
:103D620042EC20F0D3EF1EF021C01AF022C01BF06B
:103D720023C01CF024C01DF0FDEC1FF021C01AF07E
:103D820022C01BF023C01CF024C01DF0FDEC1FF06C
:103D920021C01AF022C01BF023C01CF024C01DF069
:103DA200FDEC1FF01200000E3F6E000E406EAF0ED3
:103DB200416EC30E426E00EC22F033C03BF034C0C1
:103DC2003CF035C03DF036C03EF036EC0DF03BC065
:103DD2004FF03CC050F03DC051F03EC052F04FC0D9
:103DE2003BF050C03CF051C03DF052C03EF0000EDE
:103DF2003F6E800E406E220E416EC40E426E36EC55
:103E02000DF03BC053F03CC054F03DC055F03EC0F5
:103E120056F0D8904B34D96E4C34DA6ED890D936ED
:103E2200DA364D50D9264E50DA2253C0DEFF54C046
:103E3200DEFF55C0DEFF56C0DEFF120020EE01F0AD
:103E42001450D9261550DA22010EDF6E20EE01F051
:103E52001650D9261750DA22000EDF6E14C00EF06B
:103E620015C00FF083EC18F016C00EF017C00FF05B
:103E720083EC18F0000E196E000E186E14C0D9FFF4
:103E820015C0DAFFDF2A16C0D9FF17C0DAFFDF2A12
:103E920014C00EF015C00FF083EC18F016C00EF02F
:103EA20017C00FF083EC18F0E40E00D000D0E82E1B
:103EB200FCD700D000D0184A192A195009E1320E55
:103EC200185CD8A067EF1FF069EF1FF03FEF1FF0FB
:103ED200120020EE01F01450D9261550DA22000EFD
:103EE200DF6E20EE01F01650D9261750DA22010EAD
:103EF200DF6E14C00EF015C00FF083EC18F016C080
:103F02000EF017C00FF083EC18F0000E196E000EC1
:103F1200186E14C0D9FF15C0DAFFDF2A16C0D9FF08
:103F220017C0DAFFDF2A14C00EF015C00FF083ECC1
:103F320018F016C00EF017C00FF083EC18F0E40E64
:103F420000D000D0E82EFCD700D000D0184A192AA1
:103F5200195009E1320E185CD8A0B2EF1FF0B4EF8D
:103F62001FF08AEF1FF012008594839E8598879C2C
:103F72007D947B9E7D987F9C050E0E01746F060ECC
:103F8200766F070E696F080E886FBD508F0B400960
:103F9200BD6EE00EBE16BF50F00B0109BF6E01C030
:103FA200BCFFBD8E000EAA6E000EA66E000E0F01A3
:103FB200256F000E216FFC0EAD16F30EAD16CF0E5F
:103FC200AD163F0EAD16AB88AB50F00B0C09AB6EC5
:103FD200AB8EA788A750F00B0C09A76EA78E268977
:103FE2002651F00B0C09266F268F22892251F00BE5
:103FF2000C09226F228F120080801AC014F01BC09D
:1040020015F01CC016F01DC017F0DDEC1DF0050EFA
:104012001F6E0F0E1E6EF10EE82EFED71E2EFCD75F
:104022001F2EFAD700F01AC014F01BC015F01CC0E6
:1040320016F01DC017F01FEC1FF00D0E1F6E950E2F
:104042001E6EBD0EE82EFED71E2EFCD71F2EFAD7EF
:1040520000F01AC014F01BC015F01CC016F01DC0F1
:1040620017F0DDEC1DF0050E1F6E0F0E1E6EF10E29
:10407200E82EFED71E2EFCD71F2EFAD700F0809016
:1040820012007E801AC014F01BC015F01CC016F07E
:104092001DC017F0DDEC1DF0050E1F6E0F0E1E6E1B
:1040A200F10EE82EFED71E2EFCD71F2EFAD700F0F7
:1040B2001AC014F01BC015F01CC016F01DC017F07A
:1040C2006AEC1FF00C0E1F6EDA0E1E6EBA0EE82E90
:1040D200FED71E2EFCD71F2EFAD700D01AC014F01E
:1040E2001BC015F01CC016F01DC017F0DDEC1DF052
:1040F200050E1F6E0F0E1E6EF10EE82EFED71E2E3F
:10410200FCD71F2EFAD700F07E9012001BC014F0CD
:104112001CC015F01DC016F01EC017F0DDEC1DF01E
:10412200090E206E1E0E1F6EE40EE82EFED71F2E05
:10413200FCD7202EFAD700D01BC014F01CC015F0FB
:104142001DC016F01EC017F00AEC21F01D0E206EE5
:10415200690E1F6EA50EE82EFED71F2EFCD7202E4D
:10416200FAD700F01BC014F01CC015F01DC016F0E9
:104172001EC017F0DDEC1DF0090E206E1E0E1F6E24
:10418200E40EE82EFED71F2EFCD7202EFAD700D041
:10419200120020EE01F01450D9261550DA22010E39
:1041A200DF6E20EE01F01650D9261750DA22010EEA
:1041B200DF6E000E1A6E000E196E14C0D9FF15C004
:1041C200DAFFDF2A16C0D9FF17C0DAFFDF2A14C0D0
:1041D2000EF015C00FF083EC18F016C00EF017C0E9
:1041E2000FF083EC18F0090E186E4E0EE82EFED773
:1041F200182EFCD700D0194A1A2A1A5009E1320E99
:10420200195CD8A007EF21F009EF21F0DEEF20F0D2
:10421200120020EE01F01450D9261550DA22000EB9
:10422200DF6E20EE01F01650D9261750DA22000E6A
:10423200DF6E000E1A6E000E196E14C0D9FF15C083
:10424200DAFFDF2A16C0D9FF17C0DAFFDF2A14C04F
:104252000EF015C00FF083EC18F016C00EF017C068
:104262000FF083EC18F0090E186E4E0EE82EFED7F2
:10427200182EFCD700D0194A1A2A1A5009E1320E18
:10428200195CD8A047EF21F049EF21F01EEF21F091
:1042920012000001FF51D8B451EF21F053EF21F089
:1042A20073EF21F021C01BF022C01CF023C01DF0CF
:1042B20024C01EF087EC20F021C01AF022C01BF0AF
:1042C20023C01CF024C01DF0FDEC1FF021C01AF029
:1042D20022C01BF023C01CF024C01DF0FDEC1FF017
:1042E20087EF21F021C01AF022C01BF023C01CF07E
:1042F20024C01DF042EC20F021C01AF022C01BF0B5
:1043020023C01CF024C01DF042EC20F0120000017A
:10431200FF51D8B48FEF21F091EF21F0B1EF21F0EE
:1043220021C01BF022C01CF023C01DF024C01EF0CF
:1043320087EC20F021C01AF022C01BF023C01CF031
:1043420024C01DF042EC20F021C01AF022C01BF064
:1043520023C01CF024C01DF042EC20F0C5EF21F078
:1043620021C01AF022C01BF023C01CF024C01DF093
:10437200FDEC1FF021C01AF022C01BF023C01CF07C
:1043820024C01DF0FDEC1FF01200000E0C6E000E9A
:104392000B6E09500A10D8B4D1EF21F0D3EF21F0FF
:1043A200FBEF21F0010E0D6EDBEF21F0D890093604
:1043B2000A360D2A0AAEE0EF21F0E2EF21F0D7EF44
:1043C20021F0D8900B360C360950075C0A50085879
:1043D200D8A0EEEF21F0F0EF21F0F5EF21F0095037
:1043E200075E0A50085A0B80D8900A3209320D2E05
:1043F200E2EF21F00BC007F00CC008F01200D3CF9F
:1044020039F03A6AD450386E376A37503912385018
:104412003A1239C00CF03AC00DF0000E0DBEFF0E7C
:104422000E6E0F6E010EA9EC17F00CC01AF00DC043
:104432001BF00EC01CF00FC01DF0BD0E1E6E370E1D
:104442001F6E860E206E3F0E216ECBEC11F01AC04D
:1044520033F01BC034F01CC035F01DC036F0120022
:10446200240EF66E4A0EF76E000EF86E01EEAEF0F6
:1044720010EE11F00900F5CFEEFFE550E150FAE140
:10448200860EF66E4A0EF76E000EF86E0900F5CF34
:10449200FFF001EE00F0AE0EEE6AE806FDE100EE7E
:1044A200E2F01D0EEE6AE806FDE15F905F92000EFB
:1044B200F86E0001AEEF15F00001FF51D8B464EFC1
:1044C20022F066EF22F07CEF22F024C01BF025C020
:1044D2001CF026C01DF027C01EF087EC20F024C07F
:1044E20020F025C021F026C022F027C023F087EC5F
:1044F20022F086EF22F024C020F025C021F026C051
:1045020022F027C023F087EC22F0120020C01AF01C
:1045120021C01BF022C01CF023C01DF042EC20F091
:1045220020C01AF021C01BF022C01CF023C01DF0D5
:1045320042EC20F020C01AF021C01BF022C01CF077
:1045420023C01DF042EC20F020C01AF021C01BF065
:1045520022C01CF023C01DF042EC20F0120038EC07
:1045620025F0520E22EC25F0B60E22EC25F02EECB0
:1045720025F0530E22EC25F0010EE9EC23F0076E34
:1045820007500A6E0B6A000EE9EC23F0076E075023
:10459200096E086A0A5008100A6E0B5009100B6E59
:1045A20033EC25F00AC005F00BC006F0120038EC1F
:1045B20025F0520E22EC25F0B80E22EC25F02EEC5E
:1045C20025F0530E22EC25F0010EE9EC23F0076EE4
:1045D20007500A6E0B6A000EE9EC23F0076E0750D3
:1045E200096E086A0A5008100A6E0B5009100B6E09
:1045F20033EC25F00AC005F00BC006F0120038ECCF
:1046020025F0520E22EC25F0B40E22EC25F02EEC11
:1046120025F0530E22EC25F0010EE9EC23F0076E93
:1046220007500A6E0B6A000EE9EC23F0076E075082
:10463200096E086A0A5008100A6E0B5009100B6EB8
:1046420033EC25F00AC005F00BC006F0120038EC7E
:1046520025F0520E22EC25F0BA0E22EC25F02EECBB
:1046620025F0530E22EC25F0010EE9EC23F0076E43
:1046720007500A6E0B6A000EE9EC23F0076E075032
:10468200096E086A0A5008100A6E0B5009100B6E68
:1046920033EC25F00AC005F00BC006F0120001C091
:1046A20003F002C004F058EF23F0014A022A01C0CD
:1046B200F6FF02C0F7FF000EF86E0D0EF76403D08E
:1046C2000800F55005D0F6CFE1FFF7CFE2FFE75043
:1046D2000009D8A46FEF23F071EF23F056EF23F017
:1046E2000350015C016E04500258026E1200360E35
:1046F200386E000E396E32C03AF033C03BF0000E15
:104702003E6E000E3D6E000E446E000E436E3A0E7B
:104712002A6E000E2B6E34C02CF035C02DF0380EF0
:104722002E6E000E2F6E9FEC23F03D503224D96E78
:104732003E503320DA6E000EDF6E12002CC030F0D5
:104742002DC031F0B3EF23F02AC020F02BC021F0AE
:10475200300E226E000E236E2EC024F02FC025F0E4
:1047620039EC19F030C0F6FF31C0F7FF0800F55000
:104772000009D8A4BFEF23F0C1EF23F0A5EF23F087
:10478200000E2B6E000E2A6E1200000E4F1A000E43
:10479200501A000E511A800E521A4BC03BF04CC0F8
:1047A2003CF04DC03DF04EC03EF04FC03FF050C017
:1047B20040F051C041F052C042F036EC0DF03BC027
:1047C2004BF03CC04CF03DC04DF03EC04EF01200EC
:1047D200036EACEC24F00E01DA87ACEC24F0D5CEFB
:1047E20004F0ACEC24F00350D8B4FAEF23F0FEEF5F
:1047F20023F0026A022AFFEF23F0026A023A02461B
:104802000E01DA510218DF0B0218DA6FDA8904504E
:10481200120097EC24F0010E036E000EF6EC24F069
:104822003F0E056E550EE82EFED7052EFCD700F082
:10483200030E036E000EF6EC24F0D60E036E010E8C
:10484200F6EC24F07F928792799881987E9E869EDC
:1048520012005DC057F05EC058F0BFEC0AF057C0BE
:1048620060F058C061F05BC032F05CC033F0010E02
:10487200346E0E0E356E60C036F061C037F078ECE3
:1048820023F05BC002F05CC003F049EC24F012009C
:1048920058EF24F002C0D9FF03C0DAFFDF5006EC64
:1048A20025F0024A032A6A0EE82EFED700D002C083
:1048B200D9FF03C0DAFFDF50D8A462EF24F064EF1F
:1048C20024F04BEF24F01200016E0150D8B46CEFCB
:1048D20024F06EEF24F073EF24F07F8279887E8ECD
:1048E2007EEF24F00150D8A479EF24F07BEF24F07E
:1048F2007EEF24F07F9279987E9E120020EE14F0D3
:104902000150D9260250DA22DECF07F0DDCF08F0BF
:10491200D8900334D96E0434DA6E0550D926065085
:10492200DA2207C0DEFF08C0DDFF12000E01D951F6
:10493200F00B0809D96FD98B9F0ED66F848A848CAD
:10494200A79BA79D1D0E1D6F1E0E1C6F1C0E6F6F69
:104952001B0E706F12000E01D8B5B2EF24F0B4EF47
:1049620024F0ACEF24F0DACE01F01F0E0116D8A429
:10497200BDEF24F0BFEF24F0ACEF24F012000150A1
:104982000302F3CF05F0F4CF06F001500402F35016
:10499200062602500302F350062605C001F006C0A7
:1049A20002F01200D6501F0B4009D66ED688D650A0
:1049B200F00B0D09D66ED5880E01298B000ED46E30
:1049C200000ED36ED58E120083888382120E0E01E2
:1049D200626F110E156FE997E895330EE56F000EC1
:1049E200E66FE789E88BE78F1200046E38EC25F05A
:1049F200520E22EC25F00450800922EC25F00350DF
:104A020022EC25F033EC25F01200016E0E0137A5E1
:104A12000DEF25F00FEF25F007EF25F001C0E4FEC2
:104A22001200286E756C6C29008A025E01BC029B22
:034A3200009200EF
:104A36008498889086907C9880907E901200026E72
:104A4600ACEC24F002C0D5FE12000E012D87F28ACE
:104A5600F28CF28E1200ACEC24F00E01DA83120016
:104A6600ACEC24F00E01DA851200ACEC24F00E0159
:104A7600DA811200000ED36E000ED46E1200120000
:014A8600012E
:020000040020DA
:10000000FF0FFF0FFF0FFF0FFF0FFF0FFF0FFF0F80
:020000040030CA
:0C000000AAFFFFFF9FFFFFFFFFFFFFFFB5
:00000001FF
