:040000003DEF09F0D7
:100E0000005265643A20256420477265656E3A2079
:100E1000256420426C75653A20256420436C656129
:090E2000723A202564200D000047
:100E2A0020EE02F03850D9263950DA22DF50D8B4F1
:100E3A0021EF07F023EF07F057EF07F038C0D9FF8B
:100E4A0039C0DAFFDF503A6E3A502B6E2C6A20EE28
:100E5A0003F03850D9263950DA22DECF2DF0DDCF13
:100E6A002EF0D9EC09F02BC031F02CC032F0000E74
:100E7A00346E640E336E03EC09F020EE03F0385042
:100E8A00D9263950DA22DF503B6E31503B5C3C6E3A
:100E9A0020EE03F03850D9263950DA22DF503D6E61
:100EAA007AEF07F0000E3C6E38C0D9FF39C0DAFF7E
:100EBA00DF503A6E3A502B6E2C6A20EE03F038500F
:100ECA00D9263950DA22DECF2DF0DDCF2EF0D9EC3B
:100EDA0009F02BC031F02CC032F0000E346E640ED3
:100EEA00336E03EC09F031503D6E20EE01F03850BC
:100EFA00D9263950DA22DF50D8B486EF07F088EFC6
:100F0A0007F0AAEF07F020EE05F03850D92639503D
:100F1A00DA22DECF3AF0DDCF3BF03AC0D9FF3BC050
:100F2A00DAFF3CC0DFFF20EE07F03850D9263950EF
:100F3A00DA22DECF3AF0DDCF3BF03AC0D9FF3BC030
:100F4A00DAFF3DC0DFFFCAEF07F020EE05F03850A8
:100F5A00D9263950DA22DECF3AF0DDCF3BF03AC05B
:100F6A00D9FF3BC0DAFF3DC0DFFF20EE07F0385063
:100F7A00D9263950DA22DECF3AF0DDCF3BF03AC03B
:100F8A00D9FF3BC0DAFF3CC0DFFF1200ECEC09F0EE
:100F9A0081EC09F09BEC09F0000E2C6E630E2B6EAF
:100FAA00BBEC08F0000E226E010E236E010E246EB9
:100FBA00AA0E276E0F0E286EA60E296E0F0E2A6E27
:100FCA00000E266E630E256E000E196E010E1A6E45
:100FDA00010E1B6E250E1E6E0F0E1F6E210E206E49
:100FEA000F0E216E000E1D6E630E1C6E220E4A6ECF
:100FFA00000E4B6E190E4C6E000E4D6EB0EC09F0E1
:10100A00520E516E2B0E506E000EE82EFED7502E49
:10101A00FCD7512EFAD700D0220E3E6E000E3F6E3C
:10102A00190E406E000E416E1FEC08F0FBEF07F040
:10103A0000EF00F057EF08F03EC0D9FF3FC0DAFFDB
:10104A00DF50D8B42BEF08F02DEF08F032EF08F09C
:10105A003EC0D9FF3FC0DAFFDF0640C0D9FF41C01A
:10106A00DAFFDF50D8B43CEF08F03EEF08F043EF68
:10107A0008F040C0D9FF41C0DAFFDF063EC038F0B1
:10108A003FC039F015EC07F040C038F041C039F0E4
:10109A0015EC07F0090E426E4E0EE82EFED7422ED0
:1010AA00FCD700D03EC0D9FF3FC0DAFFDF50D8B42A
:1010BA0061EF08F063EF08F06FEF08F040C0D9FF66
:1010CA0041C0DAFFDF50D8A46DEF08F06FEF08F0E7
:1010DA0021EF08F0120020EE01F03E50D9263F50D1
:1010EA00DA22010EDF6E20EE01F04050D92641507F
:1010FA00DA22000EDF6E3EC038F03FC039F015EC40
:10110A0007F040C038F041C039F015EC07F0000E86
:10111A00436E000E426E3EC0D9FF3FC0DAFFDF2A9F
:10112A0040C0D9FF41C0DAFFDF2A3EC038F03FC0D5
:10113A0039F015EC07F040C038F041C039F015EC31
:10114A0007F0E40E00D000D0E82EFCD700D000D083
:10115A00424A432A435009E1320E425CD8A0B8EF12
:10116A0008F0BAEF08F090EF08F012008594839E19
:10117A008598879C7D947B9E7D987F9C050E0E01A9
:10118A00746F060E766F070E696F080E886FBD5072
:10119A008F0B4009BD6EE00EBE16BF50F00B010961
:1011AA00BF6E2BC0BCFFBD8E000EAA6E000EA66ECF
:1011BA00000E0F01256F000E216FFC0EAD16F30E07
:1011CA00AD16CF0EAD163F0EAD16AB88AB50F00B79
:1011DA000C09AB6EAB8EA788A750F00B0C09A76E53
:1011EA00A78E26892651F00B0C09266F268F228995
:1011FA002251F00B0C09226F228F1200000E366E5C
:10120A00000E356E33503410D8B40EEF09F010EFDB
:10121A0009F038EF09F0010E376E18EF09F0D8908F
:10122A0033363436372A34AE1DEF09F01FEF09F092
:10123A0014EF09F0D890353636363350315C3450D5
:10124A003258D8A02BEF09F02DEF09F032EF09F050
:10125A003350315E3450325A3580D890343233327A
:10126A00372E1FEF09F035C031F036C032F01200C8
:10127A003A0EF66E140EF76E000EF86E00EE52F08D
:10128A0010EE08F00900F5CFEEFFE550E150FAE163
:10129A0000EE60F03C0EEE6AE806FDE100EE01F0B9
:1012AA002A0EEE6AE806FDE1000EF86E0E0EF76EE3
:1012BA000001CBEF07F044C03EF045C03FF046C006
:1012CA0040F047C041F070EC08F0090E496E1E0E5E
:1012DA00486EE40EE82EFED7482EFCD7492EFAD7E0
:1012EA0000D044C03EF045C03FF046C040F047C081
:1012FA0041F01FEC08F012009BEC09F0010E2D6E74
:10130A00000EFDEC09F03F0E2F6E550EE82EFED7AB
:10131A002F2EFCD700F0030E2D6E000EFDEC09F007
:10132A00D50E2D6E010EFDEC09F012000E01D951F9
:10133A00F00B0809D96FD98B9F0ED66F848A848CDB
:10134A00A79BA79D1D0E1D6F1E0E1C6F1C0E6F6F97
:10135A001B0E706F1200BEEF09F04AC044F04BC07A
:10136A0045F04CC046F04DC047F060EC09F04E4ADB
:10137A004F2A000E4F6E050E4E6EB2EF09F01200A4
:10138A000E01D8B5CBEF09F0CDEF09F0C5EF09F0A2
:10139A00DACE2BF01F0E2B16D8A4D6EF09F0D8EF11
:1013AA0009F0C5EF09F012002B502D02F3CF2FF0F0
:1013BA00F4CF30F02B502E02F35030262C502D0251
:1013CA00F35030262FC02BF030C02CF01200838847
:1013DA008382120E0E01626F110E156FE997E8955E
:1013EA00330EE56F000EE66FE789E88BE78F120090
:1013FA002E6E18EC0AF0520E0DEC0AF02E508009EF
:10140A000DEC0AF02D500DEC0AF013EC0AF0120064
:10141A002C6EC5EC09F02CC0D5FE1200C5EC09F003
:10142A000E01DA851200C5EC09F00E01DA8112000C
:08143A00E803640064000101F5
:020000040020DA
:10000000FF0FFF0FFF0FFF0FFF0FFF0FFF0FFF0F80
:020000040030CA
:0C000000AAFFFFFF9FFFFFFFFFFFFFFFB5
:00000001FF
