:0400000016EF00F007
:100008005F820E0133AB0BEF00F00DEF00F014EF41
:1000180000F0000E0001656F010E646F0E01339B46
:080028005F921100D0EF21F0FE
:100E0000002052656420256620477265656E2C259A
:100E10006620426C75652C256620636C65617220C6
:100E2000256620487565202566200D004C69676899
:100E30007420426C7565004461726B20426C75656C
:100E4000004F72616E67650059656C6C6F77005773
:100E50006869746500477265656E0050696E6B0065
:050E6000526564000072
:100E6600CFC0D9FFD0C0DAFFDECF01F0DECF02F06F
:100E7600DECF03F0DECF04F0000120EE04F0CF5108
:100E8600D926D051DA22DECF05F0DECF06F0DECF4E
:100E960007F0DECF08F06FEC1BF0D8A055EF07F097
:100EA60057EF07F08CEF07F0CFC0D9FFD0C0DAFFBD
:100EB600DECF01F0DECF02F0DECF03F0DECF04F0AE
:100EC600000120EE08F0CF51D926D051DA22DECF2C
:100ED60005F0DECF06F0DECF07F0DECF08F06FECD0
:100EE6001BF0D8A079EF07F07BEF07F08CEF07F047
:100EF600000120EE10F0CF51D926D051DA22000E93
:100F0600DE6E000EDE6E000EDE6E000EDD6EC8EFCB
:100F16000AF0000E0001DC6F000EDB6FCFC0D9FFB8
:100F2600D0C0DAFFDECF4BF0DECF4CF0DECF4DF097
:100F3600DECF4EF020EE04F0CF51D926D051DA2282
:100F4600DECF4FF0DECF50F0DECF51F0DECF52F0E5
:100F5600EDEC1AF0D8B0B2EF07F0B4EF07F0ECEF13
:100F660007F0CFC0D9FFD0C0DAFFDECF4BF0DECF1F
:100F76004CF0DECF4DF0DECF4EF0000120EE08F053
:100F8600CF51D926D051DA22DECF4FF0DECF50F046
:100F9600DECF51F0DECF52F0EDEC1AF0D8B0D6EF3E
:100FA60007F0D8EF07F0ECEF07F0CFC0D9FFD0C0BD
:100FB600DAFFDECF01F0DECF02F0DECF03F0DECFC8
:100FC60004F06AEC1AF001C0DBF002C0DCF062EF5C
:100FD60008F0000120EE04F0CF51D926D051DA22D4
:100FE600DECF4BF0DECF4CF0DECF4DF0DECF4EF055
:100FF600CFC0D9FFD0C0DAFFDECF4FF0DECF50F042
:10100600DECF51F0DECF52F0EDEC1AF0D8B00EEF95
:1010160008F010EF08F04DEF08F0000120EE04F0A4
:10102600CF51D926D051DA22DECF4BF0DECF4CF0AD
:10103600DECF4DF0DECF4EF020EE08F0CF51D926B0
:10104600D051DA22DECF4FF0DECF50F0DECF51F0B6
:10105600DECF52F0EDEC1AF0D8B034EF08F036EFF0
:1010660008F04DEF08F0000120EE04F0CF51D9262C
:10107600D051DA22DECF01F0DECF02F0DECF03F070
:10108600DECF04F06AEC1AF001C0DBF002C0DCF03F
:1010960062EF08F0000120EE08F0CF51D926D051BA
:1010A600DA22DECF01F0DECF02F0DECF03F0DECFB4
:1010B60004F06AEC1AF001C0DBF002C0DCF00001BB
:1010C60020EE04F0CF51D926D051DA22DECF4BF0F4
:1010D600DECF4CF0DECF4DF0DECF4EF0CFC0D9FFE5
:1010E600D0C0DAFFDECF4FF0DECF50F0DECF51F0CA
:1010F600DECF52F0EDEC1AF0D8B084EF08F086EFB0
:1011060008F023EF09F0000120EE08F0CF51D926B0
:10111600D051DA22DECF4BF0DECF4CF0DECF4DF0F1
:10112600DECF4EF0CFC0D9FFD0C0DAFFDECF4FF012
:10113600DECF50F0DECF51F0DECF52F0EDEC1AF0FC
:10114600D8B0A8EF08F0AAEF08F023EF09F0CFC057
:10115600D9FFD0C0DAFFDECF01F0DECF02F0DECF5E
:1011660003F0DECF04F06AEC1AF001C0D9F002C039
:10117600DAF00001DB51D95DD16FDC51DA59D26F5B
:10118600D1C00CF0D2C00DF0000E0DBEFF0E0E6EDB
:101196000F6E010EDAEC18F00CC057F00DC058F0C7
:1011A6000EC059F00FC05AF0000120EE08F0CF51E2
:1011B600D926D051DA22DECF4FF0DECF50F0DECF87
:1011C60051F0DECF52F020EE04F0CF51D926D051A7
:1011D600DA22DECF4BF0DECF4CF0DECF4DF0DECFA5
:1011E6004EF0F5EC21F04BC053F04CC054F04DC01E
:1011F60055F04EC056F012EC14F053C01AF054C01D
:101206001BF055C01CF056C01DF0000E1E6E000EE1
:101216001F6E700E206E420E216EFDEC11F0000165
:1012260020EE10F0CF51D926D051DA221AC0DEFFB7
:101236001BC0DEFF1CC0DEFF1DC0DEFF93EF0AF001
:10124600CFC0D9FFD0C0DAFFDECF4BF0DECF4CF0F7
:10125600DECF4DF0DECF4EF0000120EE04F0CF5190
:10126600D926D051DA22DECF4FF0DECF50F0DECFD6
:1012760051F0DECF52F0EDEC1AF0D8B045EF09F0A0
:1012860047EF09F001EF0AF0000120EE08F0CF5118
:10129600D926D051DA22DECF4BF0DECF4CF0DECFAE
:1012A6004DF0DECF4EF020EE04F0CF51D926D051CE
:1012B600DA22DECF4FF0DECF50F0DECF51F0DECFB8
:1012C60052F0EDEC1AF0D8B06BEF09F06DEF09F0C3
:1012D60001EF0AF0000120EE04F0CF51D926D051DB
:1012E600DA22DECF01F0DECF02F0DECF03F0DECF72
:1012F60004F06AEC1AF001C0D9F002C0DAF000017D
:10130600DB51D95DD16FDC51DA59D26FD1C00CF007
:10131600D2C00DF0000E0DBEFF0E0E6E0F6E010E4A
:10132600DAEC18F00CC057F00DC058F00EC059F0AA
:101336000FC05AF0CFC0D9FFD0C0DAFFDECF4FF0D2
:10134600DECF50F0DECF51F0DECF52F0000120EEBE
:1013560008F0CF51D926D051DA22DECF4BF0DECFBE
:101366004CF0DECF4DF0DECF4EF0F5EC21F04BC069
:1013760053F04CC054F04DC055F04EC056F012EC30
:1013860014F053C0D5F054C0D6F055C0D7F056C0AF
:10139600D8F0000E3F6E000E406E000E416E400EFD
:1013A600426ED5C03BF0D6C03CF0D7C03DF0D8C0A9
:1013B6003EF04AEC0DF03BC01AF03CC01BF03DC0BD
:1013C6001CF03EC01DF0000E1E6E000E1F6E700E4D
:1013D600206E420E216EFDEC11F0000120EE10F0A1
:1013E600CF51D926D051DA221AC0DEFF1BC0DEFF4C
:1013F6001CC0DEFF1DC0DEFF93EF0AF0000120EEE9
:1014060008F0CF51D926D051DA22DECF01F0DECF57
:1014160002F0DECF03F0DECF04F06AEC1AF001C072
:10142600D9F002C0DAF00001DB51D95DD16FDC5191
:10143600DA59D26FD1C00CF0D2C00DF0000E0DBE3D
:10144600FF0E0E6E0F6E010EDAEC18F00CC057F0A0
:101456000DC058F00EC059F00FC05AF0000120EE32
:1014660004F0CF51D926D051DA22DECF4FF0DECFAD
:1014760050F0DECF51F0DECF52F0CFC0D9FFD0C052
:10148600DAFFDECF4BF0DECF4CF0DECF4DF0DECF15
:101496004EF0F5EC21F04BC053F04CC054F04DC06B
:1014A60055F04EC056F012EC14F053C0D5F054C0AF
:1014B600D6F055C0D7F056C0D8F0000E3F6E000EDD
:1014C600406E800E416E400E426ED5C03BF0D6C0D7
:1014D6003CF0D7C03DF0D8C03EF04AEC0DF03BC022
:1014E6001AF03CC01BF03DC01CF03EC01DF0000EC3
:1014F6001E6E000E1F6E700E206E420E216EFDECEB
:1015060011F0000120EE10F0CF51D926D051DA2289
:101516001AC0DEFF1BC0DEFF1CC0DEFF1DC0DEFFE3
:1015260020EE10F0CF51D926D051DA22030EDBBEC1
:10153600A1EF0AF09FEF0AF0C8EF0AF020EE10F0D4
:10154600CF51D926D051DA22DECF3BF0DECF3CF0A8
:10155600DECF3DF0DECF3EF0000E3F6E000E406E59
:10156600B40E416E430E426E4AEC0DF0000120EEC1
:1015760010F0CF51D926D051DA223BC0DEFF3CC055
:10158600DEFF3DC0DEFF3EC0DEFF12002B0E5B6EAF
:101596000E0E5C6E000E4B6E000E4C6E000E4D6E07
:1015A600000E4E6E20EE10F05750D9265850DA2213
:1015B600DECF4FF0DECF50F0DECF51F0DECF52F06F
:1015C600EDEC1AF0D8B0EAEF0AF0ECEF0AF059EFBA
:1015D6000BF020EE10F05750D9265850DA22DECF05
:1015E6004BF0DECF4CF0DECF4DF0DECF4EF0000EEE
:1015F6004F6E000E506E400E516E400E526EEDEC68
:101606001AF0D8A009EF0BF00BEF0BF02AEF0BF056
:10161600000E4B6E000E4C6EB00E4D6E430E4E6EAF
:1016260020EE10F05750D9265850DA22DECF4FF070
:10163600DECF50F0DECF51F0DECF52F0EDEC1AF0F7
:10164600D8B028EF0BF02AEF0BF059EF0BF0000E95
:101656004B6E000E4C6EB40E4D6E430E4E6E20EE6B
:1016660010F05750D9265850DA22DECF4FF0DECF91
:1016760050F0DECF51F0DECF52F0EDEC1AF0D8A0EC
:1016860047EF0BF049EF0BF059EF0BF0600E5B6E76
:101696000E0E5C6E20EE14F05750D9265850DA2202
:1016A600000EDE6E000EDD6E45EF0DF0000E4B6E89
:1016B600000E4C6E600E4D6E410E4E6E20EE10F01A
:1016C6005750D9265850DA22DECF4FF0DECF50F0F1
:1016D600DECF51F0DECF52F0EDEC1AF0D8B076EF57
:1016E6000BF078EF0BF0A7EF0BF020EE10F0575051
:1016F600D9265850DA22DECF4BF0DECF4CF0DECFC3
:101706004DF0DECF4EF0000E4F6E000E506E900E76
:10171600516E410E526EEDEC1AF0D8B095EF0BF00B
:1017260097EF0BF0A7EF0BF05B0E5B6E0E0E5C6E89
:1017360020EE14F05750D9265850DA22040EDE6EE9
:10174600000EDD6E45EF0DF0000E4B6E000E4C6E7A
:10175600AA0E4D6E420E4E6E20EE10F05750D92650
:101766005850DA22DECF4FF0DECF50F0DECF51F008
:10177600DECF52F0EDEC1AF0D8B0C4EF0BF0C6EFA6
:101786000BF0F5EF0BF020EE10F05750D92658501D
:10179600DA22DECF4BF0DECF4CF0DECF4DF0DECFDF
:1017A6004EF0000E4F6E000E506E020E516E430E3E
:1017B600526EEDEC1AF0D8B0E3EF0BF0E5EF0BF05C
:1017C600F5EF0BF0370E5B6E0E0E5C6E20EE14F02E
:1017D6005750D9265850DA22020EDE6E000EDD6E04
:1017E60045EF0DF0000E4B6E000E4C6EC00E4D6EAA
:1017F600400E4E6E20EE10F05750D9265850DA2281
:10180600DECF4FF0DECF50F0DECF51F0DECF52F01C
:10181600EDEC1AF0D8B012EF0CF014EF0CF043EF29
:101826000CF020EE10F05750D9265850DA22DECFB1
:101836004BF0DECF4CF0DECF4DF0DECF4EF0000E9B
:101846004F6E000E506E400E516E410E526EEDEC14
:101856001AF0D8B031EF0CF033EF0CF043EF0CF088
:10186600410E5B6E0E0E5C6E20EE14F05750D926BC
:101876005850DA22050EDE6E000EDD6E45EF0DF0D5
:10188600000E4B6E000E4C6E820E4D6E420E4E6E6C
:1018960020EE10F05750D9265850DA22DECF4FF0FE
:1018A600DECF50F0DECF51F0DECF52F0EDEC1AF085
:1018B600D8B060EF0CF062EF0CF0C0EF0CF020EE49
:1018C60010F05750D9265850DA22DECF4BF0DECF33
:1018D6004CF0DECF4DF0DECF4EF0000E4F6E000E18
:1018E600506EA00E516E420E526EEDEC1AF0D8B04C
:1018F6007FEF0CF081EF0CF0C0EF0CF0AE0E4B6EEC
:10190600470E4C6E610E4D6E3E0E4E6E20EE08F08A
:101916005950D9265A50DA22DECF4FF0DECF50F09A
:10192600DECF51F0DECF52F0EDEC1AF0D8B09EEFDC
:101936000CF0A0EF0CF0B0EF0CF02C0E5B6E0E0E60
:101946005C6E20EE14F05750D9265850DA22060E57
:10195600DE6E000EDD6E45EF0DF0550E5B6E0E0E63
:101966005C6E20EE14F05750D9265850DA22010E3C
:10197600DE6E000EDD6E45EF0DF0000E4B6E000EB6
:101986004C6E900E4D6E410E4E6E20EE10F057507E
:10199600D9265850DA22DECF4FF0DECF50F0DECF18
:1019A60051F0DECF52F0EDEC1AF0D8B0DDEF0CF0CE
:1019B600DFEF0CF03BEF0DF020EE10F05750D9267C
:1019C6005850DA22DECF4BF0DECF4CF0DECF4DF0B2
:1019D600DECF4EF0000E4F6E000E506ED80E516EDA
:1019E600410E526EEDEC1AF0D8B0FCEF0CF0FEEFA3
:1019F6000CF03BEF0DF05C0E4B6E8F0E4C6E020E34
:101A06004D6E3F0E4E6E59C0D9FF5AC0DAFFDECF7B
:101A16004FF0DECF50F0DECF51F0DECF52F0EDECDE
:101A26001AF0D8B019EF0DF01BEF0DF02BEF0DF0FB
:101A3600480E5B6E0E0E5C6E20EE14F05750D926E3
:101A46005850DA22030EDE6E000EDD6E45EF0DF005
:101A56004F0E5B6E0E0E5C6E20EE14F05750D926BC
:101A66005850DA22070EDE6E000EDD6E45EF0DF0E1
:101A760020EE14F05750D9265850DA22080EDE6EA2
:101A8600000EDD6E5BC057F05CC058F012003E5091
:101A9600800B476E3E503E24496E3DAE55EF0DF02D
:101AA60057EF0DF058EF0DF049804950D8B45EEF6E
:101AB6000DF060EF0DF075EF0DF04928D8A466EF34
:101AC6000DF068EF0DF070EF0DF0000E3B6E000E9E
:101AD6003C6E000E3D6E000E3E6E3D8E000E3E6E5E
:101AE6007DEF0DF0000E3B6E000E3C6E000E3D6E5F
:101AF600000E3E6E4250800B486E47504818D8B4D0
:101B060087EF0DF089EF0DF08AEF0DF0478C42500C
:101B16004224486E41AE92EF0DF094EF0DF095EF32
:101B26000DF048804850D8B49BEF0DF09DEF0DF0B6
:101B3600B2EF0DF04828D8A4A3EF0DF0A5EF0DF0F5
:101B4600ADEF0DF0000E3F6E000E406E000E416EC2
:101B5600000E426E418E000E426EBAEF0DF0000E80
:101B66003F6E000E406E000E416E000E426E4950F2
:101B7600485CD8B0C1EF0DF0C3EF0DF0EAEF0DF001
:101B860047ACC8EF0DF0CAEF0DF0CCEF0DF0800EAC
:101B9600471A49C04AF048C049F04AC048F03BC01D
:101BA6004AF03FC03BF04AC03FF03CC04AF040C05C
:101BB6003CF04AC040F03DC04AF041C03DF04AC04A
:101BC60041F03EC04AF042C03EF04AC042F0000E2C
:101BD6004A6E495048C043F0446A435E000E445A78
:101BE60044BEFFEF0DF0445009E11A0E435CD8A045
:101BF600FFEF0DF001EF0EF038EF0EF03B503C100A
:101C06003D103E10D8A40AEF0EF00DEF0EF0010EB7
:101C16000EEF0EF0000E4A6E000E3B6E000E3C6E8E
:101C2600000E3D6E000E3E6E48C049F041EF0EF0CC
:101C36004AA020EF0EF022EF0EF028EF0EF0D8901B
:101C46004A3001094A6E2AEF0EF0D8904A323BA07C
:101C56002FEF0EF031EF0EF032EF0EF04A8E3E34DB
:101C66003E323D323C323B32492A4850495CD8A08C
:101C76003FEF0EF041EF0EF01BEF0EF047BC46EFC4
:101C86000EF048EF0EF088EF0EF04950D8A44EEF54
:101C96000EF050EF0EF05AEF0EF0000E3B6E000EF7
:101CA6003C6E000E3D6E000E3E6EA9EF0FF03F50EB
:101CB6003B2640503C2241503D2242503E223EA00F
:101CC60067EF0EF069EF0EF015EF0FF04AA06EEF1A
:101CD6000EF070EF0EF076EF0EF0D8904A30010954
:101CE6004A6E78EF0EF0D8904A323BA07DEF0EF0A8
:101CF6007FEF0EF080EF0EF04A8E3E343E323D32DC
:101D06003C323B32492A15EF0FF03F503B5C4050C6
:101D16003C5841503D583E50800A436E4250800A1E
:101D26004358D8B099EF0EF09BEF0EF0C6EF0EF0C9
:101D36003B503F5C436E3C504058446E3D504158CA
:101D4600456E3E504258466EFF0E43243B6EFF0ED4
:101D560044203C6EFF0E45203D6EFF0E46203E6E33
:101D6600800E471A4A6C4A50D8A4BCEF0EF0BEEF5C
:101D76000EF0CEEF0EF0010E3B26000E3C223D2269
:101D86003E22CEEF0EF03F503B5E40503C5A415053
:101D96003D5A42503E5A3B503C103D103E10D8A48E
:101DA600D7EF0EF0D9EF0EF00EEF0FF04A50D8A491
:101DB600DFEF0EF0E1EF0EF00EEF0FF0000E3B6ED0
:101DC600000E3C6E000E3D6E000E3E6EA9EF0FF04B
:101DD600D8903B363C363D363E364AAEF5EF0EF0F1
:101DE600F7EF0EF0F8EF0EF03B804AA0FDEF0EF095
:101DF600FFEF0EF003EF0FF0D8804A3605EF0FF035
:101E0600D8904A364950D8B40BEF0FF00DEF0FF0CB
:101E16000EEF0FF049063DAE13EF0FF015EF0FF082
:101E2600EBEF0EF0000E486E4AAE1CEF0FF01EEF01
:101E36000FF036EF0FF04AC043F07F0E4316D8B4CA
:101E460027EF0FF029EF0FF02DEF0FF0010E486E80
:101E560036EF0FF03BA032EF0FF034EF0FF036EF16
:101E66000FF029EF0FF04850D8B43CEF0FF03EEFDB
:101E76000FF069EF0FF0010E3B26000E3C223D22CB
:101E86003E223EA049EF0FF04BEF0FF069EF0FF047
:101E96003BC043F03CC044F03DC045F03EC046F078
:101EA6004634463245324432433243C03BF044C0A6
:101EB6003CF045C03DF046C03EF04928D8B466EF38
:101EC6000FF068EF0FF069EF0FF0492A4928D8B4F0
:101ED6006FEF0FF071EF0FF079EF0FF04950D8A4C4
:101EE60077EF0FF079EF0FF08BEF0FF0000E3B6EF0
:101EF600000E3C6E000E3D6E000E3E6E4950D8A49C
:101F060087EF0FF089EF0FF08BEF0FF0000E476EA3
:101F160049A090EF0FF092EF0FF095EF0FF03D8E86
:101F260096EF0FF03D9ED89049303E6E47AE9EEF3D
:101F36000FF0A0EF0FF0A1EF0FF03E8E3BC03BF08D
:101F46003CC03CF03DC03DF03EC03EF012007C88F7
:101F5600DBEF11F0C2C01BF0C3C01CF0C4C01DF003
:101F6600C5C01EF0CBEC1EF0C2C020F0C3C021F0ED
:101F7600C4C022F0C5C023F007EC21F0290E586E2C
:101F8600960E576E7F0EE82EFED7572EFCD7582E8C
:101F9600FAD700F0000E0001F86F000E616F010E17
:101FA600606FC6C0D0F0C7C0D1F0D1BFDFEF0FF071
:101FB600DDEF0FF0E1EF0FF0DBEF11F07C88110E93
:101FC600586E3C0E576ECB0EE82EFED7572EFCD71A
:101FD600582EFAD700F0D8900001D035D96ED135F9
:101FE600DA6EC851D926C951DA22DE50DE10D8A4DD
:101FF600FFEF0FF001EF10F00DEF10F0C2C021F06F
:10200600C3C022F0C4C023F0C5C024F08EEC1FF07C
:10201600F9EF10F0D890D035D96ED135DA6EC851B7
:10202600D926C951DA22DE04DE10D8A41DEF10F03D
:102036001FEF10F02BEF10F0C2C021F0C3C022F04A
:10204600C4C023F0C5C024F0CCEC1FF0F9EF10F0AB
:10205600D890D035D96ED135DA6EC851D926C95146
:10206600DA22020EDE18DE10D8A43CEF10F03EEFA6
:1020760010F04AEF10F0C2C024F0C3C025F0C4C06F
:1020860026F0C5C027F0DDEC20F0F9EF10F0D8906F
:10209600D035D96ED135DA6EC851D926C951DA2272
:1020A600030EDE18DE10D8A45BEF10F05DEF10F023
:1020B60073EF10F0C2C021F0C3C022F0C4C023F0F9
:1020C600C5C024F0C4EC1BF0C2C01BF0C3C01CF09A
:1020D600C4C01DF0C5C01EF044EC20F0F9EF10F0AE
:1020E600D890D035D96ED135DA6EC851D926C951B6
:1020F600DA22040EDE18DE10D8A484EF10F086EF84
:1021060010F09CEF10F0C2C021F0C3C022F0C4C092
:1021160023F0C5C024F018EC1CF0C2C01BF0C3C0ED
:102126001CF0C4C01DF0C5C01EF044EC20F0F9EF51
:1021360010F0D890D035D96ED135DA6EC851D9267F
:10214600C951DA22050EDE18DE10D8A4ADEF10F064
:10215600AFEF10F0BBEF10F0C2C021F0C3C022F009
:10216600C4C023F0C5C024F0BFEC1CF0F9EF10F09A
:10217600D890D035D96ED135DA6EC851D926C95125
:10218600DA22060EDE18DE10D8A4CCEF10F0CEEF61
:1021960010F0DAEF10F0C2C021F0C3C022F0C4C0C4
:1021A60023F0C5C024F011EC1DF0F9EF10F0D89023
:1021B600D035D96ED135DA6EC851D926C951DA2251
:1021C600070EDE18DE10D8A4EBEF10F0EDEF10F0DE
:1021D600F9EF10F0C2C014F0C3C015F0C4C016F079
:1021E600C5C017F06CEC1CF0F9EF10F0C2C01BF084
:1021F600C3C01CF0C4C01DF0C5C01EF044EC20F0E6
:102206007C88000E0001CC6F000ECD6F000ECE6FE5
:10221600000ECF6F22EC23F0C2C014F0C3C015F03D
:10222600C4C016F0C5C017F00EEC1FF0D890000120
:10223600D035D96ED135DA6ED890D936DA36CA515C
:10224600D926CB51DA22030EDBBE2EEF11F02CEF8E
:1022560011F074EF11F03AEF11F0ACEC20F033C04E
:10226600CCF034C0CDF035C0CEF036C0CFF0CCC007
:102276004BF0CDC04CF0CEC04DF0CFC04EF0000EAE
:102286003F6E000E406E160E416E430E426ED890A3
:102296000001D035D96ED135DA6ED890D936DA3616
:1022A600CA51D926CB51DA22DECF3BF0DECF3CF045
:1022B600DECF3DF0DECF3EF04AEC0DF03BC04FF0F6
:1022C6003CC050F03DC051F03EC052F0EDEC1AF06B
:1022D600D8A070EF11F072EF11F030EF11F0CBEFE4
:1022E60011F0000E4B6E000E4C6E000E4D6E000E81
:1022F6004E6ED890D035D96ED135DA6ED890D936A3
:10230600DA36CA51D926CB51DA22DECF4FF0DECFEC
:1023160050F0DECF51F0DECF52F0EDEC1AF0D8B02F
:1023260097EF11F099EF11F0CBEF11F0A5EF11F047
:10233600ACEC20F033C0CCF034C0CDF035C0CEF0DC
:1023460036C0CFF0CCC04BF0CDC04CF0CEC04DF077
:10235600CFC04EF0D8900001D035D96ED135DA6EA7
:10236600D890D936DA36CA51D926CB51DA22DECF01
:102376004FF0DECF50F0DECF51F0DECF52F0EDEC75
:102386001AF0D8A0C9EF11F0CBEF11F09BEF11F0C6
:10239600C2C014F0C3C015F0C4C016F0C5C017F013
:1023A6006CEC1CF00001D007D8A0D107D8EF0FF0D5
:1023B600000160516111D8B4E3EF11F0E5EF11F0BF
:1023C600ADEF0FF0C2C014F0C3C015F0C4C016F0D4
:1023D600C5C017F06CEC1CF0520E586E2B0E576EE3
:1023E600000EE82EFED7572EFCD7582EFAD700D06F
:1023F6007C9812001D50800B266E1D501D242C6EDD
:102406001CAE08EF12F00AEF12F00BEF12F02C8060
:102416002C50D8B411EF12F013EF12F026EF12F091
:102426002C28D8A419EF12F01BEF12F023EF12F0AC
:10243600000E1A6E000E1B6E000E1C6E000E1D6E38
:102446001C8E2EEF12F0000E1A6E000E1B6E000E82
:102456001C6E000E1D6E2150800B261A2150212461
:102466002B6E20AE39EF12F03BEF12F03CEF12F07C
:102476002B802B50D8B442EF12F044EF12F057EFF6
:1024860012F02B28D8A44AEF12F04CEF12F054EFBA
:1024960012F0000E1E6E000E1F6E000E206E000E55
:1024A600216E208E5FEF12F0000E1E6E000E1F6E64
:1024B600000E206E000E216E2B50D8B465EF12F080
:1024C60067EF12F06FEF12F02C50D8A46DEF12F0F8
:1024D6006FEF12F079EF12F0000E1A6E000E1B6EFF
:1024E600000E1C6E000E1D6E11EF14F020501A0225
:1024F600F3CF31F0F4CF32F03150276E286A296AD3
:102506002A6A32502D6E2E6A2F6A306A1F501B02BD
:10251600F3CF31F0F4CF32F031502726000E2822C7
:1025260029222A2232502D26000E2E222F22302238
:102536001E501C02F3CF31F0F4CF32F03150272673
:10254600000E282229222A2232502D26000E2E2263
:102556002F22302229C02AF028C029F027C028F0CF
:10256600276A1E501B02F3CF31F0F4CF32F0315000
:10257600272632502822000E2922000E2A221F501A
:102586001A02F3CF31F0F4CF32F031502726325011
:102596002822000E2922000E2A2229C02AF028C04D
:1025A60029F027C028F0276A1E501A02F3CF31F00F
:1025B600F4CF32F03150272632502822000E29223D
:1025C600000E2A2220501B02F3CF31F0F4CF32F056
:1025D60031502D2632502E22000E2F22000E302290
:1025E6001F501C02F3CF31F0F4CF32F031502D26BC
:1025F60032502E22000E2F22000E302220501C02B6
:10260600F3CF31F0F4CF32F03150226E3250236ED8
:10261600246A256A24C025F023C024F022C023F0B2
:10262600226A22502D2623502E2224502F22255056
:10263600302227C022F028C023F029C024F02AC067
:1026460025F0190E2CEF13F0D890253224322332C0
:102656002232E82E27EF13F022502D2623502E2269
:1026660024502F222550302229C02AF028C029F0D4
:1026760027C028F0276A2B502CC022F0236A222676
:10268600000E2322820E2224316EFF0E2320326E8C
:1026960062EF13F0D8902D362E362F3630362AAE0E
:1026A60057EF13F059EF13F05AEF13F02D80D8902F
:1026B6002736283629362A363106D8A032062FAED6
:1026C60067EF13F069EF13F04DEF13F0000E2B6E6A
:1026D6002AAE70EF13F072EF13F096EF13F0FF0EC1
:1026E6002714226EFF0E2814236EFF0E2914246E63
:1026F6007F0E2A14256E2250231024102510D8B4DC
:1027060087EF13F089EF13F08DEF13F0010E2B6EA8
:1027160096EF13F02DA092EF13F094EF13F096EFCF
:1027260013F089EF13F02B50D8B49CEF13F09EEF03
:1027360013F0C2EF13F0010E2D26000E2E222F22CB
:10274600302230A0A9EF13F0ABEF13F0C2EF13F075
:102756002DC022F02EC023F02FC024F030C025F06B
:102766002534253224322332223222C02DF023C0D2
:102776002EF024C02FF025C030F0314A322A32BE66
:10278600CDEF13F0325008E13128D8A0CDEF13F089
:10279600CFEF13F0D9EF13F0000E2D6E000E2E6E54
:1027A600800E2F6E7F0E306E07EF14F032BEE6EF0E
:1027B60013F0325006E13104D8B0E4EF13F0E6EF3F
:1027C60013F0F2EF13F0000E2D6E000E2E6E000EBB
:1027D6002F6E000E306E000E266E07EF14F031C01D
:1027E6002CF0FF0E2D16FF0E2E167F0E2F16000E46
:1027F60030162CA001EF14F003EF14F004EF14F0E0
:102806002F8ED8902C30306E265030122DC01AF0F4
:102816002EC01BF02FC01CF030C01DF01200565009
:10282600800B0001C66F56505624CD6F55AE1EEF75
:1028360014F020EF14F021EF14F0CD81CD51D8B46F
:1028460027EF14F029EF14F03EEF14F0CD29D8A4A9
:102856002FEF14F031EF14F039EF14F0000E536E31
:10286600000E546E000E556E000E566E558E000EFE
:10287600566E46EF14F0000E536E000E546E000EA8
:10288600556E000E566E5A50800BC61B5A505A246F
:10289600CE6F59AE51EF14F053EF14F054EF14F01D
:1028A600CE81CE51D8B45AEF14F05CEF14F071EF2C
:1028B60014F0CE29D8A462EF14F064EF14F06CEF94
:1028C60014F0000E576E000E586E000E596E000E74
:1028D6005A6E598E000E5A6E79EF14F0000E576E2E
:1028E600000E586E000E596E000E5A6E5750581054
:1028F60059105A10D8A482EF14F084EF14F09CEF0C
:1029060014F0000E536E000E546E000E556E000E3F
:10291600566E800E55127F0E5612C651561253C071
:1029260053F054C054F055C055F056C056F0DFEF82
:1029360015F0CD51D8A4A2EF14F0A4EF14F0AEEF29
:1029460014F0000E536E000E546E000E556E000EFF
:10295600566EDFEF15F0CE51CDC05BF05C6A5B5E64
:10296600000E5C5A7F0E5B24C76F000E5C20C86F9A
:1029760053C0C2F054C0C3F055C0C4F056C0C5F031
:10298600000E536E000E546E000E556E000E566EFF
:10299600000EC96F000ECA6F000ECB6F000ECC6F13
:1029A600000ECE6F0FEF15F0CE51D8B4DDEF14F058
:1029B600DFEF14F0F6EF14F0D890C237C337C43700
:1029C600C537D8905336543655365636CCAFEEEF1B
:1029D60014F0F0EF14F0F1EF14F05380D890C937EB
:1029E600CA37CB37CC375750C25D5850C3595950A8
:1029F600C4595A50C559D8A003EF15F005EF15F084
:102A06000EEF15F0CC8D5750C25F5850C35B59502E
:102A1600C45B5A50C55BCE2B190ECE6515EF15F06B
:102A260017EF15F0D7EF14F0C251C311C411C51139
:102A3600D8B420EF15F022EF15F03AEF15F0C98162
:102A46003AEF15F0D8905336543655365636CCAF45
:102A56002FEF15F031EF15F032EF15F05380D890C7
:102A6600C937CA37CB37CC37C707D8A0C80755AE42
:102A76003FEF15F041EF15F025EF15F0000ECE6F84
:102A8600CCAF48EF15F04AEF15F06EEF15F0FF0EDC
:102A9600C9155B6EFF0ECA155C6EFF0ECB155D6E1B
:102AA6007F0ECC155E6E5B505C105D105E10D8B468
:102AB6005FEF15F061EF15F065EF15F0010ECE6FC3
:102AC6006EEF15F053A06AEF15F06CEF15F06EEF90
:102AD60015F061EF15F0CE51D8B474EF15F076EF1E
:102AE60015F09AEF15F0010E5326000E54225522CA
:102AF600562256A081EF15F083EF15F09AEF15F0E8
:102B060053C05BF054C05CF055C05DF056C05EF03B
:102B16005E345E325D325C325B325BC053F05CC069
:102B260054F05DC055F05EC056F0C74BC82BC8BF09
:102B3600A5EF15F0C85108E1C729D8A0A5EF15F0F3
:102B4600A7EF15F0B2EF15F0000EC86FC769000EBB
:102B5600536E000E546E000E556E000E566EC8BFB4
:102B6600BFEF15F0C85106E1C705D8B0BDEF15F0A7
:102B7600BFEF15F0CDEF15F0000EC86F000EC76F52
:102B8600000E536E000E546E000E556E000E566EFD
:102B9600000EC66FC7C0CDF0CDA1D4EF15F0D6EFAD
:102BA60015F0D9EF15F0558EDAEF15F0559ED89041
:102BB600CD31566E90EF14F0120030EC21F005C0C6
:102BC6000CF006C00DF00E6A0F6A000EDAEC18F073
:102BD6000CC0DBF00DC0DCF00EC0DDF00FC0DEF087
:102BE60058EC21F005C00CF006C00DF00E6A0F6A15
:102BF600000EDAEC18F00CC0DFF00DC0E0F00EC0ED
:102C0600E1F00FC0E2F0A8EC21F005C00CF006C020
:102C16000DF00E6A0F6A000EDAEC18F00CC0E3F045
:102C26000DC0E4F00EC0E5F00FC0E6F080EC21F038
:102C360005C00CF006C00DF00E6A0F6A000EDAEC45
:102C460018F00CC0D3F00DC0D4F00EC0D5F00FC0F4
:102C5600D6F0DFC03FF0E0C040F0E1C041F0E2C096
:102C660042F0DBC03BF0DCC03CF0DDC03DF0DEC036
:102C76003EF04AEC0DF03BC0D7F03CC0D8F03DC06A
:102C8600D9F03EC0DAF0D7C03BF0D8C03CF0D9C08E
:102C96003DF0DAC03EF0E3C03FF0E4C040F0E5C0EE
:102CA60041F0E6C042F04AEC0DF03BC0E7F03CC014
:102CB600E8F03DC0E9F03EC0EAF0CFC0D9FFD0C091
:102CC600DAFFDBC0DEFFDCC0DEFFDDC0DEFFDEC01C
:102CD600DEFF000120EE08F0CF51D926D051DA22CE
:102CE600E3C0DEFFE4C0DEFFE5C0DEFFE6C0DEFFD8
:102CF60020EE04F0CF51D926D051DA22DFC0DEFF14
:102D0600E0C0DEFFE1C0DEFFE2C0DEFF20EE0CF039
:102D1600CF51D926D051DA22D3C0DEFFD4C0DEFF90
:102D2600D5C0DEFFD6C0DEFFDBC053F0DCC054F0FA
:102D3600DDC055F0DEC056F0E7C057F0E8C058F0E9
:102D4600E9C059F0EAC05AF012EC14F0D1C0D9FF2C
:102D5600D2C0DAFF53C0DEFF54C0DEFF55C0DEFF2F
:102D660056C0DEFFE3C053F0E4C054F0E5C055F0B2
:102D7600E6C056F0E7C057F0E8C058F0E9C059F091
:102D8600EAC05AF012EC14F0000120EE08F0D1511E
:102D9600D926D251DA2253C0DEFF54C0DEFF55C019
:102DA600DEFF56C0DEFFDFC053F0E0C054F0E1C0E6
:102DB60055F0E2C056F0E7C057F0E8C058F0E9C059
:102DC60059F0EAC05AF012EC14F0000120EE04F0BB
:102DD600D151D926D251DA2253C0DEFF54C0DEFFCC
:102DE60055C0DEFF56C0DEFF1200D9EC22F039ECEA
:102DF60022F08BEC22F0FAEC22F007EC23F0C7EC81
:102E060022F0000E026E630E016EF9EC1DF0000E4C
:102E16000001B96F010EBA6F010EBB6FAA0EBE6F2D
:102E26000F0EBF6FA60EC06F0F0EC16F000EBD6FE7
:102E3600630EBC6F000EB06F010EB16F010EB26F64
:102E4600250EB56F0F0EB66F210EB76F0F0EB86F4A
:102E5600000EB46F630EB36F86840E01B4958EB404
:102E660037EF17F039EF17F032EF17F0290E0001A0
:102E7600EC6F960EEB6F7F0EE82EFED7EB2FFCD78E
:102E8600EC2FFAD722EC23F0000E0001ED6F010EB5
:102E960059EC22F0F4EF17F0B90E146E000E156E11
:102EA600B00E166E000E176E0EEC1FF0A1EF17F0A7
:102EB6008E0ECF6F000ED06FA40ED16F000ED26FA4
:102EC600E0EC15F0000E4B6E000E4C6E960E4D6E3D
:102ED600430E4E6E9AC04FF09BC050F09CC051F00E
:102EE6009DC052F0EDEC1AF0D8B07CEF17F07EEFF3
:102EF60017F0A1EF17F062C04BF063C04CF0000E64
:102F06004D6E010E4E6E7BEC20F0010E0001ED6F52
:102F1600290E0001EC6F960EEB6F7F0EE82EFED7A2
:102F2600EB2FFCD7EC2FFAD7B90E146E000E156EE8
:102F3600B00E166E000E176E6CEC1CF00001ED5113
:102F4600D8B4A8EF17F0AAEF17F05BEF17F08E0EC4
:102F5600CF6F000ED06FA40ED16F000ED26FE0ECD3
:102F660015F0000E0001ED6F8E0ECF6F000ED06FC4
:102F760033EC07F08E0E576E000E586EA40E596E87
:102F8600000E5A6EC9EC0AF08E0E016E000E026E2D
:102F960062C003F063C004F0660E056E000E066E96
:102FA60073EC22F08E0E5B6E000E5C6E00EC18F079
:102FB600070E0001A219A311D8A4E4EF17F0E6EF5B
:102FC60017F0EFEF17F060516111D8B4EDEF17F07D
:102FD600EFEF17F0E6EF17F022EC23F00001624B5B
:102FE600632B000160516111D8B4FCEF17F0FEEFBE
:102FF60017F04FEF17F016EF00F020EE14F05B50CD
:10300600D9265C50DA22DE50DE10D8A40DEF18F077
:103016000FEF18F01BEF18F0B90E216E000E226E9E
:10302600B00E236E000E246E8EEC1FF0D9EF18F052
:1030360020EE14F05B50D9265C50DA22DE04DE1056
:10304600D8A428EF18F02AEF18F036EF18F0B90ECA
:10305600216E000E226EB00E236E000E246ECCEC96
:103066001FF0D9EF18F020EE14F05B50D9265C5013
:10307600DA22020EDE18DE10D8A444EF18F046EF6E
:1030860018F052EF18F0B90E246E000E256EB00E31
:10309600266E000E276EDDEC20F0D9EF18F020EE3C
:1030A60014F05B50D9265C50DA22030EDE18DE10CF
:1030B600D8A460EF18F062EF18F06EEF18F0B90EB2
:1030C600216E000E226EB00E236E000E246EC4EC2E
:1030D6001BF0D9EF18F020EE14F05B50D9265C50A7
:1030E600DA22040EDE18DE10D8A47CEF18F07EEF8C
:1030F60018F08AEF18F0B90E216E000E226EB00E8F
:10310600236E000E246E18EC1CF0D9EF18F020EE9A
:1031160014F05B50D9265C50DA22050EDE18DE105C
:10312600D8A498EF18F09AEF18F0A6EF18F0B90E99
:10313600216E000E226EB00E236E000E246EBFECC2
:103146001CF0D9EF18F020EE14F05B50D9265C5035
:10315600DA22060EDE18DE10D8A4B4EF18F0B6EFA9
:1031660018F0C2EF18F0B90E216E000E226EB00EE6
:10317600236E000E246E11EC1DF0D9EF18F0B90E77
:103186000001C26F000EC36FB00EC46F000EC56F94
:1031960062C0C6F063C0C7F0660EC86F000EC96F86
:1031A600000ECA6F010ECB6FAAEC0FF01200146E60
:1031B6001450D8B4E1EF18F0E3EF18F005EF19F06A
:1031C6000FBEEAEF18F0E8EF18F005EF19F00CC0A3
:1031D60010F00DC011F00EC012F00FC013F0101E4B
:1031E600111E121E131E102A000E11221222132265
:1031F60010C016F011C017F012C018F013C019F065
:103206000DEF19F00CC016F00DC017F00EC018F037
:103216000FC019F00C500D100E100F10D8A416EF99
:1032260019F018EF19F022EF19F0000E0C6E000ECF
:103236000D6E000E0E6E000E0F6EB3EF19F0960EA9
:10324600156E2CEF19F0152AD8901932183217324C
:103256001632000E1614106E000E1714116E000EA4
:103266001814126EFE0E1914136E1050111012104F
:103276001310D8A441EF19F043EF19F026EF19F017
:1032860051EF19F0152A010E1626000E17221822E4
:103296001922D8901932183217321632000E161427
:1032A600106E000E1714116E000E1814126EFF0E1B
:1032B6001914136E1050111012101310D8A466EFC3
:1032C60019F068EF19F045EF19F070EF19F01506CF
:1032D600D890163617361836193618BE75EF19F007
:1032E60077EF19F07FEF19F0020E15607DEF19F0F8
:1032F6007FEF19F06AEF19F015B084EF19F086EF39
:1033060019F087EF19F0189ED890153215C010F0F5
:10331600116A126A136A10C013F0126A116A106AEF
:10332600105016121150171212501812135019126B
:103336001450D8B4A1EF19F0A3EF19F0ABEF19F0C0
:103346000FBEAAEF19F0A8EF19F0ABEF19F0198E1E
:1033560016C00CF017C00DF018C00EF019C00FF013
:10336600120020EE02F00E50D9260F50DA22DF505E
:10337600D8B4C0EF19F0C2EF19F0F6EF19F00EC08D
:10338600D9FF0FC0DAFFDF50106E1050016E026ACF
:1033960020EE03F00E50D9260F50DA22DECF03F0CE
:1033A600DDCF04F0B4EC22F001C007F002C008F053
:1033B600000E0A6E640E096E0AEC20F020EE03F091
:1033C6000E50D9260F50DA22DF50116E0750115CCD
:1033D600126E20EE03F00E50D9260F50DA22DF507F
:1033E600136E19EF1AF0000E126E0EC0D9FF0FC041
:1033F600DAFFDF50106E1050016E026A20EE03F005
:103406000E50D9260F50DA22DECF03F0DDCF04F0BE
:10341600B4EC22F001C007F002C008F0000E0A6EFC
:10342600640E096E0AEC20F00750136E20EE01F0D0
:103436000E50D9260F50DA22DF50D8B425EF1AF0F5
:1034460027EF1AF049EF1AF020EE05F00E50D926B4
:103456000F50DA22DECF10F0DDCF11F010C0D9FF09
:1034660011C0DAFF12C0DFFF20EE07F00E50D9269A
:103476000F50DA22DECF10F0DDCF11F010C0D9FFE9
:1034860011C0DAFF13C0DFFF69EF1AF020EE05F076
:103496000E50D9260F50DA22DECF10F0DDCF11F014
:1034A60010C0D9FF11C0DAFF13C0DFFF20EE07F00E
:1034B6000E50D9260F50DA22DECF10F0DDCF11F0F4
:1034C60010C0D9FF11C0DAFF12C0DFFF12000334AB
:1034D60004340A6E0A50D8A473EF1AF075EF1AF086
:1034E6007FEF1AF0000E016E000E026E000E036EE4
:1034F600000E046EECEF1AF001C005F002C006F0F3
:1035060003C007F004C008F0200E8FEF1AF0D89021
:103516000832073206320532E82E8AEF1AF00550D5
:10352600096E038EFF0E0116FF0E0216FF0E03161E
:10353600000E0416960E0A5E0ABEA6EF1AF0A4EF57
:103546001AF0BCEF1AF00A50800A970FD8B0AEEF07
:103556001AF0B0EF1AF0B2EF1AF075EF1AF0D89031
:1035660004320332023201320A3EB2EF1AF0D4EFCD
:103576001AF01F0E0A64C2EF1AF0C4EF1AF0CCEF6D
:103586001AF075EF1AF0D890013602360336043673
:103596000A060A50D8A4D2EF1AF0D4EF1AF0C6EFF2
:1035A6001AF00950D8B4DAEF1AF0DCEF1AF0E4EFAB
:1035B6001AF0041E031E021E016C000E02220322D4
:1035C600042201C001F002C002F003C003F004C0EF
:1035D60004F01200000E4B14536E000E4C14546E81
:1035E600800E4D14556E7F0E4E14566E5350541069
:1035F60055105610D8A402EF1BF004EF1BF00CEF89
:103606001BF0000E4B6E000E4C6E000E4D6E000E43
:103616004E6E000E4F14536E000E5014546E800EF4
:103626005114556E7F0E5214566E53505410551049
:103636005610D8A421EF1BF023EF1BF02BEF1BF045
:10364600000E4F6E000E506E000E516E000E526E42
:103656004EAE30EF1BF032EF1BF03BEF1BF04B6C26
:103666004C1ED8B04C2A4D1ED8B04D2A800E4E5650
:1036760052AE40EF1BF042EF1BF04BEF1BF04F6CCE
:10368600501ED8B0502A511ED8B0512A800E52561C
:10369600000E4B1A000E4C1A000E4D1A800E4E1AD2
:1036A600000E4F1A000E501A000E511A800E521AB2
:1036B6004F504B5C50504C5851504D5852504E58EC
:1036C600D8B068EF1BF06AEF1BF06DEF1BF0D890D7
:1036D6006EEF1BF0D8801200000E0114096E000E6A
:1036E60002140A6E800E03140B6E7F0E04140C6E09
:1036F60009500A100B100C10D8A484EF1BF086EFAB
:103706001BF08EEF1BF0000E016E000E026E000E17
:10371600036E000E046E000E0514096E000E0614EC
:103726000A6E800E07140B6E7F0E08140C6E09507D
:103736000A100B100C10D8A4A3EF1BF0A5EF1BF07A
:10374600ADEF1BF0000E056E000E066E000E076E46
:10375600000E086E055001180FE1065002180CE124
:103766000750031809E108500418D8B4BDEF1BF040
:10377600BFEF1BF0C2EF1BF0D890C3EF1BF0D88051
:1037860012000001F851D8B4CBEF1BF0CDEF1BF0BF
:1037960003EF1CF021C01BF022C01CF023C01DF05B
:1037A60024C01EF0CBEC1EF021C014F022C015F090
:1037B60023C016F024C017F04EEC1FF0410E266E03
:1037C600F00E256E330EE82EFED7252EFCD7262EBC
:1037D600FAD700F021C01AF022C01BF023C01CF05B
:1037E60024C01DF041EC1EF021C01AF022C01BF0CF
:1037F60023C01CF024C01DF041EC1EF017EF1CF096
:1038060021C01AF022C01BF023C01CF024C01DF0FA
:1038160086EC1EF021C01AF022C01BF023C01CF05B
:1038260024C01DF086EC1EF012000001F851D8B439
:103836001FEF1CF021EF1CF057EF1CF021C01BF00E
:1038460022C01CF023C01DF024C01EF0CBEC1EF0DD
:1038560021C014F022C015F023C016F024C017F0C2
:103866004EEC1FF0410E266EF00E256E330EE82E3E
:10387600FED7252EFCD7262EFAD700F021C01AF047
:1038860022C01BF023C01CF024C01DF086EC1EF0E5
:1038960021C01AF022C01BF023C01CF024C01DF06A
:1038A60086EC1EF06BEF1CF021C01AF022C01BF054
:1038B60023C01CF024C01DF041EC1EF021C01AF0FC
:1038C60022C01BF023C01CF024C01DF041EC1EF0EA
:1038D60012007C88A5EF1CF014C0D9FF15C0DAFFD2
:1038E600DF50D8B479EF1CF07BEF1CF080EF1CF0B2
:1038F60014C0D9FF15C0DAFFDF0616C0D9FF17C0FE
:10390600DAFFDF50D8B48AEF1CF08CEF1CF091EF91
:103916001CF016C0D9FF17C0DAFFDF0614C00EF080
:1039260015C00FF0B4EC19F016C00EF017C00FF06A
:10393600B4EC19F0090E186E4E0EE82EFED7182EAE
:10394600FCD700D014C0D9FF15C0DAFFDF50D8B4B9
:10395600AFEF1CF0B1EF1CF0BDEF1CF016C0D9FFA5
:1039660017C0DAFFDF50D8A4BBEF1CF0BDEF1CF088
:103976006FEF1CF07C9812000001F851D8B4C6EF26
:103986001CF0C8EF1CF0F2EF1CF021C01BF022C0A7
:103996001CF023C01DF024C01EF0CBEC1EF021C08D
:1039A6001AF022C01BF023C01CF024C01DF041EC0D
:1039B6001EF021C01AF022C01BF023C01CF024C048
:1039C6001DF041EC1EF021C01AF022C01BF023C0EE
:1039D6001CF024C01DF041EC1EF010EF1DF021C0BC
:1039E6001AF022C01BF023C01CF024C01DF086EC88
:1039F6001EF021C01AF022C01BF023C01CF024C008
:103A06001DF086EC1EF021C01AF022C01BF023C068
:103A16001CF024C01DF086EC1EF012000001F851C7
:103A2600D8B418EF1DF01AEF1DF044EF1DF021C0B9
:103A36001BF022C01CF023C01DF024C01EF0CBECEE
:103A46001EF021C01AF022C01BF023C01CF024C0B7
:103A56001DF086EC1EF021C01AF022C01BF023C018
:103A66001CF024C01DF086EC1EF021C01AF022C006
:103A76001BF023C01CF024C01DF086EC1EF062EF84
:103A86001DF021C01AF022C01BF023C01CF024C078
:103A96001DF041EC1EF021C01AF022C01BF023C01D
:103AA6001CF024C01DF041EC1EF021C01AF022C00B
:103AB6001BF023C01CF024C01DF041EC1EF01200C8
:103AC60020EE01F01450D9261550DA22010EDF6ED1
:103AD60020EE01F01650D9261750DA22000EDF6EBE
:103AE60014C00EF015C00FF0B4EC19F016C00EF0AD
:103AF60017C00FF0B4EC19F0000E196E000E186E18
:103B060014C0D9FF15C0DAFFDF2A16C0D9FF17C0C7
:103B1600DAFFDF2A14C00EF015C00FF0B4EC19F06E
:103B260016C00EF017C00FF0B4EC19F0E40E00D07A
:103B360000D0E82EFCD700D000D0184A192A195018
:103B460009E1320E185CD8A0ABEF1DF0ADEF1DF009
:103B560083EF1DF0120020EE01F01450D926155007
:103B6600DA22000EDF6E20EE01F01650D92617502D
:103B7600DA22010EDF6E14C00EF015C00FF0B4ECA1
:103B860019F016C00EF017C00FF0B4EC19F0000EC5
:103B9600196E000E186E14C0D9FF15C0DAFFDF2AA1
:103BA60016C0D9FF17C0DAFFDF2A14C00EF015C001
:103BB6000FF0B4EC19F016C00EF017C00FF0B4EC0D
:103BC60019F0E40E00D000D0E82EFCD700D000D0CB
:103BD600184A192A195009E1320E185CD8A0F6EFD6
:103BE6001DF0F8EF1DF0CEEF1DF012008594839EB8
:103BF6008598879C7D947B9E7D987F9C050E0E0103
:103C0600746F060E766F070E696F080E886FBD50CB
:103C16008F0B4009BD6EE00EBE16BF50F00B0109BA
:103C2600BF6E01C0BCFFBD8E000EAA6E000EA66E52
:103C3600000E0F01256F000E216FFC0EAD16F30E60
:103C4600AD16CF0EAD163F0EAD16AB88AB50F00BD2
:103C56000C09AB6EAB8EA788A750F00B0C09A76EAC
:103C6600A78E26892651F00B0C09266F268F2289EE
:103C76002251F00B0C09226F228F120080801AC08D
:103C860014F01BC015F01CC016F01DC017F06CEC2C
:103C96001CF0090E1F6E1E0E1E6EE40EE82EFED7D9
:103CA6001E2EFCD71F2EFAD700D01AC014F01BC048
:103CB60015F01CC016F01DC017F063EC1DF00C0EBD
:103CC6001F6EB10E1E6E2B0EE82EFED71E2EFCD7D3
:103CD6001F2EFAD700F01AC014F01BC015F01CC036
:103CE60016F01DC017F06CEC1CF0090E1F6E1E0EB0
:103CF6001E6EE40EE82EFED71E2EFCD71F2EFAD718
:103D060000D0809012007E801AC014F01BC015F0FF
:103D16001CC016F01DC017F06CEC1CF0050E1F6ED3
:103D26000F0E1E6EF10EE82EFED71E2EFCD71F2E8E
:103D3600FAD700F01AC014F01BC015F01CC016F01C
:103D46001DC017F0AEEC1DF00C0E1F6EB10E1E6EF0
:103D56002B0EE82EFED71E2EFCD71F2EFAD700F00C
:103D66001AC014F01BC015F01CC016F01DC017F0C9
:103D76006CEC1CF0050E1F6E0F0E1E6EF10EE82E7B
:103D8600FED71E2EFCD71F2EFAD700F07E9012000B
:103D96001BC014F01CC015F01DC016F01EC017F095
:103DA6006CEC1CF0090E206E1E0E1F6EE40EE82E43
:103DB600FED71F2EFCD7202EFAD700D01BC014F03A
:103DC6001CC015F01DC016F01EC017F04EEC1FF0FB
:103DD6001D0E206E690E1F6EA50EE82EFED71F2E35
:103DE600FCD7202EFAD700F01BC014F01CC015F02B
:103DF6001DC016F01EC017F06CEC1CF0090E206EEC
:103E06001E0E1F6EE40EE82EFED71F2EFCD7202EA8
:103E1600FAD700D0120020EE01F01450D926155022
:103E2600DA22010EDF6E20EE01F01650D926175069
:103E3600DA22010EDF6E000E1A6E000E196E14C025
:103E4600D9FF15C0DAFFDF2A16C0D9FF17C0DAFF7F
:103E5600DF2A14C00EF015C00FF0B4EC19F016C02E
:103E66000EF017C00FF0B4EC19F0090E186E4E0ED6
:103E7600E82EFED7182EFCD700D0194A1A2A1A5057
:103E860009E11E0E195CD8A04BEF1FF04DEF1FF095
:103E960022EF1FF0120020EE01F01450D926155023
:103EA600DA22000EDF6E20EE01F01650D9261750EA
:103EB600DA22000EDF6E000E1A6E000E196E14C0A6
:103EC600D9FF15C0DAFFDF2A16C0D9FF17C0DAFFFF
:103ED600DF2A14C00EF015C00FF0B4EC19F016C0AE
:103EE6000EF017C00FF0B4EC19F0090E186E4E0E56
:103EF600E82EFED7182EFCD700D0194A1A2A1A50D7
:103F060009E1320E195CD8A08BEF1FF08DEF1FF080
:103F160062EF1FF012000001F851D8B495EF1FF0C0
:103F260097EF1FF0B7EF1FF021C01BF022C01CF067
:103F360023C01DF024C01EF0CBEC1EF021C01AF0E9
:103F460022C01BF023C01CF024C01DF041EC1EF063
:103F560021C01AF022C01BF023C01CF024C01DF0A3
:103F660041EC1EF0CBEF1FF021C01AF022C01BF06F
:103F760023C01CF024C01DF086EC1EF021C01AF0F0
:103F860022C01BF023C01CF024C01DF086EC1EF0DE
:103F960012000001F851D8B4D3EF1FF0D5EF1FF08F
:103FA600F5EF1FF021C01BF022C01CF023C01DF04E
:103FB60024C01EF0CBEC1EF021C01AF022C01BF06C
:103FC60023C01CF024C01DF086EC1EF021C01AF0A0
:103FD60022C01BF023C01CF024C01DF086EC1EF08E
:103FE60009EF20F021C01AF022C01BF023C01CF0FC
:103FF60024C01DF041EC1EF021C01AF022C01BF0B7
:1040060023C01CF024C01DF041EC1EF01200000E6F
:104016000C6E000E0B6E09500A10D8B415EF20F086
:1040260017EF20F03FEF20F0010E0D6E1FEF20F08E
:10403600D89009360A360D2A0AAE24EF20F026EF6C
:1040460020F01BEF20F0D8900B360C360950075C99
:104056000A500858D8A032EF20F034EF20F039EF9C
:1040660020F00950075E0A50085A0B80D8900A3291
:1040760009320D2E26EF20F00BC007F00CC008F019
:1040860012001BC014F01CC015F01DC016F01EC097
:1040960017F06CEC1CF0090E206E1E0E1F6EE40E5F
:1040A600E82EFED71F2EFCD7202EFAD700D01BC035
:1040B60014F01CC015F01DC016F01EC017F04EEC13
:1040C6001FF0520E206E2B0E1F6E000EE82EFED72E
:1040D6001F2EFCD7202EFAD700D01BC014F01CC010
:1040E60015F01DC016F01EC017F06CEC1CF0120087
:1040F600ACEC20F033C03BF034C03CF035C03DF0B2
:1041060036C03EF0000E3F6E000E406E160E416E3B
:10411600C30E426E4AEC0DF03BC04FF03CC050F06F
:104126003DC051F03EC052F0D8904B34D96E4C345D
:10413600DA6ED890D936DA364D50D9264E50DA2274
:104146004FC0DEFF50C0DEFF51C0DEFF52C0DEFFB3
:104156001200D3CF39F03A6AD450386E376A3750E6
:10416600391238503A1239C00CF03AC00DF0000E30
:104176000DBEFF0E0E6E0F6E010EDAEC18F00CC0BF
:104186001AF00DC01BF00EC01CF00FC01DF0BD0EC6
:104196001E6E370E1F6E860E206E3F0E216EFDECD4
:1041A60011F01AC033F01BC034F01CC035F01DC02E
:1041B60036F012000001F851D8B4E4EF20F0E6EF33
:1041C60020F0FCEF20F024C01BF025C01CF026C018
:1041D6001DF027C01EF0CBEC1EF024C020F025C039
:1041E60021F026C022F027C023F007EC21F006EFCD
:1041F60021F024C020F025C021F026C022F027C0DF
:1042060023F007EC21F0120020C01AF021C01BF0A9
:1042160022C01CF023C01DF086EC1EF020C01AF050
:1042260021C01BF022C01CF023C01DF086EC1EF03E
:1042360020C01AF021C01BF022C01CF023C01DF0C4
:1042460086EC1EF020C01AF021C01BF022C01CF024
:1042560023C01DF086EC1EF012001DEC23F0520E5A
:1042660001EC23F0B60E01EC23F013EC23F0530E11
:1042760001EC23F0010E18EC22F0076E07500A6ECF
:104286000B6A000E18EC22F0076E0750096E086ADA
:104296000A5008100A6E0B5009100B6E18EC23F02A
:1042A6000AC005F00BC006F012001DEC23F0520EFA
:1042B60001EC23F0B80E01EC23F013EC23F0530EBF
:1042C60001EC23F0010E18EC22F0076E07500A6E7F
:1042D6000B6A000E18EC22F0076E0750096E086A8A
:1042E6000A5008100A6E0B5009100B6E18EC23F0DA
:1042F6000AC005F00BC006F012001DEC23F0520EAA
:1043060001EC23F0B40E01EC23F013EC23F0530E72
:1043160001EC23F0010E18EC22F0076E07500A6E2E
:104326000B6A000E18EC22F0076E0750096E086A39
:104336000A5008100A6E0B5009100B6E18EC23F089
:104346000AC005F00BC006F012001DEC23F0520E59
:1043560001EC23F0BA0E01EC23F013EC23F0530E1C
:1043660001EC23F0010E18EC22F0076E07500A6EDE
:104376000B6A000E18EC22F0076E0750096E086AE9
:104386000A5008100A6E0B5009100B6E18EC23F039
:104396000AC005F00BC006F012001A0EF66E460EA5
:1043A600F76E000EF86E00EEEEF010EE0BF0090060
:1043B600F5CFEEFFE550E150FAE101EE00F0500EC8
:1043C600EE6AE806FDE100EE60F0620EEE6AE806CF
:1043D600FDE15F905F92000EF86E0E0EF76E000123
:1043E600F8EF16F0000E4F1A000E501A000E511A72
:1043F600800E521A4BC03BF04CC03CF04DC03DF015
:104406004EC03EF04FC03FF050C040F051C041F0AA
:1044160052C042F04AEC0DF03BC04BF03CC04CF0B1
:104426003DC04DF03EC04EF01200036EA0EC22F0EF
:104436000E01DA87A0EC22F0D5CE04F0A0EC22F033
:104446000350D8B429EF22F02DEF22F0026A022A97
:104456002EEF22F0026A023A02460E01DA510218E3
:10446600DF0B0218DA6FDA89045012008BEC22F0A7
:10447600010E036E000EEAEC22F03F0E056E550E9D
:10448600E82EFED7052EFCD700F0030E036E000EB5
:10449600EAEC22F0D60E036E010EEAEC22F07F92D1
:1044A6008792799881987E9E869E1200016E0150B1
:1044B600D8B460EF22F062EF22F067EF22F07F823D
:1044C60079887E8E72EF22F00150D8A46DEF22F02B
:1044D6006FEF22F072EF22F07F9279987E9E1200A3
:1044E60020EE14F00150D9260250DA22DECF07F072
:1044F600DDCF08F0D8900334D96E0434DA6E055057
:10450600D9260650DA2207C0DEFF08C0DDFF1200FA
:104516000E01D951F00B0809D96FD98B9F0ED66FB2
:10452600848A848CA79BA79D1D0E1D6F1E0E1C6F73
:104536001C0E6F6F1B0E706F12000E01D8B5A6EF22
:1045460022F0A8EF22F0A0EF22F0DACE01F01F0E43
:104556000116D8A4B1EF22F0B3EF22F0A0EF22F0BB
:10456600120001500302F3CF05F0F4CF06F001501C
:104576000402F350062602500302F350062605C035
:1045860001F006C002F01200D6501F0B4009D66E8D
:10459600D688D650F00B0D09D66ED5880E01298B1C
:1045A600000ED46E000ED36ED58E120083888382E1
:1045B600120E0E01626F110E156FE997E895330E14
:1045C600E56F000EE66FE789E88BE78F1200046E51
:1045D6001DEC23F0520E01EC23F00450800901EC8F
:1045E60023F0035001EC23F018EC23F0120084981A
:1045F600889086907C9880907E901200026EA0EC47
:1046060022F002C0D5FE12000E012D87F28AF28C2E
:0F461600F28E120096005E0120039000900001CA
:10462600A0EC22F00E01DA831200A0EC22F00E01BB
:10463600DA851200A0EC22F00E01DA811200000EDB
:08464600D36E000ED46E1200C9
:020000040020DA
:10000000FF0FFF0FFF0FFF0FFF0FFF0FFF0FFF0F80
:020000040030CA
:0C000000AAFFFFFF9FFFFFFFFFFFFFFFB5
:00000001FF
