:0400000007EF22F0F4
:100E000000436F6C6F7572206973202573205265E3
:100E10006420256620477265656E2C256620426C2D
:100E200075652C256620487565202566200D004CCB
:100E30006967687420426C7565004461726B20427A
:100E40006C7565004567677368656C6C004F72610F
:100E50006E67650059656C6C6F7700477265656EEB
:100E60000050696E6B00696E66006E616E006C6C9E
:070E700073005265640000ED
:100E7800000E00019B6F73C09EF074C09FF075C098
:100E8800A0F076C0A1F0A1BF4EEF07F04CEF07F03D
:100E980062EF07F0010E9B6F9EC001F09FC002F049
:100EA800A0C003F0A1C004F045EC22F001C09EF000
:100EB80002C09FF003C0A0F004C0A1F0000E000122
:100EC8009D6F000E9C6FF6C08BF0F7C08CF09B51A5
:100ED800D8B471EF07F073EF07F087EF07F09B5175
:100EE800D8A479EF07F07BEF07F081EF07F0000E49
:100EF800816F2B0E806F85EF07F0000E816F2D0E2E
:100F0800806F80C09BF09EC001F09FC002F0A0C01F
:100F180003F0A1C004F01FEC1DF001040210D8A4D6
:100F280098EF07F09AEF07F0CDEF07F000019B511B
:100F3800D8B4A1EF07F0A3EF07F0ACEF07F09BC020
:100F480000F18B07D8A08C07000E9D6F010E9C6FD7
:100F5800000E9C25016E010E9D21026E660E036E29
:100F68000E0E046EA2EC21F00001FD0E8B27FF0E81
:100F78008C2371C011F072C012F0000E136E010EB6
:100F8800146E8BC015F08CC016F096EC1FF038EF7D
:100F98000CF09EC001F09FC002F0A0C003F0A1C0F9
:100FA80004F01FEC1DF001500210D8A4DEEF07F08A
:100FB800E0EF07F000EF08F000019B51D8B4E7EF2D
:100FC80007F0E9EF07F0F2EF07F09BC000F18B079D
:100FD800D8A08C07000E9D6F010E9C6F000E9C25FB
:100FE800016E010E9D21026E6A0E036E0E0E046ED6
:100FF800A2EC21F0B8EF07F0000E0001A26F000E7E
:10100800A36F800EA46F3F0EA56F000E8A6F000EAF
:10101800896F9EC001F09FC002F0A0C003F0A1C07C
:1010280004F0000E056E000E066E000E076E000E30
:10103800086E41EC1FF0D8B024EF08F026EF08F056
:1010480005EF09F033EF08F08DC0A2F08EC0A3F0D1
:101058008FC0A4F090C0A5F00001894B8A2BA2C0D4
:101068004BF0A3C04CF0A4C04DF0A5C04EF0000E4C
:101078004F6E000E506E200E516E410E526E2FECC8
:1010880012F04BC08DF04CC08EF04DC08FF04EC0AA
:1010980090F000018D519E5D016E8E519F59026E38
:1010A8008F51A059036E9051A159046E08EC20F09D
:1010B80004BE6AEF08F004500310021009E1020EA2
:1010C800015CD8A06AEF08F06CEF08F028EF08F090
:1010D8008DC057F08EC058F08FC059F090C05AF0AC
:1010E8009EC05BF09FC05CF0A0C05DF0A1C05EF048
:1010F8009CEC1CF0D8A083EF08F085EF08F028EFEF
:1011080008F00001A2519E5D016EA3519F59026E25
:10111800A451A059036EA551A159046E08EC20F002
:1011280004BEA4EF08F004500310021007E1020EF9
:10113800015CD8B0A2EF08F0A4EF08F0ECEF08F0DB
:10114800A2C09EF0A3C09FF0A4C0A0F0A5C0A1F0CB
:1011580005EF09F0A2C032F0A3C033F0A4C034F008
:10116800A5C035F0000E366E000E376E200E386EB4
:10117800410E396E3FEC16F032C0A2F033C0A3F036
:1011880034C0A4F035C0A5F000018907D8A08A07AB
:10119800A2519E5D016EA3519F59026EA451A059A0
:1011A800036EA551A159046E08EC20F004BEEAEFC5
:1011B80008F004500310021007E1020E015CD8B0D9
:1011C800E8EF08F0EAEF08F0ECEF08F0A4EF08F019
:1011D8009EC057F09FC058F0A0C059F0A1C05AF067
:1011E800A2C05BF0A3C05CF0A4C05DF0A5C05EF037
:1011F8009CEC1CF0D8A003EF09F005EF09F0AEEF66
:1012080008F077C083F083C084F00001F9BF0FEFC6
:1012180009F011EF09F017EF09F0F8C07CF0F9C0F8
:101228007DF01BEF09F0000E7D6F060E7C6F7CC011
:1012380087F07DC088F0874B882B660E8419D8A468
:1012480028EF09F02AEF09F04AEF09F08ABF31EFD9
:1012580009F02FEF09F03DEF09F0000EA26F000E24
:10126800A36F800EA46F3F0EA56F000E8A6F000E4D
:10127800896F670E8319D8B444EF09F046EF09F077
:101288004AEF09F0895187278A518823000E926F07
:10129800000E916F9EC093F09FC094F0A0C095F08F
:1012A800A1C096F0A2C08DF0A3C08EF0A4C08FF0AC
:1012B800A5C090F0DBEF09F093C032F094C033F092
:1012C80095C034F096C035F0A2C036F0A3C037F010
:1012D800A4C038F0A5C039F03FEC16F032C04BF08E
:1012E80033C04CF034C04DF035C04EF098EC19F0D6
:1012F8004BC097F04CC098F04DC099F04EC09AF092
:1013080097C001F098C002F099C003F09AC004F0A9
:1013180019EC1CF001C085F002C086F093C02AF0D9
:1013280094C02BF095C02CF096C02DF097C04FF0CC
:1013380098C050F099C051F09AC052F0A2C04BF03A
:10134800A3C04CF0A4C04DF0A5C04EF02FEC12F095
:101358004BC02EF04CC02FF04DC030F04EC031F0D5
:101368007FEC21F02AC093F02BC094F02CC095F0AC
:101378002DC096F0A2C032F0A3C033F0A4C034F060
:10138800A5C035F0000E366E000E376E200E386E92
:10139800410E396E3FEC16F032C0A2F033C0A3F014
:1013A80034C0A4F035C0A5F00001914B922B8751B1
:1013B800915D9251800A786F8851800A7859D8A037
:1013C800E8EF09F0EAEF09F060EF09F0A2C04BF08E
:1013D800A3C04CF0A4C04DF0A5C04EF0000E4F6E57
:1013E800000E506EA00E516E400E526E2FEC12F091
:1013F8004BC097F04CC098F04DC099F04EC09AF091
:1014080093C057F094C058F095C059F096C05AF060
:1014180097C05BF098C05CF099C05DF09AC05EF030
:101428009CEC1CF0D8B01BEF0AF01DEF0AF028EF77
:101438000AF0000E0001976F000E986F000E996F6A
:10144800000E9A6F51EF0AF093C001F094C002F0B9
:1014580095C003F096C004F097C005F098C006F058
:1014680099C007F09AC008F041EC1FF0D8A03FEFF0
:101478000AF041EF0AF051EF0AF0000185B147EF99
:101488000AF049EF0AF051EF0AF0000E976F000ECC
:10149800986F000E996F000E9A6F9EC01AF09FC049
:1014A8001BF0A0C01CF0A1C01DF097C01EF098C092
:1014B8001FF099C020F09AC021F0CFEC0FF01AC0AD
:1014C80093F01BC094F01CC095F01DC096F093C01B
:1014D80057F094C058F095C059F096C05AF0000ED5
:1014E8004F6E000E506E200E516E410E526E8DC022
:1014F8004BF08EC04CF08FC04DF090C04EF02FECEA
:1015080012F04BC05BF04CC05CF04DC05DF04EC0BB
:101518005EF09CEC1CF0D8A094EF0AF096EF0AF06D
:10152800BFEF0AF00001894B8A2B8DC04BF08EC0AB
:101538004CF08FC04DF090C04EF0000E4F6E000E74
:10154800506E200E516E410E526E2FEC12F04BC0B1
:101558008DF04CC08EF04DC08FF04EC090F0660EEE
:1015680000018419D8A4BBEF0AF0BDEF0AF0BFEF61
:101578000AF0874B882B8DC0A2F08EC0A3F08FC0D5
:10158800A4F090C0A5F089C07AF08AC07BF0000E64
:101598000001826F000E7F6F000E7E6F000E926F4B
:1015A800000E916FBDEF0BF093C032F094C033F092
:1015B80095C034F096C035F0A2C036F0A3C037F01D
:1015C800A4C038F0A5C039F03FEC16F032C04BF09B
:1015D80033C04CF034C04DF035C04EF098EC19F0E3
:1015E8004BC097F04CC098F04DC099F04EC09AF09F
:1015F80097C001F098C002F099C003F09AC004F0B7
:1016080019EC1CF002BE14EF0BF0025007E10A0EB1
:10161800015CD8B012EF0BF014EF0BF024EF0BF0D5
:1016280097C001F098C002F099C003F09AC004F086
:1016380019EC1CF001C085F002C086F029EF0BF010
:10164800000E0001866F090E856F00018251D8A433
:1016580030EF0BF032EF0BF05AEF0BF07BBF39EFA6
:101668000BF037EF0BF05AEF0BF0000E9C25D96EFC
:10167800010E9D21DA6E2E0EDF6E9C4B9D2B8B0783
:10168800D8A08C07010E826F5AEF0BF0000E9C2534
:10169800D96E010E9D21DA6E300EDF6E9C4B9D2BAC
:1016A8008B07D8A08C077E07D8A07F077E517F11B3
:1016B800D8A461EF0BF063EF0BF04AEF0BF0000ECC
:1016C8009C25D96E010E9D21DA6E8551300FDF6E93
:1016D8009C4B9D2B8B07D8A08C0793C02AF094C0F5
:1016E8002BF095C02CF096C02DF097C04FF098C005
:1016F80050F099C051F09AC052F0A2C04BF0A3C06C
:101708004CF0A4C04DF0A5C04EF02FEC12F04BC029
:101718002EF04CC02FF04DC030F04EC031F07FECB1
:1017280021F02AC093F02BC094F02CC095F02DC066
:1017380096F0A2C032F0A3C033F0A4C034F0A5C024
:1017480035F0000E366E000E376E200E386E410EE4
:10175800396E3FEC16F032C0A2F033C0A3F034C0AB
:10176800A4F035C0A5F000017A07D8A07B07914BFB
:10177800922B8751915D9251800A786F8851800A27
:101788007859D8B0CAEF0BF0CCEF0BF0DAEF0BF0CA
:101798009DBFD8EF0BF09D5109E14B0E9C5DD8A081
:1017A800D8EF0BF0DAEF0BF0D8EF0AF0000E926FDB
:1017B8004F0E916F000E9125D96E010E9221DA6EAF
:1017C800000EDF6E000E786F010E796F9C51785F06
:1017D8009D51795B91517825016E92517921026E64
:1017E800000E036E010E046E9CC005F09DC006F04D
:1017F80057EC21F000019C51915D9C6F9D519259CD
:101808009D6F9B51D8A40BEF0CF00EEF0CF0010E5E
:101818000FEF0CF0000E916F926B9B51D8B417EF3D
:101828000CF019EF0CF024EF0CF09C07D8A09D07E2
:10183800000E9C25D96E010E9D21DA6E9BC0DFFF3C
:1018480091518B5F92518C5B71C011F072C012F094
:10185800000E9C25136E010E9D21146E8BC015F091
:101868008CC016F096EC1FF0120071C0D9FF72C040
:10187800DAFFDECF01F0DECF02F0DECF03F0DECFFD
:1018880004F0000120EE04F07151D9267251DA22D9
:10189800DECF05F0DECF06F0DECF07F0DECF08F0B2
:1018A80041EC1FF0D8A05BEF0CF05DEF0CF092EF6D
:1018B8000CF071C0D9FF72C0DAFFDECF01F0DECFC5
:1018C80002F0DECF03F0DECF04F0000120EE08F0D6
:1018D8007151D9267251DA22DECF05F0DECF06F03B
:1018E800DECF07F0DECF08F041EC1FF0D8A07FEF85
:1018F8000CF081EF0CF092EF0CF0000120EE10F0EC
:101908007151D9267251DA22000EDE6E000EDE6E9B
:10191800000EDE6E000EDD6ECEEF0FF0000E000141
:101928007E6F000E7D6F71C0D9FF72C0DAFFDECF07
:1019380057F0DECF58F0DECF59F0DECF5AF020EE68
:1019480004F07151D9267251DA22DECF5BF0DECF76
:101958005CF0DECF5DF0DECF5EF09CEC1CF0D8B022
:10196800B8EF0CF0BAEF0CF0F2EF0CF071C0D9FF41
:1019780072C0DAFFDECF57F0DECF58F0DECF59F075
:10198800DECF5AF0000120EE08F07151D9267251CD
:10199800DA22DECF5BF0DECF5CF0DECF5DF0DECFAB
:1019A8005EF09CEC1CF0D8B0DCEF0CF0DEEF0CF035
:1019B800F2EF0CF071C0D9FF72C0DAFFDECF01F090
:1019C800DECF02F0DECF03F0DECF04F019EC1CF01E
:1019D80001C07DF002C07EF068EF0DF0000120EE3E
:1019E80004F07151D9267251DA22DECF57F0DECFDA
:1019F80058F0DECF59F0DECF5AF071C0D9FF72C06F
:101A0800DAFFDECF5BF0DECF5CF0DECF5DF0DECF5D
:101A18005EF09CEC1CF0D8B014EF0DF016EF0DF052
:101A280053EF0DF0000120EE04F07151D9267251E8
:101A3800DA22DECF57F0DECF58F0DECF59F0DECF16
:101A48005AF020EE08F07151D9267251DA22DECF11
:101A58005BF0DECF5CF0DECF5DF0DECF5EF09CECBD
:101A68001CF0D8B03AEF0DF03CEF0DF053EF0DF04D
:101A7800000120EE04F07151D9267251DA22DECF2E
:101A880001F0DECF02F0DECF03F0DECF04F019EC78
:101A98001CF001C07DF002C07EF068EF0DF000017F
:101AA80020EE08F07151D9267251DA22DECF01F00A
:101AB800DECF02F0DECF03F0DECF04F019EC1CF02D
:101AC80001C07DF002C07EF0000120EE04F07151EB
:101AD800D9267251DA22DECF57F0DECF58F0DECFAA
:101AE80059F0DECF5AF071C0D9FF72C0DAFFDECFED
:101AF8005BF0DECF5CF0DECF5DF0DECF5EF09CEC1D
:101B08001CF0D8B08AEF0DF08CEF0DF029EF0EF035
:101B1800000120EE08F07151D9267251DA22DECF89
:101B280057F0DECF58F0DECF59F0DECF5AF071C053
:101B3800D9FF72C0DAFFDECF5BF0DECF5CF0DECF1C
:101B48005DF0DECF5EF09CEC1CF0D8B0AEEF0DF08F
:101B5800B0EF0DF029EF0EF071C0D9FF72C0DAFFB7
:101B6800DECF01F0DECF02F0DECF03F0DECF04F0EF
:101B780019EC1CF001C07BF002C07CF000017D5123
:101B88007B5D736F7E517C59746F73C00CF074C0A9
:101B98000DF0000E0DBEFF0E0E6E0F6E010EA1ECC5
:101BA8001AF00CC036F00DC037F00EC038F00FC078
:101BB80039F0000120EE08F07151D9267251DA226D
:101BC800DECF2EF0DECF2FF0DECF30F0DECF31F0DB
:101BD80020EE04F07151D9267251DA22DECF2AF0B4
:101BE800DECF2BF0DECF2CF0DECF2DF07FEC21F016
:101BF8002AC032F02BC033F02CC034F02DC035F0A1
:101C08003FEC16F032C04BF033C04CF034C04DF00E
:101C180035C04EF0000E4F6E000E506E700E516EB5
:101C2800420E526E2FEC12F0000120EE10F07151AE
:101C3800D9267251DA224BC0DEFF4CC0DEFF4DC000
:101C4800DEFF4EC0DEFF99EF0FF071C0D9FF72C002
:101C5800DAFFDECF57F0DECF58F0DECF59F0DECF17
:101C68005AF0000120EE04F07151D9267251DA229F
:101C7800DECF5BF0DECF5CF0DECF5DF0DECF5EF076
:101C88009CEC1CF0D8B04BEF0EF04DEF0EF007EFC8
:101C98000FF0000120EE08F07151D9267251DA22B6
:101CA800DECF57F0DECF58F0DECF59F0DECF5AF056
:101CB80020EE04F07151D9267251DA22DECF5BF0A2
:101CC800DECF5CF0DECF5DF0DECF5EF09CEC1CF08A
:101CD800D8B071EF0EF073EF0EF007EF0FF00001C0
:101CE80020EE04F07151D9267251DA22DECF01F0CC
:101CF800DECF02F0DECF03F0DECF04F019EC1CF0EB
:101D080001C07BF002C07CF000017D517B5D736FE8
:101D18007E517C59746F73C00CF074C00DF0000EC6
:101D28000DBEFF0E0E6E0F6E010EA1EC1AF00CC068
:101D380036F00DC037F00EC038F00FC039F071C062
:101D4800D9FF72C0DAFFDECF2EF0DECF2FF0DECF64
:101D580030F0DECF31F0000120EE08F07151D926C5
:101D68007251DA22DECF2AF0DECF2BF0DECF2CF054
:101D7800DECF2DF07FEC21F02AC032F02BC033F0FB
:101D88002CC034F02DC035F03FEC16F032C077F09F
:101D980033C078F034C079F035C07AF0000E1E6E8A
:101DA800000E1F6E000E206E400E216E77C01AF0D6
:101DB80078C01BF079C01CF07AC01DF0CFEC0FF092
:101DC8001AC04BF01BC04CF01CC04DF01DC04EF0AB
:101DD800000E4F6E000E506E700E516E420E526E17
:101DE8002FEC12F0000120EE10F07151D92672513B
:101DF800DA224BC0DEFF4CC0DEFF4DC0DEFF4EC016
:101E0800DEFF99EF0FF0000120EE08F07151D9269E
:101E18007251DA22DECF01F0DECF02F0DECF03F01E
:101E2800DECF04F019EC1CF001C07BF002C07CF09E
:101E380000017D517B5D736F7E517C59746F73C057
:101E48000CF074C00DF0000E0DBEFF0E0E6E0F6E7E
:101E5800010EA1EC1AF00CC036F00DC037F00EC020
:101E680038F00FC039F0000120EE04F07151D92686
:101E78007251DA22DECF2EF0DECF2FF0DECF30F037
:101E8800DECF31F071C0D9FF72C0DAFFDECF2AF0A1
:101E9800DECF2BF0DECF2CF0DECF2DF07FEC21F063
:101EA8002AC032F02BC033F02CC034F02DC035F0EE
:101EB8003FEC16F032C077F033C078F034C079F0D8
:101EC80035C07AF0000E1E6E000E1F6E800E206E5A
:101ED800400E216E77C01AF078C01BF079C01CF054
:101EE8007AC01DF0CFEC0FF01AC04BF01BC04CF0BD
:101EF8001CC04DF01DC04EF0000E4F6E000E506E0F
:101F0800700E516E420E526E2FEC12F0000120EE50
:101F180010F07151D9267251DA224BC0DEFF4CC045
:101F2800DEFF4DC0DEFF4EC0DEFF20EE10F0715127
:101F3800D9267251DA22030EDBBEA7EF0FF0A5EF08
:101F48000FF0CEEF0FF020EE10F07151D92672513C
:101F5800DA22DECF1AF0DECF1BF0DECF1CF0DECFA8
:101F68001DF0000E1E6E000E1F6EB40E206E430E86
:101F7800216ECFEC0FF0000120EE10F07151D92640
:101F88007251DA221AC0DEFF1BC0DEFF1CC0DEFF62
:101F98001DC0DEFF12001D50800B266E1D501D2433
:101FA800286E1CAEDAEF0FF0DCEF0FF0DDEF0FF06C
:101FB80028802850D8B4E3EF0FF0E5EF0FF0FAEFE0
:101FC8000FF02828D8A4EBEF0FF0EDEF0FF0F5EFA6
:101FD8000FF0000E1A6E000E1B6E000E1C6E000E27
:101FE8001D6E1C8E000E1D6E02EF10F0000E1A6E94
:101FF800000E1B6E000E1C6E000E1D6E2150800B15
:10200800276E26502718D8B40CEF10F00EEF10F0FA
:102018000FEF10F0268C21502124276E20AE17EFE9
:1020280010F019EF10F01AEF10F027802750D8B4ED
:1020380020EF10F022EF10F037EF10F02728D8A487
:1020480028EF10F02AEF10F032EF10F0000E1E6E9D
:10205800000E1F6E000E206E000E216E208E000EE8
:10206800216E3FEF10F0000E1E6E000E1F6E000E68
:10207800206E000E216E2850275CD8B046EF10F075
:1020880048EF10F06FEF10F026AC4DEF10F04FEF67
:1020980010F051EF10F0800E261A28C029F027C042
:1020A80028F029C027F01AC029F01EC01AF029C04C
:1020B8001EF01BC029F01FC01BF029C01FF01CC058
:1020C80029F020C01CF029C020F01DC029F021C033
:1020D8001DF029C021F0000E296E285027C022F0DB
:1020E800236A225E000E235A23BE84EF10F0235089
:1020F80009E11A0E225CD8A084EF10F086EF10F0E8
:10210800BDEF10F01A501B101C101D10D8A48FEF33
:1021180010F092EF10F0010E93EF10F0000E296E00
:10212800000E1A6E000E1B6E000E1C6E000E1D6E49
:1021380027C028F0C6EF10F029A0A5EF10F0A7EFF0
:1021480010F0ADEF10F0D89029300109296EAFEFEB
:1021580010F0D89029321AA0B4EF10F0B6EF10F0B2
:10216800B7EF10F0298E1D341D321C321B321A3283
:10217800282A2750285CD8A0C4EF10F0C6EF10F02A
:10218800A0EF10F026BCCBEF10F0CDEF10F00DEF64
:1021980011F02850D8A4D3EF10F0D5EF10F0DFEFEE
:1021A80010F0000E1A6E000E1B6E000E1C6E000E54
:1021B8001D6E2EEF12F01E501A261F501B222050A3
:1021C8001C2221501D221DA0ECEF10F0EEEF10F0A4
:1021D8009AEF11F029A0F3EF10F0F5EF10F0FBEFF4
:1021E80010F0D89029300109296EFDEF10F0D89031
:1021F80029321AA002EF11F004EF11F005EF11F0E7
:10220800298E1D341D321C321B321A32282A9AEFAD
:1022180011F01E501A5C1F501B5820501C581D509E
:10222800800A226E2150800A2258D8B01EEF11F081
:1022380020EF11F04BEF11F01A501E5C226E1B506C
:102248001F58236E1C502058246E1D502158256E8F
:10225800FF0E22241A6EFF0E23201B6EFF0E242071
:102268001C6EFF0E25201D6E800E261A296C295023
:10227800D8A441EF11F043EF11F053EF11F0010E24
:102288001A26000E1B221C221D2253EF11F01E508D
:102298001A5E1F501B5A20501C5A21501D5A1A50A2
:1022A8001B101C101D10D8A45CEF11F05EEF11F08C
:1022B80093EF11F02950D8A464EF11F066EF11F0F4
:1022C80093EF11F0000E1A6E000E1B6E000E1C6EBE
:1022D800000E1D6E2EEF12F0D8901A361B361C36E3
:1022E8001D3629AE7AEF11F07CEF11F07DEF11F079
:1022F8001A8029A082EF11F084EF11F088EF11F015
:10230800D88029368AEF11F0D89029362850D8B4C9
:1023180090EF11F092EF11F093EF11F028061CAE38
:1023280098EF11F09AEF11F070EF11F0000E276E90
:1023380029AEA1EF11F0A3EF11F0BBEF11F029C006
:1023480022F07F0E2216D8B4ACEF11F0AEEF11F0E8
:10235800B2EF11F0010E276EBBEF11F01AA0B7EF24
:1023680011F0B9EF11F0BBEF11F0AEEF11F02750FB
:10237800D8B4C1EF11F0C3EF11F0EEEF11F0010E78
:102388001A26000E1B221C221D221DA0CEEF11F0C2
:10239800D0EF11F0EEEF11F01AC022F01BC023F0BD
:1023A8001CC024F01DC025F02534253224322332E8
:1023B800223222C01AF023C01BF024C01CF025C012
:1023C8001DF02828D8B4EBEF11F0EDEF11F0EEEF87
:1023D80011F0282A2828D8B4F4EF11F0F6EF11F0FC
:1023E800FEEF11F02850D8A4FCEF11F0FEEF11F029
:1023F80010EF12F0000E1A6E000E1B6E000E1C6E0F
:10240800000E1D6E2850D8A40CEF12F00EEF12F03B
:1024180010EF12F0000E266E28A015EF12F017EF3D
:1024280012F01AEF12F01C8E1BEF12F01C9ED890BF
:1024380028301D6E26AE23EF12F025EF12F026EF9E
:1024480012F01D8E1AC01AF01BC01BF01CC01CF025
:102458001DC01DF012004E50800B0001606F4E50E1
:102468004E24666F4DAE3BEF12F03DEF12F03EEF9B
:1024780012F066816651D8B444EF12F046EF12F0BC
:1024880059EF12F06629D8A44CEF12F04EEF12F073
:1024980056EF12F0000E4B6E000E4C6E000E4D6E95
:1024A800000E4E6E4D8E61EF12F0000E4B6E000E58
:1024B8004C6E000E4D6E000E4E6E5250800B601B1F
:1024C80052505224656F51AE6CEF12F06EEF12F05D
:1024D8006FEF12F065816551D8B475EF12F077EFA0
:1024E80012F08AEF12F06529D8A47DEF12F07FEF81
:1024F80012F087EF12F0000E4F6E000E506E000EB5
:10250800516E000E526E518E92EF12F0000E4F6E09
:10251800000E506E000E516E000E526E6551D8B40A
:1025280098EF12F09AEF12F0A2EF12F06651D8A4C9
:10253800A0EF12F0A2EF12F0ACEF12F0000E4B6E0B
:10254800000E4C6E000E4D6E000E4E6E44EF14F0F1
:1025580051504B02F3CF6BF0F4CF6CF06B51616FBD
:10256800626B636B646B6C51676F686B696B6A6BEA
:1025780050504C02F3CF6BF0F4CF6CF06B516127E5
:10258800000E6223632364236C516727000E6823BF
:1025980069236A234F504D02F3CF6BF0F4CF6CF0F0
:1025A8006B516127000E6223632364236C516727F4
:1025B800000E682369236A2363C064F062C063F075
:1025C80061C062F0616B4F504C02F3CF6BF0F4CFF7
:1025D8006CF06B5161276C516223000E6323000E6F
:1025E800642350504B02F3CF6BF0F4CF6CF06B5177
:1025F80061276C516223000E6323000E642363C0BD
:1026080064F062C063F061C062F0616B4F504B02CE
:10261800F3CF6BF0F4CF6CF06B5161276C516223F0
:10262800000E6323000E642351504C02F3CF6BF06D
:10263800F4CF6CF06B5167276C516823000E692347
:10264800000E6A2350504D02F3CF6BF0F4CF6CF0BC
:102658006B5167276C516823000E6923000E6A23AB
:1026680051504D02F3CF6BF0F4CF6CF06B51536EB9
:102678006C51546E556A566A55C056F054C055F0A0
:1026880053C054F0536A5350672754506823555029
:10269800692356506A2361C053F062C054F063C086
:1026A80055F064C056F0190E5FEF13F0D89056320B
:1026B800553254325332E82E5AEF13F053506727ED
:1026C800545068235550692356506A2363C064F0F8
:1026D80062C063F061C062F0616B655166C053F01F
:1026E800546A5326000E5422820E53246B6FFF0E39
:1026F80054206C6F95EF13F0D890673768376937B7
:102708006A3764AF8AEF13F08CEF13F08DEF13F094
:102718006781D89061376237633764376B07D8A011
:102728006C0769AF9AEF13F09CEF13F080EF13F08A
:10273800000E656F64AFA3EF13F0A5EF13F0C9EFB8
:1027480013F0FF0E6115536EFF0E6215546EFF0EE7
:102758006315556E7F0E6415566E53505410551000
:102768005610D8B4BAEF13F0BCEF13F0C0EF13F063
:10277800010E656FC9EF13F067A1C5EF13F0C7EF3E
:1027880013F0C9EF13F0BCEF13F06551D8B4CFEFD5
:1027980013F0D1EF13F0F5EF13F0010E6727000ED9
:1027A800682369236A236AA1DCEF13F0DEEF13F0D4
:1027B800F5EF13F067C053F068C054F069C055F0E6
:1027C8006AC056F05634563255325432533253C0DA
:1027D80067F054C068F055C069F056C06AF06B4B9A
:1027E8006C2B6CBF00EF14F06C5108E16B29D8A07A
:1027F80000EF14F002EF14F00CEF14F0000E676F06
:10280800000E686F800E696F7F0E6A6F3AEF14F0E2
:102818006CBF19EF14F06C5106E16B05D8B017EFD7
:1028280014F019EF14F025EF14F0000E676F000E86
:10283800686F000E696F000E6A6F000E606F3AEFE6
:1028480014F06BC066F0FF0E6717FF0E68177F0E57
:102858006917000E6A1766A134EF14F036EF14F00A
:1028680037EF14F0698FD89066316A6F60516A1338
:1028780067C04BF068C04CF069C04DF06AC04EF0BC
:1028880012002E0E0001736F0E0E746F000E576E3D
:10289800000E586EB00E596E430E5A6E20EE10F0B0
:1028A8007151D9267251DA22DECF5BF0DECF5CF0AF
:1028B800DECF5DF0DECF5EF09CEC1CF0D8B067EFA9
:1028C80014F069EF14F090EF14F0000120EE10F00E
:1028D8007151D9267251DA22DECF57F0DECF58F087
:1028E800DECF59F0DECF5AF0000E5B6E000E5C6E44
:1028F800B40E5D6E430E5E6E9CEC1CF0D8B087EF94
:1029080014F089EF14F090EF14F0720E0001736F59
:102918000E0E746F3AEF16F0000E576E000E586EDA
:10292800D00E596E410E5A6E000120EE10F0715112
:10293800D9267251DA22DECF5BF0DECF5CF0DECF33
:102948005DF0DECF5EF09CEC1CF0D8B0AEEF14F07A
:10295800B0EF14F0D7EF14F0000120EE10F0715131
:10296800D9267251DA22DECF57F0DECF58F0DECF0B
:1029780059F0DECF5AF0000E5B6E000E5C6EE80E6A
:102988005D6E410E5E6E9CEC1CF0D8B0CEEF14F07C
:10299800D0EF14F0D7EF14F0440E0001736F0E0E51
:1029A800746F3AEF16F0000E576E000E586E700EE8
:1029B800596E410E5A6E000120EE10F07151D92661
:1029C8007251DA22DECF5BF0DECF5CF0DECF5DF055
:1029D800DECF5EF09CEC1CF0D8B0F5EF14F0F7EF0A
:1029E80014F01EEF15F0000120EE10F07151D926F9
:1029F8007251DA22DECF57F0DECF58F0DECF59F031
:102A0800DECF5AF0000E5B6E000E5C6E980E5D6EA7
:102A1800410E5E6E9CEC1CF0D8B015EF15F017EF68
:102A280015F01EEF15F0610E0001736F0E0E746F36
:102A38003AEF16F0000E576E000E586EA80E596E3B
:102A4800410E5A6E000120EE10F07151D9267251D4
:102A5800DA22DECF5BF0DECF5CF0DECF5DF0DECFDA
:102A68005EF09CEC1CF0D8B03CEF15F03EEF15F092
:102A780065EF15F0000120EE10F07151D926725162
:102A8800DA22DECF57F0DECF58F0DECF59F0DECFB6
:102A98005AF0000E5B6E000E5C6EC80E5D6E410E45
:102AA8005E6E9CEC1CF0D8B05CEF15F05EEF15F094
:102AB80065EF15F0540E0001736F0E0E746F3AEF48
:102AC80016F0000E576E000E586EE00E596E400E4E
:102AD8005A6E000120EE10F07151D9267251DA2297
:102AE800DECF5BF0DECF5CF0DECF5DF0DECF5EF0F8
:102AF8009CEC1CF0D8B083EF15F085EF15F0ACEF27
:102B080015F0000120EE10F07151D9267251DA2229
:102B1800DECF57F0DECF58F0DECF59F0DECF5AF0D7
:102B2800000E5B6E000E5C6E100E5D6E410E5E6EEA
:102B38009CEC1CF0D8B0A3EF15F0A5EF15F0ACEFA6
:102B480015F04D0E0001736F0E0E746F3AEF16F00C
:102B5800000E576E000E586EAA0E596E420E5A6E2F
:102B6800000120EE10F07151D9267251DA22DECF21
:102B78005BF0DECF5CF0DECF5DF0DECF5EF09CEC8C
:102B88001CF0D8B0CAEF15F0CCEF15F0F3EF15F044
:102B9800000120EE10F07151D9267251DA22DECFF1
:102BA80057F0DECF58F0DECF59F0DECF5AF0000EE6
:102BB8005B6E000E5C6EBC0E5D6E420E5E6E9CEC33
:102BC8001CF0D8B0EAEF15F0ECEF15F0F3EF15F0C4
:102BD8002F0E0001736F0E0E746F3AEF16F0000E91
:102BE800576E000E586E110E596E430E5A6E000144
:102BF80020EE10F07151D9267251DA22DECF5BF047
:102C0800DECF5CF0DECF5DF0DECF5EF09CEC1CF03A
:102C1800D8B011EF16F013EF16F03AEF16F00001E6
:102C280020EE10F07151D9267251DA22DECF57F01A
:102C3800DECF58F0DECF59F0DECF5AF0000E5B6ED3
:102C4800000E5C6E240E5D6E430E5E6E9CEC1CF0F6
:102C5800D8B031EF16F033EF16F03AEF16F03A0E1F
:102C68000001736F0E0E746F3AEF16F073C071F0B7
:102C780074C072F012003550800B426E3550352406
:102C8800496E34AE4AEF16F04CEF16F04DEF16F0E1
:102C980049804950D8B453EF16F055EF16F06AEF53
:102CA80016F04928D8A45BEF16F05DEF16F065EF33
:102CB80016F0000E326E000E336E000E346E000EEB
:102CC800356E348E000E356E72EF16F0000E326ED1
:102CD800000E336E000E346E000E356E3950800BC8
:102CE800421A395039244A6E38AE7DEF16F07FEF1C
:102CF80016F080EF16F04A804A50D8B486EF16F0E6
:102D080088EF16F09DEF16F04A28D8A48EEF16F03B
:102D180090EF16F098EF16F0000E366E000E376E34
:102D2800000E386E000E396E388E000E396EA5EF23
:102D380016F0000E366E000E376E000E386E000E5E
:102D4800396E3650371038103910D8A4AEEF16F057
:102D5800B0EF16F0C8EF16F0000E326E000E336EAC
:102D6800000E346E000E356E800E34127F0E351252
:102D78004250351232C032F033C033F034C034F030
:102D880035C035F00BEF18F04950D8A4CEEF16F047
:102D9800D0EF16F0DAEF16F0000E326E000E336E3A
:102DA800000E346E000E356E0BEF18F04A5049C015
:102DB8003AF03B6A3A5E000E3B5A7F0E3A24436E65
:102DC800000E3B20446E32C03EF033C03FF034C0AA
:102DD80040F035C041F0000E326E000E336E000E2A
:102DE800346E000E356E000E456E000E466E000EF7
:102DF800476E000E486E000E4A6E3BEF17F04A50C1
:102E0800D8B409EF17F00BEF17F022EF17F0D890AE
:102E18003E363F3640364136D89032363336343631
:102E2800353648AE1AEF17F01CEF17F01DEF17F004
:102E38003280D890453646364736483636503E5C5E
:102E480037503F583850405839504158D8A02FEF84
:102E580017F031EF17F03AEF17F0488C36503E5E16
:102E680037503F5A3850405A3950415A4A2A190E59
:102E78004A6441EF17F043EF17F003EF17F03E50A5
:102E88003F1040104110D8B44CEF17F04EEF17F038
:102E980066EF17F0458066EF17F0D8903236333674
:102EA8003436353648AE5BEF17F05DEF17F05EEF5E
:102EB80017F03280D89045364636473648364306AE
:102EC800D8A0440634AE6BEF17F06DEF17F051EF52
:102ED80017F0000E4A6E48AE74EF17F076EF17F051
:102EE8009AEF17F0FF0E45143A6EFF0E46143B6E2C
:102EF800FF0E47143C6E7F0E48143D6E3A503B104F
:102F08003C103D10D8B48BEF17F08DEF17F091EF10
:102F180017F0010E4A6E9AEF17F032A096EF17F0ED
:102F280098EF17F09AEF17F08DEF17F04A50D8B4D2
:102F3800A0EF17F0A2EF17F0C6EF17F0010E322638
:102F4800000E33223422352235A0ADEF17F0AFEF53
:102F580017F0C6EF17F032C03AF033C03BF034C078
:102F68003CF035C03DF03D343D323C323B323A32E4
:102F78003AC032F03BC033F03CC034F03DC035F0CD
:102F8800434A442A44BED1EF17F0445008E143288D
:102F9800D8A0D1EF17F0D3EF17F0DEEF17F0000E3F
:102FA800446E4368000E326E000E336E000E346EAF
:102FB800000E356E44BEEBEF17F0445006E14304B3
:102FC800D8B0E9EF17F0EBEF17F0F9EF17F0000EB4
:102FD800446E000E436E000E326E000E336E000E0D
:102FE800346E000E356E000E426E43C049F049A0A3
:102FF80000EF18F002EF18F005EF18F0348E06EF26
:1030080018F0349ED8904930356EBCEF16F0120097
:10301800A8C0D9FFA9C0DAFFDECFF6FFDDCFF7FFE2
:10302800000EF86E0800F550250AD8A41EEF18F017
:1030380020EF18F081EF19F0A8C0D9FFA9C0DAFF76
:10304800DE2A000EDD22000E0001F76F000EF66F7B
:10305800F6C0FAF0F869F969A8C0D9FFA9C0DAFF83
:10306800DECFF6FFDDCFF7FF000EF86E0800F55053
:10307800730AD8B442EF18F044EF18F05FEF18F075
:10308800A8C0D9FFA9C0DAFFDECF01F0DDCF02F07A
:103098006E0E036E0E0E046E000E066E030E056EA7
:1030A8009EEC1DF001500210D8A45DEF18F05FEF00
:1030B80018F0A3EF18F0A8C0D9FFA9C0DAFFDECF37
:1030C800F6FFDDCFF7FF000EF86E0800F550730A23
:1030D800D8B471EF18F073EF18F07AEF18F0000E0B
:1030E8000001B76F030EB66F7FEF18F0000E0001F6
:1030F800B76F010EB66FA8C0D9FFA9C0DAFFB651E5
:10310800DE26B751DD22A6C00AF0A7C00BF0AAC080
:10311800D9FFABC0DAFFDFCFACF0020EDE26DFCF7F
:10312800ADF0000EDD22ACC0D9FFADC0DAFFDECFB6
:103138000CF0DDCF0DF07BEC1BF097EF19F0A8C079
:10314800D9FFA9C0DAFFDECFB9F0DDCFBAF0B9C038
:10315800F6FFBAC0F7FF000EF86E0800F5CFB8F01A
:10316800C2EF18F0B94BBA2BDCEF18F06C0EB86F41
:10317800DCEF18F0000EB86FDCEF18F00001B85162
:10318800AC6FAD6BAD51000AD8B4CDEF18F0BEEFFF
:1031980018F0AC514C0AD8B4B6EF18F02A0AD8B4D3
:1031A800BAEF18F00A0AD8B4B6EF18F0BEEF18F064
:1031B800B9C0F6FFBAC0F7FF000EF86E0800F55068
:1031C800660AD8A4EAEF18F0ECEF18F078EF19F0D7
:1031D80022EF19F0AAC0D9FFABC0DAFFDFCFACF0FD
:1031E800040EDE26DFCFADF0000EDD22ACC0D9FF25
:1031F800ADC0DAFFDECFAEF0DECFAFF0DECFB0F09D
:10320800DECFB1F037EF19F0AAC0D9FFABC0DAFFB3
:10321800DFCFACF0040EDE26DFCFADF0000EDD22EE
:10322800ACC0D9FFADC0DAFFDECFAEF0DECFAFF075
:10323800DECFB0F0DECFB1F037EF19F0B851AC6F98
:10324800AD6BAD51000AD8B42CEF19F037EF19F077
:10325800AC514C0AD8B408EF19F0200AD8B4EEEFF4
:1032680018F037EF19F0010EB925AC6F000EBA212E
:10327800AD6FA8C0D9FFA9C0DAFFACC0DEFFADC0F2
:10328800DDFF60EF19F0A6C071F0A7C072F0AEC004
:1032980073F0AFC074F0B0C075F0B1C076F0B9C0CB
:1032A800F6FFBAC0F7FF000EF86E0800F5CF77F00A
:1032B8003CEC07F097EF19F0B9C0F6FFBAC0F7FF7A
:1032C800000EF86E0800F550AC6FAD6BAD51000AFA
:1032D800D8B471EF19F078EF19F0AC51660AD8B488
:1032E80047EF19F078EF19F0A8C0D9FFA9C0DAFFA5
:1032F800DE2A000EDD2297EF19F0A8C0D9FFA9C079
:10330800DAFFDECFF6FFDDCFF7FF000EF86E08001C
:10331800F550016E026AA6C003F0A7C004F086EC5F
:103328001EF078EF19F01200EEC05BF0EFC05CF011
:10333800F0C05DF0F1C05EF04BC05BF04CC05CF0DB
:103348004DC05DF04EC05EF0810E4F6EFF0E506EA8
:103358005BC051F05CC052F05DC053F05EC054F0E9
:10336800180EBCEF19F0D890543253325232513201
:10337800E82EB7EF19F051504F24596E000E502027
:103388005A6E5ABED1EF19F05A5009E1170E595C1E
:10339800D8A0D1EF19F0D3EF19F0DDEF19F04BC039
:1033A8004BF04CC04CF04DC04DF04EC04EF0A0EF6D
:1033B8001AF05ABEE2EF19F0E4EF19F054EF1AF0E0
:1033C80059C04FF0FF0E506EFF0E516E7F0E526EB9
:1033D800000E536E4F66F3EF19F0FBEF19F05334FC
:1033E80053325232513250324F2EEEEF19F050C054
:1033F80055F051C056F052C057F053C058F05550D0
:103408005B144F6E56505C14506E57505D14516EDD
:1034180058505E14526E4F50501051105210D8A48C
:1034280018EF1AF01AEF1AF01CEF1AF0D3EF19F090
:103438005BC04FF05CC050F05DC051F05EC052F010
:10344800200E2CEF1AF0D8905232513250324F32AF
:10345800E82E27EF1AF04F50501051105210D8B4E0
:1034680038EF1AF03AEF1AF042EF1AF055505B268F
:1034780056505C2257505D2258505E22551C4F6EA4
:10348800561C506E571C516E581C526E4F505B168E
:1034980050505C1651505D1652505E1698EF1AF057
:1034A8005BC04FF05CC050F05DC051F05EC052F0A0
:1034B800200E64EF1AF0D8905232513250324F3207
:1034C800E82E5FEF1AF04F50501051105210D8A448
:1034D80070EF1AF072EF1AF07CEF1AF0000E5B6EC4
:1034E800000E5C6E000E5D6E000E5E6E98EF1AF0B8
:1034F800D8905B344F6E5C34506E5D34516E5E34E0
:10350800526E4F50501051105210D8B48EEF1AF01E
:1035180090EF1AF098EF1AF0000E5B6E000E5C6EDA
:10352800800E5D6EBF0E5E6E5BC04BF05CC04CF0F3
:103538005DC04DF05EC04EF01200146E1450D8B449
:10354800A8EF1AF0AAEF1AF0CCEF1AF00FBEB1EFFD
:103558001AF0AFEF1AF0CCEF1AF00CC010F00DC053
:1035680011F00EC012F00FC013F0101E111E121E23
:10357800131E102A000E11221222132210C016F058
:1035880011C017F012C018F013C019F0D4EF1AF0D8
:103598000CC016F00DC017F00EC018F00FC019F0CF
:1035A8000C500D100E100F10D8A4DDEF1AF0DFEF3D
:1035B8001AF0E9EF1AF0000E0C6E000E0D6E000EF8
:1035C8000E6E000E0F6E7AEF1BF0960E156EF3EF6F
:1035D8001AF0152AD8901932183217321632000EFE
:1035E8001614106E000E1714116E000E1814126EB9
:1035F800FE0E1914136E1050111012101310D8A4C7
:1036080008EF1BF00AEF1BF0EDEF1AF018EF1BF0B4
:10361800152A010E1626000E172218221922D890F4
:103628001932183217321632000E1614106E000EA8
:103638001714116E000E1814126EFF0E1914136E63
:103648001050111012101310D8A42DEF1BF02FEFEB
:103658001BF00CEF1BF037EF1BF01506D890163651
:1036680017361836193618BE3CEF1BF03EEF1BF024
:1036780046EF1BF0020E156044EF1BF046EF1BF0FF
:1036880031EF1BF015B04BEF1BF04DEF1BF04EEF79
:103698001BF0189ED890153215C010F0116A126AE6
:1036A800136A10C013F0126A116A106A10501612C9
:1036B8001150171212501812135019121450D8B46E
:1036C80068EF1BF06AEF1BF072EF1BF00FBE71EF93
:1036D8001BF06FEF1BF072EF1BF0198E16C00CF089
:1036E80017C00DF018C00EF019C00FF0120021EE2F
:1036F800C4F010EE0FF0060EDBCFE3FFE806FCE2A5
:103708000CC01AF00DC01BF01A501B10D8A48FEF74
:103718001BF091EF1BF095EF1BF00F0E1A6E000EC9
:103728001B6E1AC001F01BC002F02FEC21F001C083
:103738001CF002C01DF0F8C01EF0F9C01FF01FBE3B
:10374800A8EF1BF0AAEF1BF0BFEF1BF01C501E5C8C
:103758001F50800A0E6E1D50800A0E58D8A0B7EF71
:103768001BF0B9EF1BF0BBEF1BF0BFEF1BF01EC047
:103778001CF01FC01DF01CC01EF01DC01FF0F6C0BD
:1037880016F0F7C017F0D5EF1BF0000E026E200EF2
:10379800016E0AC003F00BC004F086EC1EF01C4A50
:1037A8001D2A16501C5C1D50800A0E6E1750800A88
:1037B8000E58D8A0E2EF1BF0E4EF1BF0C9EF1BF0A6
:1037C800000E196E000E186E09EF1CF01AC0F6FFF5
:1037D8001BC0F7FF000EF86E0D0EF76403D008004B
:1037E800F55005D0F6CFE1FFF7CFE2FFE7500E6EB8
:1037F8000E50016E026A0AC003F00BC004F086EC9A
:103808001EF01A4A1B2A184A192A1E50185C195009
:10381800800A0E6E1F50800A0E58D8A016EF1CF0B2
:1038280018EF1CF0EAEF1BF01200033404340A6EA0
:103838000A50D8A422EF1CF024EF1CF02EEF1CF045
:10384800000E016E000E026E000E036E000E046E76
:103858009BEF1CF001C005F002C006F003C007F0A2
:1038680004C008F0200E3EEF1CF0D8900832073252
:1038780006320532E82E39EF1CF00550096E038E2A
:10388800FF0E0116FF0E0216FF0E0316000E041699
:10389800960E0A5E0ABE55EF1CF053EF1CF06BEF54
:1038A8001CF00A50800A970FD8B05DEF1CF05FEF4C
:1038B8001CF061EF1CF024EF1CF0D89004320332A6
:1038C800023201320A3E61EF1CF083EF1CF01F0E3A
:1038D8000A6471EF1CF073EF1CF07BEF1CF024EF0F
:1038E8001CF0D89001360236033604360A060A5010
:1038F800D8A481EF1CF083EF1CF075EF1CF0095081
:10390800D8B489EF1CF08BEF1CF093EF1CF0041E69
:10391800031E021E016C000E02220322042201C0B3
:1039280001F002C002F003C003F004C004F012006A
:10393800000E571400016D6F000E58146E6F800E44
:1039480059146F6F7F0E5A14706F6D516E116F118D
:103958007011D8A4B2EF1CF0B4EF1CF0BCEF1CF04F
:10396800000E576E000E586E000E596E000E5A6EFD
:10397800000E5B146D6F000E5C146E6F800E5D148C
:103988006F6F7F0E5E14706F6D516E116F11701135
:10399800D8A4D1EF1CF0D3EF1CF0DBEF1CF0000E25
:1039A8005B6E000E5C6E000E5D6E000E5E6E5AAEB3
:1039B800E0EF1CF0E2EF1CF0EBEF1CF0576C581E28
:1039C800D8B0582A591ED8B0592A800E5A565EAE19
:1039D800F0EF1CF0F2EF1CF0FBEF1CF05B6C5C1ED0
:1039E800D8B05C2A5D1ED8B05D2A800E5E56000EE7
:1039F800571A000E581A000E591A800E5A1A000E3D
:103A08005B1A000E5C1A000E5D1A800E5E1A5B507F
:103A1800575C5C5058585D5059585E505A58D8B049
:103A280018EF1DF01AEF1DF01DEF1DF0D8901EEFD6
:103A38001DF0D8801200F2C00BF0F3C00CF0F4C0F7
:103A48000DF0F5C00EF001C00BF002C00CF003C081
:103A58000DF004C00EF00BC005F00CC006F00DC050
:103A680007F00EC008F0180E3FEF1DF0D89008328E
:103A7800073206320532E82E3AEF1DF00550096E7E
:103A88000A6A09500A10D8A44CEF1DF04EEF1DF039
:103A98006EEF1DF0D8900B34056E0C34066E0D34A5
:103AA800076E0E34086E0550061007100810D8A4CB
:103AB80060EF1DF062EF1DF068EF1DF0000E026E62
:103AC800020E016E9DEF1DF0000E026E030E016ED8
:103AD8009DEF1DF009280A10D8A475EF1DF077EFA7
:103AE8001DF099EF1DF00BC005F00CC006F00DC0DD
:103AF80007F00EC008F0090ED890053606360736CE
:103B08000836E82E80EF1DF0055006100710081043
:103B1800D8B491EF1DF094EF1DF0010E95EF1DF054
:103B2800000E016E026A9DEF1DF0000E026E040E7B
:103B3800016E120001C008F002C009F003C00AF0CB
:103B480004C00BF00506D8A00606052806E10628DD
:103B5800D8A4B1EF1DF0B3EF1DF0C0EF1DF0000EBB
:103B6800026E000E016E18EF1EF0084A092A0A4A72
:103B78000B2A0506D8A0060608C0F6FF09C0F7FFFD
:103B8800000EF86E0800F5500009D8B4CEEF1DF00D
:103B9800D0EF1DF002EF1EF00AC0F6FF0BC0F7FFD2
:103BA800000EF86E0800F5500009D8B4DEEF1DF0DD
:103BB800E0EF1DF002EF1EF005500610D8B4E7EF55
:103BC8001DF0E9EF1DF002EF1EF008C0F6FF09C076
:103BD800F7FF000EF86E0800F5CF07F00AC0F6FFF1
:103BE8000BC0F7FF000EF86E0800F5500718D8B4A0
:103BF80000EF1EF002EF1EF0B9EF1DF008C0F6FF4F
:103C080009C0F7FF000EF86E0800F5CF07F00AC0EC
:103C1800F6FF0BC0F7FF000EF86E0800F550075CC2
:103C2800016E026AD8A0020612008FEC20F005C0CF
:103C38000CF006C00DF00E6A0F6A000EA1EC1AF027
:103C48000CC01CF00DC01DF00EC01EF00FC01FF000
:103C5800B7EC20F005C00CF006C00DF00E6A0F6A34
:103C6800000EA1EC1AF00CC020F00DC021F00EC01F
:103C780022F00FC023F007EC21F005C00CF006C0BD
:103C88000DF00E6A0F6A000EA1EC1AF00CC024F0B9
:103C98000DC025F00EC026F00FC027F0DFEC20F095
:103CA80005C00CF006C00DF00E6A0F6A000EA1ECFC
:103CB8001AF01AC0D9FF1BC0DAFF1CC0DEFF1DC0F6
:103CC800DEFF1EC0DEFF1FC0DEFF20EE08F01A5028
:103CD800D9261B50DA2224C0DEFF25C0DEFF26C00D
:103CE800DEFF27C0DEFF20EE04F01A50D9261B5055
:103CF800DA2220C0DEFF21C0DEFF22C0DEFF23C0A3
:103D0800DEFF120003500410D8B48DEF1EF08FEFC1
:103D18001EF098EF1EF003500410D8A496EF1EF082
:103D280098EF1EF09DEF1EF00150F4EC22F0EAEF40
:103D38001EF020EE09F00350D9260450DA22DE5096
:103D4800DE10D8B4AAEF1EF0ACEF1EF0C7EF1EF0DD
:103D580020EE09F00350D9260450DA2210EE03F0C1
:103D68000350E1260450E222DE50E65CE650800A69
:103D7800096EDE50800A0958D8B0C5EF1EF0C7EFAB
:103D88001EF0EAEF1EF020EE03F00350D92604508F
:103D9800DA22DECF05F0DDCF06F003C0D9FF04C07C
:103DA800DAFFDECF07F0DDCF08F005500724D96E23
:103DB80006500820DA6E01C0DFFF20EE03F0035042
:103DC800D9260450DA22DE2A000EDD221200E8C0CD
:103DD80071F0E9C072F045EC14F071C0EAF072C0FD
:103DE800EBF0E6C0C3F0E7C0C4F0010E0001C56FF8
:103DF8000E0EC66FEAC0C7F0EBC0C8F0E8C0D9FF26
:103E0800E9C0DAFFDECFC9F0DECFCAF0DECFCBF0F3
:103E1800DECFCCF020EE04F0E851D926E951DA22C1
:103E2800DECFCDF0DECFCEF0DECFCFF0DECFD0F0DC
:103E380020EE08F0E851D926E951DA22DECFD1F098
:103E4800DECFD2F0DECFD3F0DECFD4F020EE10F00C
:103E5800E851D926E951DA22DECFD5F0DECFD6F007
:103E6800DECFD7F0DECFD8F066EC20F0E6C002F067
:103E7800E7C003F061EC22F01200000E0114096E95
:103E8800000E02140A6E800E03140B6E7F0E0414CB
:103E98000C6E09500A100B100C10D8A456EF1FF026
:103EA80058EF1FF060EF1FF0000E016E000E026E5B
:103EB800000E036E000E046E000E0514096E000E4F
:103EC80006140A6E800E07140B6E7F0E08140C6E13
:103ED80009500A100B100C10D8A475EF1FF077EFDB
:103EE8001FF07FEF1FF0000E056E000E066E000E2D
:103EF800076E000E086E055001180FE106500218F3
:103F08000CE10750031809E108500418D8B48FEFE2
:103F18001FF091EF1FF094EF1FF0D89095EF1FF06E
:103F2800D880120016BE9BEF1FF09DEF1FF0A3EF85
:103F38001FF015C01AF016C01BF0A7EF1FF0000EF7
:103F48001B6E000E1A6E000E196E000E186EB9EF79
:103F58001FF0000E026E200E016E11C003F012C099
:103F680004F086EC1EF0184A192A1A50185C1950E9
:103F7800800A176E1B50800A1758D8A0C6EF1FF08A
:103F8800C8EF1FF0ADEF1FF013C00AF014C00BF01C
:103F980011C00CF012C00DF0C4EC21F01200A6EC18
:103FA80022F026EC22F07DEC22F07F82879279883D
:103FB80081987E8E869E500E1A6E010E1B6E19EC2D
:103FC8001EF0500E0001716F010E726F39EC0CF08B
:103FD800640E0001E66F010EE76F500EE86F010EE8
:103FE800E96FEBEC1EF0520E0001ED6F2B0EEC6F3B
:103FF800000EE82EFED7EC2FFCD7ED2FFAD700F0F5
:10400800DFEF1FF000EF00F004BE17EF20F00450C0
:104018000310021006E10104D8B015EF20F017EFE5
:1040280020F032EF20F001C005F002C006F003C016
:1040380007F004C008F0051E061E071E081E052A04
:10404800000E06220722082205C001F006C002F071
:1040580007C003F008C004F03AEF20F001C001F0F7
:1040680002C002F003C003F004C004F01200BDC097
:10407800C1F0BEC0C2F050EF20F0BBC0A6F0BCC07B
:10408800A7F0C10E0001A86F000EA96FBFC0AAF06B
:10409800C0C0ABF00CEC18F0C1C0F6FFC2C0F7FF0F
:1040A800000EF86E0800F5500009D8A45EEF20F065
:1040B80060EF20F041EF20F0000E0001BC6F000E11
:1040C800BB6F1200C70E0001D96F000EDA6FC3C0B4
:1040D800DBF0C4C0DCF0000EDF6F000EDE6F000EF8
:1040E800E56F000EE46FDB0EBB6F000EBC6FC5C042
:1040F800BDF0C6C0BEF0D90EBF6F000EC06F3BEC5E
:1041080020F00001DE51C325D96EDF51C421DA6EDB
:10411800000EDF6E1200EFEC22F0520EDFEC22F000
:10412800B60EDFEC22F0E5EC22F0530EDFEC22F0C5
:10413800010EE6EC21F0076E07500A6E0B6A000EBE
:10414800E6EC21F0076E0750096E086A0A5008105D
:104158000A6E0B5009100B6EEAEC22F00AC005F04B
:104168000BC006F01200EFEC22F0520EDFEC22F04A
:10417800B80EDFEC22F0E5EC22F0530EDFEC22F073
:10418800010EE6EC21F0076E07500A6E0B6A000E6E
:10419800E6EC21F0076E0750096E086A0A5008100D
:1041A8000A6E0B5009100B6EEAEC22F00AC005F0FB
:1041B8000BC006F01200EFEC22F0520EDFEC22F0FA
:1041C800B40EDFEC22F0E5EC22F0530EDFEC22F027
:1041D800010EE6EC21F0076E07500A6E0B6A000E1E
:1041E800E6EC21F0076E0750096E086A0A500810BD
:1041F8000A6E0B5009100B6EEAEC22F00AC005F0AB
:104208000BC006F01200EFEC22F0520EDFEC22F0A9
:10421800BA0EDFEC22F0E5EC22F0530EDFEC22F0D0
:10422800010EE6EC21F0076E07500A6E0B6A000ECD
:10423800E6EC21F0076E0750096E086A0A5008106C
:104248000A6E0B5009100B6EEAEC22F00AC005F05A
:104258000BC006F0120001C003F002C004F037EFF3
:1042680021F0014A022A01C0F6FF02C0F7FF000E42
:10427800F86E0D0EF76403D00800F55005D0F6CFA0
:10428800E1FFF7CFE2FFE7500009D8A44EEF21F095
:1042980050EF21F035EF21F00350015C016E04501E
:1042A8000258026E120003C009F004C00AF001C0EF
:1042B80007F002C008F071EF21F009C0D9FF0AC069
:1042C800DAFFDF500B6E094A0A2A07C0D9FF08C077
:1042D800DAFF0BC0DFFF074A082A0506D8A0060642
:1042E800052806E10628D8A47CEF21F07EEF21F00E
:1042F80061EF21F01200000E2E1A000E2F1A000E88
:10430800301A800E311A2AC01AF02BC01BF02CC0AC
:104318001CF02DC01DF02EC01EF02FC01FF030C0A5
:1043280020F031C021F0CFEC0FF01AC02AF01BC0EA
:104338002BF01CC02CF01DC02DF0120003C005F09E
:1043480004C006F001C007F002C008F005C0F6FF7F
:1043580006C0F7FF054A062A000EF86E07C0D9FF07
:1043680008C0DAFF074A082A0800F5CFDFFFDF5048
:10437800D8A4C1EF21F0C3EF21F0AAEF21F0120079
:10438800000E106E000E0F6ED5EF21F00EC001F07A
:10439800026A0CC003F00DC004F086EC1EF00F4A50
:1043A800102A0F500A24D96E10500B20DA6EDF50F5
:1043B8000E6E0E50D8A4E3EF21F0E5EF21F0CAEF1E
:1043C80021F01200036E92EC22F00E01DA8792ECD3
:1043D80022F0D5CE04F092EC22F00350D8B4F7EFD7
:1043E80021F0FBEF21F0026A022AFCEF21F0026AB9
:1043F800023A02460E01DA510218DF0B0218DA6F90
:10440800DA8904501200A60EF66E450EF76E000EFD
:10441800F86E01EEB4F010EE17F00900F5CFEEFFDC
:10442800E550E150FAE101EE00F0640EEE6AE806AC
:10443800FDE100EEEEF00D0EEE6AE806FDE100018A
:10444800D3EF1FF07DEC22F0010E036E000EB7ECE7
:1044580022F03F0E056E550EE82EFED7052EFCD72E
:1044680000F0030E036E000EB7EC22F0D60E036EBA
:10447800010EB7EC22F0130E036E000EB7EC22F01B
:1044880012000150021003100410D8B44EEF22F0AD
:1044980050EF22F058EF22F0000E011A000E021A17
:1044A800000E031A800E041A01C001F002C002F0C7
:1044B80003C003F004C004F0120070EF22F002C041
:1044C800D9FF03C0DAFFDF50C7EC22F0024A032A03
:1044D8006A0EE82EFED700D002C0D9FF03C0DAFF6B
:1044E800DF50D8A47AEF22F07CEF22F063EF22F0BD
:1044F80012000E01D951F00B0809D96FD98B9F0E04
:10450800D66F848A848CA79BA79D1D0E1D6F1E0ED7
:104518001C6F1C0E6F6F1B0E706F12000E01D8B54A
:1045280098EF22F09AEF22F092EF22F0DACE01F023
:104538001F0E0116D8A4A3EF22F0A5EF22F092EFE8
:1045480022F0120083888382120E0E01626F110E10
:10455800156FE997E895330EE56F000EE66FE7896A
:10456800E88BE78F1200046EEFEC22F0520EDFECBE
:1045780022F004508009DFEC22F00350DFEC22F037
:10458800EAEC22F01200016E0E0137A5CEEF22F000
:10459800D0EF22F0C8EF22F001C0E4FE1200720E44
:1045A800440E610E540E4D0E2F0E3A0E5B0E286E01
:0545B800756C6C290088
:1045BE00026E92EC22F002C0D5FE120092EC22F0B6
:1045CE000E01DA83120092EC22F00E01DA8512004F
:0C45DE0092EC22F00E01DA8112001200B3
:020000040020DA
:10000000FF0FFF0FFF0FFF0FFF0FFF0FFF0FFF0F80
:020000040030CA
:0C000000AAFFFFFF9FFFFFFFFFFFFFFFB5
:00000001FF
