:0400000042EF1FF0BC
:100E000000436F6C6F757220697320257320200D6D
:100E1000004C6967687420426C7565004461726BB0
:100E200020426C7565004567677368656C6C004FA0
:100E300072616E67650059656C6C6F77004772650B
:100E4000656E0050696E6B006C6C730052656400D7
:010E500000A1
:100E520057C0D9FF58C0DAFFDECF01F0DECF02F073
:100E6200DECF03F0DECF04F020EE04F05750D92697
:100E72005850DA22DECF05F0DECF06F0DECF07F0E3
:100E8200DECF08F0A0EC1BF0D8A04AEF07F04CEF41
:100E920007F07FEF07F057C0D9FF58C0DAFFDECF67
:100EA20001F0DECF02F0DECF03F0DECF04F020EE61
:100EB20008F05750D9265850DA22DECF05F0DECF9F
:100EC20006F0DECF07F0DECF08F0A0EC1BF0D8A0D2
:100ED2006DEF07F06FEF07F07FEF07F020EE10F0F5
:100EE2005750D9265850DA22000EDE6E000EDE6E02
:100EF200000EDE6E000EDD6EA9EF0AF0000E00019C
:100F0200746F000E736F57C0D9FF58C0DAFFDECF7F
:100F120001F0DECF02F0DECF03F0DECF04F020EEF0
:100F220004F05750D9265850DA22DECF05F0DECF32
:100F320006F0DECF07F0DECF08F001EC19F0D8B0F2
:100F4200A5EF07F0A7EF07F0DEEF07F057C0D9FFD4
:100F520058C0DAFFDECF01F0DECF02F0DECF03F0C1
:100F6200DECF04F020EE08F05750D9265850DA228E
:100F7200DECF05F0DECF06F0DECF07F0DECF08F0E1
:100F820001EC19F0D8B0C8EF07F0CAEF07F0DEEFB6
:100F920007F057C0D9FF58C0DAFFDECF01F0DECF2D
:100FA20002F0DECF03F0DECF04F07EEC18F001C0D9
:100FB20073F002C074F050EF08F020EE04F05750C6
:100FC200D9265850DA22DECF01F0DECF02F0DECF92
:100FD20003F0DECF04F057C0D9FF58C0DAFFDECFEE
:100FE20005F0DECF06F0DECF07F0DECF08F001EC31
:100FF20019F0D8B0FFEF07F001EF08F03CEF08F06E
:1010020020EE04F05750D9265850DA22DECF01F0F4
:10101200DECF02F0DECF03F0DECF04F020EE08F0E8
:101022005750D9265850DA22DECF05F0DECF06F02F
:10103200DECF07F0DECF08F001EC19F0D8B024EFD4
:1010420008F026EF08F03CEF08F020EE04F05750CD
:10105200D9265850DA22DECF01F0DECF02F0DECF01
:1010620003F0DECF04F07EEC18F001C073F002C092
:1010720074F050EF08F020EE08F05750D92658507F
:10108200DA22DECF01F0DECF02F0DECF03F0DECFD8
:1010920004F07EEC18F001C073F002C074F020EE90
:1010A20004F05750D9265850DA22DECF01F0DECFB5
:1010B20002F0DECF03F0DECF04F057C0D9FF58C0F4
:1010C200DAFFDECF05F0DECF06F0DECF07F0DECFAF
:1010D20008F001EC19F0D8B071EF08F073EF08F0E6
:1010E2000DEF09F020EE08F05750D9265850DA22B9
:1010F200DECF01F0DECF02F0DECF03F0DECF04F070
:1011020057C0D9FF58C0DAFFDECF05F0DECF06F0B8
:10111200DECF07F0DECF08F001EC19F0D8B094EF83
:1011220008F096EF08F00DEF09F057C0D9FF58C04C
:10113200DAFFDECF01F0DECF02F0DECF03F0DECF4A
:1011420004F07EEC18F001C071F002C072F00001F0
:101152007351715D596E745172595A6E59C00CF0C7
:101162005AC00DF0000E0DBEFF0E0E6E0F6E010E78
:101172005DEC14F00CC036F00DC037F00EC038F044
:101182000FC039F020EE08F05750D9265850DA2215
:10119200DECF2EF0DECF2FF0DECF30F0DECF31F01B
:1011A20020EE04F05750D9265850DA22DECF2AF02A
:1011B200DECF2BF0DECF2CF0DECF2DF020EC21F0B5
:1011C2002AC032F02BC033F02CC034F02DC035F0E1
:1011D20097EC11F032C04BF033C04CF034C04DF0FC
:1011E20035C04EF0000E4F6E000E506E700E516EF6
:1011F200420E526E81EC0FF020EE10F05750D926BD
:101202005850DA224BC0DEFF4CC0DEFF4DC0DEFF7D
:101212004EC0DEFF75EF0AF057C0D9FF58C0DAFFA3
:10122200DECF01F0DECF02F0DECF03F0DECF04F03E
:1012320020EE04F05750D9265850DA22DECF05F0BE
:10124200DECF06F0DECF07F0DECF08F001EC19F0BA
:10125200D8B02EEF09F030EF09F0E6EF09F020EEFA
:1012620008F05750D9265850DA22DECF01F0DECFEF
:1012720002F0DECF03F0DECF04F020EE04F0575090
:10128200D9265850DA22DECF05F0DECF06F0DECFC7
:1012920007F0DECF08F001EC19F0D8B053EF09F0F7
:1012A20055EF09F0E6EF09F020EE04F05750D92689
:1012B2005850DA22DECF01F0DECF02F0DECF03F0AB
:1012C200DECF04F07EEC18F001C071F002C072F0C3
:1012D20000017351715D596E745172595A6E59C041
:1012E2000CF05AC00DF0000E0DBEFF0E0E6E0F6E0A
:1012F200010E5DEC14F00CC036F00DC037F00EC0DC
:1013020038F00FC039F057C0D9FF58C0DAFFDECF2E
:101312002EF0DECF2FF0DECF30F0DECF31F020EE38
:1013220008F05750D9265850DA22DECF2AF0DECF05
:101332002BF0DECF2CF0DECF2DF020EC21F02AC0F6
:1013420032F02BC033F02CC034F02DC035F097ECC6
:1013520011F032C06DF033C06EF034C06FF035C0A2
:1013620070F0000E1E6E000E1F6E000E206E400EFC
:10137200216E6DC01AF06EC01BF06FC01CF070C001
:101382001DF021EC0DF01AC04BF01BC04CF01CC03C
:101392004DF01DC04EF0000E4F6E000E506E700EDE
:1013A200516E420E526E81EC0FF020EE10F057504B
:1013B200D9265850DA224BC0DEFF4CC0DEFF4DC0AA
:1013C200DEFF4EC0DEFF75EF0AF020EE08F0575048
:1013D200D9265850DA22DECF01F0DECF02F0DECF7E
:1013E20003F0DECF04F07EEC18F001C071F002C011
:1013F20072F000017351715D596E745172595A6ED7
:1014020059C00CF05AC00DF0000E0DBEFF0E0E6E4C
:101412000F6E010E5DEC14F00CC036F00DC037F00B
:101422000EC038F00FC039F020EE04F05750D92624
:101432005850DA22DECF2EF0DECF2FF0DECF30F0A2
:10144200DECF31F057C0D9FF58C0DAFFDECF2AF025
:10145200DECF2BF0DECF2CF0DECF2DF020EC21F012
:101462002AC032F02BC033F02CC034F02DC035F03E
:1014720097EC11F032C06DF033C06EF034C06FF0F3
:1014820035C070F0000E1E6E000E1F6E800E206EB4
:10149200400E216E6DC01AF06EC01BF06FC01CF0C2
:1014A20070C01DF021EC0DF01AC04BF01BC04CF0C7
:1014B2001CC04DF01DC04EF0000E4F6E000E506E5F
:1014C200700E516E420E526E81EC0FF020EE10F053
:1014D2005750D9265850DA224BC0DEFF4CC0DEFFEF
:1014E2004DC0DEFF4EC0DEFF20EE10F05750D92671
:1014F2005850DA22030EDBBE83EF0AF081EF0AF0C6
:10150200A9EF0AF020EE10F05750D9265850DA22EF
:10151200DECF1AF0DECF1BF0DECF1CF0DECF1DF0E7
:10152200000E1E6E000E1F6EB40E206E430E216E54
:1015320021EC0DF020EE10F05750D9265850DA2247
:101542001AC0DEFF1BC0DEFF1CC0DEFF1DC0DEFFB7
:101552001200100E0F6E0E0E106E000E016E000EB7
:10156200026EAF0E036E430E046E20EE10F00D50AD
:10157200D9260E50DA22DECF05F0DECF06F0DECF1E
:1015820007F0DECF08F001EC19F0D8B0CBEF0AF08B
:10159200CDEF0AF0FAEF0AF020EE10F00D50D92646
:1015A2000E50DA22DECF01F0DECF02F0DECF03F002
:1015B200DECF04F0000E056E000E066EB40E076E4E
:1015C200430E086E01EC19F0D8B0EAEF0AF0ECEF26
:1015D2000AF0FAEF0AF04C0E0F6E0E0E106E20EEAD
:1015E20014F00D50D9260E50DA22000EDE6E000ED7
:1015F200DD6E000E016E000E026E8C0E036E420E48
:10160200046E20EE10F00D50D9260E50DA22DECFF5
:1016120005F0DECF06F0DECF07F0DECF08F001ECFA
:1016220019F0D8B017EF0BF019EF0BF048EF0BF0F1
:1016320020EE10F00D50D9260E50DA22DECF01F046
:10164200DECF02F0DECF03F0DECF04F0000E056E37
:10165200000E066E9E0E076E420E086E01EC19F029
:10166200D8B036EF0BF038EF0BF048EF0BF03D0E31
:101672000F6E0E0E106E20EE14F00D50D9260E5085
:10168200DA22010EDE6E000EDD6E1CEF0DF0000E92
:10169200016E000E026E110E036E430E046E20EEFA
:1016A20010F00D50D9260E50DA22DECF05F0DECF33
:1016B20006F0DECF07F0DECF08F001EC19F0D8B06B
:1016C20065EF0BF067EF0BF096EF0BF020EE10F0EA
:1016D2000D50D9260E50DA22DECF01F0DECF02F015
:1016E200DECF03F0DECF04F0000E056E000E066EB4
:1016F200340E076E430E086E01EC19F0D8B084EF79
:101702000BF086EF0BF096EF0BF01C0E0F6E0E0E29
:10171200106E20EE14F00D50D9260E50DA22020E71
:10172200DE6E000EDD6E1CEF0DF0000E016E000E7F
:10173200026EA80E036E410E046E20EE10F00D50E4
:10174200D9260E50DA22DECF05F0DECF06F0DECF4C
:1017520007F0DECF08F001EC19F0D8B0B3EF0BF0D0
:10176200B5EF0BF0E4EF0BF020EE10F00D50D926A0
:101772000E50DA22DECF01F0DECF02F0DECF03F030
:10178200DECF04F0000E056E000E066EC80E076E68
:10179200410E086E01EC19F0D8B0D2EF0BF0D4EF85
:1017A2000BF0E4EF0BF0360E0F6E0E0E106E20EE05
:1017B20014F00D50D9260E50DA22030EDE6E000E02
:1017C200DD6E1CEF0DF0000E016E000E026E700E4B
:1017D200036E410E046E20EE10F00D50D9260E500D
:1017E200DA22DECF05F0DECF06F0DECF07F0DECF65
:1017F20008F001EC19F0D8B001EF0CF003EF0CF097
:1018020032EF0CF020EE10F00D50D9260E50DA22F5
:10181200DECF01F0DECF02F0DECF03F0DECF04F048
:10182200000E056E000E066E980E076E410E086ED3
:1018320001EC19F0D8B020EF0CF022EF0CF032EFEF
:101842000CF0430E0F6E0E0E106E20EE14F00D50C3
:10185200D9260E50DA22040EDE6E000EDD6E1CEF6B
:101862000DF0000E016E000E026E400E036E400E71
:10187200046E20EE10F00D50D9260E50DA22DECF83
:1018820005F0DECF06F0DECF07F0DECF08F001EC88
:1018920019F0D8B04FEF0CF051EF0CF080EF0CF0D4
:1018A20020EE10F00D50D9260E50DA22DECF01F0D4
:1018B200DECF02F0DECF03F0DECF04F0000E056EC5
:1018C200000E066E300E076E410E086E01EC19F026
:1018D200D8B06EEF0CF070EF0CF080EF0CF02F0E22
:1018E2000F6E0E0E106E20EE14F00D50D9260E5013
:1018F200DA22050EDE6E000EDD6E1CEF0DF0000E1C
:10190200016E000E026EAA0E036E420E046E20EEEF
:1019120010F00D50D9260E50DA22DECF05F0DECFC0
:1019220006F0DECF07F0DECF08F001EC19F0D8B0F8
:101932009DEF0CF09FEF0CF0CEEF0CF020EE10F0CC
:101942000D50D9260E50DA22DECF01F0DECF02F0A2
:10195200DECF03F0DECF04F0000E056E000E066E41
:10196200D20E076E420E086E01EC19F0D8B0BCEF31
:101972000CF0BEEF0CF0CEEF0CF0110E0F6E0E0E4F
:10198200106E20EE14F00D50D9260E50DA22060EFB
:10199200DE6E000EDD6E1CEF0DF0000E016E000E0D
:1019A200026EC80E036E410E046E20EE10F00D5052
:1019B200D9260E50DA22DECF05F0DECF06F0DECFDA
:1019C20007F0DECF08F001EC19F0D8B0EBEF0CF025
:1019D200EDEF0CF01CEF0DF020EE10F00D50D926BB
:1019E2000E50DA22DECF01F0DECF02F0DECF03F0BE
:1019F200DECF04F0000E056E000E066E040E076EBA
:101A0200420E086E01EC19F0D8B00AEF0DF00CEF9F
:101A12000DF01CEF0DF0260E0F6E0E0E106E20EE66
:101A220014F00D50D9260E50DA22070EDE6E000E8B
:101A3200DD6E1CEF0DF00FC00DF010C00EF01200A5
:101A42001D50800B266E1D501D24286E1CAE2CEFDF
:101A52000DF02EEF0DF02FEF0DF028802850D8B4A6
:101A620035EF0DF037EF0DF04CEF0DF02828D8A42C
:101A72003DEF0DF03FEF0DF047EF0DF0000E1A6E47
:101A8200000E1B6E000E1C6E000E1D6E1C8E000ED4
:101A92001D6E54EF0DF0000E1A6E000E1B6E000E3E
:101AA2001C6E000E1D6E2150800B276E26502718CB
:101AB200D8B45EEF0DF060EF0DF061EF0DF0268C03
:101AC20021502124276E20AE69EF0DF06BEF0DF04F
:101AD2006CEF0DF027802750D8B472EF0DF074EF41
:101AE2000DF089EF0DF02728D8A47AEF0DF07CEFE6
:101AF2000DF084EF0DF0000E1E6E000E1F6E000E34
:101B0200206E000E216E208E000E216E91EF0DF0E0
:101B1200000E1E6E000E1F6E000E206E000E216E55
:101B22002850275CD8B098EF0DF09AEF0DF0C1EF76
:101B32000DF026AC9FEF0DF0A1EF0DF0A3EF0DF02D
:101B4200800E261A28C029F027C028F029C027F0C5
:101B52001AC029F01EC01AF029C01EF01BC029F0BD
:101B62001FC01BF029C01FF01CC029F020C01CF0B0
:101B720029C020F01DC029F021C01DF029C021F08C
:101B8200000E296E285027C022F0236A225E000E22
:101B9200235A23BED6EF0DF0235009E11A0E225C20
:101BA200D8A0D6EF0DF0D8EF0DF00FEF0EF01A50CF
:101BB2001B101C101D10D8A4E1EF0DF0E4EF0DF086
:101BC200010EE5EF0DF0000E296E000E1A6E000EEA
:101BD2001B6E000E1C6E000E1D6E27C028F018EF43
:101BE2000EF029A0F7EF0DF0F9EF0DF0FFEF0DF079
:101BF200D89029300109296E01EF0EF0D8902932D0
:101C02001AA006EF0EF008EF0EF009EF0EF0298E83
:101C12001D341D321C321B321A32282A2750285CEE
:101C2200D8A016EF0EF018EF0EF0F2EF0DF026BC72
:101C32001DEF0EF01FEF0EF05FEF0EF02850D8A44C
:101C420025EF0EF027EF0EF031EF0EF0000E1A6EB8
:101C5200000E1B6E000E1C6E000E1D6E80EF0FF04C
:101C62001E501A261F501B2220501C2221501D22BA
:101C72001DA03EEF0EF040EF0EF0ECEF0EF029A0AB
:101C820045EF0EF047EF0EF04DEF0EF0D8902930F1
:101C92000109296E4FEF0EF0D89029321AA054EFA5
:101CA2000EF056EF0EF057EF0EF0298E1D341D3256
:101CB2001C321B321A32282AECEF0EF01E501A5C2C
:101CC2001F501B5820501C581D50800A226E215054
:101CD200800A2258D8B070EF0EF072EF0EF09DEF2E
:101CE2000EF01A501E5C226E1B501F58236E1C50A1
:101CF2002058246E1D502158256EFF0E22241A6E84
:101D0200FF0E23201B6EFF0E24201C6EFF0E2520CB
:101D12001D6E800E261A296C2950D8A493EF0EF05E
:101D220095EF0EF0A5EF0EF0010E1A26000E1B2203
:101D32001C221D22A5EF0EF01E501A5E1F501B5AC8
:101D420020501C5A21501D5A1A501B101C101D10D5
:101D5200D8A4AEEF0EF0B0EF0EF0E5EF0EF0295082
:101D6200D8A4B6EF0EF0B8EF0EF0E5EF0EF0000ECD
:101D72001A6E000E1B6E000E1C6E000E1D6E80EFA2
:101D82000FF0D8901A361B361C361D3629AECCEF12
:101D92000EF0CEEF0EF0CFEF0EF01A8029A0D4EFA6
:101DA2000EF0D6EF0EF0DAEF0EF0D8802936DCEF27
:101DB2000EF0D89029362850D8B4E2EF0EF0E4EFB6
:101DC2000EF0E5EF0EF028061CAEEAEF0EF0ECEF97
:101DD2000EF0C2EF0EF0000E276E29AEF3EF0EF0FA
:101DE200F5EF0EF00DEF0FF029C022F07F0E221654
:101DF200D8B4FEEF0EF000EF0FF004EF0FF0010E7B
:101E0200276E0DEF0FF01AA009EF0FF00BEF0FF096
:101E12000DEF0FF000EF0FF02750D8B413EF0FF0D3
:101E220015EF0FF040EF0FF0010E1A26000E1B22E5
:101E32001C221D221DA020EF0FF022EF0FF040EF19
:101E42000FF01AC022F01BC023F01CC024F01DC0EA
:101E520025F02534253224322332223222C01AF0D0
:101E620023C01BF024C01CF025C01DF02828D8B4C4
:101E72003DEF0FF03FEF0FF040EF0FF0282A282838
:101E8200D8B446EF0FF048EF0FF050EF0FF02850A4
:101E9200D8A44EEF0FF050EF0FF062EF0FF0000EEC
:101EA2001A6E000E1B6E000E1C6E000E1D6E285068
:101EB200D8A45EEF0FF060EF0FF062EF0FF0000EAC
:101EC200266E28A067EF0FF069EF0FF06CEF0FF0AE
:101ED2001C8E6DEF0FF01C9ED89028301D6E26AE22
:101EE20075EF0FF077EF0FF078EF0FF01D8E1AC03D
:101EF2001AF01BC01BF01CC01CF01DC01DF012000C
:101F02004E50800B0001606F4E504E24666F4DAEF6
:101F12008DEF0FF08FEF0FF090EF0FF066816651AB
:101F2200D8B496EF0FF098EF0FF0ABEF0FF06629F1
:101F3200D8A49EEF0FF0A0EF0FF0A8EF0FF0000E65
:101F42004B6E000E4C6E000E4D6E000E4E6E4D8EA0
:101F5200B3EF0FF0000E4B6E000E4C6E000E4D6E86
:101F6200000E4E6E5250800B601B52505224656F11
:101F720051AEBEEF0FF0C0EF0FF0C1EF0FF0658171
:101F82006551D8B4C7EF0FF0C9EF0FF0DCEF0FF0D7
:101F92006529D8A4CFEF0FF0D1EF0FF0D9EF0FF0F2
:101FA200000E4F6E000E506E000E516E000E526EFD
:101FB200518EE4EF0FF0000E4F6E000E506E000EC9
:101FC200516E000E526E6551D8B4EAEF0FF0ECEF8D
:101FD2000FF0F4EF0FF06651D8A4F2EF0FF0F4EF28
:101FE2000FF0FEEF0FF0000E4B6E000E4C6E000E67
:101FF2004D6E000E4E6E96EF11F051504B02F3CF24
:102002006BF0F4CF6CF06B51616F626B636B646B5E
:102012006C51676F686B696B6A6B50504C02F3CFFF
:102022006BF0F4CF6CF06B516127000E62236323D7
:1020320064236C516727000E682369236A234F507B
:102042004D02F3CF6BF0F4CF6CF06B516127000EB1
:102052006223632364236C516727000E682369237C
:102062006A2363C064F062C063F061C062F0616BB6
:102072004F504C02F3CF6BF0F4CF6CF06B516127F1
:102082006C516223000E6323000E642350504B02F6
:10209200F3CF6BF0F4CF6CF06B5161276C5162237C
:1020A200000E6323000E642363C064F062C063F019
:1020B20061C062F0616B4F504B02F3CF6BF0F4CF13
:1020C2006CF06B5161276C516223000E6323000E8A
:1020D200642351504C02F3CF6BF0F4CF6CF06B5190
:1020E20067276C516823000E6923000E6A23505043
:1020F2004D02F3CF6BF0F4CF6CF06B5167276C514C
:102102006823000E6923000E6A2351504D02F3CF5B
:102112006BF0F4CF6CF06B51536E6C51546E556A88
:10212200566A55C056F054C055F053C054F0536A25
:1021320053506727545068235550692356506A23D9
:1021420061C053F062C054F063C055F064C056F0F1
:10215200190EB1EF10F0D890563255325432533234
:10216200E82EACEF10F053506727545068235550B7
:10217200692356506A2363C064F062C063F061C091
:1021820062F0616B655166C053F0546A5326000ECB
:102192005422820E53246B6FFF0E54206C6FE7EFB4
:1021A20010F0D8906737683769376A3764AFDCEF69
:1021B20010F0DEEF10F0DFEF10F06781D89061379A
:1021C2006237633764376B07D8A06C0769AFECEFEF
:1021D20010F0EEEF10F0D2EF10F0000E656F64AF6A
:1021E200F5EF10F0F7EF10F01BEF11F0FF0E611595
:1021F200536EFF0E6215546EFF0E6315556E7F0E01
:102202006415566E5350541055105610D8B40CEF36
:1022120011F00EEF11F012EF11F0010E656F1BEFCE
:1022220011F067A117EF11F019EF11F01BEF11F088
:102232000EEF11F06551D8B421EF11F023EF11F038
:1022420047EF11F0010E6727000E682369236A2306
:102252006AA12EEF11F030EF11F047EF11F067C0D5
:1022620053F068C054F069C055F06AC056F0563455
:10227200563255325432533253C067F054C068F06C
:1022820055C069F056C06AF06B4B6C2B6CBF52EFB5
:1022920011F06C5108E16B29D8A052EF11F054EF04
:1022A20011F05EEF11F0000E676F000E686F800E86
:1022B200696F7F0E6A6F8CEF11F06CBF6BEF11F0DC
:1022C2006C5106E16B05D8B069EF11F06BEF11F0BC
:1022D20077EF11F0000E676F000E686F000E696FE6
:1022E200000E6A6F000E606F8CEF11F06BC066F02B
:1022F200FF0E6717FF0E68177F0E6917000E6A1729
:1023020066A186EF11F088EF11F089EF11F0698F65
:10231200D89066316A6F60516A1367C04BF068C02B
:102322004CF069C04DF06AC04EF012003550800B7F
:10233200426E35503524496E34AEA2EF11F0A4EF4F
:1023420011F0A5EF11F049804950D8B4ABEF11F06C
:10235200ADEF11F0C2EF11F04928D8A4B3EF11F09C
:10236200B5EF11F0BDEF11F0000E326E000E336EBC
:10237200000E346E000E356E348E000E356ECAEFCE
:1023820011F0000E326E000E336E000E346E000E2F
:10239200356E3950800B421A395039244A6E38AEA4
:1023A200D5EF11F0D7EF11F0D8EF11F04A804A5073
:1023B200D8B4DEEF11F0E0EF11F0F5EF11F04A289A
:1023C200D8A4E6EF11F0E8EF11F0F0EF11F0000EF3
:1023D200366E000E376E000E386E000E396E388E75
:1023E200000E396EFDEF11F0000E366E000E376EE4
:1023F200000E386E000E396E365037103810391014
:10240200D8A406EF12F008EF12F020EF12F0000E3F
:10241200326E000E336E000E346E000E356E800E7C
:1024220034127F0E35124250351232C032F033C0B0
:1024320033F034C034F035C035F063EF13F0495057
:10244200D8A426EF12F028EF12F032EF12F0000EAD
:10245200326E000E336E000E346E000E356E63EF78
:1024620013F04A5049C03AF03B6A3A5E000E3B5ABA
:102472007F0E3A24436E000E3B20446E32C03EF083
:1024820033C03FF034C040F035C041F0000E326E30
:10249200000E336E000E346E000E356E000E456E69
:1024A200000E466E000E476E000E486E000E4A6E1B
:1024B20093EF12F04A50D8B461EF12F063EF12F0CA
:1024C2007AEF12F0D8903E363F3640364136D890F9
:1024D200323633363436353648AE72EF12F074EF98
:1024E20012F075EF12F03280D890453646364736F4
:1024F200483636503E5C37503F5838504058395075
:102502004158D8A087EF12F089EF12F092EF12F043
:10251200488C36503E5E37503F5A3850405A3950F8
:10252200415A4A2A190E4A6499EF12F09BEF12F0AF
:102532005BEF12F03E503F1040104110D8B4A4EFB0
:1025420012F0A6EF12F0BEEF12F04580BEEF12F0CD
:10255200D890323633363436353648AEB3EF12F0D1
:10256200B5EF12F0B6EF12F03280D890453646360B
:10257200473648364306D8A0440634AEC3EF12F0BD
:10258200C5EF12F0A9EF12F0000E4A6E48AECCEF82
:1025920012F0CEEF12F0F2EF12F0FF0E45143A6E87
:1025A200FF0E46143B6EFF0E47143C6E7F0E48141E
:1025B2003D6E3A503B103C103D10D8B4E3EF12F0A0
:1025C200E5EF12F0E9EF12F0010E4A6EF2EF12F0AF
:1025D20032A0EEEF12F0F0EF12F0F2EF12F0E5EFB0
:1025E20012F04A50D8B4F8EF12F0FAEF12F01EEFE0
:1025F20013F0010E3226000E33223422352235A08A
:1026020005EF13F007EF13F01EEF13F032C03AF0AC
:1026120033C03BF034C03CF035C03DF03D343D3278
:102622003C323B323A323AC032F03BC033F03CC02B
:1026320034F03DC035F0434A442A44BE29EF13F03A
:10264200445008E14328D8A029EF13F02BEF13F0F0
:1026520036EF13F0000E446E4368000E326E000E29
:10266200336E000E346E000E356E44BE43EF13F02F
:10267200445006E14304D8B041EF13F043EF13F0A6
:1026820051EF13F0000E446E000E436E000E326ED8
:10269200000E336E000E346E000E356E000E426E6A
:1026A20043C049F049A058EF13F05AEF13F05DEF21
:1026B20013F0348E5EEF13F0349ED8904930356EAD
:1026C20014EF12F0120015EC22F064EC21F0D9ECB8
:1026D20021F042EC22F0000E026E630E016E31EC2C
:1026E2001DF0000E0001EA6F010EEB6F010EEC6FA0
:1026F200AA0EEF6F0F0EF06FA60EF16F0F0EF26FB4
:10270200000EEE6F630EED6F000EE16F010EE26FD1
:10271200010EE36F250EE66F0F0EE76F210EE86FD5
:102722000F0EE96F000EE56F630EE46F86840E01F3
:10273200B495000E0001D96F000EBFEC21F08EB4EB
:10274200A5EF13F0A7EF13F0A0EF13F0520E5E6E99
:102752002B0E5D6E000EE82EFED75D2EFCD75E2E90
:10276200FAD700D0EA0E146E000E156EE10E166E48
:10277200000E176E44EC1EF0520E5E6E2B0E5D6E56
:10278200000EE82EFED75D2EFCD75E2EFAD700D0C3
:1027920010EF14F0700E1A6E010E1B6EFBEC17F0A8
:1027A200750E456E000E466E700E476E010E486E37
:1027B20084EC21F07CC101F07DC102F07EC103F006
:1027C2007FC104F0000E056E000E066EC80E076E85
:1027D200420E086E01EC19F0D8B0F2EF13F0F4EFEC
:1027E20013F010EF14F0010E0001D96F010EBFECCF
:1027F20021F0290E5E6E960E5D6E7F0EE82EFED7DC
:102802005D2EFCD75E2EFAD700F0EA0E146E000E93
:10281200156EE10E166E000E176E48EC1CF00001EC
:10282200D951D8B417EF14F019EF14F0CBEF13F01D
:10283200A30E5E6E570E5D6E020EE82EFED75D2E63
:10284200FCD75E2EFAD700D0700E1A6E010E1B6EE8
:10285200FBEC17F0700E576E010E586E29EC07F064
:10286200700E0D6E010E0E6EAAEC0AF0700E286E3E
:10287200010E296E37EC15F0750E456E000E466E90
:10288200700E476E010E486E84EC21F0520E5E6EA1
:102892002B0E5D6E000EE82EFED75D2EFCD75E2E4F
:1028A200FAD700D0000E0001D96F000EBFEC21F064
:1028B200B3EF13F000EF00F0146E1450D8B464EFCD
:1028C20014F066EF14F088EF14F00FBE6DEF14F001
:1028D2006BEF14F088EF14F00CC010F00DC011F083
:1028E2000EC012F00FC013F0101E111E121E131E86
:1028F200102A000E11221222132210C016F011C04B
:1029020017F012C018F013C019F090EF14F00CC0B9
:1029120016F00DC017F00EC018F00FC019F00C50D1
:102922000D100E100F10D8A499EF14F09BEF14F0B5
:10293200A5EF14F0000E0C6E000E0D6E000E0E6E62
:10294200000E0F6E36EF15F0960E156EAFEF14F007
:10295200152AD8901932183217321632000E161470
:10296200106E000E1714116E000E1814126EFE0E69
:102972001914136E1050111012101310D8A4C4EFB2
:1029820014F0C6EF14F0A9EF14F0D4EF14F0152AE6
:10299200010E1626000E172218221922D89019327B
:1029A200183217321632000E1614106E000E17145B
:1029B200116E000E1814126EFF0E1914136E1050C1
:1029C200111012101310D8A4E9EF14F0EBEF14F069
:1029D200C8EF14F0F3EF14F01506D8901636173638
:1029E2001836193618BEF8EF14F0FAEF14F002EFA9
:1029F20015F0020E156000EF15F002EF15F0EDEF85
:102A020014F015B007EF15F009EF15F00AEF15F005
:102A1200189ED890153215C010F0116A126A136A06
:102A220010C013F0126A116A106A10501612115077
:102A3200171212501812135019121450D8B424EF4E
:102A420015F026EF15F02EEF15F00FBE2DEF15F055
:102A52002BEF15F02EEF15F0198E16C00CF017C0E3
:102A62000DF018C00EF019C00FF0120020EE14F095
:102A72002850D9262950DA22DE50DE10D8A444EF9D
:102A820015F046EF15F052EF15F0EA0E216E000E2A
:102A9200226EE10E236E000E246EC4EC1EF0F9EFDE
:102AA20015F020EE14F02850D9262950DA22DE043F
:102AB200DE10D8A45FEF15F061EF15F06DEF15F0A1
:102AC200EA0E216E000E226EE10E236E000E246EBF
:102AD20003EC1FF0F9EF15F020EE14F02850D92680
:102AE2002950DA22020EDE18DE10D8A47BEF15F090
:102AF2007DEF15F089EF15F0EA0E246E000E256EBB
:102B0200E10E266E000E276EB6EC1FF0F9EF15F0FF
:102B120020EE14F02850D9262950DA22030EDE18AE
:102B2200DE10D8A497EF15F099EF15F0A5EF15F088
:102B3200EA0E216E000E226EE10E236E000E246E4E
:102B420083EC19F0F9EF15F020EE14F02850D92695
:102B52002950DA22040EDE18DE10D8A4B3EF15F0E5
:102B6200B5EF15F0C1EF15F0EA0E216E000E226EE0
:102B7200E10E236E000E246EFAEC19F0F9EF15F057
:102B820020EE14F02850D9262950DA22050EDE183C
:102B9200DE10D8A4CFEF15F0D1EF15F0DDEF15F070
:102BA200EA0E216E000E226EE10E236E000E246EDE
:102BB20043EC1BF0F9EF15F020EE14F02850D92663
:102BC2002950DA22060EDE18DE10D8A4EBEF15F03B
:102BD200EDEF15F0F9EF15F0EA0E216E000E226E00
:102BE200E10E236E000E246EF5EC1BF0F9EF15F0EA
:102BF200120020EE02F00E50D9260F50DA22DF50DA
:102C0200D8B406EF16F008EF16F03CEF16F00EC03F
:102C1200D9FF0FC0DAFFDF50106E1050016E026A4A
:102C220020EE03F00E50D9260F50DA22DECF03F049
:102C3200DDCF04F002EC22F001C007F002C008F080
:102C4200000E0A6E640E096E7CEC1FF020EE03F09B
:102C52000E50D9260F50DA22DF50116E0750115C48
:102C6200126E20EE03F00E50D9260F50DA22DF50FA
:102C7200136E5FEF16F0000E126E0EC0D9FF0FC07A
:102C8200DAFFDF50106E1050016E026A20EE03F080
:102C92000E50D9260F50DA22DECF03F0DDCF04F03A
:102CA20002EC22F001C007F002C008F0000E0A6E2A
:102CB200640E096E7CEC1FF00750136E20EE01F0DB
:102CC2000E50D9260F50DA22DF50D8B46BEF16F02F
:102CD2006DEF16F08FEF16F020EE05F00E50D926AC
:102CE2000F50DA22DECF10F0DDCF11F010C0D9FF85
:102CF20011C0DAFF12C0DFFF20EE07F00E50D92616
:102D02000F50DA22DECF10F0DDCF11F010C0D9FF64
:102D120011C0DAFF13C0DFFFAFEF16F020EE05F0AF
:102D22000E50D9260F50DA22DECF10F0DDCF11F08F
:102D320010C0D9FF11C0DAFF13C0DFFF20EE07F089
:102D42000E50D9260F50DA22DECF10F0DDCF11F06F
:102D520010C0D9FF11C0DAFF12C0DFFF120022C07B
:102D6200D9FF23C0DAFFDECFF6FFDDCFF7FF080081
:102D7200F550250AD8A4C0EF16F0C2EF16F048EFBE
:102D820017F022C0D9FF23C0DAFFDE2A000EDD22AF
:102D9200000E0001DB6F000EDA6FDAC0E0F0DC69D2
:102DA200DD6922C0D9FF23C0DAFFDECFF6FFDDCF17
:102DB200F7FF0800F550730AD8B4E2EF16F0E4EF1B
:102DC20016F0FFEF16F022C0D9FF23C0DAFFDECFE4
:102DD20001F0DDCF02F0480E036E0E0E046E000EFF
:102DE200066E030E056E6FEC1AF001500210D8A4A5
:102DF200FDEF16F0FFEF16F03FEF17F022C0D9FFFC
:102E020023C0DAFFDECFF6FFDDCFF7FF0800F55073
:102E1200730AD8B40FEF17F011EF17F017EF17F08E
:102E2200000E296E030E286E1BEF17F0000E296E9E
:102E3200010E286E22C0D9FF23C0DAFF2850DE26F9
:102E42002950DD2220C00AF021C00BF024C0D9FF96
:102E520025C0DAFFDFCF26F0020EDE26DFCF27F015
:102E6200000EDD2226C0D9FF27C0DAFFDECF0CF02C
:102E7200DDCF0DF05DEC17F05CEF17F022C0D9FF4B
:102E820023C0DAFFDE2A000EDD225CEF17F022C03B
:102E9200D9FF23C0DAFFDECFF6FFDDCFF7FF080050
:102EA200F550016E026A20C003F021C004F0DEEC8E
:102EB2001AF03FEF17F0120021EE86F010EE0FF03D
:102EC200060EDBCFE3FFE806FCE20CC01AF00DC0F1
:102ED2001BF01A501B10D8A471EF17F073EF17F004
:102EE20077EF17F00F0E1A6E000E1B6E1AC001F06C
:102EF2001BC002F0AAEC20F001C01CF002C01DF0C1
:102F0200DCC01EF0DDC01FF01FBE8AEF17F08CEF91
:102F120017F0A1EF17F01C501E5C1F50800A0E6EB6
:102F22001D50800A0E58D8A099EF17F09BEF17F0AA
:102F32009DEF17F0A1EF17F01EC01CF01FC01DF08F
:102F42001CC01EF01DC01FF0DAC016F0DBC017F067
:102F5200B7EF17F0000E026E200E016E0AC003F0EA
:102F62000BC004F0DEEC1AF01C4A1D2A16501C5C41
:102F72001D50800A0E6E1750800A0E58D8A0C4EF5A
:102F820017F0C6EF17F0ABEF17F0000E196E000E38
:102F9200186EEBEF17F01AC0F6FF1BC0F7FF000E1A
:102FA200F86E0D0EF76403D00800F55005D0F6CF89
:102FB200E9FFF7CFEAFFEF500E6E0E50016E026A84
:102FC2000AC003F00BC004F0DEEC1AF01A4A1B2A06
:102FD200184A192A1E50185C1950800A0E6E1F508A
:102FE200800A0E58D8A0F8EF17F0FAEF17F0CCEFDE
:102FF20017F012000AEC20F005C00CF006C00DF02C
:103002000E6A0F6A000E5DEC14F00CC01CF00DC0CD
:103012001DF00EC01EF00FC01FF032EC20F005C0F4
:103022000CF006C00DF00E6A0F6A000E5DEC14F093
:103032000CC020F00DC021F00EC022F00FC023F012
:1030420082EC20F005C00CF006C00DF00E6A0F6A8B
:10305200000E5DEC14F00CC024F00DC025F00EC083
:1030620026F00FC027F05AEC20F005C00CF006C085
:103072000DF00E6A0F6A000E5DEC14F00CC028F021
:103082000DC029F00EC02AF00FC02BF01AC0D9FFD4
:103092001BC0DAFF1CC0DEFF1DC0DEFF1EC0DEFF4C
:1030A2001FC0DEFF20EE08F01A50D9261B50DA228C
:1030B20024C0DEFF25C0DEFF26C0DEFF27C0DEFF04
:1030C20020EE04F01A50D9261B50DA2220C0DEFF6F
:1030D20021C0DEFF22C0DEFF23C0DEFF20EE0CF0A7
:1030E2001A50D9261B50DA2228C0DEFF29C0DEFF83
:1030F2002AC0DEFF2BC0DEFF1200033404340A6E46
:103102000A50D8A487EF18F089EF18F093EF18F05F
:10311200000E016E000E026E000E036E000E046EB3
:1031220000EF19F001C005F002C006F003C007F07D
:1031320004C008F0200EA3EF18F0D890083207322E
:1031420006320532E82E9EEF18F00550096E038E06
:10315200FF0E0116FF0E0216FF0E0316000E0416D6
:10316200960E0A5E0ABEBAEF18F0B8EF18F0D0EF6A
:1031720018F00A50800A970FD8B0C2EF18F0C4EFC7
:1031820018F0C6EF18F089EF18F0D8900432033225
:10319200023201320A3EC6EF18F0E8EF18F01F0EB5
:1031A2000A64D6EF18F0D8EF18F0E0EF18F089EFC4
:1031B20018F0D89001360236033604360A060A5051
:1031C200D8A4E6EF18F0E8EF18F0DAEF18F009509B
:1031D200D8B4EEEF18F0F0EF18F0F8EF18F0041E84
:1031E200031E021E016C000E02220322042201C0F1
:1031F20001F002C002F003C003F004C004F01200A8
:10320200000E0114096E000E02140A6E800E0314E1
:103212000B6E7F0E04140C6E09500A100B100C106A
:10322200D8A416EF19F018EF19F020EF19F0000EDC
:10323200016E000E026E000E036E000E046E000E92
:103242000514096E000E06140A6E800E07140B6E2A
:103252007F0E08140C6E09500A100B100C10D8A423
:1032620035EF19F037EF19F03FEF19F0000E056E48
:10327200000E066E000E076E000E086E04AE44EFDE
:1032820019F046EF19F04FEF19F0016C021ED8B099
:10329200022A031ED8B0032A800E045608AE54EF49
:1032A20019F056EF19F05FEF19F0056C061ED8B051
:1032B200062A071ED8B0072A800E0856000E011AE9
:1032C200000E021A000E031A800E041A000E051ACE
:1032D200000E061A000E071A800E081A0550015C2D
:1032E200065002580750035808500458D8B07CEFD3
:1032F20019F07EEF19F081EF19F0D89082EF19F0F2
:10330200D88012005F50D8B489EF19F08BEF19F012
:10331200CDEF19F021C01BF022C01CF023C01DF01C
:1033220024C01EF001EC1EF021C014F022C015F0E2
:1033320023C016F024C017F084EC1EF0390E266E5E
:10334200D20E256E4C0EE82EFED7252EFCD7262E49
:10335200FAD700D021C01AF022C01BF023C01CF003
:1033620024C01DF079EC1DF021C01AF022C01BF020
:1033720023C01CF024C01DF079EC1DF05EEC22F09D
:1033820021C014F022C015F023C016F024C017F09B
:1033920048EC1CF0F9EF19F021C01AF022C01BF022
:1033A20023C01CF024C01DF0BDEC1DF021C01AF09A
:1033B20022C01BF023C01CF024C01DF0BDEC1DF088
:1033C20021C014F022C015F023C016F024C017F05B
:1033D20044EC1EF0390E266ED20E256E4C0EE82EEF
:1033E200FED7252EFCD7262EFAD700D0C1EF19F032
:1033F20012005F50D8B400EF1AF002EF1AF03AEF61
:103402001AF021C01BF022C01CF023C01DF024C002
:103412001EF001EC1EF021C014F022C015F023C0F2
:1034220016F024C017F084EC1EF0390E266ED20E70
:10343200256E4C0EE82EFED7252EFCD7262EFAD767
:1034420000D021C01AF022C01BF023C01CF024C0FF
:103452001DF0BDEC1DF021C01AF022C01BF023C0EC
:103462001CF024C01DF0BDEC1DF05EEC22F06EEFEE
:103472001AF021C01AF022C01BF023C01CF024C095
:103482001DF079EC1DF021C01AF022C01BF023C000
:103492001CF024C01DF079EC1DF021C014F022C0F4
:1034A20015F023C016F024C017F044EC1EF0390EBC
:1034B200266ED20E256E4C0EE82EFED7252EFCD798
:1034C200262EFAD700D021C014F022C015F023C056
:1034D20016F024C017F048EC1CF0120001C008F0EE
:1034E20002C009F003C00AF004C00BF00506D8A020
:1034F2000606052806E10628D8A482EF1AF084EF12
:103502001AF091EF1AF0000E026E000E016EDDEF5E
:103512001AF0084A092A0A4A0B2A0506D8A0060602
:1035220008C0F6FF09C0F7FF0800F5500009D8B43B
:103532009DEF1AF09FEF1AF0CBEF1AF00AC0F6FFD8
:103542000BC0F7FF0800F5500009D8B4ABEF1AF032
:10355200ADEF1AF0CBEF1AF005500610D8B4B4EF65
:103562001AF0B6EF1AF0CBEF1AF008C0F6FF09C056
:10357200F7FF0800F5CF07F00AC0F6FF0BC0F7FF10
:103582000800F5500718D8B4C9EF1AF0CBEF1AF0BB
:103592008AEF1AF008C0F6FF09C0F7FF0800F5CF5E
:1035A20007F00AC0F6FF0BC0F7FF0800F550075CF2
:1035B200016E026AD8A00206120003500410D8B4A9
:1035C200E5EF1AF0E7EF1AF0F0EF1AF003500410EB
:1035D200D8A4EEEF1AF0F0EF1AF0F5EF1AF001505E
:1035E2006BEC22F042EF1BF020EE09F00350D926DB
:1035F2000450DA22DE50DE10D8B402EF1BF004EFE2
:103602001BF01FEF1BF020EE09F00350D9260450E7
:10361200DA2210EE03F00350E1260450E222DE50DB
:10362200E65CE650800A096EDE50800A0958D8B07E
:103632001DEF1BF01FEF1BF042EF1BF020EE03F01B
:103642000350D9260450DA22DECF05F0DDCF06F092
:1036520003C0D9FF04C0DAFFDECF07F0DDCF08F0E8
:1036620005500724D96E06500820DA6E01C0DFFF2C
:1036720020EE03F00350D9260450DA22DE2A000E8F
:10368200DD2212005F50D8B449EF1BF04BEF1BF064
:1036920077EF1BF021C01BF022C01CF023C01DF0ED
:1036A20024C01EF001EC1EF021C01AF022C01BF053
:1036B20023C01CF024C01DF079EC1DF021C01AF0CB
:1036C20022C01BF023C01CF024C01DF079EC1DF0B9
:1036D20021C01AF022C01BF023C01CF024C01DF030
:1036E20079EC1DF05EEC22F09FEF1BF021C01AF086
:1036F20022C01BF023C01CF024C01DF0BDEC1DF045
:1037020021C01AF022C01BF023C01CF024C01DF0FF
:10371200BDEC1DF021C01AF022C01BF023C01CF02A
:1037220024C01DF0BDEC1DF021C014F022C015F024
:1037320023C016F024C017F048EC1CF01200000E53
:103742000114096E000E02140A6E800E03140B6E31
:103752007F0E04140C6E09500A100B100C10D8A422
:10376200B5EF1BF0B7EF1BF0BFEF1BF0000E016EC1
:10377200000E026E000E036E000E046E000E0514A3
:10378200096E000E06140A6E800E07140B6E7F0E71
:1037920008140C6E09500A100B100C10D8A4D4EFA8
:1037A2001BF0D6EF1BF0DEEF1BF0000E056E000ED5
:1037B200066E000E076E000E086E055001180FE12E
:1037C200065002180CE10750031809E108500418CA
:1037D200D8B4EEEF1BF0F0EF1BF0F3EF1BF0D89034
:1037E200F4EF1BF0D88012005F50D8B4FBEF1BF04F
:1037F200FDEF1BF029EF1CF021C01BF022C01CF0D2
:1038020023C01DF024C01EF001EC1EF021C01AF0EE
:1038120022C01BF023C01CF024C01DF0BDEC1DF023
:1038220021C01AF022C01BF023C01CF024C01DF0DE
:10383200BDEC1DF021C01AF022C01BF023C01CF009
:1038420024C01DF0BDEC1DF05EEC22F047EF1CF031
:1038520021C01AF022C01BF023C01CF024C01DF0AE
:1038620079EC1DF021C01AF022C01BF023C01CF01D
:1038720024C01DF079EC1DF021C01AF022C01BF00B
:1038820023C01CF024C01DF079EC1DF012007C88CE
:1038920081EF1CF014C0D9FF15C0DAFFDF50D8B495
:1038A20055EF1CF057EF1CF05CEF1CF014C0D9FF71
:1038B20015C0DAFFDF0616C0D9FF17C0DAFFDF50E6
:1038C200D8B466EF1CF068EF1CF06DEF1CF016C068
:1038D200D9FF17C0DAFFDF0614C00EF015C00FF0D3
:1038E200FAEC15F016C00EF017C00FF0FAEC15F056
:1038F200090E186E4E0EE82EFED7182EFCD700D0F9
:1039020014C0D9FF15C0DAFFDF50D8B48BEF1CF01A
:103912008DEF1CF099EF1CF016C0D9FF17C0DAFF2B
:10392200DF50D8A497EF1CF099EF1CF04BEF1CF07E
:103932007C98120020EE01F01450D9261550DA229C
:10394200010EDF6E20EE01F01650D9261750DA2252
:10395200000EDF6E14C00EF015C00FF0FAEC15F079
:1039620016C00EF017C00FF0FAEC15F0000E196E2B
:10397200000E186E14C0D9FF15C0DAFFDF2A16C078
:10398200D9FF17C0DAFFDF2A14C00EF015C00FF0FE
:10399200FAEC15F016C00EF017C00FF0FAEC15F0A5
:1039A200E40E00D000D0E82EFCD700D000D0184A98
:1039B200192A195009E1320E185CD8A0E3EF1CF065
:1039C200E5EF1CF0BBEF1CF0120020EE01F01450EA
:1039D200D9261550DA22000EDF6E20EE01F01650C5
:1039E200D9261750DA22010EDF6E14C00EF015C070
:1039F2000FF0FAEC15F016C00EF017C00FF0FAEC4B
:103A020015F0000E196E000E186E14C0D9FF15C005
:103A1200DAFFDF2A16C0D9FF17C0DAFFDF2A14C087
:103A22000EF015C00FF0FAEC15F016C00EF017C02C
:103A32000FF0FAEC15F0E40E00D000D0E82EFCD71F
:103A420000D000D0184A192A195009E1320E185C28
:103A5200D8A02EEF1DF030EF1DF006EF1DF0120082
:103A62008594839E8598879C7D947B9E7D987F9C80
:103A7200050E0E01746F060E766F070E696F080E43
:103A8200886FBD508F0B4009BD6EE00EBE16BF5051
:103A9200F00B0109BF6E01C0BCFFBD8E000EAA6E05
:103AA200000EA66E000E0F01256F000E216FFC0E98
:103AB200AD16F30EAD16CF0EAD163F0EAD16AB889A
:103AC200AB50F00B0C09AB6EAB8EA788A750F00B76
:103AD2000C09A76EA78E26892651F00B0C09266FBA
:103AE200268F22892251F00B0C09226F228F12009D
:103AF20080801AC014F01BC015F01CC016F01DC047
:103B020017F048EC1CF0050E1F6E0F0E1E6EF10E24
:103B1200E82EFED71E2EFCD71F2EFAD700F01AC0B1
:103B220014F01BC015F01CC016F01DC017F09BEC62
:103B32001CF00D0E1F6E2D0E1E6ED80EE82EFED737
:103B42001E2EFCD71F2EFAD71AC014F01BC015F078
:103B52001CC016F01DC017F048EC1CF0050E1F6EBD
:103B62000F0E1E6EF10EE82EFED71E2EFCD71F2E54
:103B7200FAD700F0809012007E801AC014F01BC0A9
:103B820015F01CC016F01DC017F048EC1CF0050E15
:103B92001F6E0F0E1E6EF10EE82EFED71E2EFCD7E4
:103BA2001F2EFAD700F01AC014F01BC015F01CC06B
:103BB20016F01DC017F0E6EC1CF00D0E1F6E2D0E58
:103BC2001E6ED80EE82EFED71E2EFCD71F2EFAD759
:103BD2001AC014F01BC015F01CC016F01DC017F05F
:103BE20048EC1CF0050E1F6E0F0E1E6EF10EE82E35
:103BF200FED71E2EFCD71F2EFAD700F07E901200A1
:103C02001BC014F01CC015F01DC016F01EC017F02A
:103C120048EC1CF0090E206E1E0E1F6EE40EE82EFC
:103C2200FED71F2EFCD7202EFAD700D01BC014F0CF
:103C32001CC015F01DC016F01EC017F084EC1EF05B
:103C42001D0E206E690E1F6EA50EE82EFED71F2ECA
:103C5200FCD7202EFAD700F01BC014F01CC015F0C0
:103C62001DC016F01EC017F048EC1CF0090E206EA5
:103C72001E0E1F6EE40EE82EFED71F2EFCD7202E3E
:103C8200FAD700D0120020EE01F01450D9261550B8
:103C9200DA22010EDF6E20EE01F01650D9261750FF
:103CA200DA22010EDF6E000E1A6E000E196E14C0BB
:103CB200D9FF15C0DAFFDF2A16C0D9FF17C0DAFF15
:103CC200DF2A14C00EF015C00FF0FAEC15F016C082
:103CD2000EF017C00FF0FAEC15F0090E186E4E0E2A
:103CE200E82EFED7182EFCD700D0194A1A2A1A50ED
:103CF20009E1320E195CD8A081EF1EF083EF1EF0AD
:103D020058EF1EF0120020EE01F01450D926155083
:103D1200DA22000EDF6E20EE01F01650D92617507F
:103D2200DA22000EDF6E000E1A6E000E196E14C03B
:103D3200D9FF15C0DAFFDF2A16C0D9FF17C0DAFF94
:103D4200DF2A14C00EF015C00FF0FAEC15F016C001
:103D52000EF017C00FF0FAEC15F0090E186E4E0EA9
:103D6200E82EFED7182EFCD700D0194A1A2A1A506C
:103D720009E1320E195CD8A0C1EF1EF0C3EF1EF0AC
:103D820098EF1EF012005F50D8B4CAEF1EF0CCEFCD
:103D92001EF0EEEF1EF021C01BF022C01CF023C06B
:103DA2001DF024C01EF001EC1EF021C01AF022C04A
:103DB2001BF023C01CF024C01DF079EC1DF021C0C3
:103DC2001AF022C01BF023C01CF024C01DF079ECB5
:103DD2001DF05EEC22F002EF1FF021C01AF022C0AB
:103DE2001BF023C01CF024C01DF0BDEC1DF021C04F
:103DF2001AF022C01BF023C01CF024C01DF0BDEC41
:103E02001DF012005F50D8B409EF1FF00BEF1FF046
:103E12002DEF1FF021C01BF022C01CF023C01DF0AB
:103E220024C01EF001EC1EF021C01AF022C01BF0CB
:103E320023C01CF024C01DF0BDEC1DF021C01AF0FF
:103E420022C01BF023C01CF024C01DF0BDEC1DF0ED
:103E52005EEC22F041EF1FF021C01AF022C01BF0ED
:103E620023C01CF024C01DF079EC1DF021C01AF013
:103E720022C01BF023C01CF024C01DF079EC1DF001
:103E82001200CE0EF66E440EF76E000EF86E01EEC4
:103E920086F010EE07F00900F5CFEEFFE550E15095
:103EA200FAE1C60EF66E440EF76E000EF86E00EEE4
:103EB200F3F010EE08F00900F5CFEEFFE550E15007
:103EC200FAE1D80EF66E440EF76E000EF86E090097
:103ED200F5CF5FF001EE00F0860EEE6AE806FDE136
:103EE20000EEDAF0190EEE6AE806FDE1000EF86E59
:103EF200000164EF13F0000E0C6E000E0B6E095001
:103F02000A10D8B487EF1FF089EF1FF0B1EF1FF04E
:103F1200010E0D6E91EF1FF0D89009360A360D2A68
:103F22000AAE96EF1FF098EF1FF08DEF1FF0D890BA
:103F32000B360C360950075C0A500858D8A0A4EF7B
:103F42001FF0A6EF1FF0ABEF1FF00950075E0A50FB
:103F5200085A0B80D8900A3209320D2E98EF1FF0C2
:103F62000BC007F00CC008F012005F50D8B4BCEFD1
:103F72001FF0BEEF1FF0D6EF1FF024C01BF025C0CC
:103F82001CF026C01DF027C01EF001EC1EF024C05C
:103F920020F025C021F026C022F027C023F0E1EC5A
:103FA2001FF05EEC22F0E0EF1FF024C020F025C0ED
:103FB20021F026C022F027C023F0E1EC1FF012000E
:103FC20020C01AF021C01BF022C01CF023C01DF03B
:103FD200BDEC1DF020C01AF021C01BF022C01CF065
:103FE20023C01DF0BDEC1DF020C01AF021C01BF053
:103FF20022C01CF023C01DF0BDEC1DF020C01AF041
:1040020021C01BF022C01CF023C01DF0BDEC1DF02E
:10401200120059EC22F0520E49EC22F0B60E49EC95
:1040220022F04FEC22F0530E49EC22F0010E43EC49
:1040320021F0076E07500A6E0B6A000E43EC21F066
:10404200076E0750096E086A0A5008100A6E0B5074
:1040520009100B6E54EC22F00AC005F00BC006F0FA
:10406200120059EC22F0520E49EC22F0B80E49EC43
:1040720022F04FEC22F0530E49EC22F0010E43ECF9
:1040820021F0076E07500A6E0B6A000E43EC21F016
:10409200076E0750096E086A0A5008100A6E0B5024
:1040A20009100B6E54EC22F00AC005F00BC006F0AA
:1040B200120059EC22F0520E49EC22F0B40E49ECF7
:1040C20022F04FEC22F0530E49EC22F0010E43ECA9
:1040D20021F0076E07500A6E0B6A000E43EC21F0C6
:1040E200076E0750096E086A0A5008100A6E0B50D4
:1040F20009100B6E54EC22F00AC005F00BC006F05A
:10410200120059EC22F0520E49EC22F0BA0E49ECA0
:1041120022F04FEC22F0530E49EC22F0010E43EC58
:1041220021F0076E07500A6E0B6A000E43EC21F075
:10413200076E0750096E086A0A5008100A6E0B5083
:1041420009100B6E54EC22F00AC005F00BC006F009
:10415200120001C003F002C004F0B2EF20F0014AE5
:10416200022A01C0F6FF02C0F7FF000EF86E0D0E24
:10417200F76403D00800F55005D0F6CFE9FFF7CF7A
:10418200EAFFEF500009D8A4C9EF20F0CBEF20F0EE
:10419200B0EF20F00350015C016E04500258026E31
:1041A2001200360E386E000E396E32C03AF033C04D
:1041B2003BF0000E3E6E000E3D6E000E446E000E91
:1041C200436E3A0E2A6E000E2B6E34C02CF035C0B0
:1041D2002DF0380E2E6E000E2F6EF9EC20F03D50B1
:1041E2003224D96E3E503320DA6E000EDF6E12009A
:1041F2002CC030F02DC031F00DEF21F02AC020F09C
:104202002BC021F0300E226E000E236E2EC024F041
:104212002FC025F0B0EC16F030C0F6FF31C0F7FF2A
:104222000800F5500009D8A419EF21F01BEF21F086
:10423200FFEF20F0000E2B6E000E2A6E1200000E11
:104242002E1A000E2F1A000E301A800E311A2AC0B2
:104252001AF02BC01BF02CC01CF02DC01DF02EC07C
:104262001EF02FC01FF030C020F031C021F021EC31
:104272000DF01AC02AF01BC02BF01CC02CF01DC080
:104282002DF01200036EEEEC21F00E01DA87EEEC57
:1042920021F0D5CE04F0EEEC21F00350D8B454EF67
:1042A20021F058EF21F0026A022A59EF21F0026A46
:1042B200023A02460E01DA510218DF0B0218DA6FD7
:1042C200DA8904501200D9EC21F0010E036E000EBF
:1042D20026EC22F03F0E056E550EE82EFED7052E77
:1042E200FCD700F0030E036E000E26EC22F0D60E71
:1042F200036E010E26EC22F07F92879279988198C4
:104302007E9E869E120047C00DF048C00EF0AAECB9
:104312000AF00DC049F00EC04AF045C032F046C066
:1043220033F0010E346E0E0E356E49C036F04AC0BF
:1043320037F0D2EC20F045C002F046C003F0A3EC07
:1043420021F01200B2EF21F002C0D9FF03C0DAFF60
:10435200DF5036EC22F0024A032A6A0EE82EFED71C
:1043620000D002C0D9FF03C0DAFFDF50D8A4BCEFEF
:1043720021F0BEEF21F0A5EF21F01200016E0150F5
:10438200D8B4C6EF21F0C8EF21F0CDEF21F07F8243
:1043920079887E8ED8EF21F00150D8A4D3EF21F096
:1043A200D5EF21F0D8EF21F07F9279987E9E12000E
:1043B2000E01D951F00B0809D96FD98B9F0ED66F18
:1043C200848A848CA79BA79D1D0E1D6F1E0E1C6FD9
:1043D2001C0E6F6F1B0E706F12000E01D8B5F4EF3A
:1043E20021F0F6EF21F0EEEF21F0DACE01F01F0E10
:1043F2000116D8A4FFEF21F001EF22F0EEEF21F039
:10440200120001500302F3CF05F0F4CF06F0015081
:104412000402F350062602500302F350062605C09A
:1044220001F006C002F0120083888382120E0E0190
:10443200626F110E156FE997E895330EE56F000E66
:10444200E66FE789E88BE78F1200046E59EC22F0E1
:10445200520E49EC22F00450800949EC22F003503C
:1044620049EC22F054EC22F01200016E0E0137A545
:104472003DEF22F03FEF22F037EF22F001C0E4FEE1
:1044820012008498889086907C9880907E9012008A
:10449200026EEEEC21F002C0D5FE1200EEEC21F02D
:1044A2000E01DA831200EEEC21F00E01DA85120021
:1044B200EEEC21F00E01DA811200000ED36E000E36
:1044C200D46E12005E01BC0296009600286E756CD6
:0344D2006C290052
:0344D600120001D0
:020000040020DA
:10000000FF0FFF0FFF0FFF0FFF0FFF0FFF0FFF0F80
:020000040030CA
:0C000000AAFFFFFF9FFFFFFFFFFFFFFFB5
:00000001FF
