:040000004FEF07F0C7
:100E0000005265643A20256420477265656E3A2079
:100E1000256420426C75653A20256420436C656129
:090E2000723A202564200D000047
:100E2A00B5EC07F072EC07F08CEC07F0000E1E6EC2
:100E3A00010E1F6E010E206EAA0E236E0F0E246E77
:100E4A00A60E256E0F0E266E000E226E630E216E02
:100E5A00000E156E010E166E010E176E250E1A6E15
:100E6A000F0E1B6E210E1C6E0F0E1D6E000E196EDC
:100E7A00630E186E520E316E2B0E306E000EE82E77
:100E8A00FED7302EFCD7312EFAD700D03FEF07F02D
:100E9A0000EF00F0CC0EF66E0F0EF76E000EF86E35
:100EAA0000EE32F010EE05F00900F5CFEEFFE55046
:100EBA00E150FAE100EE60F03C0EEE6AE806FDE170
:100ECA0000EE01F02A0EEE6AE806FDE1000EF86E69
:100EDA000E0EF76E000115EF07F08CEC07F0010E0D
:100EEA002D6E000EC6EC07F03F0E2F6E550EE82E43
:100EFA00FED72F2EFCD700F0030E2D6E000EC6EC87
:100F0A0007F0D50E2D6E010EC6EC07F012000E0189
:100F1A00D951F00B0809D96FD98B9F0ED66F848AE5
:100F2A00848CA79BA79D1D0E1D6F1E0E1C6F1C0E89
:100F3A006F6F1B0E706F12000E01D8B5A7EF07F086
:100F4A00A9EF07F0A1EF07F0DACE2BF01F0E2B1650
:100F5A00D8A4B2EF07F0B4EF07F0A1EF07F0120040
:100F6A0083888382120E0E01626F110E156FE99744
:100F7A00E895330EE56F000EE66FE789E88BE78F99
:100F8A0012002E6EE1EC07F0520ED6EC07F02E504E
:100F9A008009D6EC07F02D50D6EC07F0DCEC07F010
:100FAA0012002C6EA1EC07F02CC0D5FE1200A1ECA9
:100FBA0007F00E01DA851200A1EC07F00E01DA81C2
:070FCA001200640064000145
:020000040020DA
:10000000FF0FFF0FFF0FFF0FFF0FFF0FFF0FFF0F80
:020000040030CA
:0C000000AAFFFFFF9FFFFFFFFFFFFFFFB5
:00000001FF
