:040000006AEF21F092
:100E0000002052656420256620477265656E2C259A
:100E10006620426C75652C256620636C65617220C6
:100E2000256620487565202566200D004C69676899
:100E30007420426C7565004461726B20426C75656C
:100E4000004567677368656C6C004F72616E67651B
:100E50000059656C6C6F7700477265656E0050696C
:100E60006E6B00696E66006E616E00526564000014
:100E7000000E00019B6F73C09EF074C09FF075C0A0
:100E8000A0F076C0A1F0A1BF4AEF07F048EF07F04D
:100E90005EEF07F0010E9B6F9EC001F09FC002F055
:100EA000A0C003F0A1C004F089EC21F001C09EF0C5
:100EB00002C09FF003C0A0F004C0A1F0000E00012A
:100EC0009D6F000E9C6FF4C08BF0F5C08CF09B51B1
:100ED000D8B46DEF07F06FEF07F083EF07F09B5189
:100EE000D8A475EF07F077EF07F07DEF07F0000E5D
:100EF000816F2B0E806F81EF07F0000E816F2D0E3A
:100F0000806F80C09BF09EC001F09FC002F0A0C027
:100F100003F0A1C004F0A1EC1DF001040210D8A45C
:100F200094EF07F096EF07F0C9EF07F000019B512F
:100F3000D8B49DEF07F09FEF07F0A8EF07F09BC034
:100F400012F18B07D8A08C07000E9D6F010E9C6FCD
:100F5000120E9C25016E010E9D21026E630E036E22
:100F60000E0E046EE5EC20F00001FD0E8B27FF0E47
:100F70008C2371C011F072C012F0120E136E010EAC
:100F8000146E8BC015F08CC016F036EC1FF034EFE9
:100F90000CF09EC001F09FC002F0A0C003F0A1C001
:100FA00004F0A1EC1DF001500210D8A4DAEF07F014
:100FB000DCEF07F0FCEF07F000019B51D8B4E3EF42
:100FC00007F0E5EF07F0EEEF07F09BC012F18B079B
:100FD000D8A08C07000E9D6F010E9C6F120E9C25F1
:100FE000016E010E9D21026E670E036E0E0E046EE1
:100FF000E5EC20F0B4EF07F0000E0001A26F000E48
:10100000A36F800EA46F3F0EA56F000E8A6F000EB7
:10101000896F9EC001F09FC002F0A0C003F0A1C084
:1010200004F0000E056E000E066E000E076E000E38
:10103000086EE1EC1EF0D8B020EF08F022EF08F0C7
:1010400001EF09F02FEF08F08DC0A2F08EC0A3F0E1
:101050008FC0A4F090C0A5F00001894B8A2BA2C0DC
:101060004BF0A3C04CF0A4C04DF0A5C04EF0000E54
:101070004F6E000E506E200E516E410E526EBAEC45
:1010800014F04BC08DF04CC08EF04DC08FF04EC0B0
:1010900090F000018D519E5D016E8E519F59026E40
:1010A0008F51A059036E9051A159046E73EC1FF03B
:1010B00004BE66EF08F004500310021009E1020EAE
:1010C000015CD8A066EF08F068EF08F024EF08F0A4
:1010D0008DC057F08EC058F08FC059F090C05AF0B4
:1010E0009EC05BF09FC05CF0A0C05DF0A1C05EF050
:1010F0009EEC1CF0D8A07FEF08F081EF08F024EF01
:1011000008F00001A2519E5D016EA3519F59026E2D
:10111000A451A059036EA551A159046E73EC1FF0A0
:1011200004BEA0EF08F004500310021007E1020E05
:10113000015CD8B09EEF08F0A0EF08F0E8EF08F0EF
:10114000A2C09EF0A3C09FF0A4C0A0F0A5C0A1F0D3
:1011500001EF09F0A2C032F0A3C033F0A4C034F014
:10116000A5C035F0000E366E000E376E200E386EBC
:10117000410E396ED0EC16F032C0A2F033C0A3F0AD
:1011800034C0A4F035C0A5F000018907D8A08A07B3
:10119000A2519E5D016EA3519F59026EA451A059A8
:1011A000036EA551A159046E73EC1FF004BEE6EF67
:1011B00008F004500310021007E1020E015CD8B0E1
:1011C000E4EF08F0E6EF08F0E8EF08F0A0EF08F031
:1011D0009EC057F09FC058F0A0C059F0A1C05AF06F
:1011E000A2C05BF0A3C05CF0A4C05DF0A5C05EF03F
:1011F0009EEC1CF0D8A0FFEF08F001EF09F0AAEF79
:1012000008F077C083F083C084F00001F7BF0BEFD4
:1012100009F00DEF09F013EF09F0F6C07CF0F7C00C
:101220007DF017EF09F0000E7D6F060E7C6F7CC01D
:1012300087F07DC088F0874B882B660E8419D8A470
:1012400024EF09F026EF09F046EF09F08ABF2DEFF1
:1012500009F02BEF09F039EF09F0000EA26F000E34
:10126000A36F800EA46F3F0EA56F000E8A6F000E55
:10127000896F670E8319D8B440EF09F042EF09F087
:1012800046EF09F0895187278A518823000E926F13
:10129000000E916F9EC093F09FC094F0A0C095F097
:1012A000A1C096F0A2C08DF0A3C08EF0A4C08FF0B4
:1012B000A5C090F0D7EF09F093C032F094C033F09E
:1012C00095C034F096C035F0A2C036F0A3C037F018
:1012D000A4C038F0A5C039F0D0EC16F032C04BF005
:1012E00033C04CF034C04DF035C04EF0B5EC19F0C1
:1012F0004BC097F04CC098F04DC099F04EC09AF09A
:1013000097C001F098C002F099C003F09AC004F0B1
:101310001BEC1CF001C085F002C086F093C02AF0DF
:1013200094C02BF095C02CF096C02DF097C04FF0D4
:1013300098C050F099C051F09AC052F0A2C04BF042
:10134000A3C04CF0A4C04DF0A5C04EF0BAEC14F010
:101350004BC02EF04CC02FF04DC030F04EC031F0DD
:10136000C2EC20F02AC093F02BC094F02CC095F072
:101370002DC096F0A2C032F0A3C033F0A4C034F068
:10138000A5C035F0000E366E000E376E200E386E9A
:10139000410E396ED0EC16F032C0A2F033C0A3F08B
:1013A00034C0A4F035C0A5F00001914B922B8751B9
:1013B000915D9251800A786F8851800A7859D8A03F
:1013C000E4EF09F0E6EF09F05CEF09F0A2C04BF0A2
:1013D000A3C04CF0A4C04DF0A5C04EF0000E4F6E5F
:1013E000000E506EA00E516E400E526EBAEC14F00C
:1013F0004BC097F04CC098F04DC099F04EC09AF099
:1014000093C057F094C058F095C059F096C05AF068
:1014100097C05BF098C05CF099C05DF09AC05EF038
:101420009EEC1CF0D8B017EF0AF019EF0AF024EF89
:101430000AF0000E0001976F000E986F000E996F72
:10144000000E9A6F4DEF0AF093C001F094C002F0C5
:1014500095C003F096C004F097C005F098C006F060
:1014600099C007F09AC008F0E1EC1EF0D8A03BEF5D
:101470000AF03DEF0AF04DEF0AF0000185B143EFAD
:101480000AF045EF0AF04DEF0AF0000E976F000EDC
:10149000986F000E996F000E9A6F9EC01AF09FC051
:1014A0001BF0A0C01CF0A1C01DF097C01EF098C09A
:1014B0001FF099C020F09AC021F05AEC12F01AC027
:1014C00093F01BC094F01CC095F01DC096F093C023
:1014D00057F094C058F095C059F096C05AF0000EDD
:1014E0004F6E000E506E200E516E410E526E8DC02A
:1014F0004BF08EC04CF08FC04DF090C04EF0BAEC67
:1015000014F04BC05BF04CC05CF04DC05DF04EC0C1
:101510005EF09EEC1CF0D8A090EF0AF092EF0AF07B
:10152000BBEF0AF00001894B8A2B8DC04BF08EC0B7
:101530004CF08FC04DF090C04EF0000E4F6E000E7C
:10154000506E200E516E410E526EBAEC14F04BC02C
:101550008DF04CC08EF04DC08FF04EC090F0660EF6
:1015600000018419D8A4B7EF0AF0B9EF0AF0BBEF75
:101570000AF0874B882B8DC0A2F08EC0A3F08FC0DD
:10158000A4F090C0A5F089C07AF08AC07BF0000E6C
:101590000001826F000E7F6F000E7E6F000E926F53
:1015A000000E916FB9EF0BF093C032F094C033F09E
:1015B00095C034F096C035F0A2C036F0A3C037F025
:1015C000A4C038F0A5C039F0D0EC16F032C04BF012
:1015D00033C04CF034C04DF035C04EF0B5EC19F0CE
:1015E0004BC097F04CC098F04DC099F04EC09AF0A7
:1015F00097C001F098C002F099C003F09AC004F0BF
:101600001BEC1CF002BE10EF0BF0025007E10A0EBB
:10161000015CD8B00EEF0BF010EF0BF020EF0BF0E9
:1016200097C001F098C002F099C003F09AC004F08E
:101630001BEC1CF001C085F002C086F025EF0BF01A
:10164000000E0001866F090E856F00018251D8A43B
:101650002CEF0BF02EEF0BF056EF0BF07BBF35EFBE
:101660000BF033EF0BF056EF0BF0120E9C25D96EFA
:10167000010E9D21DA6E2E0EDF6E9C4B9D2B8B078B
:10168000D8A08C07010E826F56EF0BF0120E9C252E
:10169000D96E010E9D21DA6E300EDF6E9C4B9D2BB4
:1016A0008B07D8A08C077E07D8A07F077E517F11BB
:1016B000D8A45DEF0BF05FEF0BF046EF0BF0120ECE
:1016C0009C25D96E010E9D21DA6E8551300FDF6E9B
:1016D0009C4B9D2B8B07D8A08C0793C02AF094C0FD
:1016E0002BF095C02CF096C02DF097C04FF098C00D
:1016F00050F099C051F09AC052F0A2C04BF0A3C074
:101700004CF0A4C04DF0A5C04EF0BAEC14F04BC0A4
:101710002EF04CC02FF04DC030F04EC031F0C2EC76
:1017200020F02AC093F02BC094F02CC095F02DC06F
:1017300096F0A2C032F0A3C033F0A4C034F0A5C02C
:1017400035F0000E366E000E376E200E386E410EEC
:10175000396ED0EC16F032C0A2F033C0A3F034C022
:10176000A4F035C0A5F000017A07D8A07B07914B03
:10177000922B8751915D9251800A786F8851800A2F
:101780007859D8B0C6EF0BF0C8EF0BF0D6EF0BF0DE
:101790009DBFD4EF0BF09D5109E14B0E9C5DD8A08D
:1017A000D4EF0BF0D6EF0BF0D4EF0AF0000E926FEF
:1017B0004F0E916F120E9125D96E010E9221DA6EA5
:1017C000000EDF6E120E786F010E796F9C51785FFC
:1017D0009D51795B91517825016E92517921026E6C
:1017E000120E036E010E046E9CC005F09DC006F043
:1017F0009AEC20F000019C51915D9C6F9D51925993
:101800009D6F9B51D8A407EF0CF00AEF0CF0010E6E
:101810000BEF0CF0000E916F926B9B51D8B413EF4D
:101820000CF015EF0CF020EF0CF09C07D8A09D07F2
:10183000120E9C25D96E010E9D21DA6E9BC0DFFF32
:1018400091518B5F92518C5B71C011F072C012F09C
:10185000120E9C25136E010E9D21146E8BC015F087
:101860008CC016F036EC1FF0120071C0D9FF72C0A8
:10187000DAFFDECF01F0DECF02F0DECF03F0DECF05
:1018800004F0000120EE04F07151D9267251DA22E1
:10189000DECF05F0DECF06F0DECF07F0DECF08F0BA
:1018A000E1EC1EF0D8A057EF0CF059EF0CF08EEFE2
:1018B0000CF071C0D9FF72C0DAFFDECF01F0DECFCD
:1018C00002F0DECF03F0DECF04F0000120EE08F0DE
:1018D0007151D9267251DA22DECF05F0DECF06F043
:1018E000DECF07F0DECF08F0E1EC1EF0D8A07BEFF2
:1018F0000CF07DEF0CF08EEF0CF0000120EE10F0FC
:101900007151D9267251DA22000EDE6E000EDE6EA3
:10191000000EDE6E000EDD6ECAEF0FF0000E00014D
:101920007E6F000E7D6F71C0D9FF72C0DAFFDECF0F
:1019300057F0DECF58F0DECF59F0DECF5AF020EE70
:1019400004F07151D9267251DA22DECF5BF0DECF7E
:101950005CF0DECF5DF0DECF5EF09EEC1CF0D8B028
:10196000B4EF0CF0B6EF0CF0EEEF0CF071C0D9FF55
:1019700072C0DAFFDECF57F0DECF58F0DECF59F07D
:10198000DECF5AF0000120EE08F07151D9267251D5
:10199000DA22DECF5BF0DECF5CF0DECF5DF0DECFB3
:1019A0005EF09EEC1CF0D8B0D8EF0CF0DAEF0CF043
:1019B000EEEF0CF071C0D9FF72C0DAFFDECF01F09C
:1019C000DECF02F0DECF03F0DECF04F01BEC1CF024
:1019D00001C07DF002C07EF064EF0DF0000120EE4A
:1019E00004F07151D9267251DA22DECF57F0DECFE2
:1019F00058F0DECF59F0DECF5AF071C0D9FF72C077
:101A0000DAFFDECF5BF0DECF5CF0DECF5DF0DECF65
:101A10005EF09EEC1CF0D8B010EF0DF012EF0DF060
:101A20004FEF0DF0000120EE04F07151D9267251F4
:101A3000DA22DECF57F0DECF58F0DECF59F0DECF1E
:101A40005AF020EE08F07151D9267251DA22DECF19
:101A50005BF0DECF5CF0DECF5DF0DECF5EF09EECC3
:101A60001CF0D8B036EF0DF038EF0DF04FEF0DF061
:101A7000000120EE04F07151D9267251DA22DECF36
:101A800001F0DECF02F0DECF03F0DECF04F01BEC7E
:101A90001CF001C07DF002C07EF064EF0DF000018B
:101AA00020EE08F07151D9267251DA22DECF01F012
:101AB000DECF02F0DECF03F0DECF04F01BEC1CF033
:101AC00001C07DF002C07EF0000120EE04F07151F3
:101AD000D9267251DA22DECF57F0DECF58F0DECFB2
:101AE00059F0DECF5AF071C0D9FF72C0DAFFDECFF5
:101AF0005BF0DECF5CF0DECF5DF0DECF5EF09EEC23
:101B00001CF0D8B086EF0DF088EF0DF025EF0EF049
:101B1000000120EE08F07151D9267251DA22DECF91
:101B200057F0DECF58F0DECF59F0DECF5AF071C05B
:101B3000D9FF72C0DAFFDECF5BF0DECF5CF0DECF24
:101B40005DF0DECF5EF09EEC1CF0D8B0AAEF0DF099
:101B5000ACEF0DF025EF0EF071C0D9FF72C0DAFFC7
:101B6000DECF01F0DECF02F0DECF03F0DECF04F0F7
:101B70001BEC1CF001C07BF002C07CF000017D5129
:101B80007B5D736F7E517C59746F73C00CF074C0B1
:101B90000DF0000E0DBEFF0E0E6E0F6E010EBEECB0
:101BA0001AF00CC036F00DC037F00EC038F00FC080
:101BB00039F0000120EE08F07151D9267251DA2275
:101BC000DECF2EF0DECF2FF0DECF30F0DECF31F0E3
:101BD00020EE04F07151D9267251DA22DECF2AF0BC
:101BE000DECF2BF0DECF2CF0DECF2DF0C2EC20F0DC
:101BF0002AC032F02BC033F02CC034F02DC035F0A9
:101C0000D0EC16F032C04BF033C04CF034C04DF085
:101C100035C04EF0000E4F6E000E506E700E516EBD
:101C2000420E526EBAEC14F0000120EE10F0715129
:101C3000D9267251DA224BC0DEFF4CC0DEFF4DC008
:101C4000DEFF4EC0DEFF95EF0FF071C0D9FF72C00E
:101C5000DAFFDECF57F0DECF58F0DECF59F0DECF1F
:101C60005AF0000120EE04F07151D9267251DA22A7
:101C7000DECF5BF0DECF5CF0DECF5DF0DECF5EF07E
:101C80009EEC1CF0D8B047EF0EF049EF0EF003EFDA
:101C90000FF0000120EE08F07151D9267251DA22BE
:101CA000DECF57F0DECF58F0DECF59F0DECF5AF05E
:101CB00020EE04F07151D9267251DA22DECF5BF0AA
:101CC000DECF5CF0DECF5DF0DECF5EF09EEC1CF090
:101CD000D8B06DEF0EF06FEF0EF003EF0FF00001D4
:101CE00020EE04F07151D9267251DA22DECF01F0D4
:101CF000DECF02F0DECF03F0DECF04F01BEC1CF0F1
:101D000001C07BF002C07CF000017D517B5D736FF0
:101D10007E517C59746F73C00CF074C00DF0000ECE
:101D20000DBEFF0E0E6E0F6E010EBEEC1AF00CC053
:101D300036F00DC037F00EC038F00FC039F071C06A
:101D4000D9FF72C0DAFFDECF2EF0DECF2FF0DECF6C
:101D500030F0DECF31F0000120EE08F07151D926CD
:101D60007251DA22DECF2AF0DECF2BF0DECF2CF05C
:101D7000DECF2DF0C2EC20F02AC032F02BC033F0C1
:101D80002CC034F02DC035F0D0EC16F032C077F016
:101D900033C078F034C079F035C07AF0000E1E6E92
:101DA000000E1F6E000E206E400E216E77C01AF0DE
:101DB00078C01BF079C01CF07AC01DF05AEC12F00C
:101DC0001AC04BF01BC04CF01CC04DF01DC04EF0B3
:101DD000000E4F6E000E506E700E516E420E526E1F
:101DE000BAEC14F0000120EE10F07151D9267251B6
:101DF000DA224BC0DEFF4CC0DEFF4DC0DEFF4EC01E
:101E0000DEFF95EF0FF0000120EE08F07151D926AA
:101E10007251DA22DECF01F0DECF02F0DECF03F026
:101E2000DECF04F01BEC1CF001C07BF002C07CF0A4
:101E300000017D517B5D736F7E517C59746F73C05F
:101E40000CF074C00DF0000E0DBEFF0E0E6E0F6E86
:101E5000010EBEEC1AF00CC036F00DC037F00EC00B
:101E600038F00FC039F0000120EE04F07151D9268E
:101E70007251DA22DECF2EF0DECF2FF0DECF30F03F
:101E8000DECF31F071C0D9FF72C0DAFFDECF2AF0A9
:101E9000DECF2BF0DECF2CF0DECF2DF0C2EC20F029
:101EA0002AC032F02BC033F02CC034F02DC035F0F6
:101EB000D0EC16F032C077F033C078F034C079F04F
:101EC00035C07AF0000E1E6E000E1F6E800E206E62
:101ED000400E216E77C01AF078C01BF079C01CF05C
:101EE0007AC01DF05AEC12F01AC04BF01BC04CF037
:101EF0001CC04DF01DC04EF0000E4F6E000E506E17
:101F0000700E516E420E526EBAEC14F0000120EECB
:101F100010F07151D9267251DA224BC0DEFF4CC04D
:101F2000DEFF4DC0DEFF4EC0DEFF20EE10F071512F
:101F3000D9267251DA22030EDBBEA3EF0FF0A1EF18
:101F40000FF0CAEF0FF020EE10F07151D926725148
:101F5000DA22DECF1AF0DECF1BF0DECF1CF0DECFB0
:101F60001DF0000E1E6E000E1F6EB40E206E430E8E
:101F7000216E5AEC12F0000120EE10F07151D926BA
:101F80007251DA221AC0DEFF1BC0DEFF1CC0DEFF6A
:101F90001DC0DEFF12002B0E0001736F0E0E746F5A
:101FA000000E576E000E586EB00E596E430E5A6EEC
:101FB00020EE10F07151D9267251DA22DECF5BF09B
:101FC000DECF5CF0DECF5DF0DECF5EF09EEC1CF08D
:101FD000D8B0EDEF0FF0EFEF0FF01EEF10F00001B3
:101FE00020EE10F07151D9267251DA22DECF57F06F
:101FF000DECF58F0DECF59F0DECF5AF0000E5B6E28
:10200000000E5C6EB40E5D6E430E5E6E9EEC1CF0B8
:10201000D8B00DEF10F00FEF10F01EEF10F06B0EB8
:102020000001736F0E0E746F20EE14F07151D926FB
:102030007251DA22000EDE6E000EDD6E000E576E5B
:10204000000E586E960E596E420E5A6E000120EE2A
:1020500010F07151D9267251DA22DECF5BF0DECF5B
:102060005CF0DECF5DF0DECF5EF09EEC1CF0D8B011
:102070003CEF10F03EEF10F06FEF10F0000120EE9B
:1020800010F07151D9267251DA22DECF57F0DECF2F
:1020900058F0DECF59F0DECF5AF0000E5B6E000E26
:1020A0005C6E9E0E5D6E420E5E6E9EEC1CF0D8B0B5
:1020B0005CEF10F05EEF10F06FEF10F0580E0001C3
:1020C000736F0E0E746F20EE14F07151D926725199
:1020D000DA22070EDE6E000EDD6E55EF12F0000EF6
:1020E000576E000E586ED00E596E410E5A6E00019A
:1020F00020EE10F07151D9267251DA22DECF5BF05A
:10210000DECF5CF0DECF5DF0DECF5EF09EEC1CF04B
:10211000D8B08DEF10F08FEF10F0C0EF10F000018D
:1021200020EE10F07151D9267251DA22DECF57F02D
:10213000DECF58F0DECF59F0DECF5AF0000E5B6EE6
:10214000000E5C6EE80E5D6E410E5E6E9EEC1CF045
:10215000D8B0ADEF10F0AFEF10F0C0EF10F0410EBF
:102160000001736F0E0E746F20EE14F07151D926BA
:102170007251DA22010EDE6E000EDD6E55EF12F0A6
:10218000000E576E000E586E700E596E410E5A6E4C
:10219000000120EE10F07151D9267251DA22DECF03
:1021A0005BF0DECF5CF0DECF5DF0DECF5EF09EEC6C
:1021B0001CF0D8B0DEEF10F0E0EF10F011EF11F0EE
:1021C000000120EE10F07151D9267251DA22DECFD3
:1021D00057F0DECF58F0DECF59F0DECF5AF0000EC8
:1021E0005B6E000E5C6E980E5D6E410E5E6E9EEC38
:1021F0001CF0D8B0FEEF10F000EF11F011EF11F06D
:102200005E0E0001736F0E0E746F20EE14F07151AC
:10221000D9267251DA22020EDE6E000EDD6E55EF07
:1022200012F0000E576E000E586EA80E596E410E39
:102230005A6E000120EE10F07151D9267251DA2247
:10224000DECF5BF0DECF5CF0DECF5DF0DECF5EF0A8
:102250009EEC1CF0D8B02FEF11F031EF11F062EFCF
:1022600011F0000120EE10F07151D9267251DA22DE
:10227000DECF57F0DECF58F0DECF59F0DECF5AF088
:10228000000E5B6E000E5C6EC80E5D6E410E5E6EE3
:102290009EEC1CF0D8B04FEF11F051EF11F062EF4F
:1022A00011F0510E0001736F0E0E746F20EE14F0DA
:1022B0007151D9267251DA22030EDE6E000EDD6EE8
:1022C00055EF12F0000E576E000E586EE00E596E6C
:1022D000400E5A6E000120EE10F07151D926725155
:1022E000DA22DECF5BF0DECF5CF0DECF5DF0DECF5A
:1022F0005EF09EEC1CF0D8B080EF11F082EF11F090
:10230000B3EF11F0000120EE10F07151D926725197
:10231000DA22DECF57F0DECF58F0DECF59F0DECF35
:102320005AF0000E5B6E000E5C6E100E5D6E410E7C
:102330005E6E9EEC1CF0D8B0A0EF11F0A2EF11F091
:10234000B3EF11F04A0E0001736F0E0E746F20EEA2
:1023500014F07151D9267251DA22040EDE6E000E8D
:10236000DD6E55EF12F0000E576E000E586EAA0E7D
:10237000596E420E5A6E000120EE10F07151D926AE
:102380007251DA22DECF5BF0DECF5CF0DECF5DF0A3
:10239000DECF5EF09EEC1CF0D8B0D1EF11F0D3EFA1
:1023A00011F004EF12F0000120EE10F07151D92667
:1023B0007251DA22DECF57F0DECF58F0DECF59F07F
:1023C000DECF5AF0000E5B6E000E5C6EBC0E5D6ED2
:1023D000420E5E6E9EEC1CF0D8B0F1EF11F0F3EF00
:1023E00011F004EF12F02C0E0001736F0E0E746FDB
:1023F00020EE14F07151D9267251DA22050EDE6EEC
:10240000000EDD6E55EF12F0000E576E000E586E86
:10241000110E596E430E5A6E000120EE10F07151EC
:10242000D9267251DA22DECF5BF0DECF5CF0DECF50
:102430005DF0DECF5EF09EEC1CF0D8B022EF12F023
:1024400024EF12F055EF12F0000120EE10F0715160
:10245000D9267251DA22DECF57F0DECF58F0DECF28
:1024600059F0DECF5AF0000E5B6E000E5C6E240E4B
:102470005D6E430E5E6E9EEC1CF0D8B042EF12F023
:1024800044EF12F055EF12F0370E0001736F0E0E8D
:10249000746F20EE14F07151D9267251DA22060EB3
:1024A000DE6E000EDD6E55EF12F073C071F074C079
:1024B00072F012001D50800B266E1D501D24286ED8
:1024C0001CAE65EF12F067EF12F068EF12F0288093
:1024D0002850D8B46EEF12F070EF12F085EF12F0C2
:1024E0002828D8A476EF12F078EF12F080EF12F0DF
:1024F000000E1A6E000E1B6E000E1C6E000E1D6E7E
:102500001C8E000E1D6E8DEF12F0000E1A6E000E66
:102510001B6E000E1C6E000E1D6E2150800B276E70
:1025200026502718D8B497EF12F099EF12F09AEFCF
:1025300012F0268C21502124276E20AEA2EF12F03B
:10254000A4EF12F0A5EF12F027802750D8B4ABEF1C
:1025500012F0ADEF12F0C2EF12F02728D8A4B3EFBB
:1025600012F0B5EF12F0BDEF12F0000E1E6E000E6D
:102570001F6E000E206E000E216E208E000E216E4A
:10258000CAEF12F0000E1E6E000E1F6E000E206EBF
:10259000000E216E2850275CD8B0D1EF12F0D3EF97
:1025A00012F0FAEF12F026ACD8EF12F0DAEF12F0D8
:1025B000DCEF12F0800E261A28C029F027C028F080
:1025C00029C027F01AC029F01EC01AF029C01EF039
:1025D0001BC029F01FC01BF029C01FF01CC029F030
:1025E00020C01CF029C020F01DC029F021C01DF022
:1025F00029C021F0000E296E285027C022F0236A3E
:10260000225E000E235A23BE0FEF13F0235009E180
:102610001A0E225CD8A00FEF13F011EF13F048EF61
:1026200013F01A501B101C101D10D8A41AEF13F031
:102630001DEF13F0010E1EEF13F0000E296E000EB9
:102640001A6E000E1B6E000E1C6E000E1D6E27C053
:1026500028F051EF13F029A030EF13F032EF13F010
:1026600038EF13F0D89029300109296E3AEF13F0B2
:10267000D89029321AA03FEF13F041EF13F042EF48
:1026800013F0298E1D341D321C321B321A32282AB7
:102690002750285CD8A04FEF13F051EF13F02BEF29
:1026A00013F026BC56EF13F058EF13F098EF13F029
:1026B0002850D8A45EEF13F060EF13F06AEF13F028
:1026C000000E1A6E000E1B6E000E1C6E000E1D6EAC
:1026D000B9EF14F01E501A261F501B2220501C2246
:1026E00021501D221DA077EF13F079EF13F025EF95
:1026F00014F029A07EEF13F080EF13F086EF13F0B3
:10270000D89029300109296E88EF13F0D89029322A
:102710001AA08DEF13F08FEF13F090EF13F0298EC6
:102720001D341D321C321B321A32282A25EF14F0B8
:102730001E501A5C1F501B5820501C581D50800AF8
:10274000226E2150800A2258D8B0A9EF13F0ABEFC7
:1027500013F0D6EF13F01A501E5C226E1B501F5858
:10276000236E1C502058246E1D502158256EFF0EDC
:1027700022241A6EFF0E23201B6EFF0E24201C6ED7
:10278000FF0E25201D6E800E261A296C2950D8A414
:10279000CCEF13F0CEEF13F0DEEF13F0010E1A269C
:1027A000000E1B221C221D22DEEF13F01E501A5EAB
:1027B0001F501B5A20501C5A21501D5A1A501B10D2
:1027C0001C101D10D8A4E7EF13F0E9EF13F01EEF73
:1027D00014F02950D8A4EFEF13F0F1EF13F01EEF2F
:1027E00014F0000E1A6E000E1B6E000E1C6E000E12
:1027F0001D6EB9EF14F0D8901A361B361C361D36F4
:1028000029AE05EF14F007EF14F008EF14F01A806A
:1028100029A00DEF14F00FEF14F013EF14F0D8808F
:10282000293615EF14F0D89029362850D8B41BEF6C
:1028300014F01DEF14F01EEF14F028061CAE23EF69
:1028400014F025EF14F0FBEF13F0000E276E29AE05
:102850002CEF14F02EEF14F046EF14F029C022F004
:102860007F0E2216D8B437EF14F039EF14F03DEF95
:1028700014F0010E276E46EF14F01AA042EF14F088
:1028800044EF14F046EF14F039EF14F02750D8B4A9
:102890004CEF14F04EEF14F079EF14F0010E1A26FD
:1028A000000E1B221C221D221DA059EF14F05BEF0D
:1028B00014F079EF14F01AC022F01BC023F01CC0F2
:1028C00024F01DC025F02534253224322332223253
:1028D00022C01AF023C01BF024C01CF025C01DF03C
:1028E0002828D8B476EF14F078EF14F079EF14F0CC
:1028F000282A2828D8B47FEF14F081EF14F089EF4C
:1029000014F02850D8A487EF14F089EF14F09BEF4F
:1029100014F0000E1A6E000E1B6E000E1C6E000EE0
:102920001D6E2850D8A497EF14F099EF14F09BEF88
:1029300014F0000E266E28A0A0EF14F0A2EF14F001
:10294000A5EF14F01C8EA6EF14F01C9ED890283032
:102950001D6E26AEAEEF14F0B0EF14F0B1EF14F030
:102960001D8E1AC01AF01BC01BF01CC01CF01DC02D
:102970001DF012004E50800B0001606F4E504E242F
:10298000666F4DAEC6EF14F0C8EF14F0C9EF14F047
:1029900066816651D8B4CFEF14F0D1EF14F0E4EFB4
:1029A00014F06629D8A4D7EF14F0D9EF14F0E1EFB2
:1029B00014F0000E4B6E000E4C6E000E4D6E000EAD
:1029C0004E6E4D8EECEF14F0000E4B6E000E4C6E02
:1029D000000E4D6E000E4E6E5250800B601B52501A
:1029E0005224656F51AEF7EF14F0F9EF14F0FAEFDF
:1029F00014F065816551D8B400EF15F002EF15F0C1
:102A000015EF15F06529D8A408EF15F00AEF15F0B9
:102A100012EF15F0000E4F6E000E506E000E516E4C
:102A2000000E526E518E1DEF15F0000E4F6E000E0F
:102A3000506E000E516E000E526E6551D8B423EFE9
:102A400015F025EF15F02DEF15F06651D8A42BEFFA
:102A500015F02DEF15F037EF15F0000E4B6E000E50
:102A60004C6E000E4D6E000E4E6ECFEF16F05150B4
:102A70004B02F3CF6BF0F4CF6CF06B51616F626B74
:102A8000636B646B6C51676F686B696B6A6B5050FA
:102A90004C02F3CF6BF0F4CF6CF06B516127000E5A
:102AA0006223632364236C516727000E6823692324
:102AB0006A234F504D02F3CF6BF0F4CF6CF06B51A3
:102AC0006127000E6223632364236C516727000E85
:102AD000682369236A2363C064F062C063F061C045
:102AE00062F0616B4F504C02F3CF6BF0F4CF6CF09F
:102AF0006B5161276C516223000E6323000E642327
:102B000050504B02F3CF6BF0F4CF6CF06B51612758
:102B10006C516223000E6323000E642363C064F0D3
:102B200062C063F061C062F0616B4F504B02F3CF43
:102B30006BF0F4CF6CF06B5161276C516223000E87
:102B40006323000E642351504C02F3CF6BF0F4CF9B
:102B50006CF06B5167276C516823000E6923000EDF
:102B60006A2350504D02F3CF6BF0F4CF6CF06B51F1
:102B700067276C516823000E6923000E6A235150A9
:102B80004D02F3CF6BF0F4CF6CF06B51536E6C5180
:102B9000546E556A566A55C056F054C055F053C02D
:102BA00054F0536A53506727545068235550692393
:102BB00056506A2361C053F062C054F063C055F0B0
:102BC00064C056F0190EEAEF15F0D890563255321F
:102BD00054325332E82EE5EF15F053506727545026
:102BE00068235550692356506A2363C064F062C05D
:102BF00063F061C062F0616B655166C053F0546A66
:102C00005326000E5422820E53246B6FFF0E542065
:102C10006C6F20EF16F0D8906737683769376A37DE
:102C200064AF15EF16F017EF16F018EF16F0678186
:102C3000D89061376237633764376B07D8A06C0769
:102C400069AF25EF16F027EF16F00BEF16F0000E28
:102C5000656F64AF2EEF16F030EF16F054EF16F0FC
:102C6000FF0E6115536EFF0E6215546EFF0E631555
:102C7000556E7F0E6415566E5350541055105610F5
:102C8000D8B445EF16F047EF16F04BEF16F0010EF3
:102C9000656F54EF16F067A150EF16F052EF16F083
:102CA00054EF16F047EF16F06551D8B45AEF16F00E
:102CB0005CEF16F080EF16F0010E6727000E682318
:102CC00069236A236AA167EF16F069EF16F080EFB7
:102CD00016F067C053F068C054F069C055F06AC080
:102CE00056F05634563255325432533253C067F090
:102CF00054C068F055C069F056C06AF06B4B6C2B3D
:102D00006CBF8BEF16F06C5108E16B29D8A08BEFEC
:102D100016F08DEF16F097EF16F0000E676F000EAD
:102D2000686F800E696F7F0E6A6FC5EF16F06CBF1B
:102D3000A4EF16F06C5106E16B05D8B0A2EF16F0C7
:102D4000A4EF16F0B0EF16F0000E676F000E686F7C
:102D5000000E696F000E6A6F000E606FC5EF16F00F
:102D60006BC066F0FF0E6717FF0E68177F0E6917BE
:102D7000000E6A1766A1BFEF16F0C1EF16F0C2EFA2
:102D800016F0698FD89066316A6F60516A1367C018
:102D90004BF068C04CF069C04DF06AC04EF01200B4
:102DA0003550800B426E35503524496E34AEDBEF22
:102DB00016F0DDEF16F0DEEF16F049804950D8B47A
:102DC000E4EF16F0E6EF16F0FBEF16F04928D8A472
:102DD000ECEF16F0EEEF16F0F6EF16F0000E326E96
:102DE000000E336E000E346E000E356E348E000E03
:102DF000356E03EF17F0000E326E000E336E000ECC
:102E0000346E000E356E3950800B421A3950392419
:102E10004A6E38AE0EEF17F010EF17F011EF17F003
:102E20004A804A50D8B417EF17F019EF17F02EEF79
:102E300017F04A28D8A41FEF17F021EF17F029EF59
:102E400017F0000E366E000E376E000E386E000E54
:102E5000396E388E000E396E36EF17F0000E366E72
:102E6000000E376E000E386E000E396E3650371079
:102E700038103910D8A43FEF17F041EF17F059EF91
:102E800017F0000E326E000E336E000E346E000E20
:102E9000356E800E34127F0E35124250351232C01C
:102EA00032F033C033F034C034F035C035F09CEF2D
:102EB00018F04950D8A45FEF17F061EF17F06BEFEF
:102EC00017F0000E326E000E336E000E346E000EE0
:102ED000356E9CEF18F04A5049C03AF03B6A3A5EB2
:102EE000000E3B5A7F0E3A24436E000E3B20446E88
:102EF00032C03EF033C03FF034C040F035C041F046
:102F0000000E326E000E336E000E346E000E356E03
:102F1000000E456E000E466E000E476E000E486EA7
:102F2000000E4A6ECCEF17F04A50D8B49AEF17F063
:102F30009CEF17F0B3EF17F0D8903E363F3640368F
:102F40004136D890323633363436353648AEABEF6C
:102F500017F0ADEF17F0AEEF17F03280D89045368E
:102F600046364736483636503E5C37503F58385024
:102F7000405839504158D8A0C0EF17F0C2EF17F0B1
:102F8000CBEF17F0488C36503E5E37503F5A3850E2
:102F9000405A3950415A4A2A190E4A64D2EF17F062
:102FA000D4EF17F094EF17F03E503F10401041104F
:102FB000D8B4DDEF17F0DFEF17F0F7EF17F045802B
:102FC000F7EF17F0D890323633363436353648AE10
:102FD000ECEF17F0EEEF17F0EFEF17F03280D8902C
:102FE00045364636473648364306D8A0440634AE02
:102FF000FCEF17F0FEEF17F0E2EF17F0000E4A6E4D
:1030000048AE05EF18F007EF18F02BEF18F0FF0EA1
:1030100045143A6EFF0E46143B6EFF0E47143C6E8D
:103020007F0E48143D6E3A503B103C103D10D8B412
:103030001CEF18F01EEF18F022EF18F0010E4A6E88
:103040002BEF18F032A027EF18F029EF18F02BEF34
:1030500018F01EEF18F04A50D8B431EF18F033EFE3
:1030600018F057EF18F0010E3226000E33223422EA
:10307000352235A03EEF18F040EF18F057EF18F06A
:1030800032C03AF033C03BF034C03CF035C03DF0C4
:103090003D343D323C323B323A323AC032F03BC0F2
:1030A00033F03CC034F03DC035F0434A442A44BEBE
:1030B00062EF18F0445008E14328D8A062EF18F0FE
:1030C00064EF18F06FEF18F0000E446E4368000EC6
:1030D000326E000E336E000E346E000E356E44BE3E
:1030E0007CEF18F0445006E14304D8B07AEF18F0B2
:1030F0007CEF18F08AEF18F0000E446E000E436E5D
:10310000000E326E000E336E000E346E000E356E01
:10311000000E426E43C049F049A091EF18F093EFC2
:1031200018F096EF18F0348E97EF18F0349ED89080
:103130004930356E4DEF17F01200A8C0D9FFA9C075
:10314000DAFFDECFF6FFDDCFF7FF000EF86E0800E6
:10315000F550250AD8A4AFEF18F0B1EF18F09EEFA4
:1031600019F0A8C0D9FFA9C0DAFFDE2A000EDD22BF
:10317000000E0001F56F000EF46FF4C0F8F0F66970
:10318000F769A8C0D9FFA9C0DAFFDECFB7F0DDCF5D
:10319000B8F0B7C0F6FFB8C0F7FF000EF86E080031
:1031A000F5CFB6F0E0EF18F0B74BB82BF9EF18F009
:1031B0006C0EB66FF9EF18F0000EB66FF9EF18F05D
:1031C000B651AC6FAD6BAD51000AD8B4EAEF18F050
:1031D000DCEF18F0AC514C0AD8B4D4EF18F02A0A3E
:1031E000D8B4D8EF18F00A0AD8B4D4EF18F0DCEF4E
:1031F00018F0B7C0F6FFB8C0F7FF000EF86E080071
:10320000F550660AD8A407EF19F009EF19F095EF09
:1032100019F03FEF19F0AAC0D9FFABC0DAFFDFCF3A
:10322000ACF0040EDE26DFCFADF0000EDD22ACC028
:10323000D9FFADC0DAFFDECFAEF0DECFAFF0DECF2C
:10324000B0F0DECFB1F054EF19F0AAC0D9FFABC097
:10325000DAFFDFCFACF0040EDE26DFCFADF0000EDC
:10326000DD22ACC0D9FFADC0DAFFDECFAEF0DECFDD
:10327000AFF0DECFB0F0DECFB1F054EF19F0B651C1
:10328000AC6FAD6BAD51000AD8B449EF19F054EFF3
:1032900019F0AC514C0AD8B425EF19F0200AD8B473
:1032A0000BEF19F054EF19F0010EB725AC6F000EBB
:1032B000B821AD6FA8C0D9FFA9C0DAFFACC0DEFF4E
:1032C000ADC0DDFF7DEF19F0A6C071F0A7C072F0B0
:1032D000AEC073F0AFC074F0B0C075F0B1C076F09E
:1032E000B7C0F6FFB8C0F7FF000EF86E0800F5CFC4
:1032F00077F038EC07F0B4EF19F0B7C0F6FFB8C0BC
:10330000F7FF000EF86E0800F550AC6FAD6BAD51D5
:10331000000AD8B48EEF19F095EF19F0AC51660A97
:10332000D8B464EF19F095EF19F0A8C0D9FFA9C07F
:10333000DAFFDE2A000EDD22B4EF19F0A8C0D9FFB3
:10334000A9C0DAFFDECFF6FFDDCFF7FF000EF86E83
:103350000800F550016E026AA6C003F0A7C004F091
:1033600020EC1EF095EF19F01200ECC05BF0EDC000
:103370005CF0EEC05DF0EFC05EF04BC05BF04CC0A7
:103380005CF04DC05DF04EC05EF0810E4F6EFF0EE2
:10339000506E5BC051F05CC052F05DC053F05EC037
:1033A00054F0180ED9EF19F0D890543253325232EB
:1033B0005132E82ED4EF19F051504F24596E000EBF
:1033C00050205A6E5ABEEEEF19F05A5009E1170E0E
:1033D000595CD8A0EEEF19F0F0EF19F0FAEF19F000
:1033E0004BC04BF04CC04CF04DC04DF04EC04EF0B9
:1033F000BDEF1AF05ABEFFEF19F001EF1AF071EFAE
:103400001AF059C04FF0FF0E506EFF0E516E7F0E36
:10341000526E000E536E4F6610EF1AF018EF1AF04E
:10342000533453325232513250324F2E0BEF1AF086
:1034300050C055F051C056F052C057F053C058F02C
:1034400055505B144F6E56505C14506E57505D14BF
:10345000516E58505E14526E4F5050105110521011
:10346000D8A435EF1AF037EF1AF039EF1AF0F0EF71
:1034700019F05BC04FF05CC050F05DC051F05EC011
:1034800052F0200E49EF1AF0D89052325132503299
:103490004F32E82E44EF1AF04F5050105110521096
:1034A000D8B455EF1AF057EF1AF05FEF1AF05550F5
:1034B0005B2656505C2257505D2258505E22551CA8
:1034C0004F6E561C506E571C516E581C526E4F500A
:1034D0005B1650505C1651505D1652505E16B5EF9B
:1034E0001AF05BC04FF05CC050F05DC051F05EC0A0
:1034F00052F0200E81EF1AF0D890523251325032F1
:103500004F32E82E7CEF1AF04F50501051105210ED
:10351000D8A48DEF1AF08FEF1AF099EF1AF0000E81
:103520005B6E000E5C6E000E5D6E000E5E6EB5EFA3
:103530001AF0D8905B344F6E5C34506E5D34516E2F
:103540005E34526E4F50501051105210D8B4ABEF41
:103550001AF0ADEF1AF0B5EF1AF0000E5B6E000E28
:103560005C6E800E5D6EBF0E5E6E5BC04BF05CC02D
:103570004CF05DC04DF05EC04EF01200146E145061
:10358000D8B4C5EF1AF0C7EF1AF0E9EF1AF00FBE82
:10359000CEEF1AF0CCEF1AF0E9EF1AF00CC010F0F1
:1035A0000DC011F00EC012F00FC013F0101E111E4E
:1035B000121E131E102A000E11221222132210C0F6
:1035C00016F011C017F012C018F013C019F0F1EF87
:1035D0001AF00CC016F00DC017F00EC018F00FC096
:1035E00019F00C500D100E100F10D8A4FAEF1AF0AD
:1035F000FCEF1AF006EF1BF0000E0C6E000E0D6EC5
:10360000000E0E6E000E0F6E97EF1BF0960E156EED
:1036100010EF1BF0152AD8901932183217321632D3
:10362000000E1614106E000E1714116E000E1814F2
:10363000126EFE0E1914136E10501110121013108A
:10364000D8A425EF1BF027EF1BF00AEF1BF035EF96
:103650001BF0152A010E1626000E17221822192219
:10366000D8901932183217321632000E1614106E16
:10367000000E1714116E000E1814126EFF0E19149E
:10368000136E1050111012101310D8A44AEF1BF033
:103690004CEF1BF029EF1BF054EF1BF01506D890F0
:1036A000163617361836193618BE59EF1BF05BEF71
:1036B0001BF063EF1BF0020E156061EF1BF063EF70
:1036C0001BF04EEF1BF015B068EF1BF06AEF1BF01C
:1036D0006BEF1BF0189ED890153215C010F0116AD0
:1036E000126A136A10C013F0126A116A106A10503D
:1036F000161211501712125018121350191214509A
:10370000D8B485EF1BF087EF1BF08FEF1BF00FBED7
:103710008EEF1BF08CEF1BF08FEF1BF0198E16C095
:103720000CF017C00DF018C00EF019C00FF0120009
:10373000FAEC1FF005C00CF006C00DF00E6A0F6A1F
:10374000000EBEEC1AF00CC01CF00DC01DF00EC037
:103750001EF00FC01FF022EC20F005C00CF006C0D8
:103760000DF00E6A0F6A000EBEEC1AF00CC020F0CD
:103770000DC021F00EC022F00FC023F072EC20F03B
:1037800005C00CF006C00DF00E6A0F6A000EBEEC0C
:103790001AF00CC024F00DC025F00EC026F00FC0AA
:1037A00027F04AEC20F005C00CF006C00DF00E6AC0
:1037B0000F6A000EBEEC1AF00CC028F00DC029F004
:1037C0000EC02AF00FC02BF01AC0D9FF1BC0DAFFC1
:1037D0001CC0DEFF1DC0DEFF1EC0DEFF1FC0DEFFFF
:1037E00020EE08F01A50D9261B50DA2224C0DEFF42
:1037F00025C0DEFF26C0DEFF27C0DEFF20EE04F07E
:103800001A50D9261B50DA2220C0DEFF21C0DEFF6D
:1038100022C0DEFF23C0DEFF20EE0CF01A50D926B6
:103820001B50DA2228C0DEFF29C0DEFF2AC0DEFFDF
:103830002BC0DEFF1200033404340A6E0A50D8A4F1
:1038400024EF1CF026EF1CF030EF1CF0000E016E90
:10385000000E026E000E036E000E046E9DEF1CF053
:1038600001C005F002C006F003C007F004C008F074
:10387000200E40EF1CF0D890083207320632053295
:10388000E82E3BEF1CF00550096E038EFF0E01166B
:10389000FF0E0216FF0E0316000E0416960E0A5EA9
:1038A0000ABE57EF1CF055EF1CF06DEF1CF00A50EC
:1038B000800A970FD8B05FEF1CF061EF1CF063EF48
:1038C0001CF026EF1CF0D890043203320232013291
:1038D0000A3E63EF1CF085EF1CF01F0E0A6473EFC5
:1038E0001CF075EF1CF07DEF1CF026EF1CF0D8905B
:1038F00001360236033604360A060A50D8A483EF8E
:103900001CF085EF1CF077EF1CF00950D8B48BEF5A
:103910001CF08DEF1CF095EF1CF0041E031E021E20
:10392000016C000E02220322042201C001F002C039
:1039300002F003C003F004C004F01200000E57149C
:1039400000016D6F000E58146E6F800E59146F6F6A
:103950007F0E5A14706F6D516E116F117011D8A4D3
:10396000B4EF1CF0B6EF1CF0BEEF1CF0000E576E6B
:10397000000E586E000E596E000E5A6E000E5B144B
:103980006D6F000E5C146E6F800E5D146F6F7F0E96
:103990005E14706F6D516E116F117011D8A4D3EF5A
:1039A0001CF0D5EF1CF0DDEF1CF0000E5B6E000E7E
:1039B0005C6E000E5D6E000E5E6E5AAEE2EF1CF0A5
:1039C000E4EF1CF0EDEF1CF0576C581ED8B0582AED
:1039D000591ED8B0592A800E5A565EAEF2EF1CF02E
:1039E000F4EF1CF0FDEF1CF05B6C5C1ED8B05C2AA1
:1039F0005D1ED8B05D2A800E5E56000E571A000E6E
:103A0000581A000E591A800E5A1A000E5B1A000E30
:103A10005C1A000E5D1A800E5E1A5B50575C5C509B
:103A200058585D5059585E505A58D8B01AEF1DF08A
:103A30001CEF1DF01FEF1DF0D89020EF1DF0D88077
:103A4000120004EC22F04AEC21F0DBEC21F0000E35
:103A50000101C86F69EF1DF0620E1A6E010E1B6E38
:103A600098EC1BF0780E0001E66F010EE76F620E16
:103A7000E86F010EE96F85EC1EF06EC157F06FC163
:103A800058F070C159F071C15AF0000E5B6E800E93
:103A90005C6EBB0E5D6E440E5E6E9EEC1CF0D8B08C
:103AA00054EF1DF056EF1DF069EF1DF0010E0101FE
:103AB000C86F010EC1EC21F0520E0001EB6F2B0E0E
:103AC000EA6F000EE82EFED7EA2FFCD7EB2FFAD7CD
:103AD00000F00101C851D8B470EF1DF072EF1DF075
:103AE0002CEF1DF0620E1A6E010E1B6E98EC1BF08F
:103AF000620E0001716F010E726F35EC0CF0780EE2
:103B00000001E66F010EE76F620EE86F010EE96FCC
:103B100085EC1EF0520E0001EB6F2B0EEA6F000ECB
:103B2000E82EFED7EA2FFCD7EB2FFAD700F0000ED5
:103B30000101C86F000EC1EC21F069EF1DF000EF2C
:103B400000F0F0C00BF0F1C00CF0F2C00DF0F3C0CB
:103B50000EF001C00BF002C00CF003C00DF004C069
:103B60000EF00BC005F00CC006F00DC007F00EC043
:103B700008F0180EC1EF1DF0D89008320732063257
:103B80000532E82EBCEF1DF00550096E0A6A095097
:103B90000A10D8A4CEEF1DF0D0EF1DF0F0EF1DF00D
:103BA000D8900B34056E0C34066E0D34076E0E344F
:103BB000086E0550061007100810D8A4E2EF1DF09B
:103BC000E4EF1DF0EAEF1DF0000E026E020E016E32
:103BD0001FEF1EF0000E026E030E016E1FEF1EF0AF
:103BE00009280A10D8A4F7EF1DF0F9EF1DF01BEF1C
:103BF0001EF00BC005F00CC006F00DC007F00EC0A3
:103C000008F0090ED8900536063607360836E82E35
:103C100002EF1EF00550061007100810D8B413EF7D
:103C20001EF016EF1EF0010E17EF1EF0000E016ED3
:103C3000026A1FEF1EF0000E026E040E016E1200EB
:103C400003500410D8B427EF1EF029EF1EF032EF16
:103C50001EF003500410D8A430EF1EF032EF1EF017
:103C600037EF1EF0015048EC22F084EF1EF020EEFA
:103C700009F00350D9260450DA22DE50DE10D8B401
:103C800044EF1EF046EF1EF061EF1EF020EE09F04B
:103C90000350D9260450DA2210EE03F00350E12637
:103CA0000450E222DE50E65CE650800A096EDE50E7
:103CB000800A0958D8B05FEF1EF061EF1EF084EF64
:103CC0001EF020EE03F00350D9260450DA22DECF96
:103CD00005F0DDCF06F003C0D9FF04C0DAFFDECF68
:103CE00007F0DDCF08F005500724D96E06500820F4
:103CF000DA6E01C0DFFF20EE03F00350D926045036
:103D0000DA22DE2A000EDD221200E8C071F0E9C0DE
:103D100072F0CBEC0FF0E6C0C1F0E7C0C2F0010ECC
:103D20000001C36F0E0EC46FE8C0D9FFE9C0DAFF0F
:103D3000DECFC5F0DECFC6F0DECFC7F0DECFC8F0F5
:103D400020EE04F0E851D926E951DA22DECFC9F09D
:103D5000DECFCAF0DECFCBF0DECFCCF020EE08F025
:103D6000E851D926E951DA22DECFCDF0DECFCEF010
:103D7000DECFCFF0DECFD0F020EE0CF0E851D92628
:103D8000E951DA22DECFD1F0DECFD2F0DECFD3F0B0
:103D9000DECFD4F020EE10F0E851D926E951DA2236
:103DA000DECFD5F0DECFD6F0DECFD7F0DECFD8F045
:103DB000D1EC1FF0E6C002F0E7C003F0A5EC21F063
:103DC0001200000E0114096E000E02140A6E800E1D
:103DD00003140B6E7F0E04140C6E09500A100B10A6
:103DE0000C10D8A4F6EF1EF0F8EF1EF000EF1FF055
:103DF000000E016E000E026E000E036E000E046EC9
:103E0000000E0514096E000E06140A6E800E0714CB
:103E10000B6E7F0E08140C6E09500A100B100C105C
:103E2000D8A415EF1FF017EF1FF01FEF1FF0000EC3
:103E3000056E000E066E000E076E000E086E055031
:103E400001180FE1065002180CE10750031809E1B0
:103E500008500418D8B42FEF1FF031EF1FF034EFE3
:103E60001FF0D89035EF1FF0D880120016BE3BEF40
:103E70001FF03DEF1FF043EF1FF015C01AF016C002
:103E80001BF047EF1FF0000E1B6E000E1A6E000EA7
:103E9000196E000E186E59EF1FF0000E026E200E04
:103EA000016E11C003F012C004F020EC1EF0184A9D
:103EB000192A1A50185C1950800A176E1B50800A74
:103EC0001758D8A066EF1FF068EF1FF04DEF1FF0F6
:103ED00013C00AF014C00BF011C00CF012C00DF0AA
:103EE00007EC21F0120004BE82EF1FF00450031013
:103EF000021006E10104D8B080EF1FF082EF1FF03E
:103F00009DEF1FF001C005F002C006F003C007F0EE
:103F100004C008F0051E061E071E081E052A000E16
:103F200006220722082205C001F006C002F007C0E1
:103F300003F008C004F0A5EF1FF001C001F002C0BB
:103F400002F003C003F004C004F01200BBC0BFF0D5
:103F5000BCC0C0F0BBEF1FF0B9C0A6F0BAC0A7F05C
:103F6000BF0E0001A86F000EA96FBDC0AAF0BEC0B1
:103F7000ABF09DEC18F0BFC0F6FFC0C0F7FF000E1D
:103F8000F86E0800F5500009D8A4C9EF1FF0CBEF78
:103F90001FF0ACEF1FF0000E0001BA6F000EB96FFA
:103FA0001200C50E0001D96F000EDA6FC1C0DBF040
:103FB000C2C0DCF0000EDF6F000EDE6F000EE56F9A
:103FC000000EE46FDB0EB96F000EBA6FC3C0BBF01A
:103FD000C4C0BCF0D90EBD6F000EBE6FA6EC1FF0C2
:103FE0000001DE51C125D96EDF51C221DA6E000E0B
:103FF000DF6E120041EC22F0520E31EC22F0B60ED0
:1040000031EC22F037EC22F0530E31EC22F0010EAD
:1040100029EC21F0076E07500A6E0B6A000E29EC9E
:1040200021F0076E0750096E086A0A5008100A6EE0
:104030000B5009100B6E3CEC22F00AC005F00BC0CF
:1040400006F0120041EC22F0520E31EC22F0B80ED4
:1040500031EC22F037EC22F0530E31EC22F0010E5D
:1040600029EC21F0076E07500A6E0B6A000E29EC4E
:1040700021F0076E0750096E086A0A5008100A6E90
:104080000B5009100B6E3CEC22F00AC005F00BC07F
:1040900006F0120041EC22F0520E31EC22F0B40E88
:1040A00031EC22F037EC22F0530E31EC22F0010E0D
:1040B00029EC21F0076E07500A6E0B6A000E29ECFE
:1040C00021F0076E0750096E086A0A5008100A6E40
:1040D0000B5009100B6E3CEC22F00AC005F00BC02F
:1040E00006F0120041EC22F0520E31EC22F0BA0E32
:1040F00031EC22F037EC22F0530E31EC22F0010EBD
:1041000029EC21F0076E07500A6E0B6A000E29ECAD
:1041100021F0076E0750096E086A0A5008100A6EEF
:104120000B5009100B6E3CEC22F00AC005F00BC0DE
:1041300006F0120003C009F004C00AF001C007F045
:1041400002C008F0B4EF20F009C0D9FF0AC0DAFFBE
:10415000DF500B6E094A0A2A07C0D9FF08C0DAFFF0
:104160000BC0DFFF074A082A0506D8A00606052867
:1041700006E10628D8A4BFEF20F0C1EF20F0A4EF9D
:1041800020F01200000E2E1A000E2F1A000E301A08
:10419000800E311A2AC01AF02BC01BF02CC01CF064
:1041A0002DC01DF02EC01EF02FC01FF030C020F01B
:1041B00031C021F05AEC12F01AC02AF01BC02BF0CB
:1041C0001CC02CF01DC02DF0120003C005F004C06F
:1041D00006F001C007F002C008F005C0F6FF06C0F7
:1041E000F7FF054A062A000EF86E07C0D9FF08C07F
:1041F000DAFF074A082A0800F5CFDFFFDF50D8A40E
:1042000004EF21F006EF21F0EDEF20F01200000E98
:10421000106E000E0F6E18EF21F00EC001F0026A52
:104220000CC003F00DC004F020EC1EF00F4A102A61
:104230000F500A24D96E10500B20DA6EDF500E6E2C
:104240000E50D8A426EF21F028EF21F00DEF21F039
:104250001200036EF0EC21F00E01DA87F0EC21F091
:10426000D5CE04F0F0EC21F00350D8B43AEF21F0B1
:104270003EEF21F0026A022A3FEF21F0026A023A81
:1042800002460E01DA510218DF0B0218DA6FDA89E2
:1042900004501200DBEC21F0010E036E000E15EC51
:1042A00022F03F0E056E550EE82EFED7052EFCD7E8
:1042B00000F0030E036E000E15EC22F0D60E036E16
:1042C000010E15EC22F07F928792799881987E9E5C
:1042D000869E12008C0EF66E440EF76E000EF86E7F
:1042E00000EEF9F010EE04F00900F5CFEEFFE55016
:1042F000E150FAE101EE00F0780EEE6AE806FDE129
:1043000000EEECF00D0EEE6AE806FDE1000121EF93
:104310001DF00150021003100410D8B492EF21F0E8
:1043200094EF21F09CEF21F0000E011A000E021A0A
:10433000000E031A800E041A01C001F002C002F040
:1043400003C003F004C004F01200B4EF21F002C077
:10435000D9FF03C0DAFFDF5025EC22F0024A032A1E
:104360006A0EE82EFED700D002C0D9FF03C0DAFFE4
:10437000DF50D8A4BEEF21F0C0EF21F0A7EF21F06D
:104380001200016E0150D8B4C8EF21F0CAEF21F03D
:10439000CFEF21F07F8279887E8EDAEF21F0015015
:1043A000D8A4D5EF21F0D7EF21F0DAEF21F07F92FA
:1043B00079987E9E12000E01D951F00B0809D96F31
:1043C000D98B9F0ED66F848A848CA79BA79D1D0EC8
:1043D0001D6F1E0E1C6F1C0E6F6F1B0E706F120078
:1043E0000E01D8B5F6EF21F0F8EF21F0F0EF21F053
:1043F000DACE01F01F0E0116D8A401EF22F003EF70
:1044000022F0F0EF21F0120083888382120E0E0159
:10441000626F110E156FE997E895330EE56F000E88
:10442000E66FE789E88BE78F1200046E41EC22F01B
:10443000520E31EC22F00450800931EC22F003508E
:1044400031EC22F03CEC22F01200016E0E0137A597
:104450002CEF22F02EEF22F026EF22F001C0E4FE36
:104460001200026EF0EC21F002C0D5FE1200F0EC5A
:1044700021F00E01DA831200F0EC21F00E01DA8552
:104480001200F0EC21F00E01DA81120064006400E9
:02449000120018
:020000040020DA
:10000000FF0FFF0FFF0FFF0FFF0FFF0FFF0FFF0F80
:020000040030CA
:0C000000AAFFFFFF9FFFFFFFFFFFFFFFB5
:00000001FF
