:0400000016EF00F007
:100008005F820E0133AB0BEF00F00DEF00F014EF41
:1000180000F0000E0001656F010E646F0E01339B46
:080028005F92110095EF21F039
:100E0000002052656420256620477265656E2C259A
:100E10006620426C75652C256620636C65617220C6
:100E2000256620487565202566200D004C69676899
:100E30007420426C7565004461726B20426C75656C
:100E4000004F72616E67650059656C6C6F77005773
:100E50006869746500477265656E0050696E6B0065
:050E6000526564000072
:100E6600CFC0D9FFD0C0DAFFDECF01F0DECF02F06F
:100E7600DECF03F0DECF04F0000120EE04F0CF5108
:100E8600D926D051DA22DECF05F0DECF06F0DECF4E
:100E960007F0DECF08F052EC1BF0D8A055EF07F0B4
:100EA60057EF07F08CEF07F0CFC0D9FFD0C0DAFFBD
:100EB600DECF01F0DECF02F0DECF03F0DECF04F0AE
:100EC600000120EE08F0CF51D926D051DA22DECF2C
:100ED60005F0DECF06F0DECF07F0DECF08F052ECED
:100EE6001BF0D8A079EF07F07BEF07F08CEF07F047
:100EF600000120EE10F0CF51D926D051DA22000E93
:100F0600DE6E000EDE6E000EDE6E000EDD6EC8EFCB
:100F16000AF0000E0001DC6F000EDB6FCFC0D9FFB8
:100F2600D0C0DAFFDECF4BF0DECF4CF0DECF4DF097
:100F3600DECF4EF020EE04F0CF51D926D051DA2282
:100F4600DECF4FF0DECF50F0DECF51F0DECF52F0E5
:100F5600D0EC1AF0D8B0B2EF07F0B4EF07F0ECEF30
:100F660007F0CFC0D9FFD0C0DAFFDECF4BF0DECF1F
:100F76004CF0DECF4DF0DECF4EF0000120EE08F053
:100F8600CF51D926D051DA22DECF4FF0DECF50F046
:100F9600DECF51F0DECF52F0D0EC1AF0D8B0D6EF5B
:100FA60007F0D8EF07F0ECEF07F0CFC0D9FFD0C0BD
:100FB600DAFFDECF01F0DECF02F0DECF03F0DECFC8
:100FC60004F04DEC1AF001C0DBF002C0DCF062EF79
:100FD60008F0000120EE04F0CF51D926D051DA22D4
:100FE600DECF4BF0DECF4CF0DECF4DF0DECF4EF055
:100FF600CFC0D9FFD0C0DAFFDECF4FF0DECF50F042
:10100600DECF51F0DECF52F0D0EC1AF0D8B00EEFB2
:1010160008F010EF08F04DEF08F0000120EE04F0A4
:10102600CF51D926D051DA22DECF4BF0DECF4CF0AD
:10103600DECF4DF0DECF4EF020EE08F0CF51D926B0
:10104600D051DA22DECF4FF0DECF50F0DECF51F0B6
:10105600DECF52F0D0EC1AF0D8B034EF08F036EF0D
:1010660008F04DEF08F0000120EE04F0CF51D9262C
:10107600D051DA22DECF01F0DECF02F0DECF03F070
:10108600DECF04F04DEC1AF001C0DBF002C0DCF05C
:1010960062EF08F0000120EE08F0CF51D926D051BA
:1010A600DA22DECF01F0DECF02F0DECF03F0DECFB4
:1010B60004F04DEC1AF001C0DBF002C0DCF00001D8
:1010C60020EE04F0CF51D926D051DA22DECF4BF0F4
:1010D600DECF4CF0DECF4DF0DECF4EF0CFC0D9FFE5
:1010E600D0C0DAFFDECF4FF0DECF50F0DECF51F0CA
:1010F600DECF52F0D0EC1AF0D8B084EF08F086EFCD
:1011060008F023EF09F0000120EE08F0CF51D926B0
:10111600D051DA22DECF4BF0DECF4CF0DECF4DF0F1
:10112600DECF4EF0CFC0D9FFD0C0DAFFDECF4FF012
:10113600DECF50F0DECF51F0DECF52F0D0EC1AF019
:10114600D8B0A8EF08F0AAEF08F023EF09F0CFC057
:10115600D9FFD0C0DAFFDECF01F0DECF02F0DECF5E
:1011660003F0DECF04F04DEC1AF001C0D9F002C056
:10117600DAF00001DB51D95DD16FDC51DA59D26F5B
:10118600D1C00CF0D2C00DF0000E0DBEFF0E0E6EDB
:101196000F6E010EBDEC18F00CC057F00DC058F0E4
:1011A6000EC059F00FC05AF0000120EE08F0CF51E2
:1011B600D926D051DA22DECF4FF0DECF50F0DECF87
:1011C60051F0DECF52F020EE04F0CF51D926D051A7
:1011D600DA22DECF4BF0DECF4CF0DECF4DF0DECFA5
:1011E6004EF0BAEC21F04BC053F04CC054F04DC059
:1011F60055F04EC056F0F4EC13F053C01AF054C03C
:101206001BF055C01CF056C01DF0000E1E6E000EE1
:101216001F6E700E206E420E216EDFEC11F0000183
:1012260020EE10F0CF51D926D051DA221AC0DEFFB7
:101236001BC0DEFF1CC0DEFF1DC0DEFF93EF0AF001
:10124600CFC0D9FFD0C0DAFFDECF4BF0DECF4CF0F7
:10125600DECF4DF0DECF4EF0000120EE04F0CF5190
:10126600D926D051DA22DECF4FF0DECF50F0DECFD6
:1012760051F0DECF52F0D0EC1AF0D8B045EF09F0BD
:1012860047EF09F001EF0AF0000120EE08F0CF5118
:10129600D926D051DA22DECF4BF0DECF4CF0DECFAE
:1012A6004DF0DECF4EF020EE04F0CF51D926D051CE
:1012B600DA22DECF4FF0DECF50F0DECF51F0DECFB8
:1012C60052F0D0EC1AF0D8B06BEF09F06DEF09F0E0
:1012D60001EF0AF0000120EE04F0CF51D926D051DB
:1012E600DA22DECF01F0DECF02F0DECF03F0DECF72
:1012F60004F04DEC1AF001C0D9F002C0DAF000019A
:10130600DB51D95DD16FDC51DA59D26FD1C00CF007
:10131600D2C00DF0000E0DBEFF0E0E6E0F6E010E4A
:10132600BDEC18F00CC057F00DC058F00EC059F0C7
:101336000FC05AF0CFC0D9FFD0C0DAFFDECF4FF0D2
:10134600DECF50F0DECF51F0DECF52F0000120EEBE
:1013560008F0CF51D926D051DA22DECF4BF0DECFBE
:101366004CF0DECF4DF0DECF4EF0BAEC21F04BC0A4
:1013760053F04CC054F04DC055F04EC056F0F4EC4E
:1013860013F053C0D5F054C0D6F055C0D7F056C0B0
:10139600D8F0000E3F6E000E406E000E416E400EFD
:1013A600426ED5C03BF0D6C03CF0D7C03DF0D8C0A9
:1013B6003EF04AEC0DF03BC01AF03CC01BF03DC0BD
:1013C6001CF03EC01DF0000E1E6E000E1F6E700E4D
:1013D600206E420E216EDFEC11F0000120EE10F0BF
:1013E600CF51D926D051DA221AC0DEFF1BC0DEFF4C
:1013F6001CC0DEFF1DC0DEFF93EF0AF0000120EEE9
:1014060008F0CF51D926D051DA22DECF01F0DECF57
:1014160002F0DECF03F0DECF04F04DEC1AF001C08F
:10142600D9F002C0DAF00001DB51D95DD16FDC5191
:10143600DA59D26FD1C00CF0D2C00DF0000E0DBE3D
:10144600FF0E0E6E0F6E010EBDEC18F00CC057F0BD
:101456000DC058F00EC059F00FC05AF0000120EE32
:1014660004F0CF51D926D051DA22DECF4FF0DECFAD
:1014760050F0DECF51F0DECF52F0CFC0D9FFD0C052
:10148600DAFFDECF4BF0DECF4CF0DECF4DF0DECF15
:101496004EF0BAEC21F04BC053F04CC054F04DC0A6
:1014A60055F04EC056F0F4EC13F053C0D5F054C0CE
:1014B600D6F055C0D7F056C0D8F0000E3F6E000EDD
:1014C600406E800E416E400E426ED5C03BF0D6C0D7
:1014D6003CF0D7C03DF0D8C03EF04AEC0DF03BC022
:1014E6001AF03CC01BF03DC01CF03EC01DF0000EC3
:1014F6001E6E000E1F6E700E206E420E216EDFEC09
:1015060011F0000120EE10F0CF51D926D051DA2289
:101516001AC0DEFF1BC0DEFF1CC0DEFF1DC0DEFFE3
:1015260020EE10F0CF51D926D051DA22030EDBBEC1
:10153600A1EF0AF09FEF0AF0C8EF0AF020EE10F0D4
:10154600CF51D926D051DA22DECF3BF0DECF3CF0A8
:10155600DECF3DF0DECF3EF0000E3F6E000E406E59
:10156600B40E416E430E426E4AEC0DF0000120EEC1
:1015760010F0CF51D926D051DA223BC0DEFF3CC055
:10158600DEFF3DC0DEFF3EC0DEFF12002B0E5B6EAF
:101596000E0E5C6E000E4B6E000E4C6E000E4D6E07
:1015A600000E4E6E20EE10F05750D9265850DA2213
:1015B600DECF4FF0DECF50F0DECF51F0DECF52F06F
:1015C600D0EC1AF0D8B0EAEF0AF0ECEF0AF059EFD7
:1015D6000BF020EE10F05750D9265850DA22DECF05
:1015E6004BF0DECF4CF0DECF4DF0DECF4EF0000EEE
:1015F6004F6E000E506E400E516E400E526ED0EC85
:101606001AF0D8A009EF0BF00BEF0BF02AEF0BF056
:10161600000E4B6E000E4C6EB00E4D6E430E4E6EAF
:1016260020EE10F05750D9265850DA22DECF4FF070
:10163600DECF50F0DECF51F0DECF52F0D0EC1AF014
:10164600D8B028EF0BF02AEF0BF059EF0BF0000E95
:101656004B6E000E4C6EB40E4D6E430E4E6E20EE6B
:1016660010F05750D9265850DA22DECF4FF0DECF91
:1016760050F0DECF51F0DECF52F0D0EC1AF0D8A009
:1016860047EF0BF049EF0BF059EF0BF0600E5B6E76
:101696000E0E5C6E20EE14F05750D9265850DA2202
:1016A600000EDE6E000EDD6E45EF0DF0000E4B6E89
:1016B600000E4C6E600E4D6E410E4E6E20EE10F01A
:1016C6005750D9265850DA22DECF4FF0DECF50F0F1
:1016D600DECF51F0DECF52F0D0EC1AF0D8B076EF74
:1016E6000BF078EF0BF0A7EF0BF020EE10F0575051
:1016F600D9265850DA22DECF4BF0DECF4CF0DECFC3
:101706004DF0DECF4EF0000E4F6E000E506E900E76
:10171600516E410E526ED0EC1AF0D8B095EF0BF028
:1017260097EF0BF0A7EF0BF05B0E5B6E0E0E5C6E89
:1017360020EE14F05750D9265850DA22040EDE6EE9
:10174600000EDD6E45EF0DF0000E4B6E000E4C6E7A
:10175600AA0E4D6E420E4E6E20EE10F05750D92650
:101766005850DA22DECF4FF0DECF50F0DECF51F008
:10177600DECF52F0D0EC1AF0D8B0C4EF0BF0C6EFC3
:101786000BF0F5EF0BF020EE10F05750D92658501D
:10179600DA22DECF4BF0DECF4CF0DECF4DF0DECFDF
:1017A6004EF0000E4F6E000E506E020E516E430E3E
:1017B600526ED0EC1AF0D8B0E3EF0BF0E5EF0BF079
:1017C600F5EF0BF0370E5B6E0E0E5C6E20EE14F02E
:1017D6005750D9265850DA22020EDE6E000EDD6E04
:1017E60045EF0DF0000E4B6E000E4C6EC00E4D6EAA
:1017F600400E4E6E20EE10F05750D9265850DA2281
:10180600DECF4FF0DECF50F0DECF51F0DECF52F01C
:10181600D0EC1AF0D8B012EF0CF014EF0CF043EF46
:101826000CF020EE10F05750D9265850DA22DECFB1
:101836004BF0DECF4CF0DECF4DF0DECF4EF0000E9B
:101846004F6E000E506E400E516E410E526ED0EC31
:101856001AF0D8B031EF0CF033EF0CF043EF0CF088
:10186600410E5B6E0E0E5C6E20EE14F05750D926BC
:101876005850DA22050EDE6E000EDD6E45EF0DF0D5
:10188600000E4B6E000E4C6E820E4D6E420E4E6E6C
:1018960020EE10F05750D9265850DA22DECF4FF0FE
:1018A600DECF50F0DECF51F0DECF52F0D0EC1AF0A2
:1018B600D8B060EF0CF062EF0CF0C0EF0CF020EE49
:1018C60010F05750D9265850DA22DECF4BF0DECF33
:1018D6004CF0DECF4DF0DECF4EF0000E4F6E000E18
:1018E600506EA00E516E420E526ED0EC1AF0D8B069
:1018F6007FEF0CF081EF0CF0C0EF0CF0AE0E4B6EEC
:10190600470E4C6E610E4D6E3E0E4E6E20EE08F08A
:101916005950D9265A50DA22DECF4FF0DECF50F09A
:10192600DECF51F0DECF52F0D0EC1AF0D8B09EEFF9
:101936000CF0A0EF0CF0B0EF0CF02C0E5B6E0E0E60
:101946005C6E20EE14F05750D9265850DA22060E57
:10195600DE6E000EDD6E45EF0DF0550E5B6E0E0E63
:101966005C6E20EE14F05750D9265850DA22010E3C
:10197600DE6E000EDD6E45EF0DF0000E4B6E000EB6
:101986004C6E900E4D6E410E4E6E20EE10F057507E
:10199600D9265850DA22DECF4FF0DECF50F0DECF18
:1019A60051F0DECF52F0D0EC1AF0D8B0DDEF0CF0EB
:1019B600DFEF0CF03BEF0DF020EE10F05750D9267C
:1019C6005850DA22DECF4BF0DECF4CF0DECF4DF0B2
:1019D600DECF4EF0000E4F6E000E506ED80E516EDA
:1019E600410E526ED0EC1AF0D8B0FCEF0CF0FEEFC0
:1019F6000CF03BEF0DF05C0E4B6E8F0E4C6E020E34
:101A06004D6E3F0E4E6E59C0D9FF5AC0DAFFDECF7B
:101A16004FF0DECF50F0DECF51F0DECF52F0D0ECFB
:101A26001AF0D8B019EF0DF01BEF0DF02BEF0DF0FB
:101A3600480E5B6E0E0E5C6E20EE14F05750D926E3
:101A46005850DA22030EDE6E000EDD6E45EF0DF005
:101A56004F0E5B6E0E0E5C6E20EE14F05750D926BC
:101A66005850DA22070EDE6E000EDD6E45EF0DF0E1
:101A760020EE14F05750D9265850DA22080EDE6EA2
:101A8600000EDD6E5BC057F05CC058F012003E5091
:101A9600800B476E3E503E24496E3DAE55EF0DF02D
:101AA60057EF0DF058EF0DF049804950D8B45EEF6E
:101AB6000DF060EF0DF075EF0DF04928D8A466EF34
:101AC6000DF068EF0DF070EF0DF0000E3B6E000E9E
:101AD6003C6E000E3D6E000E3E6E3D8E000E3E6E5E
:101AE6007DEF0DF0000E3B6E000E3C6E000E3D6E5F
:101AF600000E3E6E4250800B486E47504818D8B4D0
:101B060087EF0DF089EF0DF08AEF0DF0478C42500C
:101B16004224486E41AE92EF0DF094EF0DF095EF32
:101B26000DF048804850D8B49BEF0DF09DEF0DF0B6
:101B3600B2EF0DF04828D8A4A3EF0DF0A5EF0DF0F5
:101B4600ADEF0DF0000E3F6E000E406E000E416EC2
:101B5600000E426E418E000E426EBAEF0DF0000E80
:101B66003F6E000E406E000E416E000E426E4950F2
:101B7600485CD8B0C1EF0DF0C3EF0DF0EAEF0DF001
:101B860047ACC8EF0DF0CAEF0DF0CCEF0DF0800EAC
:101B9600471A49C04AF048C049F04AC048F03BC01D
:101BA6004AF03FC03BF04AC03FF03CC04AF040C05C
:101BB6003CF04AC040F03DC04AF041C03DF04AC04A
:101BC60041F03EC04AF042C03EF04AC042F0000E2C
:101BD6004A6E495048C043F0446A435E000E445A78
:101BE60044BEFFEF0DF0445009E11A0E435CD8A045
:101BF600FFEF0DF001EF0EF038EF0EF03B503C100A
:101C06003D103E10D8A40AEF0EF00DEF0EF0010EB7
:101C16000EEF0EF0000E4A6E000E3B6E000E3C6E8E
:101C2600000E3D6E000E3E6E48C049F041EF0EF0CC
:101C36004AA020EF0EF022EF0EF028EF0EF0D8901B
:101C46004A3001094A6E2AEF0EF0D8904A323BA07C
:101C56002FEF0EF031EF0EF032EF0EF04A8E3E34DB
:101C66003E323D323C323B32492A4850495CD8A08C
:101C76003FEF0EF041EF0EF01BEF0EF047BC46EFC4
:101C86000EF048EF0EF088EF0EF04950D8A44EEF54
:101C96000EF050EF0EF05AEF0EF0000E3B6E000EF7
:101CA6003C6E000E3D6E000E3E6EA9EF0FF03F50EB
:101CB6003B2640503C2241503D2242503E223EA00F
:101CC60067EF0EF069EF0EF015EF0FF04AA06EEF1A
:101CD6000EF070EF0EF076EF0EF0D8904A30010954
:101CE6004A6E78EF0EF0D8904A323BA07DEF0EF0A8
:101CF6007FEF0EF080EF0EF04A8E3E343E323D32DC
:101D06003C323B32492A15EF0FF03F503B5C4050C6
:101D16003C5841503D583E50800A436E4250800A1E
:101D26004358D8B099EF0EF09BEF0EF0C6EF0EF0C9
:101D36003B503F5C436E3C504058446E3D504158CA
:101D4600456E3E504258466EFF0E43243B6EFF0ED4
:101D560044203C6EFF0E45203D6EFF0E46203E6E33
:101D6600800E471A4A6C4A50D8A4BCEF0EF0BEEF5C
:101D76000EF0CEEF0EF0010E3B26000E3C223D2269
:101D86003E22CEEF0EF03F503B5E40503C5A415053
:101D96003D5A42503E5A3B503C103D103E10D8A48E
:101DA600D7EF0EF0D9EF0EF00EEF0FF04A50D8A491
:101DB600DFEF0EF0E1EF0EF00EEF0FF0000E3B6ED0
:101DC600000E3C6E000E3D6E000E3E6EA9EF0FF04B
:101DD600D8903B363C363D363E364AAEF5EF0EF0F1
:101DE600F7EF0EF0F8EF0EF03B804AA0FDEF0EF095
:101DF600FFEF0EF003EF0FF0D8804A3605EF0FF035
:101E0600D8904A364950D8B40BEF0FF00DEF0FF0CB
:101E16000EEF0FF049063DAE13EF0FF015EF0FF082
:101E2600EBEF0EF0000E486E4AAE1CEF0FF01EEF01
:101E36000FF036EF0FF04AC043F07F0E4316D8B4CA
:101E460027EF0FF029EF0FF02DEF0FF0010E486E80
:101E560036EF0FF03BA032EF0FF034EF0FF036EF16
:101E66000FF029EF0FF04850D8B43CEF0FF03EEFDB
:101E76000FF069EF0FF0010E3B26000E3C223D22CB
:101E86003E223EA049EF0FF04BEF0FF069EF0FF047
:101E96003BC043F03CC044F03DC045F03EC046F078
:101EA6004634463245324432433243C03BF044C0A6
:101EB6003CF045C03DF046C03EF04928D8B466EF38
:101EC6000FF068EF0FF069EF0FF0492A4928D8B4F0
:101ED6006FEF0FF071EF0FF079EF0FF04950D8A4C4
:101EE60077EF0FF079EF0FF08BEF0FF0000E3B6EF0
:101EF600000E3C6E000E3D6E000E3E6E4950D8A49C
:101F060087EF0FF089EF0FF08BEF0FF0000E476EA3
:101F160049A090EF0FF092EF0FF095EF0FF03D8E86
:101F260096EF0FF03D9ED89049303E6E47AE9EEF3D
:101F36000FF0A0EF0FF0A1EF0FF03E8E3BC03BF08D
:101F46003CC03CF03DC03DF03EC03EF012007C88F7
:101F5600BDEF11F0C2C01BF0C3C01CF0C4C01DF021
:101F6600C5C01EF0F8EC1EF0C2C020F0C3C021F0C0
:101F7600C4C022F0C5C023F0CCEC20F0290E586E68
:101F8600960E576E7F0EE82EFED7572EFCD7582E8C
:101F9600FAD700F0000E0001F86F000E616F010E17
:101FA600606FC6C0D0F0C7C0D1F0D1BFDFEF0FF071
:101FB600DDEF0FF0E1EF0FF0BDEF11F07C88110EB1
:101FC600586E3C0E576ECB0EE82EFED7572EFCD71A
:101FD600582EFAD700F0D8900001D035D96ED135F9
:101FE600DA6EC851D926C951DA22DE50DE10D8A4DD
:101FF600FFEF0FF001EF10F00DEF10F0C2C021F06F
:10200600C3C022F0C4C023F0C5C024F0BBEC1FF04F
:10201600E5EF10F0D890D035D96ED135DA6EC851CB
:10202600D926C951DA22DE04DE10D8A41DEF10F03D
:102036001FEF10F02BEF10F0C2C021F0C3C022F04A
:10204600C4C023F0C5C024F0F9EC1FF0E5EF10F092
:10205600D890D035D96ED135DA6EC851D926C95146
:10206600DA22020EDE18DE10D8A43CEF10F03EEFA6
:1020760010F04AEF10F0C2C024F0C3C025F0C4C06F
:1020860026F0C5C027F0A2EC20F0E5EF10F0D890BE
:10209600D035D96ED135DA6EC851D926C951DA2272
:1020A600030EDE18DE10D8A45BEF10F05DEF10F023
:1020B60069EF10F0C2C021F0C3C022F0C4C023F003
:1020C600C5C024F0A7EC1BF0E5EF10F0D890D03592
:1020D600D96ED135DA6EC851D926C951DA22040E25
:1020E600DE18DE10D8A47AEF10F07CEF10F088EF3F
:1020F60010F0C2C021F0C3C022F0C4C023F0C5C096
:1021060024F0FBEC1BF0E5EF10F0D890D035D96E3B
:10211600D135DA6EC851D926C951DA22050EDE1834
:10212600DE10D8A499EF10F09BEF10F0A7EF10F097
:10213600C2C021F0C3C022F0C4C023F0C5C024F041
:10214600A2EC1CF0E5EF10F0D890D035D96ED13561
:10215600DA6EC851D926C951DA22060EDE18DE100B
:10216600D8A4B8EF10F0BAEF10F0C6EF10F0C2C066
:1021760021F0C3C022F0C4C023F0C5C024F0F4ECA3
:102186001CF0E5EF10F0D890D035D96ED135DA6E67
:10219600C851D926C951DA22070EDE18DE10D8A496
:1021A600D7EF10F0D9EF10F0E5EF10F0C2C014F041
:1021B600C3C015F0C4C016F0C5C017F04FEC1CF034
:1021C600E5EF10F07C88000E0001CC6F000ECD6F9D
:1021D600000ECE6F000ECF6FE7EC22F0C2C014F0F7
:1021E600C3C015F0C4C016F0C5C017F03BEC1FF015
:1021F600D8900001D035D96ED135DA6ED890D9365F
:10220600DA36CA51D926CB51DA22030EDBBE10EFDD
:1022160011F00EEF11F056EF11F01CEF11F071EC0A
:1022260020F033C0CCF034C0CDF035C0CEF036C08F
:10223600CFF0CCC04BF0CDC04CF0CEC04DF0CFC0EF
:102246004EF0000E3F6E000E406E960E416E430E2F
:10225600426ED8900001D035D96ED135DA6ED8905D
:10226600D936DA36CA51D926CB51DA22DECF3BF03F
:10227600DECF3CF0DECF3DF0DECF3EF04AEC0DF097
:102286003BC04FF03CC050F03DC051F03EC052F054
:10229600D0EC1AF0D8A052EF11F054EF11F012EF73
:1022A60011F0ADEF11F0000E4B6E000E4C6E000EED
:1022B6004D6E000E4E6ED890D035D96ED135DA6E91
:1022C600D890D936DA36CA51D926CB51DA22DECFA2
:1022D6004FF0DECF50F0DECF51F0DECF52F0D0EC33
:1022E6001AF0D8B079EF11F07BEF11F0ADEF11F0E5
:1022F60087EF11F071EC20F033C0CCF034C0CDF094
:1023060035C0CEF036C0CFF0CCC04BF0CDC04CF0CF
:10231600CEC04DF0CFC04EF0D8900001D035D96E6A
:10232600D135DA6ED890D936DA36CA51D926CB519C
:10233600DA22DECF4FF0DECF50F0DECF51F0DECF27
:1023460052F0D0EC1AF0D8A0ABEF11F0ADEF11F0CF
:102356007DEF11F0C2C014F0C3C015F0C4C016F072
:10236600C5C017F04FEC1CF00001D007D8A0D1076C
:10237600D8EF0FF0000160516111D8B4C5EF11F02C
:10238600C7EF11F0ADEF0FF0C2C014F0C3C015F0E7
:10239600C4C016F0C5C017F04FEC1CF0520E586EB4
:1023A6002B0E576E000EE82EFED7572EFCD7582E52
:1023B600FAD700D07C9812001D50800B266E1D5057
:1023C6001D242C6E1CAEEAEF11F0ECEF11F0EDEFD0
:1023D60011F02C802C50D8B4F3EF11F0F5EF11F07A
:1023E60008EF12F02C28D8A4FBEF11F0FDEF11F046
:1023F60005EF12F0000E1A6E000E1B6E000E1C6E1C
:10240600000E1D6E1C8E10EF12F0000E1A6E000EDE
:102416001B6E000E1C6E000E1D6E2150800B261AC0
:10242600215021242B6E20AE1BEF12F01DEF12F06F
:102436001EEF12F02B802B50D8B424EF12F026EFAB
:1024460012F039EF12F02B28D8A42CEF12F02EEF51
:1024560012F036EF12F0000E1E6E000E1F6E000E0A
:10246600206E000E216E208E41EF12F0000E1E6EC1
:10247600000E1F6E000E206E000E216E2B50D8B47B
:1024860047EF12F049EF12F051EF12F02C50D8A49A
:102496004FEF12F051EF12F05BEF12F0000E1A6ED2
:1024A600000E1B6E000E1C6E000E1D6EF3EF13F079
:1024B60020501A02F3CF31F0F4CF32F03150276EAC
:1024C600286A296A2A6A32502D6E2E6A2F6A306A65
:1024D6001F501B02F3CF31F0F4CF32F031502726D4
:1024E600000E282229222A2232502D26000E2E22C4
:1024F6002F2230221E501C02F3CF31F0F4CF32F0DF
:1025060031502726000E282229222A2232502D2633
:10251600000E2E222F22302229C02AF028C029F0B0
:1025260027C028F0276A1E501B02F3CF31F0F4CFE4
:1025360032F03150272632502822000E2922000E72
:102546002A221F501A02F3CF31F0F4CF32F0315065
:10255600272632502822000E2922000E2A2229C0C0
:102566002AF028C029F027C028F0276A1E501A0230
:10257600F3CF31F0F4CF32F03150272632502822F3
:10258600000E2922000E2A2220501B02F3CF31F022
:10259600F4CF32F031502D2632502E22000E2F224B
:1025A600000E30221F501C02F3CF31F0F4CF32F070
:1025B60031502D2632502E22000E2F22000E3022B0
:1025C60020501C02F3CF31F0F4CF32F03150226E9E
:1025D6003250236E246A256A24C025F023C024F0D5
:1025E60022C023F0226A22502D2623502E22245068
:1025F6002F222550302227C022F028C023F029C0E0
:1026060024F02AC025F0190E0EEF13F0D8902532CB
:10261600243223322232E82E09EF13F022502D26DF
:1026260023502E2224502F222550302229C02AF052
:1026360028C029F027C028F0276A2B502CC022F08A
:10264600236A2226000E2322820E2224316EFF0EDA
:102656002320326E44EF13F0D8902D362E362F36C7
:1026660030362AAE39EF13F03BEF13F03CEF13F0A0
:102676002D80D8902736283629362A363106D8A016
:1026860032062FAE49EF13F04BEF13F02FEF13F096
:10269600000E2B6E2AAE52EF13F054EF13F078EFC4
:1026A60013F0FF0E2714226EFF0E2814236EFF0E62
:1026B6002914246E7F0E2A14256E2250231024100E
:1026C6002510D8B469EF13F06BEF13F06FEF13F02A
:1026D600010E2B6E78EF13F02DA074EF13F076EF4A
:1026E60013F078EF13F06BEF13F02B50D8B47EEFA6
:1026F60013F080EF13F0A4EF13F0010E2D26000E59
:102706002E222F22302230A08BEF13F08DEF13F004
:10271600A4EF13F02DC022F02EC023F02FC024F01A
:1027260030C025F02534253224322332223222C00D
:102736002DF023C02EF024C02FF025C030F0314AF2
:10274600322A32BEAFEF13F0325008E13128D8A05A
:10275600AFEF13F0B1EF13F0BBEF13F0000E2D6ED9
:10276600000E2E6E800E2F6E7F0E306EE9EF13F088
:1027760032BEC8EF13F0325006E13104D8B0C6EFCE
:1027860013F0C8EF13F0D4EF13F0000E2D6E000E09
:102796002E6E000E2F6E000E306E000E266EE9EFC6
:1027A60013F031C02CF0FF0E2D16FF0E2E167F0EE5
:1027B6002F16000E30162CA0E3EF13F0E5EF13F002
:1027C600E6EF13F02F8ED8902C30306E2650301254
:1027D6002DC01AF02EC01BF02FC01CF030C01DF00B
:1027E60012005650800B0001C66F56505624CD6F0E
:1027F60055AE00EF14F002EF14F003EF14F0CD81A4
:10280600CD51D8B409EF14F00BEF14F020EF14F00B
:10281600CD29D8A411EF14F013EF14F01BEF14F028
:10282600000E536E000E546E000E556E000E566E60
:10283600558E000E566E28EF14F0000E536E000EE5
:10284600546E000E556E000E566E5A50800BC61B07
:102856005A505A24CE6F59AE33EF14F035EF14F0B8
:1028660036EF14F0CE81CE51D8B43CEF14F03EEFE3
:1028760014F053EF14F0CE29D8A444EF14F046EF29
:1028860014F04EEF14F0000E576E000E586E000E48
:10289600596E000E5A6E598E000E5A6E5BEF14F08A
:1028A600000E576E000E586E000E596E000E5A6ED0
:1028B6005750581059105A10D8A464EF14F066EF08
:1028C60014F07EEF14F0000E536E000E546E000EE0
:1028D600556E000E566E800E55127F0E5612C6515C
:1028E600561253C053F054C054F055C055F056C05C
:1028F60056F0C1EF15F0CD51D8A484EF14F086EF51
:1029060014F090EF14F0000E536E000E546E000E8D
:10291600556E000E566EC1EF15F0CE51CDC05BF070
:102926005C6A5B5E000E5C5A7F0E5B24C76F000E0E
:102936005C20C86F53C0C2F054C0C3F055C0C4F089
:1029460056C0C5F0000E536E000E546E000E556E46
:10295600000E566E000EC96F000ECA6F000ECB6FCA
:10296600000ECC6F000ECE6FF1EF14F0CE51D8B43E
:10297600BFEF14F0C1EF14F0D8EF14F0D890C237BF
:10298600C337C437C537D8905336543655365636BE
:10299600CCAFD0EF14F0D2EF14F0D3EF14F0538095
:1029A600D890C937CA37CB37CC375750C25D585045
:1029B600C3595950C4595A50C559D8A0E5EF14F017
:1029C600E7EF14F0F0EF14F0CC8D5750C25F58507B
:1029D600C35B5950C45B5A50C55BCE2B190ECE65EE
:1029E600F7EF14F0F9EF14F0B9EF14F0C251C31178
:1029F600C411C511D8B402EF15F004EF15F01CEFA1
:102A060015F0C9811CEF15F0D8905336543655365B
:102A16005636CCAF11EF15F013EF15F014EF15F095
:102A26005380D890C937CA37CB37CC37C707D8A019
:102A3600C80755AE21EF15F023EF15F007EF15F097
:102A4600000ECE6FCCAF2AEF15F02CEF15F050EF3D
:102A560015F0FF0EC9155B6EFF0ECA155C6EFF0EF4
:102A6600CB155D6E7F0ECC155E6E5B505C105D10F7
:102A76005E10D8B441EF15F043EF15F047EF15F0AF
:102A8600010ECE6F50EF15F053A04CEF15F04EEF40
:102A960015F050EF15F043EF15F0CE51D8B456EFC0
:102AA60015F058EF15F07CEF15F0010E5326000EC9
:102AB60054225522562256A063EF15F065EF15F005
:102AC6007CEF15F053C05BF054C05CF055C05DF070
:102AD60056C05EF05E345E325D325C325B325BC0A5
:102AE60053F05CC054F05DC055F05EC056F0C74B65
:102AF600C82BC8BF87EF15F0C85108E1C729D8A071
:102B060087EF15F089EF15F094EF15F0000EC86FFA
:102B1600C769000E536E000E546E000E556E000E01
:102B2600566EC8BFA1EF15F0C85106E1C705D8B06B
:102B36009FEF15F0A1EF15F0AFEF15F0000EC86F7F
:102B4600000EC76F000E536E000E546E000E556ECB
:102B5600000E566E000EC66FC7C0CDF0CDA1B6EF03
:102B660015F0B8EF15F0BBEF15F0558EBCEF15F06C
:102B7600559ED890CD31566E72EF14F01200F5ECDA
:102B860020F005C00CF006C00DF00E6A0F6A000EAC
:102B9600BDEC18F00CC0DBF00DC0DCF00EC0DDF0B3
:102BA6000FC0DEF01DEC21F005C00CF006C00DF0E4
:102BB6000E6A0F6A000EBDEC18F00CC0DFF00DC0F7
:102BC600E0F00EC0E1F00FC0E2F06DEC21F005C0C0
:102BD6000CF006C00DF00E6A0F6A000EBDEC18F080
:102BE6000CC0E3F00DC0E4F00EC0E5F00FC0E6F057
:102BF60045EC21F005C00CF006C00DF00E6A0F6A18
:102C0600000EBDEC18F00CC0D3F00DC0D4F00EC011
:102C1600D5F00FC0D6F0DFC03FF0E0C040F0E1C015
:102C260041F0E2C042F0DBC03BF0DCC03CF0DDC06E
:102C36003DF0DEC03EF04AEC0DF03BC0D7F03CC0A4
:102C4600D8F03DC0D9F03EC0DAF0D7C03BF0D8C0CE
:102C56003CF0D9C03DF0DAC03EF0E3C03FF0E4C03E
:102C660040F0E5C041F0E6C042F04AEC0DF03BC052
:102C7600E7F03CC0E8F03DC0E9F03EC0EAF0CFC066
:102C8600D9FFD0C0DAFFDBC0DEFFDCC0DEFFDDC06F
:102C9600DEFFDEC0DEFF000120EE08F0CF51D926B0
:102CA600D051DA22E3C0DEFFE4C0DEFFE5C0DEFF7E
:102CB600E6C0DEFF20EE04F0CF51D926D051DA224D
:102CC600DFC0DEFFE0C0DEFFE1C0DEFFE2C0DEFF08
:102CD60020EE0CF0CF51D926D051DA22D3C0DEFF38
:102CE600D4C0DEFFD5C0DEFFD6C0DEFFDBC053F0AA
:102CF600DCC054F0DDC055F0DEC056F0E7C057F03A
:102D0600E8C058F0E9C059F0EAC05AF0F4EC13F004
:102D1600D1C0D9FFD2C0DAFF53C0DEFF54C0DEFFF8
:102D260055C0DEFF56C0DEFFE3C053F0E4C054F0EA
:102D3600E5C055F0E6C056F0E7C057F0E8C058F0D9
:102D4600E9C059F0EAC05AF0F4EC13F0000120EEA5
:102D560008F0D151D926D251DA2253C0DEFF54C031
:102D6600DEFF55C0DEFF56C0DEFFDFC053F0E0C019
:102D760054F0E1C055F0E2C056F0E7C057F0E8C0A5
:102D860058F0E9C059F0EAC05AF0F4EC13F000012B
:102D960020EE04F0D151D926D251DA2253C0DEFFFB
:102DA60054C0DEFF55C0DEFF56C0DEFF12009EECAB
:102DB60022F0FEEC21F050EC22F0BFEC22F0CCEC3D
:102DC60022F08CEC22F0000E026E630E016E27ECF0
:102DD6001EF0000E0001B96F010EBA6F010EBB6F37
:102DE600AA0EBE6F0F0EBF6FA60EC06F0F0EC16F7D
:102DF600000EBD6F630EBC6F000EB06F010EB16F9B
:102E0600010EB26F250EB56F0F0EB66F210EB76F9E
:102E16000F0EB86F000EB46F630EB36F86840E018B
:102E2600B4958EB419EF17F01BEF17F014EF17F0E7
:102E3600290E0001EC6F960EEB6F7F0EE82EFED783
:102E4600EB2FFCD7EC2FFAD7E7EC22F0000E0001AF
:102E5600ED6F010E1EEC22F0D7EF17F0B90E146ECF
:102E6600000E156EB00E166E000E176E3BEC1FF0C0
:102E760084EF17F08E0ECF6F000ED06FA40ED16FB9
:102E8600000ED26FC2EC15F0000E4B6E000E4C6EAB
:102E9600960E4D6E430E4E6E9AC04FF09BC050F08C
:102EA6009CC051F09DC052F0D0EC1AF0D8B05EEF45
:102EB60017F060EF17F084EF17F062C04BF063C0B5
:102EC6004CF0000E4D6E010E4E6E46EC1DF0010EDE
:102ED6000001ED6F090E0001EC6F1E0EEB6FE40EA4
:102EE600E82EFED7EB2FFCD7EC2FFAD700F0B90E61
:102EF600146E000E156EB00E166E000E176E4FECA9
:102F06001CF00001ED51D8B48BEF17F08DEF17F0E0
:102F16003DEF17F08E0ECF6F000ED06FA40ED16F5F
:102F2600000ED26FC2EC15F0000E0001ED6F8E0E92
:102F3600CF6F000ED06F33EC07F08E0E576E000E7B
:102F4600586EA40E596E000E5A6EC9EC0AF08E0E1B
:102F5600016E000E026E62C003F063C004F0660EDE
:102F6600056E000E066E38EC22F08E0E5B6E000EBD
:102F76005C6EE3EC17F0070E0001A219A311D8A4AA
:102F8600C7EF17F0C9EF17F0D2EF17F060516111D4
:102F9600D8B4D0EF17F0D2EF17F0C9EF17F0E7EC7F
:102FA60022F00001624B632B000160516111D8B41D
:102FB600DFEF17F0E1EF17F031EF17F016EF00F043
:102FC60020EE14F05B50D9265C50DA22DE50DE107B
:102FD600D8A4F0EF17F0F2EF17F0FEEF17F0B90EE6
:102FE600216E000E226EB00E236E000E246EBBEC18
:102FF6001FF0BCEF18F020EE14F05B50D9265C50A1
:10300600DA22DE04DE10D8A40BEF18F00DEF18F06C
:1030160019EF18F0B90E216E000E226EB00E236E57
:10302600000E246EF9EC1FF0BCEF18F020EE14F041
:103036005B50D9265C50DA22020EDE18DE10D8A4C8
:1030460027EF18F029EF18F035EF18F0B90E246EB7
:10305600000E256EB00E266E000E276EA2EC20F036
:10306600BCEF18F020EE14F05B50D9265C50DA2243
:10307600030EDE18DE10D8A443EF18F045EF18F063
:1030860051EF18F0B90E216E000E226EB00E236EAF
:10309600000E246EA7EC1BF0BCEF18F020EE14F027
:1030A6005B50D9265C50DA22040EDE18DE10D8A456
:1030B6005FEF18F061EF18F06DEF18F0B90E216EA2
:1030C600000E226EB00E236E000E246EFBEC1BF07B
:1030D600BCEF18F020EE14F05B50D9265C50DA22D3
:1030E600050EDE18DE10D8A47BEF18F07DEF18F081
:1030F60089EF18F0B90E216E000E226EB00E236E07
:10310600000E246EA2EC1CF0BCEF18F020EE14F0BA
:103116005B50D9265C50DA22060EDE18DE10D8A4E3
:1031260097EF18F099EF18F0A5EF18F0B90E216E89
:10313600000E226EB00E236E000E246EF4EC1CF010
:10314600BCEF18F0B90E0001C26F000EC36FB00ECF
:10315600C46F000EC56F62C0C6F063C0C7F0660ECE
:10316600C86F000EC96F000ECA6F010ECB6FAAECB6
:103176000FF01200146E1450D8B4C4EF18F0C6EF56
:1031860018F0E8EF18F00FBECDEF18F0CBEF18F0FF
:10319600E8EF18F00CC010F00DC011F00EC012F0E0
:1031A6000FC013F0101E111E121E131E102A000E41
:1031B60011221222132210C016F011C017F012C0ED
:1031C60018F013C019F0F0EF18F00CC016F00DC08F
:1031D60017F00EC018F00FC019F00C500D100E109D
:1031E6000F10D8A4F9EF18F0FBEF18F005EF19F05F
:1031F600000E0C6E000E0D6E000E0E6E000E0F6EA3
:1032060096EF19F0960E156E0FEF19F0152AD89055
:103216001932183217321632000E1614106E000EBE
:103226001714116E000E1814126EFE0E1914136E7A
:103236001050111012101310D8A424EF19F026EF15
:1032460019F009EF19F034EF19F0152A010E1626B8
:10325600000E172218221922D89019321832173266
:103266001632000E1614106E000E1714116E000E94
:103276001814126EFF0E1914136E1050111012103E
:103286001310D8A449EF19F04BEF19F028EF19F0F5
:1032960053EF19F01506D890163617361836193624
:1032A60018BE58EF19F05AEF19F062EF19F0020E36
:1032B600156060EF19F062EF19F04DEF19F015B0D7
:1032C60067EF19F069EF19F06AEF19F0189ED890B8
:1032D600153215C010F0116A126A136A10C013F085
:1032E600126A116A106A10501612115017121250F3
:1032F6001812135019121450D8B484EF19F086EF2F
:1033060019F08EEF19F00FBE8DEF19F08BEF19F053
:103316008EEF19F0198E16C00CF017C00DF018C0FC
:103326000EF019C00FF0120020EE02F00E50D92652
:103336000F50DA22DF50D8B4A3EF19F0A5EF19F039
:10334600D9EF19F00EC0D9FF0FC0DAFFDF50106EAB
:103356001050016E026A20EE03F00E50D9260F506F
:10336600DA22DECF03F0DDCF04F079EC22F001C0E3
:1033760007F002C008F0000E0A6E640E096E37EC04
:1033860020F020EE03F00E50D9260F50DA22DF503F
:10339600116E0750115C126E20EE03F00E50D92606
:1033A6000F50DA22DF50136EFCEF19F0000E126E8A
:1033B6000EC0D9FF0FC0DAFFDF50106E1050016E3D
:1033C600026A20EE03F00E50D9260F50DA22DECF25
:1033D60003F0DDCF04F079EC22F001C007F002C063
:1033E60008F0000E0A6E640E096E37EC20F00750E6
:1033F600136E20EE01F00E50D9260F50DA22DF5060
:10340600D8B408EF1AF00AEF1AF02CEF1AF020EEF3
:1034160005F00E50D9260F50DA22DECF10F0DDCFA0
:1034260011F010C0D9FF11C0DAFF12C0DFFF20EE85
:1034360007F00E50D9260F50DA22DECF10F0DDCF7E
:1034460011F010C0D9FF11C0DAFF13C0DFFF4CEF37
:103456001AF020EE05F00E50D9260F50DA22DECFF4
:1034660010F0DDCF11F010C0D9FF11C0DAFF13C084
:10347600DFFF20EE07F00E50D9260F50DA22DECFFE
:1034860010F0DDCF11F010C0D9FF11C0DAFF12C065
:10349600DFFF1200033404340A6E0A50D8A456EF34
:1034A6001AF058EF1AF062EF1AF0000E016E000ED5
:1034B600026E000E036E000E046ECFEF1AF001C00E
:1034C60005F002C006F003C007F004C008F0200EA5
:1034D60072EF1AF0D8900832073206320532E82E1B
:1034E6006DEF1AF00550096E038EFF0E0116FF0EE2
:1034F6000216FF0E0316000E0416960E0A5E0ABE8C
:1035060089EF1AF087EF1AF09FEF1AF00A50800A37
:10351600970FD8B091EF1AF093EF1AF095EF1AF0D3
:1035260058EF1AF0D89004320332023201320A3EC2
:1035360095EF1AF0B7EF1AF01F0E0A64A5EF1AF00E
:10354600A7EF1AF0AFEF1AF058EF1AF0D89001363D
:103556000236033604360A060A50D8A4B5EF1AF026
:10356600B7EF1AF0A9EF1AF00950D8B4BDEF1AF068
:10357600BFEF1AF0C7EF1AF0041E031E021E016CFD
:10358600000E02220322042201C001F002C002F052
:1035960003C003F004C004F01200000E4B14536E77
:1035A600000E4C14546E800E4D14556E7F0E4E1444
:1035B600566E5350541055105610D8A4E5EF1AF015
:1035C600E7EF1AF0EFEF1AF0000E4B6E000E4C6E9E
:1035D600000E4D6E000E4E6E000E4F14536E000E12
:1035E6005014546E800E5114556E7F0E5214566E42
:1035F6005350541055105610D8A404EF1BF006EF84
:103606001BF00EEF1BF0000E4F6E000E506E000EFC
:10361600516E000E526E4EAE13EF1BF015EF1BF0FF
:103626001EEF1BF04B6C4C1ED8B04C2A4D1ED8B06A
:103636004D2A800E4E5652AE23EF1BF025EF1BF09F
:103646002EEF1BF04F6C501ED8B0502A511ED8B02A
:10365600512A800E5256000E4B1A000E4C1A000EBE
:103666004D1A800E4E1A000E4F1A000E501A000EFA
:10367600511A800E521A4F504B5C50504C585150B4
:103686004D5852504E58D8B04BEF1BF04DEF1BF033
:1036960050EF1BF0D89051EF1BF0D8801200000EAF
:1036A6000114096E000E02140A6E800E03140B6ECE
:1036B6007F0E04140C6E09500A100B100C10D8A4BF
:1036C60067EF1BF069EF1BF071EF1BF0000E016E48
:1036D600000E026E000E036E000E046E000E051440
:1036E600096E000E06140A6E800E07140B6E7F0E0E
:1036F60008140C6E09500A100B100C10D8A486EF93
:103706001BF088EF1BF090EF1BF0000E056E000E0D
:10371600066E000E076E000E086E055001180FE1CA
:10372600065002180CE10750031809E10850041866
:10373600D8B4A0EF1BF0A2EF1BF0A5EF1BF0D890BA
:10374600A6EF1BF0D88012000001F851D8B4AEEFF6
:103756001BF0B0EF1BF0E6EF1BF021C01BF022C000
:103766001CF023C01DF024C01EF0F8EC1EF021C092
:1037760014F022C015F023C016F024C017F07BEC1D
:103786001FF0410E266EF00E256E330EE82EFED784
:10379600252EFCD7262EFAD700F021C01AF022C01B
:1037A6001BF023C01CF024C01DF0B4EC1EF021C099
:1037B6001AF022C01BF023C01CF024C01DF0B4EC8C
:1037C6001EF0FAEF1BF021C01AF022C01BF023C036
:1037D6001CF024C01DF06FEC1EF021C01AF022C0B0
:1037E6001BF023C01CF024C01DF06FEC1EF012006D
:1037F6000001F851D8B402EF1CF004EF1CF03AEFC8
:103806001CF021C01BF022C01CF023C01DF024C0F8
:103816001EF0F8EC1EF021C014F022C015F023C0F3
:1038260016F024C017F07BEC1FF0410E266EF00E4A
:10383600256E330EE82EFED7252EFCD7262EFAD778
:1038460000F021C01AF022C01BF023C01CF024C0D7
:103856001DF06FEC1EF021C01AF022C01BF023C031
:103866001CF024C01DF06FEC1EF04EEF1CF021C0C2
:103876001AF022C01BF023C01CF024C01DF0B4ECCB
:103886001EF021C01AF022C01BF023C01CF024C079
:103896001DF0B4EC1EF012007C8888EF1CF014C0FA
:1038A600D9FF15C0DAFFDF50D8B45CEF1CF05EEF2D
:1038B6001CF063EF1CF014C0D9FF15C0DAFFDF0659
:1038C60016C0D9FF17C0DAFFDF50D8B46DEF1CF071
:1038D6006FEF1CF074EF1CF016C0D9FF17C0DAFFAB
:1038E600DF0614C00EF015C00FF097EC19F016C0E5
:1038F6000EF017C00FF097EC19F0090E186E4E0E69
:10390600E82EFED7182EFCD700D014C0D9FF15C05C
:10391600DAFFDF50D8B492EF1CF094EF1CF0A0EF62
:103926001CF016C0D9FF17C0DAFFDF50D8A49EEFEF
:103936001CF0A0EF1CF052EF1CF07C981200000166
:10394600F851D8B4A9EF1CF0ABEF1CF0D5EF1CF082
:1039560021C01BF022C01CF023C01DF024C01EF0A5
:10396600F8EC1EF021C01AF022C01BF023C01CF098
:1039760024C01DF0B4EC1EF021C01AF022C01BF0CA
:1039860023C01CF024C01DF0B4EC1EF021C01AF0B8
:1039960022C01BF023C01CF024C01DF0B4EC1EF0A6
:1039A600F3EF1CF021C01AF022C01BF023C01CF05C
:1039B60024C01DF06FEC1EF021C01AF022C01BF0CF
:1039C60023C01CF024C01DF06FEC1EF021C01AF0BD
:1039D60022C01BF023C01CF024C01DF06FEC1EF0AB
:1039E60012000001F851D8B4FBEF1CF0FDEF1CF0FB
:1039F60027EF1DF021C01BF022C01CF023C01DF0D4
:103A060024C01EF0F8EC1EF021C01AF022C01BF0F4
:103A160023C01CF024C01DF06FEC1EF021C01AF06C
:103A260022C01BF023C01CF024C01DF06FEC1EF05A
:103A360021C01AF022C01BF023C01CF024C01DF0C8
:103A46006FEC1EF045EF1DF021C01AF022C01BF0EE
:103A560023C01CF024C01DF0B4EC1EF021C01AF0E7
:103A660022C01BF023C01CF024C01DF0B4EC1EF0D5
:103A760021C01AF022C01BF023C01CF024C01DF088
:103A8600B4EC1EF01200000E3F6E000E406EC80E23
:103A9600416EC30E426E71EC20F033C03BF034C071
:103AA6003CF035C03DF036C03EF04AEC0DF03BC070
:103AB6004FF03CC050F03DC051F03EC052F04FC0F8
:103AC6003BF050C03CF051C03DF052C03EF0000EFD
:103AD6003F6E000E406E960E416EC30E426E4AEC6D
:103AE6000DF03BC053F03CC054F03DC055F03EC015
:103AF60056F0D8904B34D96E4C34DA6ED890D9360D
:103B0600DA364D50D9264E50DA2253C0DEFF54C065
:103B1600DEFF55C0DEFF56C0DEFF120020EE01F0CC
:103B26001450D9261550DA22010EDF6E20EE01F070
:103B36001650D9261750DA22000EDF6E14C00EF08A
:103B460015C00FF097EC19F016C00EF017C00FF065
:103B560097EC19F0000E196E000E186E14C0D9FFFE
:103B660015C0DAFFDF2A16C0D9FF17C0DAFFDF2A31
:103B760014C00EF015C00FF097EC19F016C00EF039
:103B860017C00FF097EC19F0E40E00D000D0E82E25
:103B9600FCD700D000D0184A192A195009E1320E74
:103BA600185CD8A0D9EF1DF0DBEF1DF0B1EF1DF0CA
:103BB600120020EE01F01450D9261550DA22000E1C
:103BC600DF6E20EE01F01650D9261750DA22010ECC
:103BD600DF6E14C00EF015C00FF097EC19F016C08A
:103BE6000EF017C00FF097EC19F0000E196E000ECC
:103BF600186E14C0D9FF15C0DAFFDF2A16C0D9FF28
:103C060017C0DAFFDF2A14C00EF015C00FF097ECCC
:103C160019F016C00EF017C00FF097EC19F0E40E6D
:103C260000D000D0E82EFCD700D000D0184A192AC0
:103C3600195009E1320E185CD8A024EF1EF026EFC9
:103C46001EF0FCEF1DF012008594839E8598879CDC
:103C56007D947B9E7D987F9C050E0E01746F060EEB
:103C6600766F070E696F080E886FBD508F0B40097F
:103C7600BD6EE00EBE16BF50F00B0109BF6E01C04F
:103C8600BCFFBD8E000EAA6E000EA66E000E0F01C2
:103C9600256F000E216FFC0EAD16F30EAD16CF0E7E
:103CA600AD163F0EAD16AB88AB50F00B0C09AB6EE4
:103CB600AB8EA788A750F00B0C09A76EA78E268996
:103CC6002651F00B0C09266F268F22892251F00B04
:103CD6000C09226F228F12007E801AC014F01BC0BE
:103CE60015F01CC016F01DC017F04FEC1CF0050EA9
:103CF6001F6E0F0E1E6EF10EE82EFED71E2EFCD77F
:103D06001F2EFAD700F01AC014F01BC015F01CC005
:103D160016F01DC017F0DCEC1DF00C0E1F6EDA0E4F
:103D26001E6EBA0EE82EFED71E2EFCD71F2EFAD711
:103D360000D01AC014F01BC015F01CC016F01DC030
:103D460017F04FEC1CF0050E1F6E0F0E1E6EF10ED7
:103D5600E82EFED71E2EFCD71F2EFAD700F07E9037
:103D6600120080801AC014F01BC015F01CC016F09B
:103D76001DC017F04FEC1CF0090E1F6E1E0E1E6EB6
:103D8600E40EE82EFED71E2EFCD71F2EFAD700D043
:103D96001AC014F01BC015F01CC016F01DC017F099
:103DA60091EC1DF00C0E1F6EEF0E1E6E820EE82EAD
:103DB600FED71E2EFCD71F2EFAD71AC014F01BC032
:103DC60015F01CC016F01DC017F04FEC1CF0090EC4
:103DD6001F6E1E0E1E6EE40EE82EFED71E2EFCD79C
:103DE6001F2EFAD700D0809012001BC014F01CC002
:103DF60015F01DC016F01EC017F04FEC1CF0090E92
:103E0600206E1E0E1F6EE40EE82EFED71F2EFCD768
:103E1600202EFAD700D01BC014F01CC015F01DC010
:103E260016F01EC017F07BEC1FF0210E206E780EE8
:103E36001F6E980EE82EFED71F2EFCD7202EFAD71F
:103E460000D01BC014F01CC015F01DC016F01EC01B
:103E560017F04FEC1CF0090E206E1E0E1F6EE40EBE
:103E6600E82EFED71F2EFCD7202EFAD700D0120040
:103E760020EE01F01450D9261550DA22010EDF6E1D
:103E860020EE01F01650D9261750DA22010EDF6E09
:103E9600000E1A6E000E196E14C0D9FF15C0DAFF97
:103EA600DF2A16C0D9FF17C0DAFFDF2A14C00EF0CA
:103EB60015C00FF097EC19F016C00EF017C00FF0F2
:103EC60097EC19F0090E186E4E0EE82EFED7182E36
:103ED600FCD700D0194A1A2A1A5009E11E0E195C9D
:103EE600D8A078EF1FF07AEF1FF04FEF1FF0120007
:103EF60020EE01F01450D9261550DA22000EDF6E9E
:103F060020EE01F01650D9261750DA22000EDF6E89
:103F1600000E1A6E000E196E14C0D9FF15C0DAFF16
:103F2600DF2A16C0D9FF17C0DAFFDF2A14C00EF049
:103F360015C00FF097EC19F016C00EF017C00FF071
:103F460097EC19F0090E186E4E0EE82EFED7182EB5
:103F5600FCD700D0194A1A2A1A5009E1320E195C08
:103F6600D8A0B8EF1FF0BAEF1FF08FEF1FF01200C6
:103F76000001F851D8B4C2EF1FF0C4EF1FF0E4EF10
:103F86001FF021C01BF022C01CF023C01DF024C06E
:103F96001EF0F8EC1EF021C01AF022C01BF023C060
:103FA6001CF024C01DF0B4EC1EF021C01AF022C093
:103FB6001BF023C01CF024C01DF0B4EC1EF0F8EF7B
:103FC6001FF021C01AF022C01BF023C01CF024C031
:103FD6001DF06FEC1EF021C01AF022C01BF023C0AA
:103FE6001CF024C01DF06FEC1EF012000001F85109
:103FF600D8B400EF20F002EF20F022EF20F021C02D
:104006001BF022C01CF023C01DF024C01EF0F8ECEB
:104016001EF021C01AF022C01BF023C01CF024C0E1
:104026001DF06FEC1EF021C01AF022C01BF023C059
:104036001CF024C01DF06FEC1EF036EF20F021C0FE
:104046001AF022C01BF023C01CF024C01DF0B4ECF3
:104056001EF021C01AF022C01BF023C01CF024C0A1
:104066001DF0B4EC1EF01200000E0C6E000E0B6E6E
:1040760009500A10D8B442EF20F044EF20F06CEF5C
:1040860020F0010E0D6E4CEF20F0D89009360A365E
:104096000D2A0AAE51EF20F053EF20F048EF20F042
:1040A600D8900B360C360950075C0A500858D8A031
:1040B6005FEF20F061EF20F066EF20F00950075E19
:1040C6000A50085A0B80D8900A3209320D2E53EF47
:1040D60020F00BC007F00CC008F01200D3CF39F067
:1040E6003A6AD450386E376A3750391238503A1215
:1040F60039C00CF03AC00DF0000E0DBEFF0E0E6E6C
:104106000F6E010EBDEC18F00CC01AF00DC01BF0BE
:104116000EC01CF00FC01DF0BD0E1E6E370E1F6EBA
:10412600860E206E3F0E216EDFEC11F01AC033F0C2
:104136001BC034F01CC035F01DC036F01200000163
:10414600F851D8B4A9EF20F0ABEF20F0C1EF20F082
:1041560024C01BF025C01CF026C01DF027C01EF091
:10416600F8EC1EF024C020F025C021F026C022F075
:1041760027C023F0CCEC20F0CBEF20F024C020F0B9
:1041860025C021F026C022F027C023F0CCEC20F079
:10419600120020C01AF021C01BF022C01CF023C060
:1041A6001DF06FEC1EF020C01AF021C01BF022C0DB
:1041B6001CF023C01DF06FEC1EF020C01AF021C0C9
:1041C6001BF022C01CF023C01DF06FEC1EF020C0B7
:1041D6001AF021C01BF022C01CF023C01DF06FECAA
:1041E6001EF01200E2EC22F0520EC6EC22F0B60EE1
:1041F600C6EC22F0D8EC22F0530EC6EC22F0010EEB
:10420600DDEC21F0076E07500A6E0B6A000EDDEC3E
:1042160021F0076E0750096E086A0A5008100A6EE8
:104226000B5009100B6EDDEC22F00AC005F00BC036
:1042360006F01200E2EC22F0520EC6EC22F0B80EA6
:10424600C6EC22F0D8EC22F0530EC6EC22F0010E9A
:10425600DDEC21F0076E07500A6E0B6A000EDDECEE
:1042660021F0076E0750096E086A0A5008100A6E98
:104276000B5009100B6EDDEC22F00AC005F00BC0E6
:1042860006F01200E2EC22F0520EC6EC22F0B40E5A
:10429600C6EC22F0D8EC22F0530EC6EC22F0010E4A
:1042A600DDEC21F0076E07500A6E0B6A000EDDEC9E
:1042B60021F0076E0750096E086A0A5008100A6E48
:1042C6000B5009100B6EDDEC22F00AC005F00BC096
:1042D60006F01200E2EC22F0520EC6EC22F0BA0E04
:1042E600C6EC22F0D8EC22F0530EC6EC22F0010EFA
:1042F600DDEC21F0076E07500A6E0B6A000EDDEC4E
:1043060021F0076E0750096E086A0A5008100A6EF7
:104316000B5009100B6EDDEC22F00AC005F00BC045
:1043260006F01200A40EF66E450EF76E000EF86E3D
:1043360000EEEEF010EE0BF00900F5CFEEFFE550C3
:10434600E150FAE101EE00F0500EEE6AE806FDE1FA
:1043560000EE60F0620EEE6AE806FDE15F905F92A5
:10436600000EF86E0E0EF76E0001DAEF16F0000E74
:104376004F1A000E501A000E511A800E521A4BC0D8
:104386003BF04CC03CF04DC03DF04EC03EF04FC03F
:104396003FF050C040F051C041F052C042F04AECEC
:1043A6000DF03BC04BF03CC04CF03DC04DF03EC064
:1043B6004EF01200036E65EC22F00E01DA8765EC12
:1043C60022F0D5CE04F065EC22F00350D8B4EEEF1F
:1043D60021F0F2EF21F0026A022AF3EF21F0026ADD
:1043E600023A02460E01DA510218DF0B0218DA6FA2
:1043F600DA890450120050EC22F0010E036E000E12
:10440600AFEC22F03F0E056E550EE82EFED7052EB8
:10441600FCD700F0030E036E000EAFEC22F0D60EB2
:10442600036E010EAFEC22F07F9287927998819805
:104436007E9E869E1200016E0150D8B425EF22F0B2
:1044460027EF22F02CEF22F07F8279887E8E37EFDD
:1044560022F00150D8A432EF22F034EF22F037EFE9
:1044660022F07F9279987E9E120020EE14F0015081
:10447600D9260250DA22DECF07F0DDCF08F0D89039
:104486000334D96E0434DA6E0550D9260650DA2282
:1044960007C0DEFF08C0DDFF12000E01D951F00B88
:1044A6000809D96FD98B9F0ED66F848A848CA79BF7
:1044B600A79D1D0E1D6F1E0E1C6F1C0E6F6F1B0E13
:1044C600706F12000E01D8B56BEF22F06DEF22F07F
:1044D60065EF22F0DACE01F01F0E0116D8A476EFB2
:1044E60022F078EF22F065EF22F01200015003026D
:1044F600F3CF05F0F4CF06F001500402F350062680
:1045060002500302F350062605C001F006C002F071
:104516001200D6501F0B4009D66ED688D650F00B27
:104526000D09D66ED5880E01298B000ED46E000EAD
:10453600D36ED58E120083888382120E0E01626FAF
:10454600110E156FE997E895330EE56F000EE66FCD
:10455600E789E88BE78F1200046EE2EC22F0520E38
:10456600C6EC22F004508009C6EC22F00350C6ECDB
:1045760022F0DDEC22F012008498889086907C98D8
:1045860080907E901200026E65EC22F002C0D5FE8D
:1045960012000E012D87F28AF28CF28E12002C0187
:0945A60090012003930092000132
:1045B00065EC22F00E01DA83120065EC22F00E01A8
:1045C000DA85120065EC22F00E01DA811200000E8D
:0845D000D36E000ED46E120040
:020000040020DA
:10000000FF0FFF0FFF0FFF0FFF0FFF0FFF0FFF0F80
:020000040030CA
:0C000000AAFFFFFF9FFFFFFFFFFFFFFFB5
:00000001FF
